:020000040800F2
:100000000000012095BF050819C00508093E020837
:1000100019C0050819C0050819C00508000000002E
:1000200000000000000000000000000019C00508EA
:1000300019C005080000000019C00508D5570108BF
:1000400019C0050819C0050819C0050819C0050818
:1000500019C0050819C005089D3A0108A13A010810
:10006000A53A0108A93A0108AD3A0108ADB6000861
:10007000C1B60008D5B60008E9B60008FDB600080C
:1000800011B7000825B7000819C0050819C00508F0
:1000900019C0050819C0050819C00508B13A0108BA
:1000A000EDBD000811BD000801BE0008FDBC000840
:1000B00039BD00084DBD000861BD0008B1AC0008A5
:1000C000A5AC0008C9AC0008BDAC000819C0050803
:1000D00019C00508C9C00008D5C00008E1C0000863
:1000E000B53A010819C0050819C0050815BE000871
:1000F0009DBD0008C5BD000889BD000839B70008CE
:1001000019C0050819C0050875BD000819C0050803
:10011000EDC0000819C0050819C00508DDCE0008AB
:100120004DB7000861B7000875B7000889B7000827
:100130009DB7000800000000000000000000000063
:1001400000000000000000000000000073C2000872
:10015000B1B70008C5B70008D9B70008F9C0000852
:10016000E1AC0008D5AC000819C0050819C00508A5
:1001700019C0050819C005080000000000000000B3
:1001800019C0050819C0050819C0050819C00508D7
:1001900019C0050819C005080000000019C00508AD
:1001A00000000000000000000000000019C0050869
:1001B00019C0050819C00508000000000000000073
:1001C000000000000000000000000000000000002F
:1001D00000000000000000000000000019C0050839
:0801E000E0BA05000100000077
:1001E800F42E02200201000004002234142F022001
:1001F8000203000004002234342F02200208000009
:1002080004002234542F0220020900000400223482
:10021800742F0220010C000000007600942F0220A9
:100228000110000000007600B42F0220010D01002B
:1002380000007700D42F0220011200000000760091
:10024800F42F02200114000000001E0014300220C8
:10025800011A000000000D0034300220011B0000CC
:1002680000000E0054300220011C000000001E0097
:10027800743002200117000000000C0094300220A6
:100288000118000000000E00B4300220011900001F
:1002980000000C00D43002200229010000012C00CB
:1002A800F430022002300000000242001431022023
:1002B8000132000000003C0034310220013500000A
:1002C80000002000543102200136000000002900FF
:10800000836B1A6C12F0500F21D11A6C42F400727B
:108010001A641A68916811F0405F1BD19969C9B957
:10802000D16A11F4700F02D09168490512D45168D9
:1080300021F0200151601A6C22F480721A641A6CCB
:10804000D20407D41A6C42F001021A6470479B6B89
:10805000DB6C184770477047836B40221A645A6C78
:1080600042F004025A64704790F83530022B03D076
:1080700080234365012070470268052380F835306E
:108080000020136823F00103136070470268436BFC
:108090009169126803B118477047836B19684A6881
:1080A00042F400424A600022996B0A65D96B0A6566
:1080B00093F84120602A02D1202283F841207047A2
:1080C000F0B5059D06680C4FB46931EA04040CBF95
:1080D00001240024944201D000200CE03C68641B81
:1080E0009C42F1D9202380F84130002380F84230AF
:1080F00080F840300320F0BDD821012030B504685D
:10810000039D60682B4320F07F700B4320F45930AF
:1081100043EA024320F47F7020F0030003436360CE
:1081200030BD836B0022A3F85A20A3F85220704779
:10813000436ADA0710B506D50168846A4A6822F4F2
:10814000003222434A609C0706D50168C46A4A6827
:1081500022F4803222434A60590706D50168046B35
:108160004A6822F4802222434A601A0706D5016831
:10817000446B4A6822F4004222434A60DC0606D57A
:108180000168846B8A6822F4805222438A609906CF
:1081900006D50168C46B8A6822F4005222438A60C3
:1081A0005A0610D50168046C4A68B4F5801F22F4A1
:1081B000801242EA04024A6005D14A68446C22F403
:1081C000C00222434A601B0606D50268816C5368D0
:1081D00023F400230B43536010BD0F4B984215D07E
:1081E000A3F57843984213D003F58063984211D0E9
:1081F00003F57843984208D10323084A142101FB70
:108200000322138A01339BB2138270470023F4E7E1
:108210000123F2E70223F0E70030014000000120D3
:10822000036920221F2B70B544682DD9A3F12005C6
:108230006168AA400A4226D08069027C022A01D1E4
:108240000022027445681F2B134A2969C1F30321D8
:1082500002EB81018968565CC1684868815921F048
:108260000101815128686D79C16802EB4502128DC8
:1082700002F4F05221EA0202C2604FF0200206D955
:10828000203B9A40E26070BD21689A40D2E702FA32
:1082900003F3A360F7E700BFA01B0608D0E907239C
:1082A0009A422FBFD01AC0688018C01A7047D0E910
:1082B000092300699A4238BF12180138D31AC01A2C
:1082C0007047D0E90902131A5842584170470246D4
:1082D000036A4169C85C0133D1688B4228BF00231F
:1082E00013627047436A8269D154436A0269013359
:1082F000934228BF0023426B4362136843F080031C
:1083000013607047436BD86910F0100002D0102240
:1083100001201A6270477047704701207047014B77
:1083200058687047D8210120034B93F80402C31EFC
:1083300058425841704700BFD8210120012380F8DE
:108340004930704708B5D0F814320BB9022008BD87
:108350001B6898470028FAD0F8E7D0F818321BB10C
:108360000020C3F81402704702207047D0F8302272
:1083700001F00F01D0F8183210B51C2404FB0122C3
:1083800003F50371B2F81022C3F80C22D0F81C22B6
:10839000D3F80402D2689047002010BDD0F81C32F8
:1083A00010B56BB1D0F8184294F80002FF2807D03E
:1083B0009B68214694F801229847FF2384F80032F5
:1083C000002010BD43230380004870475000012067
:1083D0004323038000487047940001204323038017
:1083E00000487047D80001200A23038000487047E6
:1083F0001C01012020230380004870472801012030
:108400002023038000487047480101202023038077
:1084100000487047680101200A2303800048704724
:1084200088010120042301480B807047940101203A
:10843000002370B54D1C1E46040FB0F1204F4FEACB
:10844000001034BF3034373401F8134005F813609E
:108450000133DCB2A242EFD870BD1A2310B50B80F5
:10846000094BD3F8100AD3F8182A80180AD0D3F889
:10847000144A08220549FFF7DBFF04221031204689
:10848000FFF7D6FF024810BD0070F01F9A010120CF
:108490009801012000207047212808B51CD022280F
:1084A0002CD0202816D1A9B1072A13D11A4B08794C
:1084B0000A6883F8B80148798979C3F8B42183F848
:1084C000B90183F8BA11154BD3F83C3213B11146F8
:1084D00000209847002008BD0029FBD0072AF9D1C9
:1084E0000D4BD3F8B4210A6093F8B8210A7193F8C0
:1084F000B92193F8BA314A718B71EBE70029E9D0C1
:10850000022AE7D1054BD3F84032002BE2D009888C
:1085100000209847DEE700BF00000120D82101209D
:10852000064AD2E99132934203F1FF338CBF002017
:1085300001209B1A03EB0030704700BFD8210120B7
:10854000EEE74FF4007300201380024BD3F858324B
:108550000B607047D8210120002070470120704730
:10856000012070470020704730B414461A69A242B7
:1085700009D30D199B69AA4238BF111B0A46E1189D
:1085800030BC58F02BBF30BC704738B500250446CE
:1085900080F8425090F84130292B0AD1282301213C
:1085A00080F841302123036352F03AFC84F84050B4
:1085B00038BD90F841302A2BFAD12823022180F8C7
:1085C000413022230363EFE7154B202210B5C3622D
:1085D000002304460363436380F8412080F842305F
:1085E0004B0711D503685A6A436A591C41621A70D5
:1085F000038D4BB1013B0385438D013B9BB243850A
:10860000436C43F0040343640721204652F008FC06
:1086100023681022DA61002384F8403010BD00BFC7
:108620000000FFFF0022304B10B580F842200446C6
:10863000C3624285436C1943416490F84130282B52
:1086400007D090F84130292B03D090F841302A2BE5
:1086500021D10321204652F0E3FB282384F8413046
:1086600000232363214B6363236819681A6811F49C
:1086700080411DD022F48042A06B1A601C4B036520
:10868000002384F84030FFF7EFFC58B3A06B036D74
:10869000BDE810401847072152F0C2FB94F8413062
:1086A000602B02D0202384F8413000232363DAE7D3
:1086B00012F400420DD01A68E06B22F400421A60F6
:1086C0000B4B036584F84010FFF7CEFC50B1E06B14
:1086D000DDE794F84130602B02D1202384F841304B
:1086E00084F8402010BD00BF0000FFFFF1A100088A
:1086F0009B800008036899691A6810B4CC0508D5F6
:10870000140606D5446C44F0010444644FF48074AC
:10871000DC614C0508D5140606D5446C44F0080409
:1087200044644FF48064DC61890508D5120606D5DF
:10873000426C42F0020242644FF40072DA61436C10
:1087400013F00B0F03D0416C5DF8044B6AE75DF842
:10875000044B704703682DE9F04F13F0010885B012
:1087600000F0C881AC4A916821F400019160C16AAF
:1087700094680C43B1FA81F14909946013F400261E
:1087800000F0BA81A44D426BD5F88C40B2F5801F41
:1087900024F4401444EA0204C5F88C4000F0AE8191
:1087A000B2FA82F2520913F48014019411D0DFF866
:1087B00068C2856BDCF88C40B5F5800F24F440046A
:1087C00044EA0504CCF88C4000F09B81002D08BFE2
:1087D00001229F0638D5904CDFF844C2256C45F045
:1087E00080552564246C04F080540394039C8B4CC6
:1087F000256845F480752560DCF800E02568ED0506
:1088000040F18181844C856AD4F870E005F44079A8
:108810001EF4407E40F08281B9F5407F7E4C40F0EE
:10882000A981D4F808C025F0704E2CF4F81C2EF461
:10883000407E4CEA0E0CC4F808C0C5F30B05D4F812
:1088400070C045EA0C052567DC060CD5724DD5F8DD
:108850008C4024F08074C5F88C40D5F88C40076BB0
:108860003C43C5F88C405F0409D5DFF8ACC1C46D4A
:10887000DCF8905025F440352C43CCF890401D0492
:1088800009D5DFF894C1046EDCF8905025F440253A
:108890002C43CCF89040DC0309D5DFF87CC1446E52
:1088A000DCF8905025F440152C43CCF890405F063E
:1088B00009D5DFF864C1C46BDCF8905025F00305DE
:1088C0002C43CCF890401D0609D5DFF84CC1046C50
:1088D000DCF8905025F00C052C43CCF89040DC05DA
:1088E00009D5DFF834C1446CDCF8905025F0300530
:1088F0002C43CCF890409F0509D5DFF81CC1846C4F
:10890000DCF8905025F0C0052C43CCF890405D0574
:1089100009D5DFF804C1C46CDCF8905025F440752B
:108920002C43CCF890401C0509D5DFF8ECC0046D51
:10893000DCF8905025F440652C43CCF89040DF04DF
:1089400009D5DFF8D4C0446DDCF8905025F44055CB
:108950002C43CCF890409D0409D5DFF8BCC0846D51
:10896000DCF8905025F440452C43CCF8904013F4AB
:1089700000150FD0DFF8A0E0D0F874C0DEF890400A
:10898000BCF1006F24F0006408BF012244EA0C042B
:10899000CEF890405C030AD5DFF87CE0DEF890402A
:1089A00024F0407CC46E4CEA0404CEF890401F02D0
:1089B0000AD5DFF864E0DEF8904024F0805C846F34
:1089C0004CEA0404CEF890405C0140F1D880DFF816
:1089D00048E0DEF8904024F0005CC46F4CEA0404E8
:1089E000CEF89040002940F0CF80012A40F08080EE
:1089F000094B0B491A6822F080521A600C681A68F9
:108A0000970000F178810EB1426B5AB1019A002AA9
:108A100038D0826BB2BB05E00038024000700040E5
:108A2000D8210120D3F888404FF4403696FAA6FEAC
:108A300047F6C072BEFA8EFE92FAA2F2B2FA82F73E
:108A400096FAA6F64FF0706CB6FA86F69CFAACFC75
:108A50000269BCFA8CFC04F44034BA40476924FA39
:108A60000EF407FA0CF7B4403A432243C3F88820C7
:108A7000D3F88C20046A22F4F852013C42EA042222
:108A8000C3F88C2055B3436FB3F1006F26D1A04DCE
:108A90004FF0706CD5F888209CFAACF747F6C0739D
:108AA000B7FA87F793FAA3F34FF44034B3FA83F697
:108AB00094FAA4F4B4FA84F49CFAACFC036902F0CE
:108AC00070628069BCFA8CFCB340FA4000FA04F48E
:108AD00002FA0CF223431343C5F888308C4B1A6812
:108AE00042F080521A6008681A68920040F10981C9
:108AF000002010E0414641E6324654E600220121C2
:108B000051E6012165E6DCF80050A5EB0E05642D69
:108B10007FF674AE032005B0BDE8F08FF1453FF459
:108B20007BAED4F870E0D4F870A02EF4407E4AF406
:108B3000803AC4F870A0D4F870A02AF4803AC4F83F
:108B400070A0C4F870E0D4F870E01EF0010F3FF49C
:108B500063AEDCF800A041F2883BD4F870E01EF070
:108B6000020F7FF459AEDCF800E0AEEB0A0EDE45F2
:108B7000F3D9CFE7D4F808C02CF4F81C5BE619B998
:108B8000B3F1007F7FF431AFDFF884E1DFF884C117
:108B9000DEF8001021F08061CEF80010DCF8004013
:108BA000DEF800100F0100F19F80B8F1000F2AD00D
:108BB000C16A41BBDEF884404FF0706898FAA8F9AA
:108BC00047F6C07BB9FA89F99BFAABFBBBFA8BFB82
:108BD00098FAA8F84FF0E04AB8FA88F89AFAAAFA90
:108BE0004168BAFA8AFA04F0706401FA0BFB8168F2
:108BF00024FA09F401FA0AF104FA08F44BEA010133
:108C00002143CEF884101EB1416BB1F5801F05D011
:108C10000199B9B3816BB1F5800F33D1DFF8F0E082
:108C20004FF0E048DEF8844098FAA8F947F6C07B98
:108C3000B9FA89F99BFAABFB4FF0706ABBFA8BFB70
:108C40009AFAAAFABAFA8AFA98FAA8F8416804F0E5
:108C5000E044B8FA88F801FA0BFBC16824FA09F479
:108C600001FA0AF104FA08F44BEA01012143CEF8B3
:108C70008410DEF88C40C16924F01F0401392143BF
:108C8000CEF88C109C011ED547F6C07393FAA3F35F
:108C90004FF07061B3FA83F491FAA1F14FF0E04E16
:108CA000B1FA81F19EFAAEFE4368BEFA8EFEA34091
:108CB000C46804FA01F10B43816801FA0EF10B4319
:108CC0001349C1F88430124B196841F08061196072
:108CD000DCF80040196809013FF587AEDCF80010A8
:108CE000091B6429F6D915E7DCF80010091B642973
:108CF0007FF656AF0EE70A68121B642A7FF67FAE36
:108D000008E70A68121A642A7FF6EEAE02E700BF8F
:108D100000380240D82101202DE9F34706690546B5
:108D2000C3680C464FF0004901F150071E4001F1A5
:108D3000380816B902B0BDE8F087B6FA86F329FA0A
:108D400003F21B3BD24316402A61002C42D0042B75
:108D5000EFD8DFE803F03B36302903002369D5F86C
:108D60002CA033B19B6823B11FFA8AF104F10800EB
:108D70009847A36A33B19B6823B11FFA8AF104F1C3
:108D800020009847236C2BB19B681BB11FFA8AF116
:108D900040469847A36D002BCBD09B68002BC8D0D2
:108DA0001FFA8AF1384604E0236904F10800696B70
:108DB0005B689847BDE7A36A04F12000A96B5B6874
:108DC000F7E7236C4046E96B5B68F2E7A36D296C1B
:108DD0005B68E7E7042B06D8DFE803F00D0B090713
:108DE0000300EB6A0193019BA3E76B6BFAE7AB6BA4
:108DF000F8E7EB6BF6E72B6CF4E737B5224B002571
:108E0000224C234AC4F8883242F20F7304F52270D0
:108E1000C4F89852C4F894321E4BC4F89052D3F858
:108E2000BC31B3FBF2F3013BC4F88C3251F068FF64
:108E3000194B062137201A6C42F020021A641B6C71
:108E400003F020030193019B4FF0D2FD134B4FF42D
:108E5000000228465A60D4F88832DA6842F00102EB
:108E6000DA601A6842F001021A60D4F820320C4A23
:108E7000C3F81052C3F808220A4AC4E98F55C3F850
:108E8000042203B030BD00BF00140040D8210120EF
:108E900080841E00000001200038024000E100E054
:108EA000A4620120A452012010B501200C460BF051
:108EB00085FB054B122103F11402218002280CBF0F
:108EC0001846104610BD00BFC0010120436BDA698F
:108ED000910670B5044613D5586AE36AC0B2002BF8
:108EE0004AD0216B9847636B1A6822F480721A602B
:108EF0009A6822F001029A609A6942F008029A6127
:108F0000636BDA69D20701D501221A62DA69960722
:108F100001D502221A62DA69550701D504221A62C4
:108F2000DA69100701D508221A62DA6911060ED52E
:108F300094F89D20212A0AD0D4E909128A4227D127
:108F40000022A4F886201A6822F080021A60DA69EA
:108F5000520640F19380DA6904F13400196816076B
:108F60009D6821D1960640F18A808D0640F1878068
:108F7000BDE8704051F028BDE3696269D054E369EF
:108F8000E2680133B3FBF2F102FB1133E361AAE7BC
:108F9000A169895C0132C9B299622169B2FBF1F021
:108FA00001FB1022A262D2E705F0010501F49076E0
:108FB0002E4364D0D60709D5CE0507D501261E62FB
:108FC000D4F8A06046F00106C4F8A060960708D562
:108FD0003DB102261E62D4F8A06046F00406C4F833
:108FE000A060560708D53DB104261E62D4F8A060E3
:108FF00046F00206C4F8A06016070AD501F0200664
:10900000354306D008251D62D4F8A0302B43C4F8A0
:10901000A030D4F8A030002B30D0960603D58D06B2
:1090200001D551F0D1FCD4F8A020636B110703D413
:109030009A6812F040021FD01A6822F490721A60E7
:109040009A6822F001029A60202284F89E209A6891
:10905000520613D59A68D4F8980022F040029A601C
:1090600060B1254B0365FEF7FFFF38B1D4F89800D7
:10907000BDE87040036D1847C4F8A02070BD160607
:109080002ED50D062CD594F89D20212AF6D1B4F8C2
:10909000862092B242B91A6822F080021A601A68D9
:1090A00042F040021A60E9E7E16BD4F88020B1F5A4
:1090B000805F0FD1616C69B932F8021BC1F30801FE
:1090C0009962C4F88020B4F88630013B9BB2A4F8C2
:1090D0008630D3E7511CC4F8801012789A62F2E708
:1090E0005006CBD54A06C9D51A6822F040021A604C
:1090F000202384F89D30C1E72381000870B5002645
:109100000E4CD4F8C8329BB9FEE712F8016B013B54
:109110004FF00105C4F8C822636007D151F0D3F8BD
:109120006368D4F8C8222BB1002DEED0304670BD54
:109130000025F5E7002DE3D0F8E700BFD821012096
:1091400008B5054A0B68C2F8C80253600BB951F064
:10915000BAF8002008BD00BFD821012090F84820AF
:10916000531C0244DBB280F8483082F8341090F887
:1091700049200AB1132B01D951F084B9704700225C
:1091800080F8492051F07EB9F8B50446D0F8300295
:10919000237C93BB4FF400730222812151F008F924
:1091A0004FF4007302220121D4F8300251F000F98B
:1091B000082303228221D4F8300251F0F9F84FF449
:1091C000077058F01BFB0546C4F8180230B3D4F8FA
:1091D0001C3200271B689847267CC5F81472C5F816
:1091E00018728EB94FF40073D5F804220121D4F817
:1091F000300251F046F83046F8BD4023022281216A
:1092000051F0D6F84023CDE74023D5F804220121C0
:10921000D4F830023E4651F034F8ECE70126EAE794
:1092200010B504468121D0F8300251F07EF80121BA
:10923000D4F8300251F079F88221D4F8300251F09C
:1092400074F8D4F8183253B1D4F81C325B689847DC
:10925000D4F8180258F0DAFA0023C4F818320020C3
:1092600010BD10B504460121D0F8300251F05DF870
:109270008121D4F8300251F058F8D4F8280258F07F
:10928000C5FA0020C4F8280210BD37B50B78044693
:109290000D4613F060022BD0202A21D1CA884878CD
:1092A0000AB31B06D4F818120AD5D4F81C3201915F
:1092B0009B689847EA880199204651F0D8F80FE05A
:1092C000032381F8012281F80002C4F8F431134627
:1092D000D4F83002C4E942220A46002150F0D1FFFE
:1092E000002003B030BDD4F81C329B689847F7E7E4
:1092F0004B780A2BF4D101220049DEE7A424012097
:1093000070B50446D0F83002237C93BB4FF4007351
:109310000222012151F04CF84FF400730222812106
:10932000D4F8300251F044F84FF41B7058F066FA4C
:109330000646C4F8280218B30025D4F82C3205815B
:10934000A0F85C5228461B6898470121D4F83002E7
:1093500051F0EDFA8121D4F8300251F0E8FAD4F856
:1093600030021F2306F50372012150F08AFF2846C0
:1093700070BD40230222012151F01AF84023CDE7AD
:109380000120F5E770B5D0F82852044695F8183258
:109390004BB9D5F8143233B16B7A23B90121D0F827
:1093A000300251F0C0F88121D4F8300251F0BBF8FE
:1093B0006B7A022B09D105F50372D4F830021F2312
:1093C0000121BDE8704050F05CBF70BD70B50E4B20
:1093D0000446D0F82852C5F82C32002385F83812FC
:1093E00005F50B722B7281210D23D0F8300250F05D
:1093F0007DFF05F50372D4F830021F230121BDE87B
:10940000704050F03EBF00BF555342532DE9F0412C
:109410000B7804460D46D0F8287213F0600635D05C
:10942000202E7ED14A78FE2A07D0FF2A18D0D4F801
:109430003002022651F0B6F825E04E88002EF6D113
:10944000CD88012DF3D11A06F1D5D0F82C329B69C5
:1094500098472A4638603946204651F008F812E00D
:109460004A88002AE3D1CE88002EE0D11B06DED444
:109470004FF4807307F5037201213B811F23D0F85D
:10948000300250F0FEFE3046BDE8F08191F80180D8
:10949000B8F10A0F2AD0B8F10B0F2AD0B8F1010F9A
:1094A000F1D10979D0F8300251F041FAD4F8300204
:1094B000297950F03AFF95F90430D4F83002002BA6
:1094C000237C1BDAC3B94FF400730222812150F0D0
:1094D0006FFFD4F828727B7A022B17D18121D4F840
:1094E000300251F020F800237B72CCE70122391DB5
:1094F000B3E78B787B60C6E74023E6E723B94FF4F8
:10950000007302224146E2E74023FAE795F904207E
:10951000002AB8DA012BB6D001212046FFF756FF0A
:10952000B1E70026AFE72DE9F743137806460D466D
:1095300017462F2BD0F828423CD8192B08D8032BDC
:109540005ED0122B00F08680002B3ED02022F0E16E
:109550001A3B152BFAD801A252F823F09396000873
:109560008D9600084D9500084D9500088D960008D1
:109570004D9500084D9500084D9500084D95000843
:10958000A79600084D950008F59600084D9500082F
:109590004D9500082F9700084D9500080998000880
:1095A0004D9500084D9500084D9500084D95000813
:1095B000299900085A2BC9D10823B94A6381D2F8E6
:1095C0003F30E360D2F843306BE0D4F81432002B24
:1095D000BCD1D0F82C3208469B689847054650B15C
:1095E0003A220221D6F828024FF07CFB0523237291
:1095F0004FF0FF3500E06081284603B0BDE8F083FE
:109600001222002104F10C0058F032F9702394F872
:109610005D2223730C23E37494F85C329A4211D0D8
:1096200004EBC302013392F83C12DBB2A173042BAA
:1096300092F8411208BF0023217692F8402284F864
:109640005C326276122363813B79122B98BF63816F
:109650000025D1E75378DB0715D4D0F82C3201EB85
:10966000C1051279DB6903EB85052B79053393423C
:1096700028BF13466381002BEAD0013B9BB2E95C13
:10968000E2181173F7E70723864DF3E700206081A6
:10969000DEE70823824A6381D2F83730E360D2F8EC
:1096A0003B302361D4E700230DF1020201A9E360FE
:1096B00023616361D0F82C3228465B6898470546E1
:1096C00020B13A220221D6F82802CAE00823E37327
:1096D000019B013B1A0EE37422741A0C62741A0A7D
:1096E000BDF80230A27402225BBAA282E3820C238C
:1096F000638181E7D0F82C3204F25E22284604F51B
:1097000018715B68984705460028DAD1D4F86032B2
:109710002082013B1A0EE37322731A0C62731A0A39
:10972000B4F85E32A2735BBA63820823E0E7237A5F
:109730006BBB94F91832002BBFF608AFD0F82C326F
:1097400008469B6898470028BBD1D7F80220D6F876
:10975000280212BAD0F86012C4F86422B7F80730B1
:109760005BBA9BB29F18C4F868328F4277D8022147
:109770002172B4F85E124A434B43C4F86422D4F811
:109780001422C4F86832934201D0202268E04FF4DA
:109790000073D6F82C026381D6F82842D0F81090D6
:1097A0002846D4F8687204F10C08B4F85E229F428F
:1097B000D4F8641228BF1F46B7FBF2F3B1FBF2F2F4
:1097C0009BB24146C847002802DA112204217AE7F9
:1097D000BBB2D6F830024246812150F087FDD4F862
:1097E0006432D4F868023B44C51BC4F86432D4F830
:1097F0003432C4F86852DB1BC4F83432002D7FF4D5
:1098000027AF03232372F7E6237A002B4CD194F978
:109810001832002BFFF69AAED0F82C3208469B681F
:10982000984700287FF44DAFD6F82C322846DB68E5
:109830009847054608B1272244E7D7F80220D6F812
:10984000280212BAD0F86012C4F86422B7F80730C0
:109850005BBA9BB2D718C4F868328F4204D9212270
:1098600005214FF03FFAC3E6B4F85E124A434B437A
:10987000C4F86422D4F81422C4F86832934284D124
:10988000B3F5007F4FF0010104F10C0228BF4FF443
:1098900000732172D6F830029BB250F0F2FCABE6B6
:1098A000A01B0608D01B0608D4F8687204F10C0847
:1098B000B4F85E22B7F5007FD4F86412D0F82C0219
:1098C00028BF4FF40077D0F814902846B7FBF2F386
:1098D000B1FBF2F29BB24146C847002801DA0322ED
:1098E00074E7D4F86432D4F868523B44ED1BC4F8F2
:1098F0006432D4F83432C4F86852DB1BC4F8343212
:1099000025B929463046FFF761FD75E6B5F5007FBC
:1099100042464FF00101D6F8300228BF4FF40075DF
:10992000ABB250F0AEFC93E6787810F0020003D0B2
:1099300024220521204694E7D4F86422B4F8683242
:109940001344D4F8602293427FF6A1AE2122F0E7BF
:10995000D0F8281210B50B7A0446022B07D0033B2F
:10996000012B02D80021FFF731FD002010BD01F2CC
:109970001B2291F81912FFF7D6FD0028F5DA012114
:109980002046F0E770B5D0F828420546267A1EB189
:10999000012E55D0002070BDD4F81032C4F83032FA
:1099A000D4F81432C4F83432D0F83032B3F82C3250
:1099B0001F2B0DD1D4F80C22264B9A4208D194F8D3
:1099C0001912012904D894F81A32013B0F2B0AD935
:1099D0002022052120464FF085F902236372284694
:1099E000FFF7D0FCD6E704F21B22FFF79CFD00280E
:1099F000237A06DA052BF2D101212846FFF7E6FC8F
:109A0000C8E7013B022BC5D961890029F5D0D5F8FB
:109A10002832D3F8142283F83862914228BF1146C5
:109A2000D3F83422521AC3F8342204221A728BB2A9
:109A300004F10C028121D5F8300250F057FCA9E75F
:109A400004F21B2294F81912FFF76DFD0028A1DA29
:109A5000D2E700BF5553424308B520B903484EF042
:109A600029FD034808BD0348F9E700BF7CB5060897
:109A7000A82401209DB50608024808B54EF01AFD3D
:109A8000014808BDBEB50608A8240120024808B553
:109A90004EF010FD014808BDC3B50608A8240120FA
:109AA000024808B54EF006FD014808BDCEB50608CF
:109AB000A8240120002108B508460AF0EFF800208C
:109AC00008BD2DE9F843089D0E46174600212022C7
:109AD0000446984657F0CCFE4DB12B681A0CE38132
:109AE0006B682282E3821A0C6B8922836382304680
:109AF00051F078FAFB0604D400F1FF39B9F1FF3FC9
:109B000042D1082802464FF0FF394FF00005A8BFA8
:109B100008224FF02033314620462360636057F01F
:109B20005DFC04F10803224A09F101011846228173
:109B30003144A2722A4657F051FC621E0346E01DD2
:109B400012F8011FA1F16105192D9CBF2039117078
:109B50008242F5D1184604F10B0210F8013BA3F143
:109B6000610119299CBF203B00F8013C9042F4D1CF
:109B70001823E772A4F81A8023734FEA1843A382CC
:109B8000099BE361BDE8F88316F809302E2B02D05B
:109B900009F1FF39B2E74A46A0EB0905082A05F1A9
:109BA000FF35A8BF0822032DA8BF0325B1E700BFDA
:109BB000202020002DE9F04F0D46BA4F85B001213D
:109BC00004350020164699460AF068F82C1FB9F1B2
:109BD000000F07D1484649460AF060F8484605B0EC
:109BE000BDE8F08FD7F87022B24200F2B780A6EB42
:109BF0000208D7F880A24FEAD803DAF8302008F03C
:109C000007080233934203D3DAF83820934218D975
:109C10005146184603934EF0BDFB039B824670B934
:109C2000A5F1080305F5FC729F4943F8041F934210
:109C3000FAD109F1FF39013605F50075C6E7C7F815
:109C400080029AF80420002A6DD04FF4007200219F
:109C5000204657F00DFEDAF84030B8F1000F47D13A
:109C600005F11C0BCDE9008843BB43462046082282
:109C7000D7F85C12FFF725FF5C464FF4F073DAF873
:109C8000448004EB030AB8F1000FD2D05445D0D081
:109C900098F8042004F1200BD8F8001008F11C00FB
:109CA000D8F83030B2B30022CDE9000211222046AC
:109CB0005C46FFF706FFD8F84880E4E7DAF8303072
:109CC000112220467949FFF7FCFEDAF8403005F111
:109CD0003C041A6CCDE9008842B94346112274490C
:109CE0005846FFF7EEFE4FF4E073C8E71B6BF5E74D
:109CF000002B0CBF01220222C2EB0812DAF84480CA
:109D0000B8F1000F03D0013AD8F84880F8D14FF4E9
:109D10000073B6E798F805C0D8F81020CDE9000226
:109D20004CF02102C3E7DAF828B0BBF1000F06D1EE
:109D30004FF400720021204657F09AFD79E7DAF8D7
:109D400030204FF4007120469B1ADAF80C2008EB03
:109D5000C308534602EB4822D8476AE7002E64D175
:109D60004FF400723146204657F082FD802351495E
:109D700085F8BA310C2385F8BE31D7F86022D7F8C0
:109D800058328A42C4F8C621C4F8CA3118DDFF220D
:109D900085F8BB2185F8BD2185F8BC21013B454AEA
:109DA000934228DDFF2385F8BF3185F8C13185F85E
:109DB000C031552385F8FA31AA2385F8FB3138E7FD
:109DC0003F2143F6C16492FBF1F192FBF4F4C1EB45
:109DD000811C85F8BD41A010A2EB0C0220F03F00D1
:109DE0000132024385F8BC21FF2291FBF2F21144BB
:109DF00085F8BB11D2E73F2243F6C16093FBF2F234
:109E000093FBF0F0C2EB821485F8C10181101B1B9B
:109E100021F03F0101330B4385F8C031FF2392FB52
:109E2000F3F31A4485F8BF21C3E7D7F864329E42A2
:109E300042D152234FF0000841227221237028465C
:109E400063706123E270A37084F8E731D7F8783249
:109E500084F8E411C4F8E8314FF0FF3384F8E511D9
:109E6000414684F8E6214FF4F07284F8EC3184F82E
:109E7000ED3184F8EE3184F8EF3157F0F9FC5523D9
:109E8000C5F8EC81C5F8F081C5F8F48184F8FE319D
:109E90006FF0550384F8FC8184F8FD8184F8FF316C
:109EA000C7E600BFD8210120DEADBEEFEBE2060819
:109EB000EAE20608FF03FB00D7F860329E426BD14E
:109EC0004FF400720021204657F0D2FCEB233A4AAF
:109ED0004FF0080C05F8043C5823F82105F8033C22
:109EE000902305F8023C136845F8013C53680222B0
:109EF000C5F8033000232273E37285F809C0A2730A
:109F0000E37369743F212A7321764FF0FF31D7F84C
:109F10006002A1763E2184F82C2001222177D7F817
:109F200058126376091AE37663772162A377E377A1
:109F300084F82D3084F82E3084F82F30D7E99A0138
:109F4000091A616284F8302084F83130802385F862
:109F500042C085F83C30292385F83E30942385F8AB
:109F60003F300E2385F840300D2385F84130134BE8
:109F70001A68C5F843205A68C5F847201A899B7AA1
:109F8000A5F84B200E4A85F84D301368C5F84E30C1
:109F90005368C5F852300CE7D7E99A138E4206D3BE
:109FA0009E4207D2711A20464EF018FA41E69E42B0
:109FB000FFF4BEAEF11AF6E7DCB50608E5B5060813
:109FC000F1B5060813460A460146184632F0ACBE03
:109FD00082B0054A01901068136801991B1A8B42E0
:109FE000FAD302B0704700BFD8210120002808DB57
:109FF0004209012300F01F0003FA00F0014B43F86F
:10A000002200704700E100E02DE9F04F002385B009
:10A01000DFF8B8816B4ADFF8B89101270C689F40E0
:10A0200007EA040537EA040440F0B6804C6824F0DF
:10A03000100ABAF1020F16D14FEAD30E03F0070B44
:10A040004FF00F0C00EB8E0E4FEA8B0BDEF820600A
:10A050000CFA0BFC26EA0C0C0E6906FA0BF646EA23
:10A060000C06CEF820604FEA430E4FF0030CD0F8F8
:10A0700000B00AF1FF3A0CFA0EFCBAF1010F6FEAD8
:10A080000C062BEA0C0B04F0030C01960CFA0EFCE8
:10A090004CEA0B0CC0F800C015D8D0F808C006EA8E
:10A0A0000C0CCE6806FA0EFA4AEA0C0CC0F808C08E
:10A0B000D0F804C02CEA0707C4F3001C0CFA03FC18
:10A0C0004CEA07074760C768019E37408E6806FA6A
:10A0D0000EF63E43C660E6005ED5D8F8446023F035
:10A0E000030703F0030C4FF00F0E46F4804607F110
:10A0F00080474FEA8C0CC8F8446007F59C37D8F8C5
:10A10000446006F480460396039E0EFA0CF6D7F8D8
:10A1100008A02AEA060E2C4EB04244D006F580660E
:10A12000B04242D006F58066B04240D006F5806667
:10A13000B0423ED006F58066B0423CD048453CD0A7
:10A1400006F50066B0423AD006F58066B0420CBF14
:10A150000726082606FA0CF614F4803F46EA0E0697
:10A16000BE606FEA050716680CBF3E402E4314F42C
:10A17000003F166056680CBF3E402E4314F4801F0B
:10A18000566096680CBF3E402E43A4029660D66887
:10A1900054BF3E402E43D6600133102B7FF43DAFB9
:10A1A00005B0BDE8F08F0026D4E70126D2E70226ED
:10A1B000D0E70326CEE70426CCE70526CAE7062625
:10A1C000C8E700BF003C01400000024000380240E8
:10A1D0000014024003689A69910701D500229A622F
:10A1E0009A69D20703D49A6942F001029A617047D2
:10A1F00070B590F8403004460D461646012B00F02D
:10A200001881012380F84030CB0640F19780D006BA
:10A2100040F19480638D9BB2002B40F08780E36A0D
:10A22000B3F1007F03D0E36AB3F1007F6AD194F801
:10A230004130282B66D129462046FEF7C5F9AB06EA
:10A240005CD5B6065AD52368202207212046DA615C
:10A250000822DA6150F0E4FD236820465A6842F48F
:10A2600000425A605A6822F0FF7222F48B3222F4C4
:10A27000FF7222F001025A60FFF7ACFF22681368F8
:10A28000580402D41368190409D594F84130212BDD
:10A290000CBFA36BE36B1B685B689BB26385638D2C
:10A2A0009BB21BB1636C43F0040363646B0710D56E
:10A2B000636A526A591C61621A70238D4BB1013B6B
:10A2C0002385638D013B9BB26385636C43F004037C
:10A2D000636400232363636384F84230636C002B60
:10A2E00000F09A80616C2046FEF79CF994F84130AA
:10A2F000282B03D129462046FEF766F9002084F872
:10A30000400070BDE26A236812F5803F0BD094F8DC
:10A310004120292A07D110222046DA61FFF75AFF8F
:10A32000FEF733F98BE71022DA6188E72368102201
:10A33000DA61636C43F00403636480E769071DD549
:10A3400072071BD5638D9BB263B123685A6A636A37
:10A35000591C61621A70238D013B2385638D013B7B
:10A360009BB26385638D9BB2002B7FF468AFE36A79
:10A3700013F5803F3FF463AF2046D1E72B072CD580
:10A3800030072AD594F84130226803F02803282B9F
:10A3900020D1936991699368D068E068022813D14D
:10A3A000C3F3C21383EA114313F006030CD1A16C6B
:10A3B0000131A164A16C02297FF441AF0821A3649B
:10A3C000D16184F840303AE70421204650F028FD5E
:10A3D0000023F6E70823D361FAE7A9077FF52FAF3B
:10A3E000B2077FF52CAF638D9BB26BB1636A5A1CC9
:10A3F000626222681B789362638D013B9BB2638526
:10A40000238D013B23851AE7E36AB3F1807FB3D044
:10A41000E36A002BB0D012E7E36A13F5803F05D062
:10A42000054BE362202384F8413067E794F841301C
:10A43000F8E7022065E700BF0000FFFF194B9A68AC
:10A4400002F00C02042A28D0082A28D15A68596838
:10A4500002F03F02586811F4800F47F6C07191FA7C
:10A46000A1F3B3FA83F300EA010020FA03F014BF6A
:10A470000D4B0E4BB3FBF2F20A4B50434FF44032FC
:10A480005B6892FAA2F2B2FA82F203F44033D3404C
:10A4900001335B00B0FBF3F070470348704703489B
:10A4A000704700BF0038024000127A000024F40018
:10A4B000094B4FF4E0529B6892FAA2F2B2FA82F290
:10A4C00003F4E053D340054A1344054A93F8473058
:10A4D000D2F8BC01D840704700380240A01B0608E3
:10A4E00000000120094B4FF460429B6892FAA2F2EF
:10A4F000B2FA82F203F46043D340054A1344054A9A
:10A5000093F84730D2F8BC01D84070470038024079
:10A51000A01B06080000012038B5C2690446036884
:10A52000816800691D68014360690143A1481143C6
:10A530002840256A0143E0681960596821F44051B8
:10A5400001435960A1699868294320F430600143B0
:10A55000996099498B421FD101F59431D1F890103F
:10A5600001F003010139022900F2058193480144F9
:10A5700091F84F10B2F5004F40F0AE80082900F27C
:10A58000A880DFE811F0E600FB000101A6000D0144
:10A59000A600A600A600350089498B420AD101F524
:10A5A000FA31D1F89000854900F00C00014491F88F
:10A5B0005210DFE783498B421FD101F5F831D1F802
:10A5C000901001F03001202900F0DB800AD800292A
:10A5D00000F0BC80102900F0E080B2F5004F78D088
:10A5E0000120C7E03029F8D1B2F5004F40F0A98032
:10A5F0006268530803F58033CCE073498B4210D175
:10A6000001F5F631D1F8901001F0C001802900F079
:10A61000B88004D8002900F099804029DBE7C029E0
:10A62000E1E76A498B4213D101F5F431D1F890107A
:10A6300001F44071B1F5007F00F0A38005D8002936
:10A6400000F08480B1F5807FC5E7B1F5407FCAE7AF
:10A650005F498B4213D101F59231D1F8901001F48A
:10A660004061B1F5006F00F08C8005D8002900F042
:10A670008280B1F5806FAEE7B1F5406FB3E7554921
:10A680008B4211D101F5E031D1F8901001F4405125
:10A69000B1F5005F75D004D8002957D0B1F5805FBF
:10A6A00099E7B1F5405F9EE74B498B4295D101F5A3
:10A6B000DE31D1F8901001F44041B1F5004F60D087
:10A6C00004D8002942D0B1F5804F84E7B1F5404F5E
:10A6D00089E70120002346E0082981D801A252F829
:10A6E00021F000BF09A7000821A7000827A700083C
:10A6F000E1A500083DA70008E1A50008E1A50008C4
:10A70000E1A5000843A70008FFF7D2FED4E9002323
:10A7100000EB5300B0FBF3F080B2D060002029E0E2
:10A72000FFF7E0FEF2E761684A0802F5740202F5FD
:10A730001052B2FBF1F292B2DA60EFE7FFF77EFE61
:10A74000E4E761684A0802F50042F2E7B2F5004F1B
:10A75000DAD1FFF7ADFE63685A0802EB4000B0FBA8
:10A76000F3F39BB2002023F00F02C3F342032168EE
:10A770001343CB6038BDB2F5004FD1D1FFF7B2FE25
:10A78000E9E7B2F5004FCED16268530803F1F473E4
:10A7900003F59043B3FBF2F3E3E7B2F5004FCDD1FD
:10A7A000FFF74CFE61684A0802EB4003B3FBF1F38C
:10A7B000D7E700BFF369FFEF00100140A01B0608B8
:10A7C0000044004000480040004C00400050004061
:10A7D0000014014000780040007C0040A348A44AD7
:10A7E000A449121A70B5A4B056F0F8FDA24A002090
:10A7F000D2F8883043F47003C2F888309F4B196850
:10A8000041F0010119609860196821F0847121F408
:10A81000803119609A495960196821F480211960C2
:10A820009849D8609160BFF34F8FBFF36F8FC2F824
:10A830005002BFF34F8FBFF36F8F516941F4003166
:10A840005161BFF34F8FBFF36F8F1A6C42F080528C
:10A850001A641A6C02F080520292029A8A4A1168B3
:10A8600041F440411160126802F440420192019AA1
:10A870009A6802F00C02042A07D09A6802F00C02CF
:10A88000082A65D15A68520262D57C4B1B687B4A04
:10A89000936803F00C03082B68D013687B4C23F0FB
:10A8A00080731360216813689D0160D447F6C073FC
:10A8B00093FAA3F3B3FA83F04FF4403393FAA3F37C
:10A8C0004FF0706191FAA1F14FF4D873B1FA81F1B0
:10A8D0008340092000FA01F10B4343F0015343F098
:10A8E00008035360136843F080731360634B21685F
:10A8F0001A68900140D51A6C42F080521A641B6CA1
:10A9000003F080530393039B5F4B1A6842F4803239
:10A910001A6021685A68D20333D51A6842F40032AB
:10A920001A60594A216853689B0330D54FF40013CD
:10A930004FF4C07C04A804934FF0006321930723D5
:10A94000CDE908C303230A93FDF704FF28B3FEE70C
:10A950001A684A4942F480321A604C4A10680B68FF
:10A960009E0394D413681B1A642BF8D9FEE723685E
:10A970005B1A022B97D9F9E72268521A022AB7D933
:10A98000F4E72268521AB2F57A7FC3D9FEE723684A
:10A990005B1AB3F57A7FC6D9F8E73D4A136803F02E
:10A9A0000F03062B08D9354B9A6822F0F0029A6003
:10A9B0001A6890010CD4FEE7136823F00F0343F0EC
:10A9C00007031360136803F00F03072BF3D1EAE7C3
:10A9D0009A6841F2883022F0030242F002029A6043
:10A9E00021689A6802F00C02082A39D1284A1368B3
:10A9F000190755D4214CA36823F4E05343F4A05322
:10AA0000A360A36823F4604343F40043A360FFF70B
:10AA100015FDA368F02292FAA2F2B2FA82F203F0D4
:10AA2000F0031C4ED3401C4D334493F85F30D840A4
:10AA3000C5F8BC014EF008F8184B04A80493002395
:10AA4000CDE91333CDE91533CDE91733CDE919330A
:10AA5000CDE91B33CDE91D33FDF77CFE60B3FEE786
:10AA60002268521A8242BCD9A5E700BF000000004C
:10AA7000201700006413070800ED00E000380240D2
:10AA8000103000240000000800700040D821012090
:10AA9000003C0240A01B060800000120C0FF03008C
:10AAA000136823F00F0343F007031360136803F0E8
:10AAB0000F03072B9ED07EE7D4F88C3023F08073F1
:10AAC000C4F88C30D4F88C3043F08073C4F88C30E8
:10AAD000A36803F00C03042B14D0082B14D0184BDC
:10AAE000C5F8BC31174B9B68C3F303131E44D5F85C
:10AAF000BC3196F85F20D340134A9342C5F8BC316D
:10AB00001BD0FEE7114BEBE76368626813F4800F1C
:10AB1000636802F03F0218BF0C49C3F3881308BFF3
:10AB20000749B1FBF2F25343064A5268C2F30142AD
:10AB300001325200B3FBF2F3D2E724B070BD00BF84
:10AB40000024F4000038024000E6DF0C00127A0016
:10AB500003682DE9F041C3F30D04054688464D4FC7
:10AB6000002C62D14C4A93421ED302F5804293429C
:10AB700019D302F5804293421ED3484A93421DD90D
:10AB800002F5803293421BD902F50032934219D963
:10AB900002F50032934217D902F50032934215D9DB
:10ABA00005200AF06FFF012497F8E433012B0FD141
:10ABB0004FF0FF30BDE8F0810224F5E70324F3E70E
:10ABC0000424F1E70524EFE70624EDE70724EBE78B
:10ABD000012387F8E4334DF0B5FE68BB304E33698E
:10ABE00023F440733361336943F400733361336991
:10ABF00023F0F8033361782393FAA3F3B3FA83F3D2
:10AC000032699C40144344F002043461336943F4D4
:10AC100080333361BFF34F8F4DF094FE336923F0DF
:10AC20007A03336140B987F8E40397F8E433012BE2
:10AC300006D16FF00100BDE7002387F8E433B7E7E2
:10AC400001232E68D8F8008087F8E4334DF07AFEAF
:10AC5000B0B9134C236923F440732361236943F48F
:10AC600000732361236943F001032361C6F8008068
:10AC7000BFF34F8F4DF066FE236923F0010323617C
:10AC8000002387F8E4330028D3D12B6804332B60EA
:10AC900090E700BFD821012000400008FFFF000816
:10ACA000003C02400148FDF725BD00BFC82501203A
:10ACB0000148FDF7EBB900BFC82501200148FDF7A9
:10ACC00019BD00BF182601200148FDF7DFB900BFFC
:10ACD000182601200148FDF70DBD00BF68260120A0
:10ACE0000148FDF7D3B900BF682601202DE9F843DC
:10ACF0008F4F0C26054606FB0076D6F8E831002B70
:10AD000000F0108196F8EE014DF07AFD96F8EC0116
:10AD100008F08EFF044696F8ED0108F089FF6B1CE1
:10AD20000646DBB21CB140F60E122372E2801EB161
:10AD300040F60E223372F28020464FF0090908F0E7
:10AD40002CFF304608F029FF1121204608F030FF83
:10AD50001121304608F02CFF4FF0650803E0052074
:10AD600000210AF0C7FD204608F006FF10B9B8F12F
:10AD70000108F4D1204608F015FF002105200AF053
:10AD8000B9FD204608F009FF052000210AF0B2FDB8
:10AD9000B9F10109E0D120464FF00C0808F002FF9C
:10ADA0000021052008FB05780AF0A4FD304608F0D4
:10ADB000F9FE002105200AF09DFD204608F0EDFE79
:10ADC000002105200AF096FD304608F0E6FE2046F8
:10ADD00098F8F2213E2108F00BFF50243046554EE2
:10ADE00098F8F2213E2108F003FF04FB0564D8F82F
:10ADF000E831C4F8F033FFF75BFB98F8EF31022B32
:10AE000000F09280032B00F09180012B14BF4FF4CF
:10AE1000C8714FF448714DF06BFC50220021C4F80A
:10AE2000F40302FB05630120C3F80014C3F8041403
:10AE3000C3F80C14C3F81014C3E9FE1093F83114CE
:10AE400001F0FF0009B983F8300402FB05622424F5
:10AE5000D2F8F03382F83144196821F00101196009
:10AE6000D2F8F41321F070611961996821F400415E
:10AE700099604FF400419960596841F0007141F4C4
:10AE800000415960D96821F40041D960D2F8081412
:10AE90000902D96000211960186840F001001860AB
:10AEA0002020C2F8341482F83104C2F8201482F849
:10AEB000321492F8310420285FFA80FC17D192F8FE
:10AEC0003004012813D082F83144186820F00100C2
:10AED0001860186820F480501860186818601868A6
:10AEE00040F00100186082F831C482F830140C245C
:10AEF000022104FB057494F9F1014DF079FD94F9F8
:10AF0000F101FFF773F8022194F9F0014DF070FDA3
:10AF100094F9F001FFF76AF85020012300FB056562
:10AF200085F8EC33BDE8F883642174E7C82172E743
:10AF300000000120D82101202DE9F04F984685B06E
:10AF4000431C064689469DF83C50039200F0208140
:10AF5000AA4F502303FB007393F8ECB3BBF1000F2F
:10AF60006ED0FF2A03D0B8F1000F40F0BE80002D54
:10AF700000F0BB805024744307EB040A9AF8313484
:10AF8000202B40F0FC809AF83034012B00F0F78041
:10AF90009B4B0122D7F800B04FF400411C448AF8C3
:10AFA00030241923CDF800B02046FDF789F8002899
:10AFB00040F0E58021231FFA88F809FA02F9CAF85F
:10AFC00024048AF8313410238AF832340E9BCAF8EC
:10AFD0003404CAF81434AAF81A84BAF81A349BB2A2
:10AFE000FF2B31D94FF40053FF22AAF81824009305
:10AFF0004FF080734FF050084946204608FB067812
:10B00000FDF77CF8B8F81A34594620469BB23BBB92
:10B010004DF050FC38BBD8F8F0332021AB46D96155
:10B020005A6822F0FF7222F48B3222F4FF7222F06F
:10B0300001025A6088F8311488F8300488F8320424
:10B04000584605B0BDE8F08FBAF81A244FF4005303
:10B0500092B2AAF81824D2B200934FF00073C9E755
:10B060004DF04CFC10B1D8F8343488E0D8F81434E2
:10B070005A1CC8F81424D8F8F0231B789362B8F847
:10B080001824B8F81A34013A013B92B29BB2A8F8DE
:10B090001824A8F81A34002AB4D1B8F81A349BB28C
:10B0A000002BAFD00A2380212046CDF800B0FDF759
:10B0B00007F8002863D1B8F81A349BB2FF2B0AD9DD
:10B0C000FF224FF08073A8F81824009049462046CC
:10B0D000FDF714F896E7B8F81A244FF0007392B20F
:10B0E000A8F81824D2B20090F0E7502474433D1918
:10B0F00095F83134202B42D1B8F1000F3FD095F8AC
:10B100003034012B3BD03E4B0122D7F800A04FF446
:10B1100000411C4485F830241923CDF800A02046B6
:10B12000FCF7CEFF58BB212309FA02F91FFA88F871
:10B13000C5F8240485F831344023494685F8323473
:10B140000E9BC5F834042046C5F814344FF4005360
:10B15000A5F81A8400934FF08073FCF7CFFF514697
:10B1600020464DF0CBFB0246A8B1D5F8343450232D
:10B1700003FB0673D3F83424002283F83024B7F895
:10B18000DC34304601339BB2A7F8DC34FFF7AEFD68
:10B190004FF0000B54E7D5F8F0332046039999623D
:10B1A0000A238021CDF800A0FCF78AFF0028DED119
:10B1B000B5F81A349BB2FF2B09D8B5F81A244FF012
:10B1C000007392B2A5F81824D2B2009005E0FF22D5
:10B1D0004FF08073A5F8182400904FF050084946AE
:10B1E000204608FB0675FCF789FF514620464DF0C6
:10B1F00085FB38B108FB067835E700BFD821012070
:10B20000C8250120D5F814345A1CC5F81424D5F8E3
:10B21000F0231B789362B5F81824B5F81A34013A74
:10B22000013B92B29BB2A5F81824A5F81A34DAB9FA
:10B23000B5F81A349BB2BBB10A2380212046CDF861
:10B2400000A0FCF73DFF002899D1B5F81A349BB255
:10B25000FF2B16D9FF224FF08073A5F81824009019
:10B2600049462046FCF74AFFB5F81A349BB2002B3A
:10B27000BBD1514620464DF01DFB60B1D5F83434AA
:10B280007DE7B5F81A244FF0007392B2A5F81824A0
:10B29000D2B20090E4E7D5F8F0332021D9615A68A2
:10B2A00022F0FF7222F48B3222F4FF7222F00102AC
:10B2B0005A6085F8311485F8300485F83204BFE609
:10B2C0002DE9F04FB0F1FF3F85B0804693469DF8E1
:10B2D0003C9000F09A805024B74F44433D1995F8B4
:10B2E000ECA3BAF1000F00F0FB809BB2FF2A05F53A
:10B2F0007C744FEA4106039340F0F680B9F1000FE9
:10B3000000F0F28095F83134202B75D195F8303467
:10B31000012B71D00122D7F800A019234FF400416E
:10B3200085F830242046CDF800A0FCF7C9FE00289F
:10B3300062D12223C5F8240485F83134102385F81E
:10B3400032340E9BC5F83404C5F81434039BA5F8B9
:10B350001A34B5F81A349BB2FF2B1DD94FF4105391
:10B36000A5F818B45A4600934FF080735025314623
:10B37000204605FB0875FCF7C1FEB5F81A349BB2F0
:10B38000002B56D1514620464DF094FA002800F08B
:10B390009280D5F834342FE0B5F81A244FF41053C6
:10B3A00092B2A5F81824D2B200934FF00073DDE7F3
:10B3B000514620464DF046FAC8B9D5F8F0339A699F
:10B3C00012F0200224D02021D9615A6822F0FF72A5
:10B3D00022F48B3222F4FF7222F001025A60C5F887
:10B3E000340485F8300485F8311485F8320450238C
:10B3F00003FB0873D3F83434B7F8DC344046013328
:10B400009BB2A7F8DC34FFF771FC4FF0000A67E04D
:10B410003B68A3EB0A030A2B0BD9D5F8343485F823
:10B42000302443F02003C5F83434202385F8313428
:10B43000DDE7D5F8F0339A695207B9D55A6AD5F8DD
:10B440001434591CC5F814141A70B5F81824B5F83A
:10B450001A34013A013B92B29BB2A5F81824A5F820
:10B460001A34002A89D1B5F81A349BB2002B84D043
:10B470000A2380212046CDF800A0FCF721FE0028F9
:10B48000BAD1B5F81A349BB2FF2B0AD9FF224FF07C
:10B490008073A5F81824009031462046FCF72EFE54
:10B4A0006BE7B5F81A244FF0007392B2A5F8182490
:10B4B000D2B20090F0E7D5F8F0332021CA46D96126
:10B4C0005A6822F0FF7222F48B3222F4FF7222F0CB
:10B4D00001025A6085F8311485F8300485F8320489
:10B4E000504605B0BDE8F08F502505FB087595F86E
:10B4F0003134202B80D10E9B002B3FF47DAF95F88B
:10B500003034012B3FF478AF0122D7F80090192393
:10B510004FF4004185F830242046CDF80090FCF728
:10B52000CFFD00287FF468AF2223C5F824043146FC
:10B5300085F831344FF0400385F832340E9BC5F85E
:10B540003404C5F81434039BA5F81A344FF400539F
:10B55000009303462046FCF7D1FD494620464DF0B6
:10B56000CDF9024650B1D5F83434502303FB0873AB
:10B57000D3F83424002283F830243DE7D5F8F033A3
:10B5800040212046C3F828B00A23CDF80090FCF7EC
:10B5900097FD0028E9D1B5F81A349BB2FF2B0DD8DE
:10B5A000B5F81A244FF4105392B2A5F81824D2B269
:10B5B00000934FF0007309E0D82101204FF410539D
:10B5C000FF22A5F8182400934FF0807350253146D0
:10B5D000204605FB0875FCF791FD0A230022042193
:10B5E0002046CDF80090FCF76BFD00287FF404AFF7
:10B5F000D5F8F033596AD5F81434581CC5F814043A
:10B600001970B5F81834B5F81A14013B01399BB21A
:10B6100089B2A5F81834A5F81A14E3B9B5F81A34A4
:10B620009BB2C3B10A2380212046CDF80090FCF7DD
:10B6300047FD00287FF4E0AEB5F81A349BB2FF2B2B
:10B640002AD9FF224FF08073A5F8182400903146C4
:10B650002046FCF753FDB5F81A349BB2002BBCD141
:10B66000494620464DF026F900287FF492AED5F8E1
:10B67000F0332021D9615A6822F0FF7222F48B3214
:10B6800022F4FF7222F001025A6085F8311485F825
:10B69000300485F8320423E7B5F81A244FF000731C
:10B6A00092B2A5F81824D2B20090D0E70348D0F89F
:10B6B000183213B100F503701847704700000120DD
:10B6C0000348D0F8383213B100F50B7018477047B3
:10B6D000000001200348D0F8583213B100F5137070
:10B6E00018477047000001200348D0F8783213B1A2
:10B6F00000F51B7018477047000001200348D0F880
:10B70000983213B100F523701847704700000120EC
:10B710000348D0F8B83213B100F52B7018477047C2
:10B72000000001200348D0F8D83213B100F533707F
:10B7300018477047000001200348D0F8F83213B1D1
:10B7400000F53B7018477047000001200348D0F80F
:10B75000183313B100F543701847704700000120FB
:10B760000348D0F8383313B100F54B7018477047D1
:10B77000000001200348D0F8583313B100F553708E
:10B7800018477047000001200348D0F8783313B100
:10B7900000F55B7018477047000001200348D0F89F
:10B7A000983313B100F5637018477047000001200B
:10B7B0000348D0F8B83313B100F56B7018477047E1
:10B7C000000001200348D0F8D83313B100F573709E
:10B7D00018477047000001200348D0F8F83313B130
:10B7E00000F57B70184770470000012038B54468A9
:10B7F00044F4805444603BB9012004E0013C05D18D
:10B80000FCF7EBFC002038BD40F2E9348568AD0759
:10B81000F4D56AB112F8014B047340F2E93485683B
:10B82000ED0707D5C46809B101F8014B013BE2E718
:10B83000FF24F1E7013CF2D1E2E70023054A52F888
:10B840003310814201D1D8B2704701330E2BF6D1AB
:10B85000FE207047101C06082DE9F04707460068D7
:10B86000FFF7EBFF0D28054608DD0024274A0021DD
:10B87000052004F07BF82046BDE8F087DFF89890BB
:10B880004FEA800809EB800ADAF8E0645EBB0A211F
:10B89000682004F033F90446CAF8E00428B90146E8
:10B8A0001B4A052004F062F8E5E73146682255F0AE
:10B8B000DFFF18482AB2DAF8E04400F1700300EB29
:10B8C000C500A46003EBC203006F24622360A4637D
:10B8D0002465FFF7B2FF0D289EBF09F5A36600B2ED
:10B8E00006EB80166660C844787918210023D8F8E2
:10B8F000E04401FB0042D760C2E9043300FB0112BF
:10B90000A35401FB00440834B5E700BFFAB50608AC
:10B910001FB60608A01B0608D8210120036807EE01
:10B92000902A70B5D3E900340E461D682368AB42F7
:10B9300079D03D4BF8EE677A2560013E93ED6F7A42
:10B94000B6B2B8EE477A87EE270ADFED387A30EEE6
:10B95000270A52F07DFD00230138E660A360606095
:10B960002046C4E904338023A3614FF0C9F9304B6A
:10B970009D4216D0B5F1804F13D0A3F57C439D4274
:10B980000FD003F580639D420BD003F580639D4289
:10B9900007D003F578439D4203D003F570539D42D1
:10B9A00041D194F83C30012B3DD00223214A84F848
:10B9B0003D30236899680A409A609A6822F4803280
:10B9C00022F007029A60012284F83D20002284F8C8
:10B9D0003C20174A954212D0B5F1804F0FD0A2F506
:10B9E0007C4295420BD002F58062954207D002F569
:10B9F0008062954203D002F57842954213D10C48FB
:10BA00005A688342996803D000F58060834201D16F
:10BA100022F4700222F0700221F080015A609960D5
:10BA2000002384F83C3070BD000001200AD7233C7D
:10BA3000000001408800FEFF43680068F0B54068E0
:10BA40005C799A79974B12F00202234490F83C40BB
:10BA50000EBF154602220825012C93F8E03017D0BE
:10BA600001240C2B80F83C404FF0020480F83D404C
:10BA700000F0C6800DD8042B65D0082B00F0908014
:10BA8000002B32D0012380F83D30002380F83C3079
:10BA9000F0BD102B00F0DB80142BF3D103681C6A7F
:10BAA00024F480141C621D6A5E6825F400155C6D28
:10BAB00045EA025224F080747B4D24F4E044AB420A
:10BAC00044F4C04403D005F58065AB4201D146F48F
:10BAD00080265E605C65D9651A625A6D42F4006228
:10BAE0005A655A6D22F48062D7E003681C6A24F01C
:10BAF00001041C621C6A5F6824F002049E692243F0
:10BB000026F48036684C26F07306A34246F06006A1
:10BB100003D004F58064A34206D122F0080247F462
:10BB200040772A4322F004025F609E6159631A62E3
:10BB30009A6942F008029A619A6922F004029A61B5
:10BB40009A699A619EE703681C6A24F010041C62DB
:10BB50001C6A5F6824F020049E6944EA021226F001
:10BB60008076514C26F4E646A34246F4C04603D004
:10BB700004F58064A34207D122F0800247F44067B5
:10BB800042EA051222F040025F609E6199631A62E8
:10BB90009A6942F400629A619A6922F48062CEE75F
:10BBA00003681C6A24F480741C621C6A5F6824F4B5
:10BBB0000074DE6944EA022226F480363A4C26F00C
:10BBC0007306A34246F0600603D004F58064A342E6
:10BBD00007D122F4006247F4405742EA052222F4DA
:10BBE00080625F60DE61D9631A62DA6942F008023E
:10BBF000DA61DA6922F00402DA61DA69DA6141E7CE
:10BC000003681C6A24F480541C621D6A5E6825F473
:10BC10000055DC6945EA023224F08074224D24F498
:10BC2000E644AB4244F4C04403D005F58065AB4222
:10BC300001D146F480465E60DC6119641A62DA69FB
:10BC400042F40062DA61DA6922F48062D4E70368C0
:10BC50001C6A24F480341C621D6A5E6825F4003579
:10BC60005C6D45EA024224F480340F4D24F07004E8
:10BC7000AB4244F0600403D005F58065AB4201D1CE
:10BC800046F480365E605C6599651A625A6D42F0D2
:10BC900008025A655A6D22F004025A655A6D5A65B7
:10BCA000F0E600BFA01B06080000014043685A7977
:10BCB000032A0FD8DFE802F00205080B18683430B9
:10BCC000704718683830704718683C3070471868FB
:10BCD0004030704700207047D0E9003251795868F1
:10BCE000054B0B4493F8E01093795B0701D54EF0B8
:10BCF0009EBE4EF0B0BE00BFA01B0608024B03481C
:10BD0000D3F8E014FDF708B8D82101200000014065
:10BD100010B5064C0648D4F8E014FCF7FDFFD4F843
:10BD200004150448BDE81040FCF7F6BFD8210120F7
:10BD30000000014000440140034B4FF08040D3F825
:10BD4000E414FCF7E9BF00BFD8210120024B0348EF
:10BD5000D3F8E814FCF7E0BFD8210120000400402C
:10BD6000024B0348D3F8EC14FCF7D6BFD8210120CE
:10BD700000080040024B0348D3F8F014FCF7CCBF96
:10BD8000D8210120000C0040024B0348D3F8FC14DA
:10BD9000FCF7C2BFD82101200004014010B5064CB9
:10BDA0000648D4F8FC14FCF7B7FFD4F81015044883
:10BDB000BDE81040FCF7B0BFD821012000040140CD
:10BDC000001C004010B5064C0648D4F8FC14FCF7E3
:10BDD000A3FFD4F814150448BDE81040FCF79CBF3D
:10BDE000D82101200004014000200040024B0348FC
:10BDF000D3F80015FCF790BFD82101200040014086
:10BE0000024B0348D3F80815FCF786BFD821012060
:10BE100000480140024B0348D3F80C15FCF77CBFE7
:10BE2000D821012000180040704710B501208EB0C5
:10BE300008F0C4FB012809D1002108F0C5FB614BC3
:10BE40001A6882F308885B689847FEE75E4A002418
:10BE50005E4BD1685E4821F4E0610904090C0B4394
:10BE6000D3605C4B596F196B41F480211963196BD6
:10BE700001F480210D910D99196B41F48011196322
:10BE8000196B01F480110C910C99196B41F480012C
:10BE90001963196B01F480010B910B99196B41F037
:10BEA00000511963196B01F000510A910A99196B3D
:10BEB00041F080411963196B01F0804109910999A2
:10BEC000196C41F400311964196C01F400310891C6
:10BED0000899196C41F480211964196C01F48021CE
:10BEE00007910799196C41F400211964196C01F448
:10BEF000002106910699196C41F480111964196C9E
:10BF000001F4801105910599196C41F08041196483
:10BF1000196C01F0804104910499196C41F00041C1
:10BF20001964196C01F0004103910399596C41F0B7
:10BF300010015964596C01F0100102910299596C79
:10BF400041F020015964596C01F0200101910199DF
:10BF5000596C41F4006159645B6C1F4903F4006340
:10BF60000093009B1D4BD3F8BC31B3FBF1F1C0F83B
:10BF70009818D2F8FC101A4841F08071C2F8FC10F1
:10BF80001849C1F8B00F4C60086840F00100086023
:10BF90004FF47A71B3FBF1F3013BB3F1807F08D228
:10BFA0004FF0E0214B61F02382F8233007238C61AE
:10BFB0000B614FF0E022136943F0040313610EB0EC
:10BFC00010BD00BF0000F01F00ED00E00003FA0507
:10BFD000D82101200038024040420F00000001201B
:10BFE00055CEACC5001000E0074B03EB8000D0F845
:10BFF000E43033B193F8AD204A7093F8AC300B7055
:10C0000070474B70FBE700BFA01B06082DE9F0410D
:10C0100017462C4A9846054602EB8003D3F8E440C5
:10C0200084B304F1AE0302F5827294F8AD00261DCC
:10C03000A36104F5D7736260E3614FF48073E1603C
:10C04000C4E904332368C4F8A830A36307F0F0FD03
:10C0500018F0080F19D00135EDB218B14FF4E163B3
:10C06000C380057294F8B622022107F0C1FD94F94D
:10C07000B702D4F8B8124CF0BBFC94F9B7023446BE
:10C08000FDF7B4FF2046BDE8F081BA0794F8AC8014
:10C090000BD56B1CDBB218B14FF4A1620372C280E6
:10C0A00094F8B622022107F0A3FDFB07DFD5013586
:10C0B000404607F0BDFDEDB20028D3D04FF4C16378
:10C0C000CEE700BFA01B06080148FCF7FFBE00BF7B
:10C0D000100401200148FCF7F9BE00BFCC06012086
:10C0E0000148FCF7F3BE00BF880901200148FCF7B6
:10C0F000EDBE00BF440C01200148FCF7E7BE00BFC5
:10C10000000F0120426B2423816870B580F89D30B8
:10C110000446136800F1340523F001031360002383
:10C1200013605360936081638179C0F8A03080F818
:10C130009C3080F89D3080F89E308802A36400F423
:10C140008050E3646365E0630803637900F40050A2
:10C1500013F0010620644FEA012000F4806060645F
:10C160001CBF0420A06413F002031EBFA06C40F0AB
:10C170000800A064C8070FD536B1A06D40F00200DA
:10C18000A0654FF48030206633B1A36D43F0010306
:10C19000A3654FF40033E365242311F0080F94F8EE
:10C1A0009D10284684F89D30136823F00103136026
:10C1B00036D0FEF7B1F9012818D0A36D13B1284687
:10C1C000FBF7B6FF636B5A6822F490425A609A6894
:10C1D00022F022029A609A6842F008029A60284689
:10C1E0001A6842F001021A604EF0C0FB6179CA077A
:10C1F0000DD5D4F8A4301A6842F480721A609A6897
:10C2000042F001029A601A6842F020021A608B071D
:10C2100005D5D4F8A420136843F08003136070BDE3
:10C22000FEF77AF90128E1D0A36D13B12846FBF798
:10C230007FFF636B5A6822F490425A609A6822F03A
:10C240002A02CBE781605DE741715BE710B51C20F6
:10C2500007F0EEFC0446112107F0AAFC204607F087
:10C26000A1FCC82009F057FB2046BDE8104007F0AC
:10C2700094BC934B2DE9F04FD3F89C5887B06B6971
:10C2800013F00103029340F0A9816A69AB691A4275
:10C2900000F0A4816B69AA6913409C0701D50223B1
:10C2A0006B616B69AA691340180300F19A81844C91
:10C2B000D4F89C385A6999690A40510311D5D3F8CA
:10C2C000182803F5006304F69C0705F5106ADB697E
:10C2D0004FF0000913409BB20193019B002B40F0EB
:10C2E0002A84D4F89C08426983691A4216D5D5F885
:10C2F000043823F00103C5F8043894F8883C012B76
:10C3000015BFD4F8983C002393F8FD2184F8883CAD
:10C3100018BF83F8FC214FF00043436143698269F1
:10C3200013401B050FD5D5F80838DF0708D5D4F81A
:10C33000983C93F8FC2183F8FD21042283F8FC212A
:10C340004FF4006343614369826913401E010FD5B6
:10C350004FF00063436194F8883C002B40F0FB846D
:10C36000012384F8883C436DC3F38303C4F88C3CF9
:10C37000436982691340D9043AD5D5F804381021AD
:10C3800005F5006623F0010373604EF015F9D4F84B
:10C39000A00805F510630022FF21824240F0E684E8
:10C3A0004FF0FF33B361F36943F00113F361D4F845
:10C3B000CC38002B00F0E184D6F8843043F00B0336
:10C3C000C6F88430736C43F00B037364D5F80038FF
:10C3D0003C4A23F4FE6394F8AC18D4F89C08C5F8E2
:10C3E00000384EF081F8D4F89C384FF480525A61EE
:10C3F000D4F89C385A6999690A40920472D5D3F8E6
:10C40000002922F4FF6222F00702C3F8002903F595
:10C410000062916801F00601042905D1D3F80019E2
:10C4200041F00301C3F80019516841F48071516073
:10C43000D96821F47051D960916811F0060F11D0BC
:10C44000916801F00601022900F0A184916801F0D1
:10C450000601062900F09B84926802F00602042A75
:10C4600000F095844FF400720027C4F8B028DA6811
:10C47000C4F8A87842F41052DA60D4F8986C00221C
:10C480004FF0400840231146D6F830024DF090FF9F
:10C49000434600228021D6F83002C6F810814DF0C4
:10C4A00087FF0123C6F8208086F8FC31D6F81832C1
:10C4B00053B9D6F820323BB9D6F8283253B103E04D
:10C4C000D8210120302E0120D6F81432304631799F
:10C4D0005B689847D4F8983C4FF400521F74D4F826
:10C4E0009C385A61D4F89C28536991690B40DB064B
:10C4F0002FD5936923F0100393612B6AC3F3434054
:10C5000003F00F07022840F0AF8447F6F0710B42AA
:10C510001BD01C20C3F30A1305F5805500FB074010
:10C52000DE1CD0F8A0CAB61002998E4240F0948466
:10C530001C2101FB0741D1F8A05AD1F8AC0A1D44D7
:10C540001844C1F8A05AC1F8AC0A936943F010032B
:10C5500093615369926913401F070ED5D4F8980C64
:10C5600090F8FC31032B04D1D0F81432DB6903B10D
:10C570009847D4F89C3808225A61D4F89C2853690B
:10C5800091690B40DE0202D54FF480135361536969
:10C5900091690B409D0202D54FF40013536153691A
:10C5A00091690B40580002D54FF0804353615369A5
:10C5B00091690B40590711D555686B0709D5D4F817
:10C5C000980C012380F8FC31D0F8143201795B68B3
:10C5D0009847D4F89C385A6815435D6007B0BDE8A9
:10C5E000F08FD5F8183805F53067D5F81C284FF0CE
:10C5F000000ADFF85C831340A8F69C061B0C01932D
:10C60000019B002B3FF453AE019BDA0740F14D81B3
:10C61000D6F89C385FFA8AF103F5306203F50063BF
:10C6200002EB411292685B6902EA030919F0010FFB
:10C6300039D00123BB60D6F8AC38012B0CD13B6953
:10C64000D8F80022C3F31203D31AC8F81032D8F86E
:10C6500004321344C8F80432D6F8984C00297AD131
:10C66000D4F8F431032B10D1D4E94303984264D9B0
:10C67000C01AD6F8A02A8342C4F80C0128BF03468A
:10C68000D4F830029BB24DF0FCFDD6F8AC1801296D
:10C6900009D1D6F8A83A5AEA030304D1AB4AD6F82E
:10C6A0009C084DF021FF19F0080F00F0F480D6F837
:10C6B000984C96F8580C04F5027B84F8080296F81A
:10C6C00059EC84F809E296F85B1C96F85A3C03EBA7
:10C6D00001239BB2A4F80A3296F85D2C96F85CCC44
:10C6E0000CEB022C1FFA8CFCA4F80CC296F85F1C11
:10C6F00096F85E2C02EB0122012192B2C4E97D1270
:10C7000000F01F01A4F80E22012900F0488102293F
:10C7100000F05A81002940F00B82BEF1090F00F2AF
:10C72000D480DFE81EF017013201D2002701D200C9
:10C730008A002400D2000301CD00D4F814321B6912
:10C740002BB194F8FC21032A01D1204698472046BA
:10C750004DF084FE99E7D4F814329B69002B94D0F5
:10C7600094F8FC21032A90D1204698478DE71A0AB5
:10C77000013A062A00F2A980DFE802F0041D2AA788
:10C78000A74A5400D4F810321B680DF11601207C22
:10C790009847BDF81620002A7BD0B4F80E32002B43
:10C7A00077D09A42014628BF1A46ADF81620204697
:10C7B0004DF05DFE6DE0227CD4F8143232B99B6AF4
:10C7C0000DF11600984702234370E2E7DB6AF7E7B2
:10C7D000DBB2052B79D8DFE803F003070B0F131743
:10C7E000D4F810325B68D0E7D4F810329B68CCE7FD
:10C7F000D4F81032DB68C8E7D4F810321B69C4E7FC
:10C80000D4F810325B69C0E7D4F810329B69BCE7FA
:10C81000237C002B59D1D4F814320DF116005B6B38
:10C820009847B6E7237C002B4FD1D4F814320DF192
:10C8300016001B6B98470723C6E75CEA0202D4F890
:10C84000300203D194F8FC11032902D14DF0AAFE65
:10C850001FE003F07F0B84F8FEB190F8B833012B92
:10C860000ED00368D3F8001821F4FE61C3F8001855
:10C87000D3F8001841EA0B11C3F8001880F8B82368
:10C8800020464DF0EBFDBBF1000F17D0022384F8DA
:10C89000FC310823BB6019F0100F01D01023BB60DE
:10C8A00019F0200F01D02023BB60019B0AF1010A7F
:10C8B000203708F11C085B080193A1E60123E6E795
:10C8C000D9B2012986F89C1C02D9D4F83002BDE700
:10C8D00094F8FC31022B0FD0032BF6D1C9B90223F7
:10C8E0002046616084F8FC31D4F814325A689047CD
:10C8F00020464DF0B3FDCCE70029F9D001210323F8
:10C90000616084F8FC312046FBF71CFD0228EFD162
:10C91000DBE761680129EBD0D4F81432C9B22046B4
:10C920005B68984796F89C1C6160ECE7012ACCD1C3
:10C9300094F8FC31022B03D0032BC6D1211D36E71E
:10C940002146002341F8083F31E700BF302E012087
:10C95000742A012094F8FC31023B012BB5D8012345
:10C96000E360D4F804320BB10323E360022204F144
:10C970000C011CE7012B8CD1C4F80432D4F814321A
:10C98000594620469B689847B2E794F8FC21023A42
:10C99000012A9AD8012B7FF47CAF0023ECE794F8AE
:10C9A000FC31032B91D15FFA8CFCBCF1030F8CD8C6
:10C9B000D4F81432594620469B689847B4F80E3292
:10C9C000002B7FF466AF93E700F060005FFA8CF114
:10C9D000202806D1D4F81432594620469B6898473F
:10C9E00057E7BEF1010F46D0BEF1030F33D0BEF1C1
:10C9F000000F7FF44EAF94F8FC31022B00F09080D2
:10CA0000032B7FF462AF4FFA8CFC01F07F021023FE
:10CA10004FF0040EBCF1000FB4BF501C02F1100027
:10CA2000BCF1000F4FF01C0C13FB00E3D4F83002F4
:10CA3000A8BF0CFB01012344B4BF0CFB020291F818
:10CA4000FA211946B8BF92F83A20003A18BF0122DD
:10CA50001A600222ABE694F8FC21022A60D0032A75
:10CA60007FF433AF002B89D14B0687D0D4F8300246
:10CA70004DF059FD82E794F8FC21022A50D0032A98
:10CA80007FF423AF002B7FF404AF11F07F003FF45D
:10CA90002FAF4FFA8CFCD4F830221C23BCF1000FCE
:10CAA0004FEADC7CB4BF03FB002103FB01214FF004
:10CAB0000003B4BF383101F5FC718B70087081F848
:10CAC00001C092F8B833012B3FF458AF01234FF067
:10CAD000200E82F8B8331368BCF1000F14D0C87868
:10CAE00003F51063097802381EFB01330128196829
:10CAF00021F40011196003D8196841F080511960C0
:10CB0000002382F8B83339E703F530631EFB0033A6
:10CB1000186820F400101860C97802390129EAE782
:10CB200048063FF4B6AED4F830024DF0FCFCB0E657
:10CB300000F08001F7E7019BDA0740F1A980D4F803
:10CB40009C285FFA89FBD2F8101802F5106252F89F
:10CB5000CC3C02EB4B1223FA0BF892684FEAC81850
:10CB60005FFA88F848EA010808EA020818F0010F9D
:10CB70004AD00121D5F8343801FA09F123EA01033A
:10CB8000C5F834380123CAF80830D4F8AC38012B82
:10CB900002BFD7E910239B187B6419F0FF01D4F87A
:10CBA000986C40F0A780D6F8F431022B17D1D6E963
:10CBB0000730834276D91C221B1AD6F8300202FBBA
:10CBC0000B420391D2F8E028F3619BB24DF08EFB4B
:10CBD00003990B460A46D6F830024DF052FB96F800
:10CBE0000032012B02D1002386F80032D4F8AC18B1
:10CBF000012909D1D4F8E83859EA030304D1A64A37
:10CC0000D4F89C084DF070FC18F0080F02D00823EF
:10CC1000CAF8083018F0100F02D01023CAF80830F4
:10CC200018F0400F02D04023CAF8083018F0020F65
:10CC300002D00223CAF8083018F0800F28D0D4F8A8
:10CC40009C08D7E9133200F5106600F580519B1A55
:10CC50003A6C06EB4918934201EB0B3BA8BF134615
:10CC6000DA1C48BF9A1D9210D8F8181089B2914268
:10CC700003D9D7E913218A424AD8002B08DC0122C4
:10CC8000D0F8343802FA09F223EA0203C0F8343843
:10CC9000019B09F101091C370AF1200A5B08019385
:10CCA000FFF71BBBB269B2FBF0F300FB132393B990
:10CCB000904210D8D6F8F8118A420CD21A4619467A
:10CCC000D6F8300203934DF011FB039BC6F8F83100
:10CCD0001A4619467FE7D6F81432DB682BB196F86E
:10CCE000FC21032A01D1304698470523C6F8F431C8
:10CCF0000023EDE7D6F814325B69002B3FF476AFE2
:10CD000096F8FC21032A7FF471AF304698476DE70F
:10CD1000521A3B6C94F8AC189342A8BF1346DA1C25
:10CD200048BF9A1D921031B1796C19447964396DFC
:10CD30001944396598E71FFA83FCD7F844E00CF1F1
:10CD4000030C4FEAAC0C8C45EED05EF8216001314B
:10CD5000CBF80060F7E7D4F8983C93F8FC2183F80F
:10CD6000FD21042283F8FC21FFF702BB9960013208
:10CD7000C3F808122033FFF710BB736943F02B038D
:10CD80007361336943F00B033361FFF71FBB032269
:10CD900042494348C4F8A8284022C4F8B028414A70
:10CDA000D2F8BC211144814206D8DA6842F47052AC
:10CDB0000127DA60FFF761BB3B493C4811448142DF
:10CDC00003D8DA6842F46052F2E7A2F574013848F9
:10CDD000A1F51051814203D8DA6842F45052E7E7D6
:10CDE000A2F183713348A1F5E741814203D2DA68A9
:10CDF00042F44052DCE7304930481144814203D8C4
:10CE0000DA6842F43052D3E72D492E48114481426A
:10CE100003D2DA6842F42052CAE72B492B48114466
:10CE2000814203D2DA6842F41052C1E7A2F1B7712D
:10CE30002748A1F55851814203D2DA6842F40052E2
:10CE4000B6E724491144244A9142DA6834BF42F4D7
:10CE5000E05242F4C052ABE7029928684CF8210036
:10CE600001310291FFF760BB06287FF46EAB05F538
:10CE70008055C3F30A132968C4F8581C2968C4F8FC
:10CE80005C1C1C2101FB0741D1F8AC0A0344C1F82A
:10CE9000AC3AFFF75ABB00BF302E0120405327FFAA
:10CEA000FF340C0000000120401E1BFF3F420F001A
:10CEB0007F4F120020D6130060B6E5FE5FE3160038
:10CEC00000D3CEFE40771B00C05BB3FEC0912100B3
:10CED00020753800E05459FEE09C410070B5484C84
:10CEE000D4F888321A69910709D5DA68920706D50D
:10CEF0006FF002021A619A69002284F8A4221A696A
:10CF0000560709D5DA68550706D56FF004021A618D
:10CF10009A69002284F8A4221A69100709D5DA68F0
:10CF2000110706D56FF008021A61DA69002284F849
:10CF3000A4221A69D20609D5DA68D60606D56FF09A
:10CF400010021A61DA69002284F8A4221A69D5074E
:10CF50002ED5DA68D0072BD56FF001021A61294A65
:10CF6000934225D1D4E99125AA4221D0264B8CBFEA
:10CF7000C2F58055AD1A1A44D4F82032A9B2D3F8BC
:10CF80001462C3F80822C3F810128EB90121D4F834
:10CF90003802C3F81412ABB281214DF0A7F9D4F8CE
:10CFA00044321D44B5F5805F18BF2E46C4F8446274
:10CFB000D4F888321A69110605D5DA68120602D546
:10CFC0006FF080021A611A69D60505D5DA68150670
:10CFD00002D56FF080021A611A69540605D5DA6825
:10CFE000500602D56FF040021A611A69910605D504
:10CFF000DA68920602D56FF020021A6170BD00BF98
:10D00000D821012000140040A46201202DE9F04144
:10D01000114E0D46D6F82022D2F81432002BFBD147
:10D0200004464719DFF83480BC4202D12846BDE8E7
:10D03000F081D6F8483214F8012B08F803200133A8
:10D04000C3F30B03C6F84832FBF76AFA0028EBD1AA
:10D05000012008F060FCF7E7D8210120A46201203C
:10D06000F8B50D461446FBF75FF978B1084ED6F8CF
:10D07000A07C002C0ADD21462846FFF7C7FFD6F822
:10D08000A03C241A0544DB1B322BF2D9F8BD00BFAB
:10D09000D821012070472DE9F04F4FF00008DFF84C
:10D0A00034932DED028B8FB044462FF07DFE474622
:10D0B0002FF054FE45460646BE4200F3A380642C82
:10D0C00040F04B816825DFF8E4824C22B44B00210C
:10D0D000D8F84C7155430534C3F8C07008EB05030C
:10D0E000184654F0C5FB4C22002154F0C1FBAD4A58
:10D0F00048F80520012247628260AB4AC0E9046615
:10D100008262C0E90777A64BA84DD3F8C0707300C0
:10D11000B3F1805F18DA4C220021C6F10066544357
:10D120002B19184654F0A4FB4C22002154F0A0FB0C
:10D130009F4A2A5102224762427101229640826030
:10D14000C0E90466C0E907774FF498729949974897
:10D1500054F044F9954A0421134601395F62C3E94A
:10D16000077703F14C03F8D1AE68002E45D12B7937
:10D17000002B42D02B68002B3FD00C468B488C46AE
:10D180002964E963C5E91111C76C00F14C03002F54
:10D1900040F0228102231068002840F04D8186482B
:10D1A0009C1E864B3E22C0F88462C0F85C323F234E
:10D1B000C0E998234023C0E99D41C0F86832A1002E
:10D1C000A30F002C00F0658140F2FF128A1843F192
:10D1D0000003520A42EAC35202F14003C0F86C3223
:10D1E0001344C0F8703203EBC403DA0DC0F85832B0
:10D1F0005B02C0E99F55C0E994320FB0BDEC028BD1
:10D20000BDE8F08F202206A938462FF08DFD1222AE
:10D210006B4906A854F030FC0090002840F08B8049
:10D22000AF421DD067490C20621CCA4600FB0414A3
:10D2300065490192A7EB050B204602F081FB012115
:10D240004AF84C4B019AC9E9021557491446C9F8E6
:10D250002810D9F81C10C9E904BBC9E90811D14646
:10D260004F4B3D46D3F8C020C9F81C2012220EAB0C
:10D27000501C1A44554B12F8201C18F803209142F8
:10D280005CD108F10108B8F1150F59D1202206A987
:10D29000284400252FF048FD05AA4D4906A854F062
:10D2A0007CFA05AAAA46AB4608EE102A0195CDE9FC
:10D2B000025538B30BF1FF32042A04D8DFE802F03C
:10D2C0000F13171B1F0003F079F8824618EE102A7F
:10D2D0003F4900200BF1010B54F05FFAE9E703F03E
:10D2E0006DF80190F2E703F069F80290EEE703F0C1
:10D2F00065F80390EAE703F061F80546E6E703F016
:10D300005DF80090BAF1000F12D0AAF2BC7ADDE904
:10D31000012343EA4210039B40EA4A2A680140EA9B
:10D32000C320009B40EA630040EA0A40C9F81C00A1
:10D33000642C2ED03D4607F50067BDE64FF000088F
:10D34000202808D12035AE42F2DB024606A9284645
:10D350002FF0EAFC0020024689E7AF4219D0A7EB84
:10D360000508184A0C27184907FB042701343846DA
:10D37000224602F0E5FA0122C9F80070C9E9022547
:10D38000094AC9F82820D9F81C20C9E90488C9E944
:10D390000822251D002C7FF496AE0424B3E600BFBE
:10D3A000F810012075B60608C59F00082C3301202F
:10D3B00082B60608D41C0608D82101208FB60608BC
:10D3C00039B606087C2E01204CB606085AB6060867
:10D3D00070B606085C3401209F6804F1FF3EC3F874
:10D3E00040C07745C3F83CC0C3E911CC05D1002C3F
:10D3F0003FF403AF53F80C0C3C4604F1010E7745A3
:10D4000008D10479002C3FF4F8AE436418647446E4
:10D410001846B9E6A7427FF4F0AE002F3FF4EDAE18
:10D42000D0F840E0DEF83C400134CEF83C40C3F890
:10D4300040E0BE468364EAE7107903F1FF3CA0B107
:10D440001363D36B5B0116BF03F6FF7301231B0B42
:10D450006344C2E90477C2E90D33D2E90D03013612
:10D460004C32181A0133014495E61469136364B110
:10D4700004F6FF74240B64445069546338B100F619
:10D48000FF70000B60449063E7E70124F3E701209D
:10D49000F8E70122A0E600BF2DE9F74FCDE9001221
:10D4A0004F4AD38911681B025689178AC91A938972
:10D4B0006EEB0E0EA3FB010403FB0E44C00913899F
:10D4C00040EA44601B04E411C018A6FB013506FBCA
:10D4D0000E554FEA1323D68844F1000443EA05634E
:10D4E000F6032D129B19A7FB012607FB0E664FEAD8
:10D4F000D25245F1000542EA4622F61512F5FA6CC1
:10D5000046F1000BBCF5FA6F7BF100074CDAA2FB89
:10D5100002784FF0050A02FB06F908EB4909A7FB60
:10D520000A780AFB09884FEA5709BF0849EAC8790F
:10D5300047EA8877B0EB090064EB6804DB1B294FEE
:10D5400065EBA805BC454FF0FF377BEB070720DAFA
:10D5500040F6AC57D21946F100065643A2FB0272C0
:10D5600002EB4606FA004FEAC608BA1A48EA5778AC
:10D5700066EB0808101844EB08044FF00B08A7FBF3
:10D58000087208FB06267F0847EAC677DB1B65EBB7
:10D59000660501FB0EFEA1FB011202EB4E0EC90F48
:10D5A00041EA4E01BCEB010C009A8AB10C4A516968
:10D5B000A1FB032301FB0535520D009B42EAC52266
:10D5C0006D15121A65EB0404D20B42EA44421A604C
:10D5D000019B0BB1C3F800C0012003B0BDE8F08F80
:10D5E000A872012024FAFFFF31B10A4BD3ED0C7A67
:10D5F000FDEEE77AC1ED007A52B1064B9FED067A57
:10D60000D3ED0D7A67EE877AFDEEE77AC2ED007A08
:10D6100001207047A87201200000C842034B00227D
:10D620000120C3E90E22C3E910227047A87201202D
:10D63000007970470079C0F34010704700794009C5
:10D64000704700BF704700BF704700BF9FED047A6E
:10D65000C7EE007A77EEA07A80EEA70A704700BF87
:10D6600072C7D13D002380ED020A0360436070471A
:10D6700003685A1C02601970704700BF03690133C8
:10D68000012B03611CD0D0ED005A07EE903AD0ED8B
:10D69000026A30EE656AF8EEE77A86EE277A77EE70
:10D6A000257A30EE670AC0ED017AC0ED007AF0EE1F
:10D6B000667AE6EE007AC0ED037AC0ED027A704732
:10D6C000002380ED010A80ED000A83607047036843
:10D6D0005A1C0260197070470123037750F8043C0C
:10D6E0000BB118381847704790F83420034602F001
:10D6F000FF0012B1002283F8342070474FF48053AA
:10D70000838170474FF40063838170474FF4006357
:10D71000838170474FF4006383817047064A00237A
:10D7200052F8041B814204D00133042BF8D10020AD
:10D7300070470120704700BFF07201200120704740
:10D7400001207047012070472DE9F8435F4F1546CF
:10D750000E46BC6DB7F85C20B7F86290C2EB24139C
:10D760005200C2EBE402B7F95E40624303FB03F4EC
:10D77000B7F9603024135C43B7F96630A4134FEA5D
:10D78000E37804EBE224A4F5FA317C6781FB01CE57
:10D7900003FB0EF20CFB0822A3FB0C389044B7F9F4
:10D7A00064201B0A82FB010243EA0863120342EA77
:10D7B000105200031B184FF0000042EB2822A3FB7D
:10D7C000093802F5004209FB02884FEAE8734FEA84
:10D7D000680253EA68086CD0B7F96C904FEAE978B0
:10D7E00009FB0EFE0CFB08EEA9FB0C9CE644B7F906
:10D7F0006AC08CFB01814FEA414C4FEA48414CEA38
