:020000040800F2
:10000000F0FF0120E1B40608F9F4000871CE0408FD
:1000100059B5060859B5060859B50608000000008C
:10002000000000000000000000000000F5F40008DF
:10003000F1F4000800000000EDF400087505050863
:1000400059B5060859B5060859B5060859B5060840
:1000500059B5060859B506082D160508F515050801
:10006000BD150508851505084D1505080D70060810
:10007000FD6F0608ED6F0608DD6F0608C96F0608FC
:10008000B56F0608A16F060859B506080000000004
:100090000000000000000000000000001515050829
:1000A00051D30408A1D3040841D30408C9D30408D8
:1000B00091D3040881D3040871D30408CDAC060899
:1000C000D5AC0608C1AC0608C9AC060859B5060887
:1000D00059B5060849070508910605080000000003
:1000E000DD14050859B50608B10D0108000000002F
:1000F0000000000000000000000000008D6F0608F6
:1001000000000000CD4B060861D3040859B506086D
:1001100000000000000000000000000000000000DF
:10012000796F0608656F0608516F06083D6F06086F
:10013000296F060800000000000000000000000019
:100140000000000000000000000000008DEE00082C
:10015000156F0608016F0608ED6E0608D90505083B
:10016000B5AC0608BDAC06080000000000000000A9
:10017000000000000000000000000000000000007F
:100180000000000059B50608000000000000000053
:0801900059B5060859B506082F
:0801980080B006000100000028
:1001A0000E0201000200000078740020D8740020C4
:1001B00000000000CCF00708140201000500000058
:1001C000C8390020DC74002000000000CEF00708D1
:1001D0001302010004000000B02B0020E474002092
:1001E00000000000D4F00708031101000A0000001D
:1001F000C0730020E874002000000000FD19010811
:100200000D1001004C000000586F0020F474002015
:1002100000000000F94B0408090201000100000081
:10022000C06E00204075002000000000D8F00708D4
:10023000FD01010024000000786E002044750020BC
:10024000000000006BDE0408FB010100010000005B
:10025000B8690020687500200000000005580508F6
:10026000FC01010009000000846800206C7500207A
:10027000000000000D580508F7010100060000000D
:10028000786800207875002000000000DAF0070888
:10029000F90101000400000074680020807500204E
:1002A0000000000015DF0408160215003F000000E2
:1002B000642D002084750020000000002D580508E2
:1002C0003400010010000000A4670020C475002065
:1002D00000000000A59B02081102010008000000B8
:1002E0007C670020D475002000000000E0F00708C3
:1002F000121201000400000074670020DC75002069
:1003000000000000E8F00708183001003800000085
:100310003C670020E07500200000000075620508C1
:10032000000201000B000000C063002018760020CE
:100330000000000051580508FF21010005000000E1
:100340006C63002024760020000000009D57050803
:10035000081203000F000000786300202C760020B4
:1003600000000000AD570508FA010100030000007D
:10037000D85C00203C7600200000000025580508CD
:100380002A02010008000000E4510020407600200D
:1003900000000000ECF007082052010008000000F7
:1003A000405000204876002000000000C99B020851
:1003B0000610010024000000802C00205076002050
:1003C00000000000A55805080C0201000400000010
:1003D000D048002074760020000000007158050805
:1003E000FE01010014000000F83A00207876002099
:1003F0000000000059580508261001000E000000FA
:1004000070E5002060E5002000000000D91E010812
:100410001230010010000000A0E1002080E5002063
:1004200000000000F4F007080B3001001A00000083
:10043000F8DB0020C0E500200000000004F1070800
:100440001F5001002400000024DB0020DCE5002018
:100450000000000020F10708050201000400000070
:10046000E0DD002000E600200000000044F1070865
:10047000010201000B000000ECEB00206CF50020F5
:1004800000000000415805080202010003000000BE
:10049000E4EB002078F500200000000000000000E0
:1004A0001B02010010000000D0EB00207CF50020B2
:1004B00000000000915805081B2001000C000000FE
:1004C00010E900208CF5002000000000D98301080D
:1004D00021020100F000000044E7002098F5002010
:1004E00000000000DD9B0108371001003000000013
:1004F00088EE002088F600200000000048F1070880
:1005000016100100060000008CEB0020B8F6002059
:100510000000000078F107082F1001002200000001
:1005200048F50020C0F60020000000007EF107081A
:100530002322010010000000C8EA0020E4F6002099
:1005400000000000A0F107081E00010009000000E3
:10055000B4EA0020F4F6002000000000B0F1070823
:10056000052001000C00000060EB002000F70020D7
:1005700000000000BCF10708FD0701007C0000003E
:1005800008E600200CF70020000000005D7D010857
:10059000F59101006C000000C8E6002088F70020FB
:1005A00000000000819101082320010010000000DC
:1005B000EAED0020F4F70020000000000D0D020815
:1005C000F62101000C00000010150120A4160120E6
:1005D00000000000C8F107081C0202001C00000017
:1005E000A0140120F416012000000000155D05088C
:1005F0002830010016000000BC1401201017012053
:1006000000000000DD1A02081400010005000000CF
:10061000981401202817012000000000D4F10708D9
:10062000012001000C000000F00D01203017012016
:1006300000000000DAF107080C400600E4000000AA
:10064000100C01203C170120000000002DE20308DF
:100650000A90010024000000CC0B0120201801208A
:1006600000000000C50C02080E300300BC010000B1
:10067000080A01204418012000000000E19B020844
:10068000131001000400000028120120001A0120AC
:1006900000000000E8F1070801010100040000006B
:1006A0004C090120041A0120000000000000000095
:1006B000000101000400000044090120081A012083
:1006C00000000000ECF10708020101000300000037
:1006D000400901200C1A0120000000006DE203080F
:1006E000220201001C01000010100120101A01203C
:1006F000000000001D5F05081500100070000000DC
:100700005C260120042801200000000000000000F9
:10071000030001000100000054260120742801207C
:1007200000000000000000002A0008006000000037
:10073000E020012078280120000000007D9B0208B5
:100740002C00040010000000E8280120D828012017
:1007500000000000659502082920140078000000C0
:10076000CC230120F8280120000000000000000038
:100770001A0001000E0000007423012070290120DE
:1007800000000000F0F107082B0012002400000018
:100790005023012080290120000000003995020823
:1007A000190201001000000040230120A4290120AB
:1007B000000000003158050825201E002C01000013
:1007C000282E0120F8310120000000000000000068
:1007D000031201003D000000C0300120243301203D
:1007E00000000000FEF10708F831010006000000DB
:1007F000C82A012064330120000000003CF20708F1
:100800001010010002000000CC2D01206C330120EB
:100810000000000042F20708190001000500000076
:10082000442A0120703301200000000044F2070830
:10083000020001000C0000007C3C0120903C0120E3
:10084000000000000000000029020100400000003C
:10085000A03501209C3C0120000000004AF207085E
:100860002C02010004000000483C0120DC3C012077
:10087000000000008AF207080A02010014000000CC
:10088000F03A0120003D012000000000F9E10308DA
:100890001A0201003C00000068420120AC47012020
:1008A00000000000615C0508382001000300000022
:1008B000C83F0120E8470120000000008EF2070831
:1008C000040008008000000068490120E849012078
:1008D00000000000000000002802040004000000E6
:1008E00028480120684A0120000000008D580508B2
:1008F0002702040004000000244801206C4A012063
:1009000000000000815805081F02080010000000C8
:1009100014480120704A01200000000079570508A2
:100920001D02020006000000185301204053012060
:10093000000000000000000006120300120000008A
:1009400028530120C863012000000000E15D050874
:100950002700010004000000684C0120DC63012036
:100960000000000092F207080B2201003D00000089
:1009700094860120188D01200000000098F20708DD
:100980000D12010014000000F88B0120588D012089
:1009900000000000D8F207081E0201000600000057
:1009A000788A01206C8D012000000000ECF207081D
:1009B0001002010001000000C49E0120C09E012021
:0809C00000000000F2F207083C
:1009C8000403090412010002EF02014083045632B5
:1009D80000020102030100001201000202020040AD
:1009E800830440570002010203010000FFFFFFFFDC
:1009F80000000000000000000100000000000000EE
:100A080000000000C43900200000000001000000C0
:100A180000000000000000000000000000000000CE
:100A280000000000000000000000000000000000BE
:100A380000000000000000000000000000000000AE
:100A4800006002401060024000000000000000004A
:100A580000000000000B0000000000000000000083
:100A68000000000000600240286002400100000011
:100A78000000000000000000060C0000000000005C
:100A880000000000000000000060024040600240DA
:100A9800020000000000000000000000100D00002F
:100AA800000000000000000000000000006002409C
:100AB8005860024003000000000000000000000031
:100AC800160E0000000000000000000000000000FA
:100AD8000060024070600240040000000000000056
:100AE80000000000200F00000000000000000000CF
:100AF800000000000060024088600240050000001D
:100B080000000000000000002610000000000000A7
:100B1800000000000000000000600240A0600240E9
:100B28000600000000000000000000003011000076
:100B3800000000000000000000000000006002400B
:100B4800B86002400700000000000000000000003C
:100B5800362F000000000000000000000000000028
:100B68000064024010640240000000000000000021
:100B78000000000000380000000000000000000035
:100B880000000000006402402864024001000000E8
:100B9800000000000000000006390000000000000E
:100BA80000000000000000000064024040640240B1
:100BB800020000000000000000000000103A0000E1
:100BC8000000000000000000000000000064024077
:100BD800586402400300000000000000000000000C
:100BE800163B0000000000000000000000000000AC
:100BF800006402407064024004000000000000002D
:100C080000000000203C0000000000000000000080
:100C180000000000006402408864024005000000F3
:100C28000000000000000000264400000000000052
:100C3800000000000000000000640240A0640240C0
:100C48000600000000000000000000003045000021
:100C580000000000000000000000000000640240E6
:100C6800B864024007000000000000000000000017
:100C780036460000000000000000000000000000F0
:100C88007D0000001D8500081985000815850008ED
:100C98000985000805850008118500080D850008EC
:100CA80000000000B991000899A90008E98F000820
:100CB800F5AA000889920008A1850008798500082E
:100CC8005D85000811A3000889880008798A000852
:100CD80075900008F1900008AD9400088D85000813
:100CE8006585000855850008010000000000803F68
:100CF800993E01089D430108153F010801130108A9
:100D0800E5140108111301082D130108D91201086F
:100D1800C9120108000000000000000009022000BC
:100D2800010104C032090400000208065005070545
:100D3800810240000007050102400000090264002A
:100D4800030100C03209040000010300000009216A
:100D5800110100012236000705830309000A080B68
:100D6800010202020100090401000102020100055A
:100D780024001001052401000204240202052406AF
:100D88000102070582030800FF09040200020A00A5
:100D9800000007050102400000070581024000002D
:100DA80009024300020100C03209040000010202E6
:100DB8000100052400100105240100010424020299
:100DC8000524060001070582030800FF0904010045
:100DD800020A000000070501024000000705810221
:100DE80040000000FF000000140000FF00000000A9
:100DF80000000000AA550701000001AA55050100DE
:100E0800002D202D2D202D2D2D2D202D2D2D2D008B
:100E180000000000000000000000000000000000CA
:100E280008000000A8DB0608FF1FFF1F05010905D1
:100E3800A101A10005010930093109320933093539
:100E48000934093609371581257F75089508810207
:100E58000509190129081500250195087501810260
:100E6800C0C0000009022200010100E032090400AC
:100E780000010301020009211101000122360007C7
:100E880005830309000A00000000000001020304B2
:100E98000102030406070809AA550B010000AA5518
:100EA80005010000AA550902000000AA5503009F89
:100EB80001000000C0120000B8E50020000000009A
:100EC80090E5002000000000010000000100000083
:100ED80000000100E0017EFFFFFFFFFFFF000000B0
:100EE800FFFFFFFF08FF0101FF01000001000000F4
:100EF800F9010208000000000000000054E20608A2
:100F0800000000000000000000000000F8F90608DA
:100F1800000000000000000000000000B0FA060811
:100F28000000000000000000000000005CFA060855
:100F380000000000000000006D0D0208E60E012010
:100F480001010000B52202080000000000000000B6
:100F580078FB0608152602080000000000000000C3
:100F680030FB06082D202D2D202D2D2D2D202D2D4B
:100F78002D0000000000000000000000000000003C
:100F880000000000FFFFFFFFA5120208000000009C
:100F98000000000088F9060801000000FA000000BF
:100FA8000100000001000000010100000001010132
:100FB80000000000560D01200000F40101000000AF
:100FC800540D01200000F40101000000520D012021
:100FD8000000F40101000000500D01200000F401A0
:100FE800010000004E0D01200000F4010100000086
:100FF8004C0D01200000F401010000004A0D012001
:101008000000F40101000000A50A0208690A0208AC
:10101800000000001CE406083A0D0120053201001A
:10102800480D01206400F40101000000460D012074
:101038006400C40901000000380D0120E803D0074E
:1010480001000000360D0120E803D0070100000070
:10105800340D0120E803D00701000000320D012003
:101068001E00B80B01000000400D012005000F0014
:1010780001000000420D012003000A0001000000E9
:10108800300D01201E00F40101000000440D012074
:1010980002000000A8E406082E0D012014006400D8
:1010A800010000003C0D01203200E80301000000AF
:1010B8002C0D01200000C800010000000D0C0120CB
:1010C80000C801000C0C0120005001000B0C01208D
:1010D800005A0100090C01200200000010E4060873
:1010E8001C67070824670708E40E01200100C409EB
:1010F80000000000E20E01200100C4090000000009
:10110800E00E01200100C40900000000DE0E0120ED
:101118000100C40900000000DA0E01200100C40922
:1011280000000000DC0E01200100C40900000000DE
:10113800D80E01200100C40900000000D60E0120CD
:101148000100C409000000006B09012000C801006B
:101158006A09012000C80100680901200000FFFF9A
:101168000A000000660901200100C8000100000013
:101178006409012032003075320000006209012044
:101188007EFF1400050000006009012005002C0105
:10119800050000005F090120055A05005C090120CF
:1011A80000FF01005E09012002000000B8080020CD
:1011B8005A0901200300000060DD06085B090120D0
:1011C80000FF01005D09012002000000B8080020AE
:1011D800590901200300000060DD0608B808012055
:1011E800FF7F0100B408012000000000FFFFFFFF9F
:1011F80001000000B008012000000000FFFFFFFF11
:1012080001000000AC08012000000000FFFFFFFF04
:1012180001000000F909020889090208000000001D
:10122800F8E40608000E0120EE02CA0801000000DA
:10123800FE0D012000C8010064000000FD0D012022
:1012480000C8010064000000FC0D0120020000003D
:10125800B4E40608520901200000803E05000000A1
:101268005009012080C1803E050000004A09012084
:101278000083007D050000004809012080C1803EF0
:10128800050000004309012000FF01003C0901207E
:101298006400F401010000003A0901206400F4012F
:1012A80001000000380901206400F4010100000079
:1012B800360901200400000004E60608350901206B
:1012C8000200000018E60608F70901200D000000DA
:1012D80024E60608F409012000640100F20901204F
:1012E800320010270A000000F00901200D0000005C
:1012F80024E60608EF0901200D00000024E6060890
:10130800EE09012002000000C0E406080000000009
:1013180000000000000000005CE60608050E012041
:101328004600000094E60608030E012003000000B2
:10133800B0E70608040E012004000000CCE406080B
:10134800F909012003000000C0E70608F809012098
:1013580003000000C0E70608FA0B0120000A01009C
:10136800F80B01200000E80301000000F60B012043
:101378000000E80301000000F40B0120000A01004E
:10138800F20B01200000E80301000000F00B01202F
:101398000000E80301000000C40B0120C800E803B6
:1013A80001000000CA0B01203C00FA000100000007
:1013B800C80B01200100E80301000000C60B012052
:1013C80000050100080C012002000000E0E4060806
:1013D800060C01200000F40101000000040C0120AB
:1013E8000000F40101000000020C01200000F401DB
:1013F80001000000000C01200000F40101000000C1
:10140800FE0B01200000E80301000000FC0B012096
:101418000000E803010000001A0D0120006401002B
:101428000A000000190D0120006401000A000000F4
:10143800070D012019640100060D012002000000BB
:10144800ECE40608040D0120E803D0070A000000B8
:10145800020D0120006401000A000000F70C0120C1
:1014680000640100F60C012000640100FE0C01205C
:10147800006401000A000000FD0C01200064010066
:101488000A000000FC0C0120006401000A000000B2
:10149800010D012000FF01000A000000000D0120DD
:1014A80000FF01000A000000FF0C012000FF0100FE
:1014B8000A000000FB0C012001FF01000A000000E7
:1014C800FA0C012001FF01000A000000F90C0120BC
:1014D80001FF01000A000000020A01200000F401D7
:1014E80001000000000A01200000E80301000000DC
:1014F800FE0901200000E80301000000FC090120AA
:101508000000E80301000000FA0901200000E803D8
:1015180001000000370F0120009601002E0F012066
:1015280000C801002D0F0120006401002C0F0120CC
:10153800006401002B0F0120006401002A0F012024
:1015480000640100290F0120FF080100280F012075
:1015580001640100790802083D0802080000000043
:10156800D0E70608310F012001320100300F0120B9
:101578000100000040E806082F0F012004000000C9
:1015880048E80608270F012000960100260F0120D1
:1015980000640100240F01201400E803010000008A
:1015A800220F0120000030750A000000200F0120E2
:1015B80000C801001F0F012000C801001E0F0120F4
:1015C80000C80100340F012000320100360F01204D
:1015D80000140100350F0120004B0100330F0120DA
:1015E800040000005CE80608320F012000640100D6
:1015F8000A000000260D01200AC805000A000000A4
:10160800250D0120010000006CE80608280D0120C6
:101618000AC805000A000000270D0120010000008B
:101628006CE806081D0D012000C805000A0000002E
:10163800240D012000C805000A0000001E0D01202D
:1016480000C805000A0000001F0D012000C80500A1
:101658000A000000220D012000C805000A00000051
:10166800230D012000C805000A000000210D0120FB
:1016780000C805000A000000200D012000C8050070
:101688000A0000001C0D01200200000074E8060892
:10169800460F01200000D00701000000400F012084
:1016A80000C801003F0F012000C801003E0F0120C3
:1016B80000C80100440F01200000D007010000000D
:1016C8003D0F012000C801003C0F012000C80100A7
:1016D8003B0F012000C80100420F01200000D00785
:1016E800010000003A0F012000C80100390F012055
:1016F80000C80100380F012000C801005878070809
:101708000000000000008816012064780708070818
:1017180000000000CC0E00206C78070807080000C5
:101728000000C40E002074780708070800000000B5
:10173800BC0E00207C780708080800000000B00EE6
:10174800002078620708070800000000A80E0020A3
:1017580080620708070800000000A00E00208862C9
:101768000708070800000000980E002034630708E7
:101778000808000000008C0E002084780708071075
:1017880000000000840E00208C7807080710000075
:1017980000007C0E00209478070807100000000065
:1017A800740E00209C780708081000000000680EDE
:1017B8000020846607080100000000000000000007
:1017C8000000000010000000000000000000000001
:1017D8000D060208F10502088112020880E80608D1
:1017E800EB090120005A0100EA09012000C80100A4
:1017F800E8090120E803D00701000000000000000C
:1018080000000000AD0D02081CE906085809012077
:101818000300000070E906085709012000030100D1
:1018280056090120000301002D050208E104020801
:101838000000000080E90608A10402085904020813
:10184800000000001CEA0608790502086512020873
:10185800000000009CEA0608540901200103010069
:10186800C5010208A50102080000000010EE0608E4
:10187800810B0208550B02080000000090EE0608D4
:10188800C9030208710302080000000000EF0608FF
:101898001D060208192E020800000000B8EF06080D
:1018A800ED170208AD0B02080000000060F0060802
:1018B8006D0602080000000000000000FCF00608A9
:1018C80051070208F10602080000000060F106084E
:1018D800F9070208B50702080000000018F2060818
:1018E80069740208B508020800000000A4F206089E
:1018F8002A0D012001060100B5060208810602082A
:1019080000000000BCF30608857302082D140208C5
:10191800000000002CF40608E50802084D1502082E
:1019280000000000A8F50608AD7402080D150208AD
:1019380000000000D40E0020290D01200103010041
:10194800C10502089105020800000000B4F6060867
:1019580005120208000000000000000018F7060841
:10196800210402084D12020800000000B4F706081E
:1019780000000000000000000000000050F8060809
:10198800610902089916020800000000D0F806084C
:10199800000000000000000000000000F8FA06083F
:1019A800B8DB00209CFF2C0100000000C0110120C2
:1019B800E0150C1700000000C21101200200000011
:1019C80030FE06083009012088136F170100000057
:1019D8003209012088136F1700000000F4730020FB
:1019E8000000000000000000F2730020000000006A
:1019F80000000000F073002000000000000000005C
:101A0800EE7300200000000000000000EC730020CE
:101A18000000000000000000EA7300200000000041
:101A2800000000008C0600200000000000000000FC
:101A3800B90801200300000014FC06082809012049
:101A480088136F1701000000D6DD002088136F1778
:101A580000000000B10202080000000000000000C1
:101A680024FC0608A10E01200100000078FC0608ED
:101A7800D8DD00200100000084FC0608CEDD00202F
:101A8800020000008CFC06080000000000000000B6
:101A98000000000098FC06089902020800000000F7
:101AA8000000000034FD06080000000000000000EF
:101AB8000000000088FD060800000000000000008B
:101AC80000000000F8FD06083409012002000000AB
:101AD80030FE0608D2DD0020E0150C1700000000DB
:101AE800A01C0120F41C012001F11F3FD601FF00BA
:101AF8008CA60020FFFFFFFF0000803F00000000D1
:101B080000000000000000000000000000000000CD
:101B180000000000000000000000000000000000BD
:101B28000000803F000000000000000000000000EE
:101B38000000803F000000000000000000000000DE
:101B48000000803F000000000000000000000000CE
:101B5800010000000000FA430000FA430000803F43
:101B6800FFFFFFFFFF00000051AC04080000000069
:101B7800000000000000000000000000F03C012010
:101B88000800000000000000E03C01200800000000
:101B980001000000A00F0000B80B000002FFFF01C9
:101BA800685E0C0002000000F13D0108F513010811
:101BB800893D010800000000C512010871460108AE
:101BC800D93C010825390108000000000000000088
:101BD800851201082D85000821850008758F0008E9
:101BE800918F0008598F00083D8F0008218F000849
:101BF800A93D0108D1130108DD3C010800000000DF
:101C08009D12010829390108AD3C010885380108F1
:101C180000000000000000009112010884990708E4
:101C2800C463070800000000F5E20308A08601006D
:101C380004000000849907088C9907080000000038
:101C480051870408E803000004000000306D07080D
:101C58000000000000000000853903087D00000036
:101C6800FF000000346B07080000000000000000BF
:101C780071BE03087D000000FF00000060700708C7
:101C88000000000000000000CD5A03087D0000009D
:101C9800FF000000C86D07080000000000000000F9
:101CA80085AC0408E80300000300000094990708C5
:101CB80000000000000000003D3D03081027000060
:101CC8000300000034DE070800000000A9930208A2
:101CD80051B604085F76000005000000E8E1070837
:101CE8000000000000000000ADDA04081027000022
:101CF80002000000A0990708000000000000000092
:101D0800CD4B0408E803000005000000AC99070863
:101D18000000000000000000CDEA0308204E00008B
:101D280003000000BC990708000000000000000044
:101D3800B5E80308204E000003000000CC9907080E
:101D4800000000000000000025B20408400D030058
:101D5800030000008C8A0708000000000000000053
:101D680035AA04081027000002000000F0630708E5
:101D7800000000000000000009E70108102700002B
:101D880003000000DC9907080000000000000000C4
:101D980031820408A086010002000000DC6B0708FD
:101DA80000000000000000002D85040850C300005A
:101DB800020000008469070800000000000000001D
:101DC800797D0408A861000002000000A88A0708BD
:101DD80000000000000000007D4C0408A00F000077
:101DE80002000000E499070800000000000000005D
:101DF80041D001081027000002000000787A070887
:101E080000000000117D0108B9C3010885450100E3
:101E180002000000446907080000000000000000FC
:101E2800351A01081027000002000000D8630708CF
:101E380000000000000000000D37020850C3000039
:101E480002000000F09907080000000000000000F0
:101E580031260108400D030001000000F899070829
:101E68000000000000000000894B0408400D03003A
:101E780002000000009A07080000000000000000AF
:101E8800B5F6010850C30000030000000C9A0708CB
:101E98000000000000000000B904040840420F00E0
:101EA80001000000189A0708000000000000000068
:101EB800554C040850C3000001000000249A07088C
:101EC8000000000000000000F96901081027000068
:101ED80001000000FFFF0000FFFFFFFF10DE070802
:101EE8000000080205030300000000001CDE0708CC
:101EF80001000802050403000000000028DE0708AE
:101F080000000802050303000000000030DE070897
:101F1800010008020504030000000000DC8907082E
:101F28000200FE010110030000000000786A0708A3
:101F380003001402000300000000000038DE070858
:101F480004001F02020008000000000040DE07082D
:101F580005001F0202010800000000001A0300002B
:101F68000000000000000000000000000000000069
:101F78000000000000000000040309041201000230
:101F88000000004083042057000201020301010001
:101F9800C5680508996805083D6805084D5905088C
:101FA80059680508FD670508495905081C190020E6
:101FB800B9690508D95F0508A96905082D590508F3
:101FC800656905081D6905081D590508F8180020E8
:101FD800D1620508355905083159050829590508F8
:101FE800216305082559050821590508685207087D
:101FF8000D460108B1130108ED4401080000000076
:1020080000000000853C0108953B01080000000025
:10201800000000000000000079120108D5590508E9
:10202800C9590508116A05082D6A05088159050866
:10203800F5690508D96905080200000000000000DC
:10204800F41800203C5301200200000001000000A9
:102058003D5B0508F01800200000000001000000AA
:1020680001000000795B050810180020000000003E
:102078000000000000000000000000000000000058
:102088000000000000000000010000000000000047
:102098000000000000000000000000000100000037
:1020A8000000000000000000000000000000000028
:1020B8000100000000000000D8000000000000003F
:1020C8000500000006000000FFFFFFFF03000000FE
:1020D8000000000005000000050000001F000000CF
:1020E8001C0000001F0000001E0000001F00000070
:1020F8001E0000001F0000001F0000001E0000005E
:102108001F0000001E0000001F0000000068214C96
:10211800010000008C5207080600000005000000BE
:10212800008002021F00000053544D202020202070
:1021380050726F64757420202020202020202020D9
:10214800302E3031008002021F00000053544D2011
:102158002020202050726F647574202020202020B9
:1021680020202020302E30310B0101010100000019
:1021780050C300000101FF0125000000BC560708FC
:102188000000000000000000000000000100000046
:102198000000000000000000000000000000000037
:1021A8000100000000000000F40100002AFF000008
:1021B800A40000000000000000000000000004016E
:1021C80000000200010000021000000007000000EB
:1021D80000000000000000000102030406070809CF
:1021E800C70000000500000006FF0000C819002015
:1021F80000000000000000000000000000000000D7
:1022080000000000000000000000000000000000C6
:1022180000000000000000000000000000000000B6
:1022280000000000000000000000000000000000A6
:102238000000000000000000000000000000000096
:102248000000000000000000000000000000000086
:08280000082800080040000850
:10800000134B0268196821EA02011960596821EAD4
:108010000201596019680A431A609968026821EAE6
:1080200002019960D96821EA0201D96041791029D9
:1080300007D001F1804303F59E3319680A431A60A3
:108040007047996811439960D9680A43DA607047AC
:10805000003C0140024B9A6D136A002BFCD1704723
:10806000281A0020F0B401292D4C2E4D4FF00006A7
:1080700094BF00230123EE62C4F81861C4F81C61A8
:10808000C4F82831D4F82871D4F8F43047EA42070C
:10809000C4F82871EE63EC6B002A38D144F495746F
:1080A000EC631C6824F001041C601C68E407FCD429
:1080B000490289085960D8601968EAB921F040017D
:1080C000196019498B421DD018494FF47410C860CB
:1080D000196841F01E011960596941F08001596128
:1080E000196841F00101196022B90E4AD36A43F0C0
:1080F0000803D362F0BC704741F0400119600A499F
:108100008B42E1D14FF0746041F8500CE0E744F04D
:108110001A04EC63EC6A44F00804EC62C1E700BFA7
:10812000281A0020002C01405864024000640240DC
:108130001248002302461178032902F1060218D0E2
:108140000133062BF7D10E4AD2F85031052B0FD050
:10815000591C03EB4303C2F8501100EB4303032007
:1081600040F2EB3140F2FF32187059809A8070472C
:10817000704703EB430300EB4303F0E7541B00207D
:10818000281A002030B5134A134B8DB0082102F194
:10819000580082F8F0100693694400230DF107059A
:1081A0000124CDE9073302938DF8143009938DF83B
:1081B00028300B93CDE9035449F0BCFCFFF74AFF8C
:1081C0009DF80700A0F1FF00B0FA80F040090DB063
:1081D00030BD00BF281A0020DD810008826D136ABF
:1081E0005B681B78FF2B08D090F8F030013BDBB2C6
:1081F00080F8F0301BB10120704700207047126AF0
:10820000526802201370704770B4C3080D4CE25CD2
:1082100000F00706B24004EBD004D2B20020C6F151
:1082200008038B4228BF0B46C3F108052A4198403A
:10823000C91A40EA02004FF0000614F8012FEED1EF
:1082400070BC7047681A0020084AD2E9553199423B
:108250000AD0D118013391F85C110170C3F30A03FD
:10826000C2F854310120704700207047281A0020BE
:10827000064AD2F85C39D2F86029934294BF4FF491
:1082800000600020013B9B1A18447047281A002008
:10829000012380F85130704707B501A8FFF7D4FFDC
:1082A0000028FAD09DF8040003B05DF804FB044BED
:1082B000D3E95503984288BF03F50063181A704745
:1082C000281A002001207047024BC3F86429C3F824
:1082D00068197047281A0020024BC3F86C29C3F8AC
:1082E00070197047281A00207047704730B4134D3A
:1082F000D5E955239A4286BF03F50064A21A9A1A5B
:108300000A44B2F5006F13D8A9B101444A1E0138DE
:1083100010F8014FE918824203F1010381F85C4132
:10832000C3F30A03F4D1C5F85831002030BC7047BC
:10833000022030BC70470846F8E700BF281A00202A
:10834000F8B51A4C94F87439002BFBD159B3014499
:108350004E1E451ED4F86029D4F85C1915F8017F2B
:10836000531CC3F30A038B422CBF4FF40060002060
:10837000C91A22440144012982F87879C4F8603985
:108380000FD1012048F056F8D4F85C39D4F86019C0
:108390008B4294BF4FF4006200225B1A1344012BFE
:1083A000EFD0B542D6D10020F8BD00BF281A00207A
:1083B00010B5094CD4F88030084611465BB1D4F8AA
:1083C0008030052B07D1002AD4F8843003DDFFF775
:1083D000B7FFD4F8843010BD202B002010B590F8E2
:1083E0005010002380F8503081B10B4CD4F880201D
:1083F00072B1D4F88020052A0CD13C30D4F88430F6
:10840000FFF79EFFD4F88430012010BD0120FCE767
:108410001046FAE71846F8E7202B0020002280F8E3
:108420005120DBE790F85020531C0244DBB280F867
:10843000503082F83C1090F851200AB1132B00D92B
:10844000CCE77047212838B50C4605D022282FD01C
:10845000202813D0002038BD0029FBD0072AF9D1ED
:108460001A4BD3F8880093F88C1093F88D2093F86A
:108470008E30206021716271A371EBE70029E9D091
:10848000072AE7D1124AD2F868391BB1D2F8640939
:10849000096898470D4B256820796179A279C3F85E
:1084A000885083F88C0083F88D1083F88E20D1E7F4
:1084B0000029CFD0022ACDD1054AD2F87039002B3D
:1084C000C8D00988D2F86C099847C3E7202B002050
:1084D000281A0020024B0020C3F88000704700BF1C
:1084E000202B0020054B064A00200521C2F88010F1
:1084F000C3F87009C3F86809704700BF281A002044
:10850000202B0020704700BF704700BF704700BF9E
:10851000704700BF704700BF704700BF704700BF83
:10852000042301480B8070479801002010B4074ACB
:10853000074B92F89000122403F114020C800128DA
:108540000CBF184610465DF8044B7047202B0020E6
:108550009C01002000487047501A002000487047D6
:10856000501A0020034B93F82400032894BF0020E6
:1085700001207047281A0020034B93F82400032899
:1085800094BF002001207047281A0020034B93F865
:108590002400003818BF0120704700BF281A0020AF
:1085A000034B93F82400003818BF0120704700BF28
:1085B000281A0020A0B182680D4B12B107229A70D0
:1085C00070471978DA6003294FF004000CBF80214E
:1085D0004FF48071C3E901111A611A7598707047E0
:1085E000034B41F2E47101225A545A70704700BFA4
:1085F0003CBD00200378022B10D0006908B901208F
:1086000070470C4B1B78032B0EBF0B4B80B24FF601
:10861000F773984294BF00200120704705494368D2
:1086200041F650028A58B3EB422F2CBF01200020A4
:10863000704700BF3CBD0020F7FFFF0F0378022BFF
:1086400014D030B4104A4368006941F6480402F57A
:10865000C2511559096841F63C042B4012595B0A76
:10866000023801FB0030104430BC7047064B4268B2
:1086700041F6340141F630005958185800EB4100DA
:1086800000EB5220704700BF3CBD002030B593B0D6
:1086900040F040020B0E0D0C04468DF80810080A3D
:1086A0008DF80420952101AA8DF805308DF806502B
:1086B000002306258DF807008DF809100DF1030041
:1086C00001210392134A0493CDE90733CDE90D3319
:1086D000CDE909018DF818308DF82C300F938DF805
:1086E0004030119305950C92FFF74CFD00B974B919
:1086F000094B082203F1580003A983F8F02049F040
:1087000019FAFFF7A7FC9DF8030013B030BDFF2056
:1087100013B030BD1D870008281A0020836D1B6A26
:108720005B681B78FF2B0AD190F8F030002B03F127
:10873000FF3380F8F03014BF012002207047002082
:10874000704700BF30B5104A104B8DB0014682F81B
:10875000F01002F15800069302A900230DF107055D
:108760000124CDE9073302938DF8143009938DF875
:1087700028300B93CDE9035449F0DCF9FFF76AFC8C
:108780009DF807000DB030BD281A00201D87000895
:1087900070B51C4D90B00024FD220DF1030305F1CE
:1087A0005800012601A98DF803200693CDE9014464
:1087B000CDE90A44CDE90C442C628DF810400594B3
:1087C00007948DF824408DF838400F94039608964E
:1087D00049F0B0F9FFF73EFC3046FFF7B3FFFF2842
:1087E00009D0094BD3F884306B612046092385F802
:1087F000243010B070BD0423022085F8243010B05E
:1088000070BD00BF281A0020202B002070B506463E
:1088100090B008200D46FFF795FFFF2821D0FE28D5
:1088200002D0022010B070BD002402230E4808932D
:1088300001A9CDE90265CDE90544CDE90A44CDE9B8
:108840000C4401948DF8104007948DF824408DF865
:1088500038400F9449F06EF9FFF7FCFB204610B04A
:1088600070BD012010B070BD801A002008B5FFF760
:10887000F1FB0A2047F0C0FC024B186EBDE808402F
:1088800048F0BEBD281A002070B50379254C002B96
:1088900014BF012200228AB084F8502003D184F84A
:1088A00024300AB070BD054690F9001004F158005C
:1088B00049F0B6FAAD784DBB01261B482566C4F8D1
:1088C000EC4084F8646049F0E1FA03464FF47A70B2
:1088D000A4F85C3047F0AEFD206E48F091FD2822F0
:1088E0006846002164F081FF0A231048029369461C
:1088F00049F020F9FFF7AEFB0D4B84F82460D3F864
:1089000084306361002323760AB070BD284648F0A6
:108910008DFA054608B11E23C3800921284647F079
:108920003BF8C9E7281A0020801A0600801A0020A8
:10893000202B00202DE9F84F494B98420ED003F52B
:108940006853083398424ED0464B0020C3E940009C
:10895000A3F8FC00A3F80801BDE8F88F414C424F92
:10896000DFF810810223C4F8943004F19806002542
:10897000FB6AAB42294605F1010503D0D4F8180182
:1089800053F0A4FC94F81C31D4F8182186F8243054
:1089900032623046414653F0ADFED4F894309D42E9
:1089A00006F13006E4DB002384F80A31D4E9280319
:1089B000D4F89410B4F89C20B4F8A850C4F8283126
:1089C00012FB01F203FB01F3A4F8FC20B4F89E10A3
:1089D000264AA4F80851C4E94003A4F8FE10C4F8DC
:1089E000F8200120B8E71F4C1F4F0223C4F8943031
:1089F00004F198054FF0000B4FF4806A4FF04009E6
:108A00004FF40068FA6A01265A455946B34403D028
:108A1000D4F8180153F05AFCD4F8181194F81C211A
:108A2000296285F824204FF400314FF00062C5E937
:108A30000212A5F804A0A5F81090A5F80680AE745F
:108A4000FFF776FB28466E7653F0A0FDD4F894200D
:108A5000074B45F8303B9345D4DB84F80A61A5E722
:108A60001971EF00202B002098010020B8D80608CB
:108A70008CD806081940EF002DE9F843194C94F8FA
:108A80002460042E0546894690461F4608D0082ECD
:108A900002D00020BDE8F883FFF77AFE0228F8D163
:108AA000206E48F0A7FCA37E9BB969021120FFF756
:108AB000EDFDA0B90C4BC4F80090D3F8842065609C
:108AC0000523C4E90387626184F824300120BDE8EE
:108AD000F88329461120FFF7D9FD0028EAD0FFF7D7
:108AE000C5FED6E7281A0020202B00202DE9F04FE4
:108AF000CF4ED04D86468C4617460FCE05F5967460
:108B00002DED068B0FC40FCE0FC496E8070089B079
:108B100095F86231039784E80700CDE904EC042B53
:108B200000F24881DFE813F0B4014601410105007D
:108B3000C4019FEDC18ADFEDC18AC149C5F8481162
:108B4000C049C14BC14AC5F844110399002918BF57
:108B5000134638EE887AF5EE006AC6EE879ABC4E68
:108B6000C5F85031A6F1120B06F1C0080027DFED61
:108B7000B97A9FEDB99A28EE278AB0EE67AA059BCD
:108B8000BB4200F00C811BF8013BEA1892F86741E8
:108B9000002C00F01481002202E0152A00F00F8161
:108BA00002EB42014FEA420918F80100A04202F12B
:108BB0000102F2D1294491F84512002900F06681A2
:108BC0002046029344F05CFE029B8246504602938C
:108BD00044F076FE0178002940F0F180029BA94420
:108BE0000133DBB2032289F8853289F88422BAF195
:108BF000000F00F0E4804FEA141909F1FF39B9F1D0
:108C0000040F04F00F0000F20881944C04EB4901BA
:108C1000B1F884C04CFA00F111F0010100F0FD80C0
:108C2000012101FA00F0013800EA0C00A14402938E
:108C300062F0DEFA99F890C0DFF838E2029B6044F7
:108C40000EEBC00C03228CF807308CF806205EF87F
:108C50003000C6F814C000F13F4303F57E0304EB77
:108C60009324012194F898309AF8082003F01F0407
:108C70005B09032B01FA04F100F00381042B00F0DF
:108C8000FB80022B00F0CF80BCF804300693B3FACF
:108C900083F3C3F11F03C3F3CC0100EB810103F0A5
:108CA00007030C6A9B004FF00F0C0CFA03FC24EA3C
:108CB0000C040C620C6A02FA03F323430B620223D6
:108CC00006A907930BF0E4FF039B002B00F08380C1
:108CD000B5F86031D5F8301507EE903AF8EEE77A3E
:108CE000FCEEE77A17EE900AB1FBF0F202F57F4254
:108CF000FF32120CB1FBF2F295F86211B2FBF0F008
:108D0000042983B27ED007EE902AF8EE676A66EEF9
:108D1000887A29EE677A95F8630104990091A8EEA4
:108D2000A67A019051463046C6ED027A86ED037A66
:108D300036F06EFF002F72DD7368D5F888219342FC
:108D40006FD0012F6BD0D5F8A021934269D0022FAC
:108D500065D0D5F8B821934263D0032F5FD0D5F802
:108D6000D02193425DD0042F59D0D5F8E821934209
:108D700057D0052F53D0D5F80022934251D0062F5B
:108D80004DD0D5F81822D31A18BF0123013701227C
:108D9000082F3374727406F118067FF4F0AE304871
:108DA00009B0BDEC068BBDE8F08F9FED2E8AF0EE8A
:108DB000488AC2E69FED2C8AF0EE488ABDE62B4A2F
:108DC000224BC5F848210020C5F8503109B0BDEC50
:108DD000068BBDE8F08FB0EE690A63F073F9FCEE24
:108DE000C07A4FF6FF7317EE902AD5F83015B1FB15
:108DF000F2F21A44120CB1FBF2F295F86211042956
:108E0000184680D107EE900A07EE102AF8EE677A2E
:108E1000F8EE476A67EE8A7A7BE7716154E70123CF
:108E2000B4E70023B2E7124B5C6C214359642BE793
:108E3000E4D80608202B0020ACC5A737ACC5A73660
:108E400089E8030801DF04087DDF0308F5DE040874
:108E5000A42C00206F12833A00007A448CD80608B4
:108E60004C2C0020282930386F120339CDE003083C
:108E700000380240D02D00200F4B1C6B214319639A
:108E800002E70D4B1C6C21431964FDE68A469DE602
:108E90009FED0A8A0A4A0B4BC5F84821C5F84431B0
:108EA00000220123CDE90332F0EE488A064B50E65A
:108EB0009FED068AEEE700BF003802406F12833A4A
:108EC00089E8030801DF0408F5DE0408000000005B
:108ED000F8B5104ED6F83045054600680F466408D0
:108EE0000BF0DAFDB4FBF7F1B1F5803F03D3012CB1
:108EF000FAD96408F6E72246284689B244F05EFBB8
:108F0000054BC6F8983D28460449BDE8F8400022C4
:108F100044F062BA202B00206D270208B8380020E8
:108F200010B5044C04480A4621460AF02FFC20469E
:108F300010BD00BFC0380020D45A070810B5044C3B
:108F400004480A4621460AF021FC204610BD00BF15
:108F5000C0380020E45A070810B5044C04480A46FB
:108F600021460AF013FC204610BD00BFC038002087
:108F7000F05A070810B5044C04480A4621460AF086
:108F800005FC204610BD00BFC0380020FC5A070871
:108F900010B5044C04480A4621460AF0F7FB204667
:108FA00010BD00BFC0380020085B070810B50C4C8E
:108FB00094F8F2200023236212B10A4AC2F8A03EBC
:108FC0005BF064FE20B10423022084F8243010BD3D
:108FD000044BD3F884306361092384F8243010BD36
:108FE000281A0020202B002070B50D4D95F8243054
:108FF000042B04460E460AD0082B06D1EB698342A7
:109000000CD0FFF7D3FF022801D0012070BD082348
:10901000C5E9074685F82430022070BD022070BDE6
:10902000281A002010B50AF085FB0F4C48B194F8BF
:109030002430032B11D8237E0133DBB2072B237698
:1090400003D9002384F8243010BD084A0123D2F844
:109050008420626184F8243010BD054848F016FF72
:10906000A4F85C00E7E700BF281A0020202B0020AE
:10907000801A060070B51D4C94F82430042B064667
:109080000D4608D0082B20D1E36983422BD0FFF78F
:109090007FFB022819D1206E48F0ACF9002137205F
:1090A000FFF7F4FA29461720FFF7F0FAA8B9A37ED4
:1090B0006BB971021920FFF7E9FA70B90823C4E906
:1090C000076584F82430022070BD012070BD314650
:1090D0001920FFF7DBFA0028F0D0FFF7C7FBFFF7F6
:1090E000A1FF032070BD022070BD00BF281A002020
:1090F0002DE9F0412B4C0546884617461E4694F84C
:109100002400042834D0082806D1E369AB4206D0F5
:10911000FFF73EFB0228F2D00120BDE8F0814FF0BE
:10912000FC0CA26D2048117B204B80F8A4CEC3F824
:10913000588051B1526942B194F8E020002A0CBF26
:109140004FF480724FF4007201E04FF480721A669F
:109150001749184848F0EEFC01220623C4E90085AF
:10916000C4E90376227284F824300020BDE8F0813F
:10917000206E48F03FF9A37E5BB969021820FFF723
:1091800085FA40B994F82430082BC8D04FF0FE0C73
:10919000C7E72946F2E7FFF769FBFFF743FF032024
:1091A000BBE700BF281A0020202B002098010020D8
:1091B000C8010020801A002070B50379204C002BD4
:1091C00014BF0123002384F8503003D1002384F816
:1091D000243070BD1B4D002195F9AB2E032047F0C4
:1091E000E3FC0028F2D04668304647F0CBFC84F818
:1091F000F1000028EAD095F8A93E003B18BF0123F2
:10920000304684F8F2305CF09BFC0AF093FA28B9FF
:10921000237E84F824000133237670BD5BF020FEAA
:1092200030B1237E00220133237684F8242070BDE0
:10923000D5F8843063610123207684F8243070BD32
:10924000281A0020202B002010B55BF009FE48B141
:109250000B4C237E0133DBB2072B237603D900238B
:1092600084F8243010BD0AF065FA0028F7D0054ACA
:109270000123D2F88420626184F8243010BD00BF3D
:10928000281A0020202B00202DE9F041844C94F86E
:109290005050002D00F0F28094F82420814E0227D7
:1092A000531E082B3FD8DFE803F035379C3E694F4B
:1092B000153E05005BF0EAFC002840F0E68063699B
:1092C000D6F88420FA3393422AD2FFF7BDFF94F8F0
:1092D0002420E5E75BF0DAFC0028F0D0236A0022C6
:1092E000012B227640F2D580E16994F8F200013B2F
:1092F0000131C4E9071310B16A4BC3F8A02E08224C
:1093000084F82420A2F10805B5FA85F56D092846F0
:10931000BDE8F08184F824705BF0B8FC002844D1EB
:1093200094F82420531EDBB2022B0AD85D4B6169EE
:10933000D3F884305B1AC82BE4D9FFF785FF94F883
:109340002420042ADED1E2E7D4F82431002BD9D13D
:10935000544BE668D3F884306361072284F82420F4
:10936000002ECFD0D4E9002123690120B047D7E7F0
:109370006369D6F8841064338B42C3D2D4F8208159
:10938000B8F1000FF4D15BF081FC00289FD0E668B3
:1093900084F81880042384F82430002E73D0D4E994
:1093A000002123694046B047BAE75BF015F9002871
:1093B000B6D196F8AD3E002BA3F10203B3FA83F3C6
:1093C00014BF022201225B096276A3765BF004F9E6
:1093D00000287FF47AAF344A0323926CA26284F8A7
:1093E00024305BF0F9F800289AD12E4B206293F8D4
:1093F000DC6EB3F8DE0ED3F8E0EED3F8E0CED3F8AF
:10940000E07ED3F8E02E84F82E6093F8E41EA08569
:1094100093F8E56E84F8322093F8E50ED3F8E82E41
:109420006263B3F8EE8EB3F8EE2E84F83310B3F81F
:10943000EE1EC2F30B1343EA182303F00F0301F0EF
:109440000F024FEA1E6E4FEA1C4C3F0A360900F02D
:109450000F0003F5FA63042184F8390084F82FE043
:1094600084F830C084F8317084F83860638784F8F9
:109470003C2084F824102846BDE8F08184F824506C
:109480002846BDE8F081054641E7042384F82430EE
:109490003DE7FAD1FFF78AFD94F82420531E42E7F6
:1094A000281A0020202B0020D03900202DE9F04F71
:1094B000C64C94F8506095B0002E00F0818194F86D
:1094C0002420C34F04F1580804F14009531E082B0F
:1094D00000F29680DFE813F034005A002001940077
:1094E0008300A500190094000900FEF74BFE002838
:1094F00040F01A826369D7F88420FA3393427CD211
:10950000FFF790FD94F82420E0E7FEF73BFE0028EB
:10951000F0D0236A0022012B227640F21B82E269FE
:10952000013B511CC4E90713082284F82420A2F14E
:109530000806B6FA86F67609304615B0BDE8F08F13
:10954000206E47F057FF00210846FFF79FF80546B9
:10955000FFF78CF9012D50D1206E4FF0000A84F8EE
:1095600019A047F047FF40F2AB110820FFF78EF833
:10957000052800F07A81012800F04281FFF776F992
:10958000627E002AD1D0022384F82430206E47F076
:1095900031FF637E022B0CBF4FF080450025002178
:1095A0003720FFF773F829462920FFF76FF80546A3
:1095B000FFF75CF90DBB637E022B00F06981A57695
:1095C000206E47F017FF00210920FFF75FF8002801
:1095D00073D0FFF74BF994F82420531E10E0206855
:1095E0004FF40071FFF712F9012800F026810228DC
:1095F00000F02A81002800F03A8194F82420531EBC
:10960000DBB2022B0AD8724B6169D3F884305B1A43
:10961000C82B8CD9FFF706FD94F82420042A86D1A4
:109620008AE7A26D117B136A002900F0D580526988
:10963000002A00F0D18094F8E020002A00F0CC80CD
:10964000B3FA83F35B09002BD7D004A900250DF1F1
:109650000F0302220591404605A94FF0010ACDE90A
:109660000B3A0792CDE90955CDE90E55CDE91055D4
:10967000ADF8105006958DF820508DF834508DF8C7
:109680004850139548F056FAFEF7E4FC9DF80F3069
:1096900003F01F03052B00F05081FFF7C3FCD4F843
:1096A0000CB0BBF1000F00F0DD802A462369616831
:1096B0005046D84794F8242008E710214846FFF781
:1096C000A5F88246002884D101217F20FEF79CFD69
:1096D000012805467FF47DAF50460221FEF794FD38
:1096E000002800F0038101287FF473AF16213A208F
:1096F000FEF78AFD01308002A062FFF7B7F8206E06
:1097000047F078FE00210A20FEF7C0FF002840F055
:10971000E680032384F82430102105A8FFF776F8AB
:1097200000287FF46AAF9DF821309DF822109DF843
:109730001C209DF815009DF816501B01DBB243EA72
:10974000111303F5FA636387DDF81D3001F00F0193
:1097500084F83C101BBA110902F00F0245EA002000
:1097600084F8381084F839209DF814109DF81720DB
:109770006363069B2363A08584F82E1084F82F2052
:10978000FFF774F8A37E6BB9206E47F033FE4FF4F9
:1097900000711020FEF77AFF0546FFF767F8002DED
:1097A0007FF4AEAE0B4848F071FB00220423A4F80E
:1097B0005C003046226284F8243015B0BDE8F08F9A
:1097C000304684F8246015B0BDE8F08F281A0020D8
:1097D000202B002040787D012268217A4FF480738D
:1097E00002EB01214046002248F070FD237A01334C
:1097F000DBB22372A3F10203B3FA83F35B0922E71E
:10980000042304AA05A9404607930692CDE909AAB4
:10981000CDE90BAACDF814A08DF820A08DF834A0C6
:10982000CDF838A048F086F9FEF714FC9DF8133007
:10983000AB2B04BF02236376A0E66369D7F88420CC
:1098400064339342BFF4D9AEFFF710F8FFF7EAFB99
:10985000E5683DB10022104623696168A84794F885
:10986000242033E694F8242030E6657686E60190DD
:10987000FEF7FCFFE56801982076042384F8243085
:10988000002D3FF459AED4E900212369A847B4E67E
:10989000206E47F0AFFD29463A20FEF7F7FE04AAF6
:1098A0008246042305A9404606920793CDE909554F
:1098B000CDE90B5505958DF820508DF834500E9557
:1098C00048F038F9FEF7C6FBBAF1000F07D1FEF7F2
:1098D000CDFF049B1BBAC3F38073A37670E6FEF73B
:1098E000C5FFFFF79FFB94F82420EFE504212C200F
:1098F000FEF78AFC032182464E20FEF785FC0C21F0
:1099000083463620FEF780FC0BF1020B421C02FA64
:109910000BF205FA0AF5A2FB0501420A42EAC1521E
:10992000A262FEF7A3FFEAE60190FEF79FFF01980F
:109930000423064684F82430FEE50E4BE568D3F890
:1099400084306361072284F82420002D3FF4EFADBA
:10995000504698E708D0042384F82430FEF786FFA9
:1099600094F82420531E4BE6FEF712FF02287FF4E2
:1099700044AE2EE6202B00202DE9F84FBA4C94F887
:10998000081F0546C1F34001D4F8100F47F03EFD13
:1099900094F8081FD4F80C0FC94301F0010147F0F7
:1099A00035FD002D00F0CD806E1EB04FB04D5FFA3A
:1099B00086FB4FF01008D4F8100F47F00BFDD4F8D9
:1099C0000C0F47F007FDB4F8183F002B40F043811F
:1099D00094F81A1FD4F81C0F47F018FD4FF0FA093D
:1099E0004FF47A704FF0010C7B68C3F30803002B2F
:1099F00040F00881EFF31183002B40F00381D4F88D
:109A00008420A968D4F884309A42F8D1D4F8403F31
:109A10009942F4D8D4F83C6F00FB06F35B1AB3FB11
:109A2000F6F300FB02327B68C3F30803002B40F01F
:109A3000A880EFF31183002B40F0A380D4F884308A
:109A4000D5F808A0D4F884108B42F7D1D4F8401F81
:109A50008A45F3D8D4F83C6F00FB06F1A1EB0A016C
:109A6000B1FBF6F100FB03139B1AB3F57A7FDAD34F
:109A7000B9F10109B8D1D4F8100F47F0ABFCD4F814
:109A80000C0F47F0A7FCB4F8183F002B40F0D7802C
:109A900094F81A1FD4F81C0F81F0010147F0B6FCAE
:109AA0004FF0FA0C4FF47A704FF0010E7B68C3F35D
:109AB0000803002B40F08680EFF31183002B40F069
:109AC0008180D4F88420A968D4F884309A42F8D1EF
:109AD000D4F8403F9942F4D8D4F83C9F00FB09F3F6
:109AE0005B1AB3FBF9F300FB02327B68C3F3080394
:109AF0004BBBEFF3118333BBD4F88430D5F808A007
:109B0000D4F884108B42F7D1D4F8401F8A45F3D89B
:109B1000D4F83C9F00FB09F1A1EB0A01B1FBF9F17C
:109B200000FB03139B1AB3F57A7FDED3BCF1010C63
:109B3000BCD10BF1FF365FFA86FBBBF1FF0F7FF460
:109B40003AAFBDE8F88FEFF3118988F31288AE6859
:109B50002B68DB0344BFC4F838EFAE68D4F8843018
:109B6000D4F8381F5FFA89F989F31188D4F83C9F3B
:109B70000B4400FB09F1891BB1FBF9F100FB031356
:109B8000D0E7EFF3118E88F31288D5F808A02B6880
:109B9000D90344BFC4F838CFD5F808A0D4F884302E
:109BA000D4F8381F5FFA8EFE8EF31188D4F83C6F1C
:109BB0000B4400FB06F1A1EB0A01B1FBF6F100FB3F
:109BC000031351E7EFF3118188F31288D5F8089059
:109BD0002B68DA0344BFC4F838EFD5F80890D4F8FE
:109BE0008430D4F8382FC9B281F31188D4F83C1FDF
:109BF0001A4400FB01F3A3EB0903B3FBF1F300FBF1
:109C0000023272E7EFF3118188F31288AE682B6895
:109C1000DB0344BFC4F838CFAE68D4F88430D4F83E
:109C2000382FC9B281F31188D4F83C1F1A4400FBC5
:109C300001F39B1BB3FBF1F300FB0232F3E6D4F814
:109C4000343F002B3FF42CAFD4F8203FC3F80090F2
:109C500084F8319F24E7D4F8343F002B3FF4BEAEA4
:109C600046F0A8FCBAE600BF202B002000ED00E083
:109C700010E000E02DE9F84FB74CB84F94F8081FFA
:109C8000D4F8100FB64DC1F3400147F0BFFB94F874
:109C9000081FD4F80C0FC94301F0010147F0B6FBCF
:109CA0004FF0050B4FF01008D4F8100F47F092FB5F
:109CB000D4F80C0F47F08EFBB4F8183F002B40F09F
:109CC000438194F81A1FD4F81C0F47F09FFB3226EB
:109CD0004FF47A704FF0010C7B68C3F30803002B3C
:109CE00040F00781EFF31183002B40F00281D4F89C
:109CF0008420A968D4F884309A42F8D1D4F8403F3F
:109D00009942F4D8D4F83CEF00FB0EF35B1AB3FB96
:109D1000FEF300FB02327B68C3F30803002B40F024
:109D2000A780EFF31183002B40F0A280D4F8843099
:109D3000D5F808A0D4F884108B42F7D1D4F8401F8E
:109D40008A45F3D8D4F83CEF00FB0EF1A1EB0A01F1
:109D5000B1FBFEF100FB03139B1AB3F57A7FDAD354
:109D6000013EB9D1D4F8100F47F034FBD4F80C0FF2
:109D700047F030FBB4F8183F002B40F0DA8094F83D
:109D80001A1FD4F81C0F81F0010147F03FFB4FF080
:109D9000320C4FF47A7001267B68C3F30803002B62
:109DA00040F08780EFF31183002B40F08280D4F8DD
:109DB0008420A968D4F884309A42F8D1D4F8403F7E
:109DC0009942F4D8D4F83C9F00FB09F35B1AB3FB2B
:109DD000F9F300FB02327B68C3F308033BBBEFF3EC
:109DE000118323BBD4F88430D5F808A0D4F88410AC
:109DF0008B42F7D1D4F8401F8A45F3D8D4F83C9F62
:109E000000FB09F1A1EB0A01B1FBF9F100FB03131F
:109E10009B1AB3F57A7FDED3BCF1010CBCD10BF1F8
:109E2000FF3616F0FF0B7FF43FAFBDE8F88FEFF37E
:109E3000118988F31288D5F808A02B68DB0344BF8A
:109E4000C4F8386FD5F808A0D4F88430D4F8381F97
:109E50005FFA89F989F31188D4F83C9F0B4400FB21
:109E600009F1A1EB0A01B1FBF9F100FB0313CFE704
:109E7000EFF3118E88F31288D5F808A02B68D90368
:109E800044BFC4F838CFD5F808A0D4F88430D4F84B
:109E9000381F5FFA8EFE8EF31188D4F83CEF0B4426
:109EA00000FB0EF1A1EB0A01B1FBFEF100FB031375
:109EB00052E7EFF3118188F31288D5F808902B68E8
:109EC000DA0344BFC4F8386FD5F80890D4F884306A
:109ED000D4F8382FC9B281F31188D4F83C1F1A4442
:109EE00000FB01F3A3EB0903B3FBF1F300FB023228
:109EF00071E7EFF3118188F31288D5F808E02B6839
:109F0000DB0344BFC4F838CFD5F808E0D4F8843078
:109F1000D4F8382FC9B281F31188D4F83C1F1A4401
:109F200000FB01F3A3EB0E03B3FBF1F300FB0232E2
:109F3000F1E6D4F8343F002B3FF429AFD4F8203FAA
:109F40001E6084F8316F22E7D4F8343F002B3FF4D1
:109F5000BEAE46F02FFBBAE6202B002000ED00E05D
:109F600010E000E00E4B30B4DB68427801780D4C15
:109F7000DB43C3F30223C3F10403DBB202FA03F3AE
:109F800060181B0101F01F050122490903F0F003CD
:109F9000AA4080F8003344F8212030BC704700BF4D
:109FA00000ED00E000E100E000F01F0240090123A5
:109FB000032803FA02F304D004280CD0022805D0A9
:109FC0007047074A116C0B4313647047044A516C85
:109FD0000B4353647047024A116B0B431363704782
:109FE0000038024000285FD00368374A2DE9F0416D
:109FF00003F13F4404F57E0402EB9422012492F81D
:10A00000982002F01F055209032A04FA05F456D0DD
:10A01000042A4FD0022A48D08588B5FA85F0C0F1CD
:10A020001F00C0F3CC0603EB860600F00700820099
:10A030000F24306A944020EA04003062306A01FA4A
:10A0400002F20243002132624FF0010E0A464FF045
:10A05000030C02270EFA02F838EA050002F10102A9
:10A060001CD118680CFA01F420EA04001860186882
:10A0700007FA01F606431E609E6826EA04069E6003
:10A0800098689860586820EA0800586058685860D6
:10A09000D86820EA0400D860D868D860102A01F196
:10A0A0000201D7D1BDE8F0817047084A556C2C43B6
:10A0B0005464B1E7054A156B2C431463ACE7034ABB
:10A0C000156C2C431464A7E78CD8060800380240AE
:10A0D0002DE9F04385B00D461746044647F0F4F9E4
:10A0E000002859DB3B4EDFF8F88008EB000206EB56
:10A0F000800006F6847392F8A090C0F8443F002CCC
:10A1000060D0A2884FF00043B2FA82F2D34005D06B
:10A11000314A116821EA0301116053612946204642
:10A1200045F03AFC256805F13F4505F57E05AD0A89
:10A13000204647F0C9F900F0FC0303F1804303F522
:10A140009C3300F003009A6880000F21814022EACE
:10A1500001029A609A68EDB205FA00F01043986027
:10A160002CB1A0884FF00044B0FA80F0C44008EB56
:10A1700087074E44D7F8B0308DF80D300021012309
:10A1800002A88DF80E3002948DF80C10FDF738FF00
:10A1900096F8883FF02B02D805B0BDE8F0830F4B4E
:10A1A00013F809308DF80430F02103224FF4807346
:10A1B00001A886F8881F8DF80520ADF80630FFF756
:10A1C000D1FEE9E72946204645F0E6FB4FF0FF3592
:10A1D000AEE700BF202B0020003C0140705B070869
:10A1E0008CD80608002869D0F0B58388B3FA83F3C9
:10A1F000202B85B00446C3F11F024AD0304E314DAA
:10A2000016444FF0004005EB820230FA03F396F853
:10A21000A060C2F8441F05D02B4A116821EA03014F
:10A22000116053612046002145F0B6FBA3882268E7
:10A23000B3FA83F4C4F11F0303F0FC0101F1804180
:10A2400001F59C3103F0030398000F2702F13F430F
:10A250008A68874022EA070203F57E038A60C3F317
:10A260008723834088684FF000420343354422FA35
:10A2700004F48B604FF40062012302A88DF80E30C5
:10A280000294ADF80C20FDF7BBFE95F8883FF02B4B
:10A2900001D805B0F0BD0D4B9B5D8DF80430F02169
:10A2A00003224FF4807301A885F8881F8DF80520DC
:10A2B000ADF80630FFF756FE05B0F0BD704700BFA1
:10A2C0008CD80608202B0020003C0140705B07085A
:10A2D00010B4B8B10D4CD4F8903F102B05D15DF8F7
:10A2E000044B0521002045F03FBE03EB430222440E
:10A2F00082F8951F01210B4482F8940F82F8961F73
:10A30000C4F8903F5DF8044B704700BF202B00203D
:10A3100080782021DCE700BF2DE9F04FDFF8ACA307
:10A320002DED028B9AF8D81F002297B0CAF8C82FDB
:10A33000CAF8CC2FCAF8D02FCAF8D42FCAF8C42F25
:10A3400019B19AF8D92F8AF8C42F9AF8DA2F1AB1CE
:10A350009AF8DB2F8AF8D32F9AF8DE2F1AB19AF8E1
:10A36000DF2F8AF8CE2F9AF8DC2F1AB19AF8DD2F5A
:10A370008AF8C92F9AF8E03F05935A1ED3B257B214
:10A3800003937B1C00F0AA80C54AC64E52F8379052
:10A39000029602EBC70200231279019308EE102AFD
:10A3A0001D463446984626783946304648F024FC07
:10A3B00083463046BBF1000F1ED046F037FDEA1D44
:10A3C0001321D2B220B14FF0000E827180F807E065
:10A3D00045F0E2FA207848F039FC4FF0070308F125
:10A3E000010223714FF0010384F802806070CDF800
:10A3F00004B05FFA82F8E3700135042D04F105041E
:10A40000D1D118EE100A029ECDF81080FFF7CCFDD6
:10A41000A549A64A4868024042F440324A600FB952
:10A42000019B5BB9A24C4820FFF7BEFD20460221EC
:10A4300060F062FCA26842F00102A2609A489C4A65
:10A440004168BAF8E24F41F400014160516821F4DB
:10A4500080515160916B21F4401141F4801191635E
:10A46000D16841F46001D160956B85F44011C1F36E
:10A47000015101EB81011F2000FA01FC25EA0C0CBF
:10A48000112505FA01F141EA0C019163D16841F00F
:10A49000E061D160956BC5F30151C1F10401C9B20E
:10A4A00001EB810188404FF0120C25EA00000CFA04
:10A4B00001F108439063E4B1BAF8E41FCAF8EC4F25
:10A4C000A1B1BAF8E62FCAF8F01F62B1019B794832
:10A4D000521A90FBF2F2CAF8F42F6BB917B0BDEC28
:10A4E000028BBDE8F08F744A1288EFE7734A118837
:10A4F000E7E7734A1488DFE74846049960F0FCFBFD
:10A50000684B012003F114080723F278441CE4B2DD
:10A5100052B375783279A5F10A0101EB410105EBDF
:10A52000450C092D03FA01FE03FA0CFB02FA01F1B6
:10A5300040F2A080D9F80C2022EA0E0E41EA0E016A
:10A54000C9F80C10421E02EB82021F21062801FAF4
:10A5500002FC05FA02F273D8D9F8341021EA0C0192
:10A560000A432046C9F834200536B045CDD1D9F884
:10A570000820039942F40072C9F80820D9F808208D
:10A5800042F48072C9F80820D9F80820574442F0F4
:10A590000102C9F8082097F9E82F022046F004FBD1
:10A5A000044600289AD04668304646F0EBFA454A01
:10A5B000431E242101FB032393F89C50002D8DD1D1
:10A5C000059983F89D10062283F89C20002885D0E9
:10A5D000304646F0D7FA5BF0DFF960680AF0B6F96A
:10A5E00007A80AF075F9049EA26837480792012E61
:10A5F0008CBF4FF4806300230D9309F14C034FF49B
:10A600008072CDE90A56089309904FF400336068D0
:10A610000C9507A94FF400674FF40056CDE91023BD
:10A62000CDE90E760AF066F96268136843F001031B
:10A630001360D9F8083043F08043C9F808304DE77B
:10A64000C11FA0F10D0201EB81014FF01F0E02EBC3
:10A6500082020C280EFA01FC0EFA02F005FA01F152
:10A6600013D8D9F8302022EA0C0211432046C9F849
:10A67000301079E7D9F8101002FA0CF221EA0B0B2E
:10A6800042EA0B02C9F810205CE7D9F82C1005FA51
:10A6900002F221EA00010A432046C9F82C2063E7B0
:10A6A00048D90608E43A002000230140E030FCFFCE
:10A6B00000200140803801002E7AFF1F2C7AFF1FF6
:10A6C0002A7AFF1F98010020183B0020202B002031
:10A6D0002DE9F84F2E4F00EB800407EBC40454F82B
:10A6E000F46C2EB1054614F8DF0C00F0FF0820B121
:10A6F0004FF000084046BDE8F88F89469A469346D9
:10A7000045F06CFE4FEA49010123C9B204F8DE1C92
:10A7100004F8DDBC04F8DB3C04F8DA8C04F8DC3C1B
:10A7200004F8DF3C04F8E08CB28844F8D8AC91051A
:10A73000814644F8D4AC1DD43388DA0510D442F2F3
:10A740000F7405E045F04AFEA0EB0903A34215DCB7
:10A7500033889B05F6D433889BB243F480733380EF
:10A76000B3889BB243F440734FF00108B380404676
:10A77000BDE8F88F98464046BDE8F88F37F8803C32
:10A7800001339BB2284627F8803C5FF0EDFDB1E72E
:10A79000183C002070B5464E16F87E4C04EB44037E
:10A7A00006EBC303650013F87C3C032B6ED8DFE88F
:10A7B00003F059291E02254406EBC50555F8780C0F
:10A7C000002870D116F81C3C9C425FD0013404F084
:10A7D0000302934206F87E2C58D002EB420406EBAB
:10A7E000C404022344F8780C04F87C3C70BD2B1997
:10A7F00006EBC30353F8782C72B1013A43F8782C76
:10A80000002070BD2B1906EBC30353F8782C002AE7
:10A81000F3D1022203F87C2C254406EBC50515F87C
:10A82000703C013BDBB205F8703C8BBB214B16F84A
:10A830001C6CD3F8C01255F8740C621C02F00302B1
:10A840004B1E0324B242034405F87C4CB3FBF1F0E9
:10A8500045F8780C1AD0994218D8013845F8780C88
:10A86000012070BD47F0FCFE80B1124B2C44D3F8A0
:10A87000C02206EBC404012102F51C5304F87C1C21
:10A880000F33B3FBF2F344F8783C70BD012070BD88
:10A89000084BD3F8C022012002F2E733B3FBF2F3F6
:10A8A00045F8783C70BD013845F8780C002070BD43
:10A8B000183C0020980100202DE9F84F3249DFF8BC
:10A8C000D4B091F8AD1E012402290746194610465E
:10A8D000CBF820414FF000022C4C1D4618BF7F02E0
:10A8E000FDF7C0FB2A4B63626B02A362E36A40F28E
:10A8F000FF5943F093034FF400704FF48A62E36210
:10A900000121C4F83890A0601020E26059F0B0FF37
:10A91000012D40F251434E46C4F83890CA4640F2E9
:10A9200052488EBF4FF0120998464FF011090A2580
:10A93000C4F838A00121A7604846C4F80C8059F03B
:10A9400097FF03464FF0000C40F277420121372079
:10A95000A6632BB900231846CBF81C31BDE8F88F4D
:10A96000A663C4F808C0E26059F082FF013DA66307
:10A970000028EFD015F0FF05DAD10346CBF82051BF
:10A98000CBF81C31BDE8F88F202B0020002C0140B3
:10A9900000E1F505281A00202DE9F843DFF874805E
:10A9A00098F82450042D0446894617461E4608D0C0
:10A9B000082D02D00020BDE8F883FEF7F7FA022840
:10A9C000F8D101234A4620460021FFF775FF68B100
:10A9D000FEF73AFCD8F80C40002CEBD00022D8F857
:10A9E0001030D8F804101046A047E3E7084BC8F829
:10A9F0000090D3F88420C8F804400523C8E9037602
:10AA0000C8F8142088F824300120BDE8F88300BF7E
:10AA1000202B0020281A00202DE9F84F3149DFF8BB
:10AA2000CC9091F8AD1E1E4602292F4B07464FF0E1
:10AA3000010418BF4702012E40F25948C3F82441CF
:10AA400098BF4FF48B683B469346474640F2FF550C
:10AA5000B0468CBF4FF0190A4FF0180A0A241E4660
:10AA600040F2FF53C9F838300121C9F80860504658
:10AA7000C9F80C7059F0FCFE03464FF0000C40F290
:10AA8000774201213720C9F83850ABB958464146C2
:10AA90000122FDF7E7FA4646144A154B5362760247
:10AAA0009662D36A43F09103D3620F4B00210846AC
:10AAB000C3F81C11BDE8F88FC9F83850C9F808C0B0
:10AAC000C9F80C2059F0D4FE013CC9F838500028D0
:10AAD000DCD014F0FF04C3D1034BC3F82441BDE81C
:10AAE000F88F00BF202B0020281A0020002C0140E6
:10AAF00000E1F5052DE9F047364C82B005460E46DB
:10AB00001746984694F8240004280CD0082806D14B
:10AB1000E369AB4207D0FEF749FA0228F2D00120E0
:10AB200002B0BDE8F087DFF8B4A02660DAF8A09E96
:10AB30006560C9F34F210F294FEA592222D8236AB1
:10AB40000193FBB194F8F200E0B1B9F5005F13D0C6
:10AB5000214831464FF40072484462F0E5FD09F5A2
:10AB60000072C2F34F211029CAF8A02E4FEA5222D8
:10AB700002D0019B012B20D192B2013A164EAD1AA0
:10AB80000B4600E001233246284606260125002117
:10AB9000E760C4F81080257284F82460FFF73CFF5A
:10ABA0000028BDD0FEF750FBE66886B12846236931
:10ABB00061680022B0470320B2E7E269013B01323D
:10ABC0000421C4E9072384F824100220A8E7032005
:10ABD000A6E700BF281A00208C760020202B00203A
:10ABE000144A154BD2F83025B3EB920F15D2B3EBC4
:10ABF000D20F14D2B3EB121F13D2B3EB521F12D2E7
:10AC0000B3EB921F11D2B3EBD21F10D2B3EB122FC2
:10AC100034BF4FF4807080207047022070470420BA
:10AC20007047082070471020704720207047402050
:10AC3000704700BF202B002080969800F0B53B4C59
:10AC400054F8185C2B78022B95B018D0012B02D049
:10AC5000002015B0F0BD95F904506B1CF8D0022D02
:10AC6000F6DC0091134614F8141C024628465FF0E7
:10AC70001DFD0028ECD028465FF0C8FDE9E72B6AEF
:10AC8000002BE5D10DF10F0C8DF80F0000260120EF
:10AC90000027CDE90833CDE90A12CDE90E67059307
:10ACA0008DF81C300D9310931293CDF810C00690C0
:10ACB0008DF830008DF84400EFF31180102383F3FA
:10ACC000128854F8183C1B6A13B3069B04AE324634
:10ACD0001BB1D3691432002BFBD12B6A13B39968D3
:10ACE00039B993420AD0196829B15B68996800297B
:10ACF000F7D01433F3E70E4AC3E90026C0B280F35D
:10AD0000118854F8182C136A002BFCD10120A0E7FD
:10AD100004ABC0B22B6280F31188A4F118005CF080
:10AD20002FFAEEE7024A1A60FFDE00BF183C00204F
:10AD3000003C002003681A78012A01D000207047E7
:10AD400093F90430044A03EB830302EBC30313F8C3
:10AD5000DF0CC0B2704700BF183C002070B503681C
:10AD60001D78022D13D0012D01D0002070BD0446A6
:10AD700093F904000A4B421C83F8B450F5D0022822
:10AD8000F3DC0A46B4332179BDE87040A0E41B6AC5
:10AD9000002BEAD1012247F0F9F9012070BD00BF74
:10ADA000183C002010B50B4C54F8183C1B78022BB3
:10ADB0000FD154F8100C46F023FB54F8100C08B1D6
:10ADC0002123C380012144F0E7FDFFF709FF24F8A8
:10ADD000140C10BD183C002030B583B00D46012383
:10ADE00001460DF107020446074847F03FFB9DF876
:10ADF000072035EA020304D003482A43214647F0DE
:10AE0000CBFB03B030BD00BF003C002038B5054689
:10AE10000A460C460648294647F0B8F945F0800135
:10AE2000034847F05DF8231A5842584138BD00BF27
:10AE3000003C002013B53A4C0023D4F8C4208DF810
:10AE40000730137803F0FD01012905D194F8C810EB
:10AE500011B90C2184F8C810022B1ED0032B2DD061
:10AE600001220B212F4857F0DFFD042045F0E2FAC4
:10AE70002C4801230DF10702002157F0F7FD0028AF
:10AE800038D09DF80730482B34D1274BC4F8B83060
:10AE9000264BC4F8BC3002B010BDD4F8CC0046F04C
:10AEA000AFFAD4F8CC0008B13523C380012144F0B7
:10AEB00073FDFFF795FEA4F8C800D1E7D4F8743508
:10AEC000506846F2A8111961002380F888301222D8
:10AED000372157F07DFDD4F8C4300D225868242165
:10AEE00057F076FDD4F8C430302258686A2157F004
:10AEF0006FFDB5E7D4F8C4301A78022A03D0032ACC
:10AF000007D00020C7E7D4F8CC0046F0F3FD0020BE
:10AF1000C1E758681022372157F05AFDF1E700BF0A
:10AF2000183C0020DC3C0020CB2A06084D2B0608EC
:10AF30002DE9F04FB54CB64E95B0002305464FF4C1
:10AF4000F0728B4604F6F800202184F8F43884F877
:10AF5000F538019562F049FC202104F6D8204FF421
:10AF6000F07262F042FCDFF8C0C2AA4932274FF00B
:10AF7000100E4FF47A704FF00108DCF80430C3F380
:10AF80000803002B40F0BC80EFF31183002B40F04E
:10AF9000B780D6F884208D68D6F884309A42F8D1EC
:10AFA000D6F8403F9D42F4D8D6F83C9F00FB09F309
:10AFB0005B1BB3FBF9F300FB0232DCF80430C3F394
:10AFC0000803002B7BD1EFF31183002B77D1D6F848
:10AFD0008430D1F808A0D6F88450AB42F7D1D6F827
:10AFE000405FAA45F3D8D6F83C9F00FB09F5A5EBD6
:10AFF0000A05B5FBF9F500FB03539B1AB3F57A7FFD
:10B00000DBD3013FB9D194F8B92C002A52D094F87F
:10B01000BA3C013B022B4DD803EB830004EBC0018B
:10B020007D4D91F8547D05EBC0004FF0010C022FCF
:10B03000C4F8BC0C84F844CD00F0C182DBB204EB50
:10B040000313D3F8CC3DC1F8583D9BB302234FF412
:10B05000807081F8543DA5F188034C3DA1F8600D46
:10B06000C1F86C3DC1F8705D1509013D042D02F079
:10B070000F0200F28782694F07EB4503B3F88400A3
:10B0800040FA02F3DB0740F17D82012303FA02F26A
:10B09000013A10403D4460F0ABF895F89020604BC9
:10B0A000104403EBC000C4F8C40C8379002B47D0D4
:10B0B000412B45D06FF0010015B0BDE8F08FEFF3E4
:10B0C00011898EF31288D1F808A00B68DD0344BF04
:10B0D000C6F8388FD1F808A0D6F88430D6F8385F93
:10B0E0005FFA89F989F31188D6F83C9F2B4400FB5D
:10B0F00009F5A5EB0A05B5FBF9F500FB03537CE761
:10B10000EFF311858EF31288D1F808900B68DB03FA
:10B1100044BFC6F8388FD1F80890D6F88430D6F8F6
:10B12000382FEDB285F31188D6F83C5F1A4400FB46
:10B1300005F3A3EB0903B3FBF5F300FB02323CE795
:10B140002323C380092144F027FCD4F8C43C13B165
:10B150001A689B881383D6F83025324BB3EB920FD5
:10B1600080F03382B3EBD20F80F03182B3EB121F49
:10B1700080F03182B3EB521F80F03182B3EB921F2B
:10B1800080F03182B3EBD21F80F03182B3EB122F0B
:10B1900080F02F824FF4807000230122FF210DF1F7
:10B1A0000F088DF80F10CDE90483CDE90833CDE900
:10B1B0000A33D4F8BC1CA4F8C00C0D9306928DF889
:10B1C0001C208DF83020EFF31180102383F31288B8
:10B1D000D4F8BC3C1B6A002B00F0D881069B04AD60
:10B1E0002A461BB1D3691432002BFBD10B6A002B0A
:10B1F00000F01582996839B99A421AD01968A9B134
:10B200005B6899680029F7D01433F3E7183C0020F5
:10B21000202B002010E000E06C4900208CD80608AC
:10B22000D02D0020404B4C0000ED00E0B74AC3E9B0
:10B230000025C0B280F31188D4F8BC1C0B6A002B27
:10B24000FCD18C220120CDE908330DF10E0A0593C3
:10B250008DF81C300D93109312938DF80E2000235F
:10B260000022CDE90E23CDF82880CDF810A006905D
:10B270000B908DF830008DF84400EFF3118010230F
:10B2800083F31288D4F8BC3C1B6A002B00F0878142
:10B29000069B2A461BB1D3691432002BFBD10B6AE3
:10B2A000002B00F0BC81996839B993420AD0196823
:10B2B00029B15B6899680029F7D01433F3E7934A02
:10B2C000C3E90025C0B280F31188D4F8BC2C136AFE
:10B2D000002BFCD19DF80F301B2B40F09081D4F84F
:10B2E000C43C012284F8F4280BB12322DA80DFF871
:10B2F0001C92402248460A2146F048FF8A2100233A
:10B3000001228DF80E1000200021CDE90E01CDE9BB
:10B310000833D4F8BC1CCDF810A0CDF828800593D4
:10B320008DF81C300D931093129306920B928DF8AA
:10B3300030208DF84420EFF31180102383F312881E
:10B34000D4F8BC3C1B6A002B00F03181069B2A46D6
:10B350001BB1D3691432002BFBD10B6A002B00F018
:10B360005B81996839B9934209D0196829B15B6842
:10B3700099680029F7D01433F3E7C3E90095C0B208
:10B3800080F31188D4F8BC2C136A002BFCD19DF8F3
:10B390000F2094F8B81CC2F3801284F8FC2D002909
:10B3A00000F0D480022900F0B980D6F83035584931
:10B3B000B1EB930F80F01F81B1EBD30F80F00981C7
:10B3C000B1EB131F80F00981B1EB531F80F00981AD
:10B3D000B1EB931F80F00981B1EBD31F80F00D8199
:10B3E000B1EB132F34BF4FF48076802694F8001E03
:10B3F000A4F8FE6D182914D1464F474800215B0878
:10B40000B3FBF6F3A7FB03730F465B0B66F30F0763
:10B410006BF30F0163F31F4762F31F41C4F8081E6B
:10B4200047603A48A4F8C06C0222002146F0AEFE04
:10B43000C82044F0E1FED4F8BC0C4FF0800B00268D
:10B44000002700230122CDE90E67CDE908338DF8EE
:10B450000EB0CDF810A0CDF8288005938DF81C30E3
:10B460000D931093129306920B928DF830208DF865
:10B470004420EFF31182102383F31288D4F8BC3CEC
:10B480001B6A002B38D0069B002B3DD02B46D96978
:10B4900014330029FBD1006A002800F0BA808168CB
:10B4A00039B9834209D0016829B14068816800290F
:10B4B000F7D01430F3E7C0E90095D2B282F31188D7
:10B4C000D4F8BC0C036A002BFCD19DF80F3013F0AC
:10B4D0000203B6D1019841788278007884F8100E82
:10B4E000C1F12001C2F11002184684F8111E84F83F
:10B4F000122E15B0BDE8F08F0562D2B282F311882A
:10B5000002485BF03DFEDBE72B46C4E7D448002051
:10B51000809698005917B7D1204A0020D6F83035C8
:10B520004048B0EB930F72D2B0EBD30F51D2B0EBD7
:10B53000131F52D2B0EB531F53D2B0EB931F54D210
:10B54000B0EBD31F34BF802640264FE7D6F8303506
:10B550003549B1EB930F4ED2B1EBD30F39D2B1EBEA
:10B56000131F3AD2B1EB531F3BD2B1EB931F3CD226
:10B57000B1EBD31F41D2B1EB132F34BF4FF4807620
:10B58000802633E70020C4F8C40CDBE504ADC0B26C
:10B590000D6280F3118825485BF0F2FD4CE60D62E8
:10B5A000C0B280F3118821485BF0EAFD8DE60D62A0
:10B5B000C0B280F3118848465BF0E2FDE2E691F804
:10B5C000613D634481F8613D4EE50220E4E50420DD
:10B5D000E2E504260AE70820DEE5082606E7102053
:10B5E000DAE5102602E72020D6E52026FEE64020F8
:10B5F000D2E58020D0E50226F8E64026F6E6D4F82B
:10B60000C40C202144F0C8F94FF0FF3054E50E4639
:10B61000ECE6C0F80090FFDEC3F80090FFDE034ABE
:10B620001A60FFDE002D3101404B4C00D448002051
:10B630000146014846F054BC2C4A0020094B93F8BF
:10B640006231042B08D9053B032B08D801231A4685
:10B6500000B103701046704700230122F8E7002371
:10B660001A46F5E7202B0020F0B40D6800240CE00A
:10B67000BCF1050F18D8A0F137030A2B14D104EB45
:10B68000840415F8010B03EB4404A0F13003DEB28F
:10B69000092EA0F16107A0F1410CF0D9052FE7D8E0
:10B6A000A0F157030A2BEAD00D601460F0BC70477C
:10B6B0009FED727A07EE901A20EE070AF8EE677A8D
:10B6C00027EE800AFDEEC07A17EE903A2033402B29
:10B6D00000F2C480DFED6A7AB4EEE70AF1EE10FA08
:10B6E000F0EE407A0CDD9FED676ADFED676AB0EE41
:10B6F000677AB4EEE67AF1EE10FA77EEC67AF6DC07
:10B700009FED627AF4EEC77AF1EE10FA0CD59FED58
:10B710005D6ADFED5F6AB0EE677AB4EEE67AF1EE6D
:10B7200010FA77EE867AF6D49FED5A7AF4EEC77A5D
:10B73000F1EE10FA00F38A809FED577AF4EEC77AA3
:10B74000F1EE10FA44BF9FED517A77EE677A27EE5B
:10B75000A76ADFED525A9FED527ADFED526AA6EEEC
:10B76000257A67EE865AE6EE076AB6EE007AE5EECF
:10B77000A67A27EE877ADFED476A70EE267ABDEE6D
:10B78000E76A16EE103A2033402B64D8B4EEE60A8E
:10B79000F1EE10FA0CDDDFED3B5A9FED3B6AF0EE67
:10B7A000676AF4EEC66AF1EE10FA77EEE57AF6DC37
:10B7B000DFED366AF4EEE67AF1EE10FA0CD5DFED45
:10B7C000315A9FED336AF0EE676AF4EEC66AF1EE25
:10B7D00010FA77EEA57AF6D4DFED2E6AF4EEE67A6B
:10B7E000F1EE10FA3DDDDFED266A76EEE77A67EEE0
:10B7F000A75A9FED2A5A9FED2A6ADFED2A6AA5EE25
:10B80000856A27EEA55AE5EE866AB8EE006AE5EE8F
:10B81000267A67EE867AC7EE206AB7EE006A76EE81
:10B82000865A76EE666A86EE257A80ED091A67EE0C
:10B83000277A66EE876AC0ED017AC0ED037A80ED63
:10B84000007A80ED027AC0ED046A70479FED0C7AB1
:10B8500077EE677A7BE7DFED147ADCE79FED127A0B
:10B8600089E7DFED0D6AF4EEE67AF1EE10FA44BFF7
