:020000040800F2
:10000000F0FF0120CDB70608E1F40008E1CF0408B5
:1000100045B8060845B8060845B8060800000000BF
:10002000000000000000000000000000DDF40008F7
:10003000D9F4000800000000D5F40008F506050812
:1000400045B8060845B8060845B8060845B8060884
:1000500045B8060845B80608AD1705087517050820
:100060003D17050805170508CD160508A9710608EE
:100070009971060889710608797106086571060884
:10008000517106083D71060845B8060800000000D9
:1000900000000000000000000000000095160508A8
:1000A000FDD404084DD50408EDD4040875D5040822
:1000B0003DD504082DD504081DD504086DAE0608ED
:1000C00075AE060861AE060869AE060845B80608B2
:1000D00045B80608C9080508110805080000000011
:1000E0005D16050845B80608990D010800000000D6
:1000F0000000000000000000000000002971060858
:1001000000000000954D06080DD5040845B8060806
:1001100000000000000000000000000000000000DF
:100120001571060801710608ED700608D9700608F9
:10013000C57006080000000000000000000000007C
:1001400000000000000000000000000075EE000844
:10015000B17006089D7006088970060859070508E1
:1001600055AE06085DAE0608000000000000000065
:10017000000000000000000000000000000000007F
:100180000000000045B80608000000000000000064
:0801900045B8060845B8060851
:080198006CB306000100000039
:1001A0000E02010002000000D0740020347500200F
:1001B00000000000D8F30708307500201402010089
:1001C00005000000F03900203C7500200000000010
:1001D000DAF307083875002013020100040000005C
:1001E000D82B00204875002000000000E0F307082D
:1001F00044750020031101000A000000187400205B
:100200005075002000000000E51901084C75002021
:100210000D1001004C000000B06F00206075002040
:1002200000000000ED4C04085C750020090201008C
:1002300001000000186F0020B075002000000000D1
:10024000E4F30708AC750020FD0101002400000064
:10025000D06E0020B875002000000000EBDF04081D
:10026000B4750020FB01010001000000E0690020DE
:10027000E0750020000000005D590508DC750020D5
:10028000FC01010009000000AC680020E8750020B6
:100290000000000065590508E4750020F701010021
:1002A00006000000A0680020F87500200000000093
:1002B000E6F30708F4750020F901010004000000CE
:1002C0009C6800200476002000000000B9E00408CB
:1002D00000760020160215003F0000008C2D002043
:1002E0000C760020000000007D59050808760020EB
:1002F0003400010010000000CC6700205076002080
:10030000000000002D9C02084C7600201102010024
:1003100008000000A46700206476002000000000B0
:10032000ECF30708607600201212010004000000C0
:100330009C6700207076002000000000F4F307089E
:100340006C7600201830010038000000646700203F
:1003500078760020000000000D6405087476002007
:10036000000201000B000000E8630020B4760020CA
:1003700000000000A1590508B0760020FF2101000F
:100380000500000094630020C476002000000000F7
:100390004D590508C0760020081203000F00000028
:1003A000A0630020D076002000000000D559050889
:1003B000CC760020FA01010003000000005D00205F
:1003C000E476002000000000BD590508E07600201A
:1003D0002A020100080000000C520020EC760020E8
:1003E00000000000F8F30708E87600202052010022
:1003F0000800000068500020F8760020000000008F
:10040000519C0208F4760020061001002400000030
:10041000A82C002004770020000000003D5A0508A9
:10042000007700200C02010004000000F8480020C2
:100430002C77002000000000C5590508287700200F
:10044000FE01010014000000203B00203477002052
:100450000000000011590508307700202610010027
:100460000E00000018E6002008E600200000000052
:10047000C11E010804E600200B3001001A00000034
:10048000B0DC00205CE600200000000000F407085B
:1004900058E600201F50010024000000DCDB002093
:1004A0007CE60020000000001CF4070878E600202D
:1004B000050201000400000098DE0020A4E60020F0
:1004C0000000000040F40708A0E60020010201003F
:1004D0000B000000A0EC002028F600200000000027
:1004E0009159050824F600200202010003000000D3
:1004F00098EC002038F6002000000000000000000A
:1005000034F600201B0201001000000084EC0020E3
:1005100040F6002000000000A95905083CF6002024
:100520001B2001000C000000B4E9002054F600205C
:10053000000000006983010850F60020210201003C
:10054000F0000000E8E7002064F600200000000052
:10055000719B010860F60020371001003000000098
:100560003CEF002058F700200000000044F407088A
:1005700054F70020161001000600000040EC002097
:100580008CF700200000000074F4070888F70020B2
:100590002F1001002200000000F6002098F7002034
:1005A000000000007AF4070894F7002023220100DD
:1005B000100000007CEB0020C0F7002000000000CD
:1005C0009CF40708BCF700201E0001000900000091
:1005D00068EB0020D4F7002000000000ACF407080E
:1005E000D0F70020052001000C00000014EC0020D2
:1005F000E4F7002000000000B8F40708E0F700204E
:10060000123001001000000050EB0020F4F7002031
:1006100000000000C4F40708F0F70020FD07010007
:100620007C000000ACE6002008F80020000000007C
:10063000ED7C010804F80020F59101006C00000039
:100640006CE7002088F800200000000015910108E8
:1006500084F8002023200100100000009EEE0020FE
:10066000F8F8002000000000250D0208F4F8002032
:10067000F62101000C00000014160120AC17012027
:1006800000000000D4F40708A81701201C02020093
:100690001C000000A415012000180120000000002B
:1006A000AD5E0508FC17012028300100160000008F
:1006B000C01501202018012000000000F51A0208D2
:1006C0001C18012014000100050000009C150120E9
:1006D0003C18012000000000E0F407083818012051
:1006E000012001000C000000F40E01204818012038
:1006F00000000000E6F40708441801200C40060042
:10070000E4000000140D0120581801200000000032
:1007100065E30308541801200A900100240000003A
:10072000D00C01204019012000000000DD0C02085F
:100730003C1901200E300300BC0100000C0B01200D
:100740006819012000000000699C0208641901205A
:1007500013100100040000002C130120281B0120AD
:1007600000000000F4F40708241B0120010101002F
:1007700004000000500A0120301B0120000000008E
:10078000000000002C1B01200001010004000000FB
:10079000480A0120381B012000000000F8F4070877
:1007A000341B01200201010003000000440A012063
:1007B000401B012000000000A5E303083C1B0120B2
:1007C000220201001C01000014110120481B01201D
:1007D00000000000B5600508441B01201500100052
:1007E00070000000E4270120902901200000000093
:1007F000000000008C29012003000100010000001E
:10080000DC270120042A0120000000000000000075
:10081000002A01202A0008006000000018220120A0
:100820000C2A012000000000059C0208082A012073
:100830002C00040010000000802A0120702A0120F2
:1008400000000000ED9502086C2A01202920140008
:100850007800000054250120942A012000000000A7
:1008600000000000902A01201A0001000E00000084
:10087000AC240120102B012000000000FCF407082C
:100880000C2B01202B0012002400000088240120E2
:10089000242B012000000000C1950208202B01201C
:1008A0001902010010000000782401204C2B0120C7
:1008B0000000000081590508482B012025201E005A
:1008C0002C010000D02F0120A433012000000000E3
:1008D00000000000A0330120031201003D000000D1
:1008E00068320120D4340120000000000AF5070816
:1008F000D0340120F831010006000000702C0120E6
:10090000183501200000000048F5070814350120C3
:100910001010010002000000742F01202435012076
:10092000000000004EF507082035012019000100E5
:1009300005000000EC2B01202C35012000000000F8
:1009400050F5070828350120020001000C000000C6
:10095000343E01204C3E0120000000000000000059
:10096000483E012029020100400000005C370120C0
:100970005C3E01200000000056F50708583E0120AB
:100980002C02010004000000043E0120A03E0120D2
:100990000000000096F507089C3E01200A020100B5
:1009A00014000000A83C0120C83E01200000000007
:1009B00031E30308C43E01201A0201003C0000009C
:1009C000E84301203049012000000000F95D0508DE
:1009D0002C4901203820010003000000944101202F
:1009E00070490120000000009AF507086C490120B9
:1009F0000400080080000000F04A0120704B012034
:100A00000000000000000000F04B0120280204005C
:100A100004000000B0490120F84B01200000000054
:100A2000395A0508F44B0120270204000400000095
:100A3000AC490120004C0120000000002D5A05089F
:100A4000FC4B01201F020800100000009C490120FF
:100A5000084C01200000000029590508044C012021
:100A60001D02020006000000B0540120DC540120E9
:100A70000000000000000000D8540120061203000E
:100A800012000000C0540120686501200000000031
:100A9000795F05086465012027000100040000005B
:100AA000004E012080650120000000009EF507082F
:100AB0007C6501200B2201003D00000034880120EC
:100AC000BC8E012000000000A4F50708B88E0120AC
:100AD0000D12010014000000988D0120008F0120EC
:100AE00000000000E4F50708FC8E01201E02010052
:100AF00006000000188C0120188F01200000000063
:100B0000F8F50708148F0120100201000100000011
:100B100074A0012070A0012000000000FEF507086D
:040B20006CA00120A4
:100B24000403090412010002EF0201408304563257
:100B3400000201020301000012010002020200404F
:100B4400830440570002010203010000FFFFFFFF7E
:100B54000000000000000000010000000000000090
:100B640000000000EC39002000000000010000003B
:100B74000000000000000000000000000000000071
:100B84000000000000000000000000000000000061
:100B94000000000000000000000000000000000051
:100BA40000600240106002400000000000000000ED
:100BB40000000000000B0000000000000000000026
:100BC40000000000006002402860024001000000B4
:100BD4000000000000000000060C000000000000FF
:100BE400000000000000000000600240406002407D
:100BF400020000000000000000000000100D0000D2
:100C0400000000000000000000000000006002403E
:100C140058600240030000000000000000000000D3
:100C2400160E00000000000000000000000000009C
:100C340000600240706002400400000000000000F8
:100C440000000000200F0000000000000000000071
:100C540000000000006002408860024005000000BF
:100C6400000000000000000026100000000000004A
:100C7400000000000000000000600240A06002408C
:100C84000600000000000000000000003011000019
:100C940000000000000000000000000000600240AE
:100CA400B8600240070000000000000000000000DF
:100CB400362F0000000000000000000000000000CB
:100CC40000640240106402400000000000000000C4
:100CD40000000000003800000000000000000000D8
:100CE400000000000064024028640240010000008B
:100CF40000000000000000000639000000000000B1
:100D04000000000000000000006402404064024053
:100D1400020000000000000000000000103A000083
:100D24000000000000000000000000000064024019
:100D340058640240030000000000000000000000AE
:100D4400163B00000000000000000000000000004E
:100D540000640240706402400400000000000000CF
:100D640000000000203C0000000000000000000023
:100D74000000000000640240886402400500000096
:100D840000000000000000002644000000000000F5
:100D9400000000000000000000640240A064024063
:100DA40006000000000000000000000030450000C4
:100DB4000000000000000000000000000064024089
:100DC400B8640240070000000000000000000000BA
:100DD4003646000000000000000000000000000093
:100DE4007D000000098500080585000801850008CC
:100DF400F5840008F1840008FD840008F9840008E3
:100E040000000000A591000885A90008D58F0008FE
:100E1400E1AA0008759200088D8500086585000820
:100E240049850008FDA2000875880008658A000845
:100E340061900008DD900008999400087985000805
:100E44005185000841850008010000000000803F32
:100E5400813E010885430108FD3E0108E9120108AD
:100E6400CD140108F912010815130108C112010873
:100E7400B112010800000000000000000902200077
:100E8400010104C0320904000002080650050705E8
:100E940081024000000705010240000009026400CD
:100EA400030100C03209040000010300000009210D
:100EB400110100012236000705830309000A080B0B
:100EC40001020202010009040100010202010005FD
:100ED4002400100105240100020424020205240652
:100EE4000102070582030800FF09040200020A0048
:100EF40000000705010240000007058102400000D0
:100F040009024300020100C0320904000001020288
:100F1400010005240010010524010001042402023B
:100F24000524060001070582030800FF09040100E7
:100F3400020A0000000705010240000007058102C3
:100F440040000000FF000000140000FF000000004B
:100F540000000000AA550701000001AA5505010080
:100F6400002D202D2D202D2D2D2D202D2D2D2D002E
:100F7400000000000000000000000000000000006D
:100F8400080000008CDE0608FF1FFF1F050109058D
:100F9400A101A100050109300931093209330935DC
:100FA4000934093609371581257F750895088102AA
:100FB4000509190129081500250195087501810203
:100FC400C0C0000009022200010100E0320904004F
:100FD400000103010200092111010001223600076A
:100FE40005830309000A0000000000000102030455
:100FF4000102030406070809AA550B010000AA55BB
:1010040005010000AA550902000000AA5503009F2B
:1010140001000000C0120000FFFFFFFF50E60020A7
:101024000000000028E6002000000000010000008D
:101034000100000000000100E0017EFFFFFFFFFF50
:10104400FF000000FFFFFFFF08FF0101FF01000098
:10105400010000001102020800000000000000006E
:1010640038E5060800000000000000000000000051
:10107400DCFC060800000000000000000000000086
:1010840094FD0608000000000000000000000000BD
:1010940040FD06080000000000000000850D020865
:1010A400EA0F012001010000F922020800000000FB
:1010B400000000005CFE060859260208000000003B
:1010C4000000000014FE06082D202D2D202D2D2DAE
:1010D4002D202D2D2D000000000000000000000038
:1010E4000000000000000000FFFFFFFFBD12020827
:1010F40000000000000000006CFC06080100000075
:10110400FA000000010000000100000001010000DD
:1011140000010101000000005A0E01200000F4014A
:1011240001000000580E01200000F401010000003D
:10113400560E01200000F40101000000540E0120AD
:101144000000F40101000000520E01200000F4012F
:1011540001000000500E01200000F4010100000015
:101164004E0E01200000F40101000000BD0A020837
:10117400810A02080000000000E706083E0E012074
:10118400053201004C0E01206400F401010000004E
:101194004A0E01206400C409010000003C0E012035
:1011A400E803D007010000003A0E0120E803D0074D
:1011B40001000000380E0120E803D0070100000000
:1011C400360E01201E00B80B01000000440E012061
:1011D40005000F0001000000460E012003000A0074
:1011E40001000000340E01201E00F4010100000083
:1011F400480E0120020000008CE70608320E012090
:101204001400640001000000400E01203200E803D5
:1012140001000000300E01200000C80001000000A1
:10122400110D012000C80100100D01200050010023
:101234000F0D0120005A01000D0D012002000000D5
:10124400F4E606081C6A0708246A0708E80F012068
:101254000100C40900000000E60F01200100C409D8
:1012640000000000E40F01200100C4090000000098
:10127400E20F01200100C40900000000DE0F01207C
:101284000100C40900000000E00F01200100C409AE
:1012940000000000DC0F01200100C4090000000070
:1012A400DA0F01200100C409000000006F0A0120C8
:1012B40000C801006E0A012000C801006C0A012068
:1012C4000000FFFF0A0000006A0A01200100C800B4
:1012D40001000000680A012032003075320000006D
:1012E400660A01207EFF140005000000640A012044
:1012F40005002C0105000000630A0120055A0500C1
:10130400600A012000FF0100620A012002000000BF
:10131400BC0800205E0A01200300000044E0060827
:101324005F0A012000FF0100610A012002000000A1
:10133400BC0800205D0A01200300000044E0060808
:10134400BC090120FF7F0100B80901200000000052
:10135400FFFFFFFF01000000B409012000000000AE
:10136400FFFFFFFF01000000B009012000000000A2
:10137400FFFFFFFF01000000110A0208A109020893
:1013840000000000DCE70608040F0120EE02CA0892
:1013940001000000020F012000C8010064000000E9
:1013A400010F012002C8010064000000000F0120A9
:1013B4000200000098E70608560A01200000803E5B
:1013C40005000000540A012080C1803E0500000091
:1013D4004E0A01200083007D050000004C0A012014
:1013E40080C1803E05000000470A012000FF010083
:1013F400400A01206400F401010000003E0A0120BB
:101404006400F401010000003C0A01206400F401BE
:10141400010000003A0A012004000000E8E8060880
:10142400390A012002000000FCE80608FB0A01203A
:101434000D00000008E90608F80A01200064010014
:10144400F60A0120320010270A000000F40A0120E5
:101454000D00000008E90608F30A01200D00000051
:1014640008E90608F20A012002000000A4E70608C1
:1014740000000000000000000000000040E9060831
:10148400090F01204600000078E90608070F012033
:101494000300000094EA0608080F0120040000007D
:1014A400B0E70608FD0A012003000000A4EA0608CC
:1014B400FC0A012003000000A4EA0608FE0C012037
:1014C400000A0100FC0C01200000E80301000000F8
:1014D400FA0C01200000E80301000000F80C0120D0
:1014E400000A0100F60C01200000E80301000000DE
:1014F400F40C01200000E80301000000C80C0120E6
:10150400C800E80301000000CE0C01203C00FA00F2
:1015140001000000CC0C01200100E80301000000E0
:10152400CA0C0120000501000C0D0120020000007E
:10153400C4E706080A0D01200000F40101000000C0
:10154400080D01200000F40101000000060D012037
:101554000000F40101000000040D01200000F4016A
:1015640001000000020D01200000E803010000005A
:10157400000D01200000E803010000001E0E012000
:10158400006401000A0000001D0E01200064010037
:101594000A0000000B0E0120196401000A0E01204C
:1015A40002000000D0E70608080E0120E803D00777
:1015B4000A000000060E0120006401000A00000079
:1015C400FB0D012000640100FA0D012000640100FC
:1015D400020E0120006401000A000000010E012037
:1015E400006401000A000000000E012000640100F4
:1015F4000A000000050E012000FF01000A0000009F
:10160400040E012000FF01000A000000030E012067
:1016140000FF01000A000000FF0D012001FF01008E
:101624000A000000FE0D012001FF01000A00000075
:10163400FD0D012001FF01000A000000060B01203E
:101644000000F40101000000040B01200000E80385
:1016540001000000020B01200000E803010000006B
:10166400000B01200000E80301000000FE0A012035
:101674000000E803010000003B1001200096010077
:101684003210012000C80100311001200064010063
:1016940030100120006401002F10012000640100BB
:1016A4002E100120006401002D100120FF0801000C
:1016B4002C10012001640100910802085508020859
:1016C40000000000B4EA06083510012001320100D0
:1016D400341001200100000024EB0608331001201F
:1016E400040000002CEB06082B10012000960100DA
:1016F4002A10012000640100281001201400E803CE
:101704000100000026100120000030750A000000CE
:101714002410012000C801002310012000C801008A
:101724002210012000C801003810012000320100FD
:101734003A1001200014010039100120004B01006F
:10174400371001200400000040EB06083610012089
:10175400006401000A0000002A0E01200AC80500E6
:101764000A000000290E01200100000050EB0608C9
:101774002C0E01200AC805000A0000002B0E0120CF
:101784000100000050EB0608210E012000C80500EE
:101794000A000000280E012000C805000A0000000D
:1017A400220E012000C805000A000000230E0120BB
:1017B40000C805000A000000260E012000C805002C
:1017C4000A000000270E012000C805000A000000DE
:1017D400250E012000C805000A000000240E012087
:1017E40000C805000A000000200E012002000000CD
:1017F40058EB06084A1001200000D0070100000041
:101804004410012000C801004310012000C8010059
:101814004210012000C80100481001200000D00738
:10182400010000004110012000C801004010012007
:1018340000C801003F10012000C80100461001202B
:101844000000D007010000003E10012000C8010084
:101854003D10012000C801003C10012000C8010017
:10186400587B07080000000000008C170120647BEF
:101874000708070800000000D00E00206C7B070852
:10188400070800000000C80E0020747B0708070842
:1018940000000000C00E00207C7B07080808000040
:1018A4000000B40E00206865070807080000000067
:1018B400AC0E002070650708070800000000A40EA5
:1018C4000020786507080708000000009C0E00202F
:1018D40024660708080800000000900E0020847B9E
:1018E4000708071000000000880E00208C7B070802
:1018F400071000000000800E0020947B07080710EA
:1019040000000000780E00209C7B070808100000EF
:1019140000006C0E0020846907080100000000002C
:1019240000000000000000001000000000000000A3
:1019340000000000250602080906020899120208A0
:1019440064EB0608EF0A0120005A0100EE0A0120A8
:1019540000C80100EC0A0120E803D00701000000E0
:101964000000000000000000C50D020800EC06089D
:101974005C0A01200300000054EC06085B0A012005
:10198400000301005A0A0120000301004505020872
:10199400F90402080000000064EC0608B904020817
:1019A400710402080000000000ED06089105020819
:1019B4007D1202080000000080ED0608580A01208C
:1019C40001030100DD010208BD010208000000005E
:1019D400F4F00608990B02086D0B020800000000E1
:1019E40074F10608E10302088903020800000000FC
:1019F400E4F10608350602085D2E02080000000026
:101A04009CF2060805180208C50B02080000000035
:101A140044F30608850602080000000000000000E8
:101A2400E0F306086907020809070208000000003D
:101A340044F4060811080208CD070208000000005B
:101A4400FCF40608E1740208CD0802080000000056
:101A540088F506082E0E012001060100CD060208B5
:101A64009906020800000000A0F60608FD730208AB
:101A7400451402080000000010F70608FD080208DB
:101A840065150208000000008CF806082575020898
:101A94002515020800000000D80E00202D0E01209C
:101AA40001030100D9050208A9050208000000008D
:101AB40098F906081D12020800000000000000004A
:101AC400FCF9060839040208651202080000000047
:101AD40098FA060800000000000000000000000062
:101AE40034FB060879090208B11602080000000058
:101AF400B4FB060800000000000000000000000025
:101B0400DCFD060870DC00209CFF2C0100000000B6
:101B1400C4120120E0150C1700000000C6120120B9
:101B24000200000014010708340A012088136F170B
:101B340001000000360A012088136F17000000001E
:101B44004C74002000000000000000004A740020D3
:101B540000000000000000004874002000000000A5
:101B64000000000046740020000000000000000097
:101B740044740020000000000000000042740020B3
:101B840000000000000000008C060020000000009F
:101B940000000000BD09012003000000F8FE060853
:101BA4002C0A012088136F17010000008EDE00202C
:101BB40088136F1700000000C9020208000000002B
:101BC4000000000008FF0608A50F01200100000026
:101BD4005CFF060890DE00200100000068FF060894
:101BE40086DE00200200000070FF060800000000EE
:101BF40000000000000000007CFF0608B10202089B
:101C040000000000000000001800070800000000A9
:101C140000000000000000006C0007080000000045
:101C24000000000000000000DC000708380A012062
:101C340002000000140107088ADE0020E0150C17DA
:101C440000000000D81D01202C1E012001F11F3FBF
:101C5400D601FF0048A70020FFFFFFFF0000803FE0
:101C64000000000000000000000000000000000070
:101C74000000000000000000000000000000000060
:101C8400000000000000803F000000000000000091
:101C9400000000000000803F000000000000000081
:101CA400000000000000803F000000000000000071
:101CB40000000000010000000000FA430000FA43A5
:101CC4000000803FFFFFFFFFFF000000B5AE0408E7
:101CD4000000000000000000000000000000000000
:101CE400B43E01200800000000000000A43E0120D2
:101CF40008000000354D040800000000000000004A
:101D0400000000006DDE0408000000000000000078
:101D14000000000001000000A00F0000B80B00004C
:101D240002FFFF01685E0C0002000000D93D0108BB
:101D3400DD130108713D010800000000AD12010827
:101D440059460108C13C01080D3901080000000092
:101D5400000000006D120108198500080D850008B7
:101D6400618F00087D8F0008458F0008298F0008C7
:101D74000D8F0008913D0108B9130108C53C010805
:101D8400000000008512010811390108953C010882
:101D94006D380108000000000000000079120108FD
:101DA400949C0708C4660708000000002DE403089B
:101DB400A086010004000000949C07089C9C07086E
:101DC400000000004D890408E8030000040000003E
:101DD400307007080000000000000000F93A030812
:101DE4007D000000FF000000346E070800000000C2
:101DF40000000000A9BF03087D000000FF000000F0
:101E0400607307080000000000000000055C030880
:101E14007D000000FF000000C870070800000000FB
:101E240000000000E9AE0408E8030000030000001D
:101E3400A49C07080000000000000000B13E030855
:101E4400102700000300000008E10708000000005C
:101E540031940208B5B804085F760000050000005C
:101E6400BCE407080000000000000000E9DB0408EF
:101E74001027000002000000B09C070800000000CA
:101E840000000000C14C0408E80300000500000045
:101E9400BC9C0708000000000000000005EC0308DB
:101EA400204E000003000000CC9C07080000000046
:101EB40000000000EDE90308204E000003000000CC
:101EC400DC9C0708000000000000000089B404083E
:101ED400400D030003000000908D0708000000007F
:101EE4000000000031AC04081027000002000000CC
:101EF400F06607080000000000000000E9E60108A1
:101F04001027000003000000EC9C070800000000FC
:101F1400000000002D840408A086010002000000D7
:101F2400DC6E070800000000000000002987040898
:101F340050C3000002000000846C07080000000089
:101F440000000000757F0408A86100000200000082
:101F5400AC8D07080000000000000000854D040857
:101F6400A00F000002000000F49C0708000000001D
:101F74000000000021D0010810270000020000002A
:101F84007C7D070800000000A17C010875C30108DE
:101F94008545010002000000446C070800000000B1
:101FA400000000001D1A01081027000002000000B4
:101FB400D86607080000000000000000513702083E
:101FC40050C3000002000000009D0708000000004C
:101FD4000000000019260108400D03000100000064
:101FE400089D070800000000000000007D4C040864
:101FF400400D030002000000109D070800000000CF
:1020040000000000CDF6010850C3000003000000EA
:102014001C9D07080000000000000000C50504081E
:1020240040420F0001000000289D07080000000046
:10203400000000005D4D040850C3000001000000D2
:10204400349D0708000000000000000075690108C5
:102054001027000002000000FFFF0000FFFFFFFF49
:10206400E4E0070800000802050303000000000084
:10207400F0E0070801000802050403000000000066
:10208400FCE007080000080205030300000000004C
:1020940004E1070801000802050403000000000031
:1020A400E08C07080200FE0101100300000000009C
:1020B400786D07080300140200030000000000000C
:1020C4000CE1070804001F020200080000000000E1
:1020D40014E1070805001F020201080000000000C7
:1020E4001A030000000000000000000000000000CF
:1020F40000000000000000000000000004030904C8
:102104001201000200000040830420570002010273
:10211400030101005D6A0508316A0508D5690508EF
:10212400E55A0508F169050895690508E15A0508A5
:1021340040190020516B050871610508416B0508C1
:10214400C55A0508FD6A0508B56A0508B55A0508A3
:102154001C19002069640508CD5A0508C95A0508E8
:10216400C15A0508B9640508BD5A0508B95A0508D5
:1021740058550708F545010899130108D544010885
:1021840000000000000000006D3C01087D3B0108D8
:1021940000000000000000000000000061120108BF
:1021A4006D5B0508615B0508A96B0508C56B05082F
:1021B400195B05088D6B0508716B050802000000AA
:1021C4000000000018190020D4540120020000006F
:1021D40001000000D55C050814190020000000006F
:1021E4000100000001000000115D05083418002002
:1021F40000000000000000000000000000000000DB
:1022040000000000000000000000000001000000C9
:1022140000000000000000000000000000000000BA
:1022240001000000000000000000000000000000A9
:10223400000000000100000000000000D8000000C1
:10224400000000000500000006000000FFFFFFFF83
:10225400030000000000000005000000050000006D
:102264001F0000001C0000001F0000001E000000F2
:102274001F0000001E0000001F0000001F000000DF
:102284001E0000001F0000001E0000001F000000D0
:102294000068214C010000007C550708060000007E
:1022A40005000000008002021F00000053544D206E
:1022B4002020202050726F6475742020202020205C
:1022C40020202020302E3031008002021F00000028
:1022D40053544D202020202050726F6475742020A8
:1022E4002020202020202020302E30310B0101011D
:1022F4000100000050C300000101FF01250000009F
:10230400AC590708000000000000000000000000B5
:1023140001000000000000000000000000000000B8
:10232400000000000100000000000000F4010000B3
:102334002AFF0000A40000000000000000000000CC
:10234400000004010000020001000002100000006F
:102354000700000000000000000000000102030468
:1023640006070809C70000000500000006FF00007A
:10237400EC19002000000000000000000000000034
:102384000000000000000000000000000000000049
:102394000000000000000000000000000000000039
:1023A4000000000000000000000000000000000029
:1023B4000000000000000000000000000000000019
:1023C4000000000000000000000000000000000009
:0423D4000000000005
:08280000082800080040000850
:10800000134B0268196821EA02011960596821EAD4
:108010000201596019680A431A609968026821EAE6
:1080200002019960D96821EA0201D96041791029D9
:1080300007D001F1804303F59E3319680A431A60A3
:108040007047996811439960D9680A43DA607047AC
:10805000003C0140024B9A6D136A002BFCD1704723
:10806000501A0020F0B401292D4C2E4D4FF000067F
:1080700094BF00230123EE62C4F81861C4F81C61A8
:10808000C4F82831D4F82871D4F8F43047EA42070C
:10809000C4F82871EE63EC6B002A38D144F495746F
:1080A000EC631C6824F001041C601C68E407FCD429
:1080B000490289085960D8601968EAB921F040017D
:1080C000196019498B421DD018494FF47410C860CB
:1080D000196841F01E011960596941F08001596128
:1080E000196841F00101196022B90E4AD36A43F0C0
:1080F0000803D362F0BC704741F0400119600A499F
:108100008B42E1D14FF0746041F8500CE0E744F04D
:108110001A04EC63EC6A44F00804EC62C1E700BFA7
:10812000501A0020002C01405864024000640240B4
:108130001248002302461178032902F1060218D0E2
:108140000133062BF7D10E4AD2F85031052B0FD050
:10815000591C03EB4303C2F8501100EB4303032007
:1081600040F2EB3140F2FF32187059809A8070472C
:10817000704703EB430300EB4303F0E77C1B002055
:10818000501A002030B5134A134B8DB0082102F16C
:10819000580082F8F0100693694400230DF107059A
:1081A0000124CDE9073302938DF8143009938DF83B
:1081B00028300B93CDE9035449F07CFDFFF74AFFCB
:1081C0009DF80700A0F1FF00B0FA80F040090DB063
:1081D00030BD00BF501A0020DD810008826D136A97
:1081E0005B681B78FF2B08D090F8F030013BDBB2C6
:1081F00080F8F0301BB10120704700207047126AF0
:10820000526802201370704770B4C3080D4CE25CD2
:1082100000F00706B24004EBD004D2B20020C6F151
:1082200008038B4228BF0B46C3F108052A4198403A
:10823000C91A40EA02004FF0000614F8012FEED1EF
:1082400070BC7047901A0020084AD2E95531994213
:108250000AD0D118013391F85C110170C3F30A03FD
:10826000C2F854310120704700207047501A002096
:10827000064BD3F86009D3F85C29D3F85C39824205
:1082800098BF03F50063181A704700BF501A00200A
:10829000012380F85130704707B501A8FFF7D4FFDC
:1082A0000028FAD09DF8040003B05DF804FB044BED
:1082B000D3E95503984288BF03F50063181A704745
:1082C000501A002001207047024BC3F86429C3F8FC
:1082D00068197047501A0020024BC3F86C29C3F884
:1082E00070197047501A00207047704730B4134D12
:1082F000D5E955239A4286BF03F50064A21A9A1A5B
:108300000A44B2F5006F13D8A9B101444A1E0138DE
:1083100010F8014FE918824203F1010381F85C4132
:10832000C3F30A03F4D1C5F85831002030BC7047BC
:10833000022030BC70470846F8E700BF501A002002
:1083400041B370B5144C0144D4F860394E1E451E3B
:108350001A4604E0012048F02DF9D4F86029D4F839
:108360005C19531CC3F30A038B42F3D0D4F85C1995
:10837000B1F5006FEED094F874190029EAD115F820
:10838000011FC4F860392244B54282F87819DFD160
:10839000002070BD00207047501A002010B5094C15
:1083A000D4F88030084611465BB1D4F88030052BF4
:1083B00007D1002AD4F8843003DDFFF7C1FFD4F8D9
:1083C000843010BD482B002010B590F850100023C9
:1083D00080F8503081B10B4CD4F8802072B1D4F8C1
:1083E0008020052A0CD13C30D4F88430FFF7A8FF58
:1083F000D4F88430012010BD0120FCE71046FAE7D4
:108400001846F8E7482B0020002280F85120DBE7CF
:1084100090F85020531C0244DBB280F8503082F8B0
:108420003C1090F851200AB1132B00D9CCE77047CB
:10843000212838B50C4605D022282FD0202813D06B
:10844000002038BD0029FBD0072AF9D11A4BD3F8F8
:10845000880093F88C1093F88D2093F88E3020606C
:1084600021716271A371EBE70029E9D0072AE7D1F6
:10847000124AD2F868391BB1D2F8640909689847E2
:108480000D4B256820796179A279C3F8885083F86B
:108490008C0083F88D1083F88E20D1E70029CFD08F
:1084A000022ACDD1054AD2F87039002BC8D00988EC
:1084B000D2F86C099847C3E7482B0020501A0020D7
:1084C000024B0020C3F88000704700BF482B0020FB
:1084D000054B064A00200521C2F88010C3F8700938
:1084E000C3F86809704700BF501A0020482B0020CD
:1084F000704700BF704700BF704700BF704700BFA4
:10850000704700BF704700BF704700BF0423014899
:108510000B8070479801002010B4074A074B92F86F
:108520009000122403F114020C8001280CBF18469D
:1085300010465DF8044B7047482B00209C0100203A
:1085400000487047781A002000487047781A0020C9
:10855000034B93F82400032894BF002001207047A8
:10856000501A0020034B93F82400032894BF0020E6
:1085700001207047501A0020034B93F82400003864
:1085800018BF0120704700BF501A0020034B93F81A
:108590002400003818BF0120704700BF501A002087
:1085A000A0B182680D4B12B107229A7070471978FA
:1085B000DA6003294FF004000CBF80214FF4807172
:1085C000C3E901111A611A7598707047034B41F2A3
:1085D000E47101225A545A70704700BFF8BD002060
:1085E0000378022B10D0006908B9012070470C4BAA
:1085F0001B78032B0EBF0B4B80B24FF6F7739842DC
:1086000094BF0020012070470549436841F650029D
:108610008A58B3EB422F2CBF01200020704700BFC7
:10862000F8BD0020F7FFFF0F0378022B14D030B401
:10863000104A4368006941F6480402F5C2511559D1
:10864000096841F63C042B4012595B0A023801FBD1
:108650000030104430BC7047064B426841F634018C
:1086600041F630005958185800EB410000EB5220F9
:10867000704700BFF8BD002030B593B040F0400215
:108680000B0E0D0C04468DF80810080A8DF8042016
:10869000952101AA8DF805308DF806500023062596
:1086A0008DF807008DF809100DF1030001210392E8
:1086B000134A0493CDE90733CDE90D33CDE9090120
:1086C0008DF818308DF82C300F938DF840301193C1
:1086D00005950C92FFF756FD00B974B9094B0822B5
:1086E00003F1580003A983F8F02049F0E3FAFFF7FB
:1086F000B1FC9DF8030013B030BDFF2013B030BDB6
:1087000009870008501A0020836D1B6A5B681B787C
:10871000FF2B0AD190F8F030002B03F1FF3380F8E3
:10872000F03014BF0120022070470020704700BFC6
:1087300030B5104A104B8DB0014682F8F01002F1AE
:108740005800069302A900230DF107050124CDE985
:10875000073302938DF8143009938DF828300B936A
:10876000CDE9035449F0A6FAFFF774FC9DF8070021
:108770000DB030BD501A00200987000870B51C4D9F
:1087800090B00024FD220DF1030305F158000126ED
:1087900001A98DF803200693CDE90144CDE90A44EF
:1087A000CDE90C442C628DF81040059407948DF8A7
:1087B00024408DF838400F940396089649F07AFAD1
:1087C000FFF748FC3046FFF7B3FFFF2809D0094BFD
:1087D000D3F884306B612046092385F8243010B02B
:1087E00070BD0423022085F8243010B070BD00BF96
:1087F000501A0020482B002070B5064690B0082083
:108800000D46FFF795FFFF2821D0FE2802D0022059
:1088100010B070BD002402230E48089301A9CDE9D1
:108820000265CDE90544CDE90A44CDE90C44019443
:108830008DF8104007948DF824408DF838400F943F
:1088400049F038FAFFF706FC204610B070BD012051
:1088500010B070BDA81A002008B5FFF7FBFB0A2076
:1088600047F08AFD024B186EBDE8084048F088BE0C
:10887000501A002070B50379254C002B14BF01223B
:1088800000228AB084F8502003D184F824300AB042
:1088900070BD054690F9001004F1580049F080FBC6
:1088A000AD784DBB01261B482566C4F8EC4084F822
:1088B000646049F0ABFB03464FF47A70A4F85C3077
:1088C00047F078FE206E48F05BFE282268460021C3
:1088D00065F0FDF80A2310480293694649F0EAF969
:1088E000FFF7B8FB0D4B84F82460D3F88430636144
:1088F000002323760AB070BD284648F057FB054692
:1089000008B11E23C3800921284647F005F9C9E7AD
:10891000501A0020801A0600A81A0020482B0020B8
:108920002DE9F84F494B98420ED003F568530833B0
:1089300098424ED0464B0020C3E94000A3F8FC000B
:10894000A3F80801BDE8F88F414C424FDFF81081D1
:108950000223C4F8943004F198060025FB6AAB4268
:10896000294605F1010503D0D4F8180153F08EFD16
:1089700094F81C31D4F8182186F82430326230463D
:10898000414653F097FFD4F894309D4206F13006EB
:10899000E4DB002384F80A31D4E92803D4F89410E6
:1089A000B4F89C20B4F8A850C4F8283112FB01F2A6
:1089B00003FB01F3A4F8FC20B4F89E10264AA4F8A7
:1089C0000851C4E94003A4F8FE10C4F8F8200120BF
:1089D000B8E71F4C1F4F0223C4F8943004F19805E8
:1089E0004FF0000B4FF4806A4FF040094FF40068DD
:1089F000FA6A01265A455946B34403D0D4F81801FF
:108A000053F044FDD4F8181194F81C21296285F81C
:108A100024204FF400314FF00062C5E90212A5F89E
:108A200004A0A5F81090A5F80680AE74FFF780FBAF
:108A300028466E7653F08AFED4F89420074B45F80A
:108A4000303B9345D4DB84F80A61A5E71971EF0048
:108A5000482B0020980100209CDB060870DB0608EC
:108A60001940EF002DE9F843194C94F82460042EC6
:108A70000546894690461F4608D0082E02D00020A1
:108A8000BDE8F883FFF77AFE0228F8D1206E48F09F
:108A900071FDA37E9BB969021120FFF7EDFDA0B91E
:108AA0000C4BC4F80090D3F8842065600523C4E91A
:108AB0000387626184F824300120BDE8F8832946E9
:108AC0001120FFF7D9FD0028EAD0FFF7C5FED6E751
:108AD000501A0020482B00202DE9F04FCF4ED04DEA
:108AE00086468C4617460FCE05F596742DED068BFF
:108AF0000FC40FCE0FC496E8070089B095F8623115
:108B0000039784E80700CDE904EC042B00F24881C8
:108B1000DFE813F0B401460141010500C4019FEDF7
:108B2000C18ADFEDC18AC149C5F84811C049C14BAE
:108B3000C14AC5F844110399002918BF134638EEFD
:108B4000887AF5EE006AC6EE879ABC4EC5F85031B9
:108B5000A6F1120B06F1C0080027DFEDB97A9FEDF0
:108B6000B99A28EE278AB0EE67AA059BBB4200F0AF
:108B70000C811BF8013BEA1892F86741002C00F0C9
:108B80001481002202E0152A00F00F8102EB42015D
:108B90004FEA420918F80100A04202F10102F2D1A5
:108BA000294491F84512002900F06681204602937D
:108BB00044F03CFF029B82465046029344F056FF2D
:108BC0000178002940F0F180029BA9440133DBB217
:108BD000032289F8853289F88422BAF1000F00F067
:108BE000E4804FEA141909F1FF39B9F1040F04F0D8
:108BF0000F0000F20881944C04EB4901B1F884C0E5
:108C00004CFA00F111F0010100F0FD80012101FAA0
:108C100000F0013800EA0C00A144029362F05EFC0F
:108C200099F890C0DFF838E2029B60440EEBC00C6C
:108C300003228CF807308CF806205EF83000C6F866
:108C400014C000F13F4303F57E0304EB932401219C
:108C500094F898309AF8082003F01F045B09032B5E
:108C600001FA04F100F00381042B00F0FB80022BD9
:108C700000F0CF80BCF804300693B3FA83F3C3F15D
:108C80001F03C3F3CC0100EB810103F007030C6A5F
:108C90009B004FF00F0C0CFA03FC24EA0C040C624E
:108CA0000C6A02FA03F323430B62022306A907931B
:108CB0000BF0E2FF039B002B00F08380B5F86031DE
:108CC000D5F8301507EE903AF8EEE77AFCEEE77A41
:108CD00017EE900AB1FBF0F202F57F42FF32120C60
:108CE000B1FBF2F295F86211B2FBF0F0042983B205
:108CF0007ED007EE902AF8EE676A66EE887A29EE53
:108D0000677A95F8630104990091A8EEA67A01901C
:108D100051463046C6ED027A86ED037A36F0FEFF04
:108D2000002F72DD7368D5F8882193426FD0012F30
:108D30006BD0D5F8A021934269D0022F65D0D5F829
:108D4000B821934263D0032F5FD0D5F8D02193424E
:108D50005DD0042F59D0D5F8E821934257D0052F84
:108D600053D0D5F80022934251D0062F4DD0D5F8DC
:108D70001822D31A18BF012301370122082F337498
:108D8000727406F118067FF4F0AE304809B0BDECFD
:108D9000068BBDE8F08F9FED2E8AF0EE488AC2E682
:108DA0009FED2C8AF0EE488ABDE62B4A224BC5F88F
:108DB00048210020C5F8503109B0BDEC068BBDE854
:108DC000F08FB0EE690A63F0EFFAFCEEC07A4FF66E
:108DD000FF7317EE902AD5F83015B1FBF2F21A4462
:108DE000120CB1FBF2F295F862110429184680D1F9
:108DF00007EE900A07EE102AF8EE677AF8EE476A57
:108E000067EE8A7A7BE7716154E70123B4E70023B8
:108E1000B2E7124B5C6C214359642BE7C8DB0608B0
:108E2000482B0020ACC5A737ACC5A736C1E903085D
:108E300081E00408B5E0030875E00408CC2C0020AC
:108E40006F12833A00007A4470DB0608742C00200D
:108E5000282930386F12033905E203080038024030
:108E6000F82D00200F4B1C6B2143196302E70D4BBB
:108E70001C6C21431964FDE68A469DE69FED0A8A33
:108E80000A4A0B4BC5F84821C5F84431002201239A
:108E9000CDE90332F0EE488A064B50E69FED068A94
:108EA000EEE700BF003802406F12833AC1E90308C1
:108EB00081E0040875E0040800000000F8B5104ED9
:108EC000D6F83045054600680F4664080BF0D8FD1B
:108ED000B4FBF7F1B1F5803F03D3012CFAD9640854
:108EE000F6E72246284689B244F03EFC054BC6F818
:108EF000983D28460449BDE8F840002244F042BBB2
:108F0000482B0020B1270208E038002010B5044C9F
:108F100004480A4621460AF02DFC204610BD00BF39
:108F2000E8380020D05D070810B5044C04480A4614
:108F300021460AF01FFC204610BD00BFE838002083
:108F4000E05D070810B5044C04480A4621460AF0C3
:108F500011FC204610BD00BFE8380020EC5D07087A
:108F600010B5044C04480A4621460AF003FC20468A
:108F700010BD00BFE8380020F85D070810B5044CAC
:108F800004480A4621460AF0F5FB204610BD00BF02
:108F9000E8380020045E070810B50C4C94F8F22065
:108FA0000023236212B10A4AC2F8A03E5BF052FFCE
:108FB00020B10423022084F8243010BD044BD3F8E0
:108FC00084306361092384F8243010BD501A0020D6
:108FD000482B002070B50D4D95F82430042B044625
:108FE0000E460AD0082B06D1EB6983420CD0FFF75E
:108FF000D3FF022801D0012070BD0823C5E9074630
:1090000085F82430022070BD022070BD501A002067
:1090100010B50AF083FB0F4C48B194F82430032BB1
:1090200011D8237E0133DBB2072B237603D900232B
:1090300084F8243010BD084A0123D2F884206261EC
:1090400084F8243010BD054848F0E0FFA4F85C0027
:10905000E7E700BF501A0020482B0020801A0600C6
:1090600070B51D4C94F82430042B06460D4608D0EC
:10907000082B20D1E36983422BD0FFF77FFB022826
:1090800019D1206E48F076FA00213720FFF7F4FA64
:1090900029461720FFF7F0FAA8B9A37E6BB9710231
:1090A0001920FFF7E9FA70B90823C4E9076584F8C5
:1090B0002430022070BD012070BD31461920FFF719
:1090C000DBFA0028F0D0FFF7C7FBFFF7A1FF032072
:1090D00070BD022070BD00BF501A00202DE9F04184
:1090E0002B4C0546884617461E4694F82400042853
:1090F00034D0082806D1E369AB4206D0FFF73EFB27
:109100000228F2D00120BDE8F0814FF0FC0CA26DE6
:109110002048117B204B80F8A4CEC3F8588051B171
:10912000526942B194F8E020002A0CBF4FF48072DB
:109130004FF4007201E04FF480721A661749184824
:1091400048F0B8FD01220623C4E90085C4E903768E
:10915000227284F824300020BDE8F081206E48F0AF
:1091600009FAA37E5BB969021820FFF785FA40B9B6
:1091700094F82430082BC8D04FF0FE0CC7E72946DE
:10918000F2E7FFF769FBFFF743FF0320BBE700BFF0
:10919000501A0020482B002098010020C801002010
:1091A000A81A002070B50379204C002B14BF0123AE
:1091B000002384F8503003D1002384F8243070BD9C
:1091C0001B4D002195F9AB2E032047F0ADFD002883
:1091D000F2D04668304647F095FD84F8F10000284B
:1091E000EAD095F8A93E003B18BF0123304684F829
:1091F000F2305CF089FD0AF091FA28B9237E84F8F8
:1092000024000133237670BD5BF00EFF30B1237E66
:1092100000220133237684F8242070BDD5F88430F1
:1092200063610123207684F8243070BD501A002039
:10923000482B002010B55BF0F7FE48B10B4C237EA5
:109240000133DBB2072B237603D9002384F82430C3
:1092500010BD0AF063FA0028F7D0054A0123D2F8BE
:109260008420626184F8243010BD00BF501A0020B1
:10927000482B00202DE9F041844C94F85050002DEB
:1092800000F0F28094F82420814E0227531E082B10
:109290003FD8DFE803F035379C3E694F153E0500A7
:1092A0005BF0D8FD002840F0E6806369D6F88420A2
:1092B000FA3393422AD2FFF7BDFF94F82420E5E762
:1092C0005BF0C8FD0028F0D0236A0022012B227633
:1092D00040F2D580E16994F8F200013B0131C4E924
:1092E000071310B16A4BC3F8A02E082284F824207B
:1092F000A2F10805B5FA85F56D092846BDE8F081AB
:1093000084F824705BF0A6FD002844D194F8242052
:10931000531EDBB2022B0AD85D4B6169D3F884304F
:109320005B1AC82BE4D9FFF785FF94F82420042AA0
:10933000DED1E2E7D4F82431002BD9D1544BE668D2
:10934000D3F884306361072284F82420002ECFD024
:10935000D4E9002123690120B047D7E76369D6F833
:10936000841064338B42C3D2D4F82081B8F1000F4B
:10937000F4D15BF06FFD00289FD0E66884F8188078
:10938000042384F82430002E73D0D4E9002123690B
:109390004046B047BAE75BF003FA0028B6D196F82A
:1093A000AD3E002BA3F10203B3FA83F314BF0222F4
:1093B00001225B096276A3765BF0F2F900287FF464
:1093C0007AAF344A0323926CA26284F824305BF0B3
:1093D000E7F900289AD12E4B206293F8DC6EB3F89F
:1093E000DE0ED3F8E0EED3F8E0CED3F8E07ED3F88B
:1093F000E02E84F82E6093F8E41EA08593F8E56EC5
:1094000084F8322093F8E50ED3F8E82E6263B3F8BF
:10941000EE8EB3F8EE2E84F83310B3F8EE1EC2F3DE
:109420000B1343EA182303F00F0301F00F024FEA76
:109430001E6E4FEA1C4C3F0A360900F00F0003F580
:10944000FA63042184F8390084F82FE084F830C0EE
:1094500084F8317084F83860638784F83C2084F89D
:1094600024102846BDE8F08184F824502846BDE841
:10947000F081054641E7042384F824303DE7FAD122
:10948000FFF78AFD94F82420531E42E7501A00206B
:10949000482B0020F83900202DE9F04FC64C94F8F5
:1094A000506095B0002E00F0818194F82420C34FC5
:1094B00004F1580804F14009531E082B00F296806D
:1094C000DFE813F034005A00200194008300A50067
:1094D000190094000900FEF755FE002840F01A829A
:1094E0006369D7F88420FA3393427CD2FFF790FD6A
:1094F00094F82420E0E7FEF745FE0028F0D0236A28
:109500000022012B227640F21B82E269013B511CB2
:10951000C4E90713082284F82420A2F10806B6FA49
:1095200086F67609304615B0BDE8F08F206E48F01B
:1095300021F800210846FFF79FF80546FFF78CF950
:10954000012D50D1206E4FF0000A84F819A048F088
:1095500011F840F2AB110820FFF78EF8052800F053
:109560007A81012800F04281FFF776F9627E002AB5
:10957000D1D0022384F82430206E47F0FBFF637EB5
:10958000022B0CBF4FF08045002500213720FFF74C
:1095900073F829462920FFF76FF80546FFF75CF9B5
:1095A0000DBB637E022B00F06981A576206E47F02B
:1095B000E1FF00210920FFF75FF8002873D0FFF7D3
:1095C0004BF994F82420531E10E020684FF40071EA
:1095D000FFF712F9012800F02681022800F02A8105
:1095E000002800F03A8194F82420531EDBB2022BAD
:1095F0000AD8724B6169D3F884305B1AC82B8CD9B6
:10960000FFF706FD94F82420042A86D18AE7A26D8C
:10961000117B136A002900F0D5805269002A00F0FE
:10962000D18094F8E020002A00F0CC80B3FA83F3D4
:109630005B09002BD7D004A900250DF10F030222EE
:109640000591404605A94FF0010ACDE90B3A079272
:10965000CDE90955CDE90E55CDE91055ADF81050BD
:1096600006958DF820508DF834508DF8485013959C
:1096700048F020FBFEF7EEFC9DF80F3003F01F03CF
:10968000052B00F05081FFF7C3FCD4F80CB0BBF100
:10969000000F00F0DD802A46236961685046D847F4
:1096A00094F8242008E710214846FFF7A5F88246E1
:1096B000002884D101217F20FEF7A6FD0128054660
:1096C0007FF47DAF50460221FEF79EFD002800F09A
:1096D000038101287FF473AF16213A20FEF794FD31
:1096E00001308002A062FFF7B7F8206E47F042FF1A
:1096F00000210A20FEF7C0FF002840F0E680032387
:1097000084F82430102105A8FFF776F800287FF4AC
:109710006AAF9DF821309DF822109DF81C209DF81D
:1097200015009DF816501B01DBB243EA111303F537
:10973000FA636387DDF81D3001F00F0184F83C10F7
:109740001BBA110902F00F0245EA002084F8381014
:1097500084F839209DF814109DF817206363069B48
:109760002363A08584F82E1084F82F20FFF774F867
:10977000A37E6BB9206E47F0FDFE4FF40071102000
:10978000FEF77AFF0546FFF767F8002D7FF4AEAECF
:109790000B4848F03BFC00220423A4F85C00304650
:1097A000226284F8243015B0BDE8F08F304684F88A
:1097B000246015B0BDE8F08F501A0020482B00201F
:1097C00040787D012268217A4FF4807302EB0121F9
:1097D0004046002248F03AFE237A0133DBB223727E
:1097E000A3F10203B3FA83F35B0922E7042304AA7B
:1097F00005A9404607930692CDE909AACDE90BAA2F
:10980000CDF814A08DF820A08DF834A0CDF838A0A4
:1098100048F050FAFEF71EFC9DF81330AB2B04BF46
:1098200002236376A0E66369D7F884206433934209
:10983000BFF4D9AEFFF710F8FFF7EAFBE5683DB1DA
:109840000022104623696168A84794F8242033E673
:1098500094F8242030E6657686E60190FEF7FCFF5A
:10986000E56801982076042384F82430002D3FF425
:1098700059AED4E900212369A847B4E6206E47F029
:1098800079FE29463A20FEF7F7FE04AA8246042311
:1098900005A9404606920793CDE90955CDE90B5538
:1098A00005958DF820508DF834500E9548F002FA49
:1098B000FEF7D0FBBAF1000F07D1FEF7CDFF049BF6
:1098C0001BBAC3F38073A37670E6FEF7C5FFFFF7FC
:1098D0009FFB94F82420EFE504212C20FEF794FC54
:1098E000032182464E20FEF78FFC0C218346362052
:1098F000FEF78AFC0BF1020B421C02FA0BF205FA8E
:109900000AF5A2FB0501420A42EAC152A262FEF731
:10991000A3FFEAE60190FEF79FFF019804230646A5
:1099200084F82430FEE50E4BE568D3F8843063619B
:10993000072284F82420002D3FF4EFAD504698E72D
:1099400008D0042384F82430FEF786FF94F82420FE
:10995000531E4BE6FEF712FF02287FF444AE2EE6BC
:10996000482B00202DE9F84FBA4C94F8081F054603
:10997000C1F34001D4F8100F47F008FE94F8081F17
:10998000D4F80C0FC94301F0010147F0FFFD002D91
:1099900000F0CD806E1EB04FB04D5FFA86FB4FF0E9
:1099A0001008D4F8100F47F0D5FDD4F80C0F47F08D
:1099B000D1FDB4F8183F002B40F0438194F81A1FF2
:1099C000D4F81C0F47F0E2FD4FF0FA094FF47A701B
:1099D0004FF0010C7B68C3F30803002B40F00881B3
:1099E000EFF31183002B40F00381D4F88420A968A1
:1099F000D4F884309A42F8D1D4F8403F9942F4D850
:109A0000D4F83C6F00FB06F35B1AB3FBF6F300FBE4
:109A100002327B68C3F30803002B40F0A880EFF309
:109A20001183002B40F0A380D4F88430D5F808A02F
:109A3000D4F884108B42F7D1D4F8401F8A45F3D86C
:109A4000D4F83C6F00FB06F1A1EB0A01B1FBF6F183
:109A500000FB03139B1AB3F57A7FDAD3B9F101093E
:109A6000B8D1D4F8100F47F075FDD4F80C0F47F0BB
:109A700071FDB4F8183F002B40F0D78094F81A1FFE
:109A8000D4F81C0F81F0010147F080FD4FF0FA0C73
:109A90004FF47A704FF0010E7B68C3F30803002B7C
:109AA00040F08680EFF31183002B40F08180D4F8E2
:109AB0008420A968D4F884309A42F8D1D4F8403F81
:109AC0009942F4D8D4F83C9F00FB09F35B1AB3FB2E
:109AD000F9F300FB02327B68C3F308034BBBEFF3DF
:109AE000118333BBD4F88430D5F808A0D4F884109F
:109AF0008B42F7D1D4F8401F8A45F3D8D4F83C9F65
:109B000000FB09F1A1EB0A01B1FBF9F100FB031322
:109B10009B1AB3F57A7FDED3BCF1010CBCD10BF1FB
:109B2000FF365FFA86FBBBF1FF0F7FF43AAFBDE86B
:109B3000F88FEFF3118988F31288AE682B68DB0386
:109B400044BFC4F838EFAE68D4F88430D4F8381F76
:109B50005FFA89F989F31188D4F83C9F0B4400FB24
:109B600009F1891BB1FBF9F100FB0313D0E7EFF317
:109B7000118E88F31288D5F808A02B68D90344BF4A
:109B8000C4F838CFD5F808A0D4F88430D4F8381FFA
:109B90005FFA8EFE8EF31188D4F83C6F0B4400FB05
:109BA00006F1A1EB0A01B1FBF6F100FB031351E74B
:109BB000EFF3118188F31288D5F808902B68DA0347
:109BC00044BFC4F838EFD5F80890D4F88430D4F8FE
:109BD000382FC9B281F31188D4F83C1F1A4400FB16
:109BE00001F3A3EB0903B3FBF1F300FB023272E7CD
:109BF000EFF3118188F31288AE682B68DB0344BF52
:109C0000C4F838CFAE68D4F88430D4F8382FC9B24D
:109C100081F31188D4F83C1F1A4400FB01F39B1B0D
:109C2000B3FBF1F300FB0232F3E6D4F8343F002B30
:109C30003FF42CAFD4F8203FC3F8009084F8319F54
:109C400024E7D4F8343F002B3FF4BEAE46F072FD5B
:109C5000BAE600BF482B002000ED00E010E000E075
:109C60002DE9F84FB74CB84F94F8081FD4F8100FEF
:109C7000B64DC1F3400147F089FC94F8081FD4F8B1
:109C80000C0FC94301F0010147F080FC4FF0050BB8
:109C90004FF01008D4F8100F47F05CFCD4F80C0F0C
:109CA00047F058FCB4F8183F002B40F0438194F87B
:109CB0001A1FD4F81C0F47F069FC32264FF47A7053
:109CC0004FF0010C7B68C3F30803002B40F00781C1
:109CD000EFF31183002B40F00281D4F88420A968AF
:109CE000D4F884309A42F8D1D4F8403F9942F4D85D
:109CF000D4F83CEF00FB0EF35B1AB3FBFEF300FB62
:109D000002327B68C3F30803002B40F0A780EFF317
:109D10001183002B40F0A280D4F88430D5F808A03D
:109D2000D4F884108B42F7D1D4F8401F8A45F3D879
:109D3000D4F83CEF00FB0EF1A1EB0A01B1FBFEF100
:109D400000FB03139B1AB3F57A7FDAD3013EB9D136
:109D5000D4F8100F47F0FEFBD4F80C0F47F0FAFBD5
:109D6000B4F8183F002B40F0DA8094F81A1FD4F8AA
:109D70001C0F81F0010147F009FC4FF0320C4FF449
:109D80007A7001267B68C3F30803002B40F08780BC
:109D9000EFF31183002B40F08280D4F88420A9686F
:109DA000D4F884309A42F8D1D4F8403F9942F4D89C
:109DB000D4F83C9F00FB09F35B1AB3FBF9F300FBFB
:109DC00002327B68C3F308033BBBEFF3118323BB71
:109DD000D4F88430D5F808A0D4F884108B42F7D199
:109DE000D4F8401F8A45F3D8D4F83C9F00FB09F112
:109DF000A1EB0A01B1FBF9F100FB03139B1AB3F5C8
:109E00007A7FDED3BCF1010CBCD10BF1FF3616F02A
:109E1000FF0B7FF43FAFBDE8F88FEFF3118988F3B4
:109E20001288D5F808A02B68DB0344BFC4F8386F4C
:109E3000D5F808A0D4F88430D4F8381F5FFA89F92F
:109E400089F31188D4F83C9F0B4400FB09F1A1EB86
:109E50000A01B1FBF9F100FB0313CFE7EFF3118E19
:109E600088F31288D5F808A02B68D90344BFC4F83A
:109E700038CFD5F808A0D4F88430D4F8381F5FFA6A
:109E80008EFE8EF31188D4F83CEF0B4400FB0EF1EC
:109E9000A1EB0A01B1FBFEF100FB031352E7EFF364
:109EA000118188F31288D5F808902B68DA0344BF33
:109EB000C4F8386FD5F80890D4F88430D4F8382F27
:109EC000C9B281F31188D4F83C1F1A4400FB01F396
:109ED000A3EB0903B3FBF1F300FB023271E7EFF3ED
:109EE000118188F31288D5F808E02B68DB0344BFA2
:109EF000C4F838CFD5F808E0D4F88430D4F8382F37
:109F0000C9B281F31188D4F83C1F1A4400FB01F355
:109F1000A3EB0E03B3FBF1F300FB0232F1E6D4F83E
:109F2000343F002B3FF429AFD4F8203F1E6084F863
:109F3000316F22E7D4F8343F002B3FF4BEAE46F039
:109F4000F9FBBAE6482B002000ED00E010E000E04D
:109F50000E4B30B4DB68427801780D4CDB43C3F321
:109F60000223C3F10403DBB202FA03F360181B01FE
:109F700001F01F050122490903F0F003AA4080F80F
:109F8000003344F8212030BC704700BF00ED00E0F2
:109F900000E100E000F01F0240090123032803FA5A
:109FA00002F304D004280CD0022805D07047074AD9
:109FB000116C0B4313647047044A516C0B43536498
:109FC0007047024A116B0B4313637047003802401D
:109FD00000285FD00368374A2DE9F04103F13F4480
:109FE00004F57E0402EB9422012492F8982002F0FA
:109FF0001F055209032A04FA05F456D0042A4FD04B
:10A00000022A48D08588B5FA85F0C0F11F00C0F358
:10A01000CC0603EB860600F0070082000F24306AAE
:10A02000944020EA04003062306A01FA02F20243EE
:10A03000002132624FF0010E0A464FF0030C022756
:10A040000EFA02F838EA050002F101021CD1186884
:10A050000CFA01F420EA04001860186807FA01F607
:10A0600006431E609E6826EA04069E609868986013
:10A07000586820EA0800586058685860D86820EA94
:10A080000400D860D868D860102A01F10201D7D145
:10A09000BDE8F0817047084A556C2C435464B1E721
:10A0A000054A156B2C431463ACE7034A156C2C432B
:10A0B0001464A7E770DB0608003802402DE9F0437E
:10A0C00085B00D461746044647F0BEFA002859DB16
:10A0D0003B4EDFF8F88008EB000206EB800006F646
:10A0E000847392F8A090C0F8443F002C60D0A288FE
:10A0F0004FF00043B2FA82F2D34005D0314A1168E2
:10A1000021EA0301116053612946204645F004FD10
:10A11000256805F13F4505F57E05AD0A204647F067
:10A1200093FA00F0FC0303F1804303F59C3300F045
:10A1300003009A6880000F21814022EA01029A60A0
:10A140009A68EDB205FA00F0104398602CB1A0882F
:10A150004FF00044B0FA80F0C44008EB87074E444B
:10A16000D7F8B0308DF80D300021012302A88DF80A
:10A170000E3002948DF80C10FDF742FF96F8883FE0
:10A18000F02B02D805B0BDE8F0830F4B13F809306F
:10A190008DF80430F02103224FF4807301A886F873
:10A1A000881F8DF80520ADF80630FFF7D1FEE9E7EE
:10A1B0002946204645F0B0FC4FF0FF35AEE700BF22
:10A1C000482B0020003C01406C5E070870DB06084D
:10A1D000002869D0F0B58388B3FA83F3202B85B0CB
:10A1E0000446C3F11F024AD0304E314D16444FF0A1
:10A1F000004005EB820230FA03F396F8A060C2F843
:10A20000441F05D02B4A116821EA030111605361F4
:10A210002046002145F080FCA3882268B3FA83F42D
:10A22000C4F11F0303F0FC0101F1804101F59C31F1
:10A2300003F0030398000F2702F13F438A68874029
:10A2400022EA070203F57E038A60C3F38723834073
:10A2500088684FF000420343354422FA04F48B60CF
:10A260004FF40062012302A88DF80E300294ADF87D
:10A270000C20FDF7C5FE95F8883FF02B01D805B0FE
:10A28000F0BD0D4B9B5D8DF80430F02103224FF49F
:10A29000807301A885F8881F8DF80520ADF8063079
:10A2A000FFF756FE05B0F0BD704700BF70DB060833
:10A2B000482B0020003C01406C5E070810B4B8B188
:10A2C0000D4CD4F8903F102B05D15DF8044B0521BF
:10A2D000002045F009BF03EB4302224482F8951F9A
:10A2E00001210B4482F8940F82F8961FC4F8903F26
:10A2F0005DF8044B704700BF482B00208078202178
:10A30000DCE700BF2DE9F04FDFF8ACA32DED028BA9
:10A310009AF8D81F002297B0CAF8C82FCAF8CC2FD5
:10A32000CAF8D02FCAF8D42FCAF8C42F19B19AF896
:10A33000D92F8AF8C42F9AF8DA2F1AB19AF8DB2F9E
:10A340008AF8D32F9AF8DE2F1AB19AF8DF2F8AF8FD
:10A35000CE2F9AF8DC2F1AB19AF8DD2F8AF8C92F80
:10A360009AF8E03F05935A1ED3B257B203937B1C71
:10A3700000F0AA80C54AC64E52F83790029602EB0A
:10A38000C70200231279019308EE102A1D463446B5
:10A39000984626783946304648F0FAFC83463046DF
:10A3A000BBF1000F1ED046F001FEEA1D1321D2B210
:10A3B00020B14FF0000E827180F807E045F0ACFB51
:10A3C000207848F00FFD4FF0070308F101022371D8
:10A3D0004FF0010384F802806070CDF804B05FFA9A
:10A3E00082F8E3700135042D04F10504D1D118EE93
:10A3F000100A029ECDF81080FFF7CCFDA549A64AB1
:10A400004868024042F440324A600FB9019B5BB990
:10A41000A24C4820FFF7BEFD2046022160F03CFD23
:10A42000A26842F00102A2609A489C4A4168BAF8C8
:10A43000E24F41F400014160516821F480515160C4
:10A44000916B21F4401141F480119163D16841F482
:10A450006001D160956B85F44011C1F3015101EBAE
:10A4600081011F2000FA01FC25EA0C0C112505FAD8
:10A4700001F141EA0C019163D16841F0E061D160E2
:10A48000956BC5F30151C1F10401C9B201EB810122
:10A4900088404FF0120C25EA00000CFA01F1084345
:10A4A0009063E4B1BAF8E41FCAF8EC4FA1B1BAF86E
:10A4B000E62FCAF8F01F62B1019B7948521A90FB4F
:10A4C000F2F2CAF8F42F6BB917B0BDEC028BBDE8FD
:10A4D000F08F744A1288EFE7734A1188E7E7734AEE
:10A4E0001488DFE74846049960F0D6FC684B0120E9
:10A4F00003F114080723F278441CE4B252B37578D0
:10A500003279A5F10A0101EB410105EB450C092D5A
:10A5100003FA01FE03FA0CFB02FA01F140F2A080FB
:10A52000D9F80C2022EA0E0E41EA0E01C9F80C10EF
:10A53000421E02EB82021F21062801FA02FC05FAE4
:10A5400002F273D8D9F8341021EA0C010A432046EC
:10A55000C9F834200536B045CDD1D9F80820039983
:10A5600042F40072C9F80820D9F8082042F4807239
:10A57000C9F80820D9F80820574442F00102C9F868
:10A58000082097F9E82F022046F0CEFB0446002869
:10A590009AD04668304646F0B5FB454A431E242112
:10A5A00001FB032393F89C50002D8DD1059983F86E
:10A5B0009D10062283F89C20002885D0304646F066
:10A5C000A1FB5BF0CDFA60680AF0B4F907A80AF0C5
:10A5D00073F9049EA26837480792012E8CBF4FF48E
:10A5E000806300230D9309F14C034FF48072CDE991
:10A5F0000A56089309904FF4003360680C9507A938
:10A600004FF400674FF40056CDE91023CDE90E76E4
:10A610000AF064F96268136843F001031360D9F823
:10A62000083043F08043C9F808304DE7C11FA0F15E
:10A630000D0201EB81014FF01F0E02EB82020C288C
:10A640000EFA01FC0EFA02F005FA01F113D8D9F85E
:10A65000302022EA0C0211432046C9F8301079E775
:10A66000D9F8101002FA0CF221EA0B0B42EA0B02A5
:10A67000C9F810205CE7D9F82C1005FA02F221EA9B
:10A6800000010A432046C9F82C2063E72CDC0608A9
:10A690000C3B002000230140E030FCFF0020014083
:10A6A000803801002E7AFF1F2C7AFF1F2A7AFF1FA5
:10A6B00098010020403B0020482B00202DE9F84F56
:10A6C0002E4F00EB800407EBC40454F8F46C2EB159
:10A6D000054614F8DF0C00F0FF0820B14FF0000829
:10A6E0004046BDE8F88F89469A46934645F036FFC6
:10A6F0004FEA49010123C9B204F8DE1C04F8DDBCAD
:10A7000004F8DB3C04F8DA8C04F8DC3C04F8DF3CA9
:10A7100004F8E08CB28844F8D8AC9105814644F83E
:10A72000D4AC1DD43388DA0510D442F20F7405E09E
:10A7300045F014FFA0EB0903A34215DC33889B0509
:10A74000F6D433889BB243F480733380B3889BB2D2
:10A7500043F440734FF00108B3804046BDE8F88FE2
:10A7600098464046BDE8F88F37F8803C01339BB2ED
:10A77000284627F8803C5FF0C7FEB1E7403C002048
:10A7800070B5464E16F87E4C04EB440306EBC3034B
:10A79000650013F87C3C032B6ED8DFE803F05929E1
:10A7A0001E02254406EBC50555F8780C002870D12B
:10A7B00016F81C3C9C425FD0013404F00302934223
:10A7C00006F87E2C58D002EB420406EBC4040223A8
:10A7D00044F8780C04F87C3C70BD2B1906EBC303DD
:10A7E00053F8782C72B1013A43F8782C002070BDF0
:10A7F0002B1906EBC30353F8782C002AF3D102225D
:10A8000003F87C2C254406EBC50515F8703C013B8C
:10A81000DBB205F8703C8BBB214B16F81C6CD3F8EF
:10A82000C01255F8740C621C02F003024B1E032484
:10A83000B242034405F87C4CB3FBF1F045F8780CC8
:10A840001AD0994218D8013845F8780C012070BD0B
:10A8500047F0C6FF80B1124B2C44D3F8C02206EB60
:10A86000C404012102F51C5304F87C1C0F33B3FB14
:10A87000F2F344F8783C70BD012070BD084BD3F86A
:10A88000C022012002F2E733B3FBF2F345F8783C33
:10A8900070BD013845F8780C002070BD403C0020A8
:10A8A000980100202DE9F84F3249DFF8D4B091F833
:10A8B000AD1E01240229074619461046CBF8204157
:10A8C0004FF000022C4C1D4618BF7F02FDF7CAFB5B
:10A8D0002A4B63626B02A362E36A40F2FF5943F0C2
:10A8E00093034FF400704FF48A62E3620121C4F8CD
:10A8F0003890A0601020E2605AF09EF8012D40F2DE
:10A9000051434E46C4F83890CA4640F252488EBF72
:10A910004FF0120998464FF011090A25C4F838A0E3
:10A920000121A7604846C4F80C805AF085F8034618
:10A930004FF0000C40F2774201213720A6632BB97B
:10A9400000231846CBF81C31BDE8F88FA663C4F885
:10A9500008C0E2605AF070F8013DA6630028EFD00D
:10A9600015F0FF05DAD10346CBF82051CBF81C31A6
:10A97000BDE8F88F482B0020002C014000E1F505D0
:10A98000501A00202DE9F843DFF8748098F824501D
:10A99000042D0446894617461E4608D0082D02D0CD
:10A9A0000020BDE8F883FEF7F7FA0228F8D101236A
:10A9B0004A4620460021FFF775FF68B1FEF73AFCD2
:10A9C000D8F80C40002CEBD00022D8F81030D8F882
:10A9D00004101046A047E3E7084BC8F80090D3F8EE
:10A9E0008420C8F804400523C8E90376C8F8142079
:10A9F00088F824300120BDE8F88300BF482B0020F0
:10AA0000501A00202DE9F84F3149DFF8CC9091F829
:10AA1000AD1E1E4602292F4B07464FF0010418BFFA
:10AA20004702012E40F25948C3F8244198BF4FF421
:10AA30008B683B469346474640F2FF55B0468CBF75
:10AA40004FF0190A4FF0180A0A241E4640F2FF532D
:10AA5000C9F838300121C9F808605046C9F80C70AF
:10AA600059F0EAFF03464FF0000C40F27742012113
:10AA70003720C9F83850ABB9584641460122FDF796
:10AA8000F1FA4646144A154B536276029662D36A2F
:10AA900043F09103D3620F4B00210846C3F81C1109
:10AAA000BDE8F88FC9F83850C9F808C0C9F80C20BB
:10AAB00059F0C2FF013CC9F838500028DCD014F02E
:10AAC000FF04C3D1034BC3F82441BDE8F88F00BF96
:10AAD000482B0020501A0020002C014000E1F50511
:10AAE0002DE9F047364C82B005460E46174698468B
:10AAF00094F8240004280CD0082806D1E369AB425E
:10AB000007D0FEF749FA0228F2D0012002B0BDE8D2
:10AB1000F087DFF8B4A02660DAF8A09E6560C9F37C
:10AB20004F210F294FEA592222D8236A0193FBB102
:10AB300094F8F200E0B1B9F5005F13D02148314636
:10AB40004FF40072484462F061FF09F50072C2F3ED
:10AB50004F211029CAF8A02E4FEA522202D0019BA1
:10AB6000012B20D192B2013A164EAD1A0B4600E0ED
:10AB7000012332462846062601250021E760C4F855
:10AB80001080257284F82460FFF73CFF0028BDD0B8
:10AB9000FEF750FBE66886B128462369616800220B
:10ABA000B0470320B2E7E269013B01320421C4E966
:10ABB000072384F824100220A8E70320A6E700BF9B
:10ABC000501A002048770020482B0020F0B53B4C5D
:10ABD00054F8185C2B78022B95B018D0012B02D0BA
:10ABE000002015B0F0BD95F904506B1CF8D0022D73
:10ABF000F6DC0091134614F8141C024628465FF058
:10AC000025FE0028ECD028465FF0D0FEE9E72B6A4D
:10AC1000002BE5D10DF10F0C8DF80F00002601205F
:10AC20000027CDE90833CDE90A12CDE90E67059377
:10AC30008DF81C300D9310931293CDF810C0069030
:10AC40008DF830008DF84400EFF31180102383F36A
:10AC5000128854F8183C1B6A13B3069B04AE3246A4
:10AC60001BB1D3691432002BFBD12B6A13B3996843
:10AC700039B993420AD0196829B15B6899680029EB
:10AC8000F7D01433F3E70E4AC3E90026C0B280F3CD
:10AC9000118854F8182C136A002BFCD10120A0E76E
:10ACA00004ABC0B22B6280F31188A4F118005CF0F1
:10ACB00035FBEEE7024A1A60FFDE00BF403C002091
:10ACC000283C002003681A78012A01D00020704730
:10ACD00093F90430044A03EB830302EBC30313F834
:10ACE000DF0CC0B2704700BF403C002070B5036865
:10ACF0001D78022D13D0012D01D0002070BD044617
:10AD000093F904000A4B421C83F8B450F5D0022892
:10AD1000F3DC0A46B4332179BDE87040CEE41B6A07
:10AD2000002BEAD1012247F0F1FA012070BD00BFEB
:10AD3000403C002010B50C4C54F8183C1B78022BFA
:10AD400010D154F8100C46F01BFC54F8100C08B14C
:10AD50002123C380012144F0DFFE044847F056F967
:10AD600024F8140C10BD00BF403C002080969800D1
:10AD700030B583B00D46012301460DF107020446AC
:10AD8000074847F033FC9DF8072035EA020304D05A
:10AD900003482A43214647F0BFFC03B030BD00BF43
:10ADA000283C002038B505460A460C460648294688
:10ADB00047F0ACFA45F08001034847F051F9231AF7
:10ADC0005842584138BD00BF283C002013B53A4CCA
:10ADD0000023D4F8C4208DF80730137803F0FD0168
:10ADE000012905D194F8C81011B90C2184F8C810B4
:10ADF000022B1ED0032B2ED001220B212F4857F0FF
:10AE00000FFE042045F0D6FB2C4801230DF107026C
:10AE1000002157F027FE002839D09DF80730482B35
:10AE200035D1274BC4F8B830264BC4F8BC3002B03B
:10AE300010BDD4F8CC0046F0A3FBD4F8CC0008B188
:10AE40003523C380012144F067FE1F4847F0DEF838
:10AE5000A4F8C800D0E7D4F87435506846F2A811B9
:10AE60001961002380F888301222372157F0ACFD99
:10AE7000D4F8C4300D225868242157F0A5FDD4F829
:10AE8000C430302258686A2157F09EFDB4E7D4F8E8
:10AE9000C4301A78022A03D0032A07D00020C6E75C
:10AEA000D4F8CC0046F0E6FE0020C0E75868102237
:10AEB000372157F089FDF1E7403C0020043D002098
:10AEC000C32A0608452B0608809698002DE9F04F06
:10AED000B54CB64E95B0002305464FF4F0728B4644
:10AEE00004F6F800202184F8F43884F8F538019548
:10AEF00062F0EDFD202104F6D8204FF4F07262F0EC
:10AF0000E6FDDFF8C0C2AA4932274FF0100E4FF419
:10AF10007A704FF00108DCF80430C3F30803002B0B
:10AF200040F0BC80EFF31183002B40F0B780D6F8DF
:10AF300084208D68D6F884309A42F8D1D6F8403F04
:10AF40009D42F4D8D6F83C9F00FB09F35B1BB3FB92
:10AF5000F9F300FB0232DCF80430C3F30803002BE2
:10AF60007BD1EFF31183002B77D1D6F88430D1F861
:10AF700008A0D6F88450AB42F7D1D6F8405FAA4576
:10AF8000F3D8D6F83C9F00FB09F5A5EB0A05B5FB05
:10AF9000F9F500FB03539B1AB3F57A7FDBD3013F2E
:10AFA000B9D194F8B92C002A52D094F8BA3C013B9C
:10AFB000022B4DD803EB830004EBC0017D4D91F8CB
:10AFC000547D05EBC0004FF0010C022FC4F8BC0CFF
:10AFD00084F844CD00F0C182DBB204EB0313D3F854
:10AFE000CC3DC1F8583D9BB302234FF4807081F8EB
:10AFF000543DA5F188034C3DA1F8600DC1F86C3DAE
:10B00000C1F8705D1509013D042D02F00F0200F238
:10B010008782694F07EB4503B3F8840040FA02F3D7
:10B02000DB0740F17D82012303FA02F2013A10406E
:10B030003D4460F053FA95F89020604B104403EBC8
:10B04000C000C4F8C40C8379002B47D0412B45D0F5
:10B050006FF0010015B0BDE8F08FEFF311898EF3AA
:10B060001288D1F808A00B68DD0344BFC6F8388FFA
:10B07000D1F808A0D6F88430D6F8385F5FFA89F99D
:10B0800089F31188D6F83C9F2B4400FB09F5A5EB0A
:10B090000A05B5FBF9F500FB03537CE7EFF31185D7
:10B0A0008EF31288D1F808900B68DB0344BFC6F812
:10B0B000388FD1F80890D6F88430D6F8382FEDB212
:10B0C00085F31188D6F83C5F1A4400FB05F3A3EB27
:10B0D0000903B3FBF5F300FB02323CE72323C380F3
:10B0E000092144F019FDD4F8C43C13B11A689B88B7
:10B0F0001383D6F83025324BB3EB920F80F03382B6
:10B10000B3EBD20F80F03182B3EB121F80F03182AB
:10B11000B3EB521F80F03182B3EB921F80F031828B
:10B12000B3EBD21F80F03182B3EB122F80F02F826D
:10B130004FF4807000230122FF210DF10F088DF8DC
:10B140000F10CDE90483CDE90833CDE90A33D4F8F3
:10B15000BC1CA4F8C00C0D9306928DF81C208DF831
:10B160003020EFF31180102383F31288D4F8BC3C15
:10B170001B6A002B00F0D881069B04AD2A461BB148
:10B18000D3691432002BFBD10B6A002B00F015821F
:10B19000996839B99A421AD01968A9B15B68996857
:10B1A0000029F7D01433F3E7403C0020482B00205F
:10B1B00010E000E09449002070DB0608F82D002024
:10B1C000404B4C0000ED00E0B74AC3E90025C0B297
:10B1D00080F31188D4F8BC1C0B6A002BFCD18C22A4
:10B1E0000120CDE908330DF10E0A05938DF81C30CE
:10B1F0000D93109312938DF80E2000230022CDE9B9
:10B200000E23CDF82880CDF810A006900B908DF875
:10B2100030008DF84400EFF31180102383F312887F
:10B22000D4F8BC3C1B6A002B00F08781069B2A46A1
:10B230001BB1D3691432002BFBD10B6A002B00F039
:10B24000BC81996839B993420AD0196829B15B6801
:10B2500099680029F7D01433F3E7934AC3E900252E
:10B26000C0B280F31188D4F8BC2C136A002BFCD137
:10B270009DF80F301B2B40F09081D4F8C43C012284
:10B2800084F8F4280BB12322DA80DFF81C924022E4
:10B2900048460A2147F03AF88A21002301228DF816
:10B2A0000E1000200021CDE90E01CDE90833D4F8BD
:10B2B000BC1CCDF810A0CDF8288005938DF81C306B
:10B2C0000D931093129306920B928DF830208DF807
:10B2D0004420EFF31180102383F31288D4F8BC3C90
:10B2E0001B6A002B00F03181069B2A461BB1D369F3
:10B2F0001432002BFBD10B6A002B00F05B819968A4
:10B3000039B9934209D0196829B15B689968002955
:10B31000F7D01433F3E7C3E90095C0B280F3118886
:10B32000D4F8BC2C136A002BFCD19DF80F2094F8A4
:10B33000B81CC2F3801284F8FC2D002900F0D480E0
:10B34000022900F0B980D6F830355849B1EB930F97
:10B3500080F01F81B1EBD30F80F00981B1EB131F97
:10B3600080F00981B1EB531F80F00981B1EB931F8D
:10B3700080F00981B1EBD31F80F00D81B1EB132F69
:10B3800034BF4FF48076802694F8001EA4F8FE6D3A
:10B39000182914D1464F474800215B08B3FBF6F348
:10B3A000A7FB03730F465B0B66F30F076BF30F01ED
:10B3B00063F31F4762F31F41C4F8081E47603A4811
:10B3C000A4F8C06C0222002146F0A0FFC82044F07F
:10B3D000D3FFD4F8BC0C4FF0800B002600270023CD
:10B3E0000122CDE90E67CDE908338DF80EB0CDF816
:10B3F00010A0CDF8288005938DF81C300D93109384
:10B40000129306920B928DF830208DF84420EFF3C2
:10B410001182102383F31288D4F8BC3C1B6A002BE2
:10B4200038D0069B002B3DD02B46D9691433002918
:10B43000FBD1006A002800F0BA80816839B98342E4
:10B4400009D0016829B1406881680029F7D014301B
:10B45000F3E7C0E90095D2B282F31188D4F8BC0CAE
:10B46000036A002BFCD19DF80F3013F00203B6D114
:10B47000019841788278007884F8100EC1F120019B
:10B48000C2F11002184684F8111E84F8122E15B06D
:10B49000BDE8F08F0562D2B282F3118802485BF0FA
:10B4A0003DFFDBE72B46C4E7FC4800208096980070
:10B4B0005917B7D1484A0020D6F830354048B0EB8C
:10B4C000930F72D2B0EBD30F51D2B0EB131F52D205
:10B4D000B0EB531F53D2B0EB931F54D2B0EBD31F3A
:10B4E00034BF802640264FE7D6F830353549B1EBDA
:10B4F000930F4ED2B1EBD30F39D2B1EB131F3AD227
:10B50000B1EB531F3BD2B1EB931F3CD2B1EBD31F36
:10B5100041D2B1EB132F34BF4FF48076802633E74E
:10B520000020C4F8C40CDBE504ADC0B20D6280F3AA
:10B53000118825485BF0F2FE4CE60D62C0B280F344
:10B54000118821485BF0EAFE8DE60D62C0B280F3FF
:10B55000118848465BF0E2FEE2E691F8613D634403
:10B5600081F8613D4EE50220E4E50420E2E5042691
:10B570000AE70820DEE5082606E71020DAE51026AF
:10B5800002E72020D6E52026FEE64020D2E58020F6
:10B59000D0E50226F8E64026F6E6D4F8C40C2021D1
:10B5A00044F0BAFA4FF0FF3054E50E46ECE6C0F82E
:10B5B0000090FFDEC3F80090FFDE034A1A60FFDE52
:10B5C000002D3101404B4C00FC4800200146014851
:10B5D00046F046BD544A0020014488420ED010B4C3
:10B5E0000346074C074813F8012B04FB00F099426F
:10B5F00080EA0200F7D15DF8044B704701487047BC
:10B6000093010001C59D1C81094B93F86231042B05
:10B6100008D9053B032B08D801231A4600B1037053
:10B620001046704700230122F8E700231A46F5E789
:10B63000482B0020F0B40D6800240CE0BCF1050F8D
:10B6400018D8A0F137030A2B14D104EB840415F8A1
:10B65000010B03EB4404A0F13003DEB2092EA0F18C
:10B660006107A0F1410CF0D9052FE7D8A0F15703ED
:10B670000A2BEAD00D601460F0BC70479FED727A1F
:10B6800007EE901A20EE070AF8EE677A27EE800A96
:10B69000FDEEC07A17EE903A2033402B00F2C480C2
:10B6A000DFED6A7AB4EEE70AF1EE10FAF0EE407AD6
:10B6B0000CDD9FED676ADFED676AB0EE677AB4EE86
:10B6C000E67AF1EE10FA77EEC67AF6DC9FED627A52
:10B6D000F4EEC77AF1EE10FA0CD59FED5D6ADFED5E
:10B6E0005F6AB0EE677AB4EEE67AF1EE10FA77EEC2
