:020000040800F2
:10000000F0FF012021D3050835E50008617A0408D6
:1000100099D3050899D3050899D305080000000075
:1000200000000000000000000000000031E50008B2
:100030002DE500080000000029E50008CD3D04087A
:1000400099D3050899D3050899D3050899D30508CC
:1000500099D3050899D3050851900408199004080C
:10006000E18F0408A98F0408718F0408BDBE05083C
:10007000ADBE05089DBE05088DBE050879BE050804
:1000800065BE050851BE050899D3050800000000AB
:10009000000000000000000000000000398F04088C
:1000A000312404088124040821240408A924040814
:1000B00071240408612404085124040899CB05081C
:1000C000A1CB05088DCB050895CB050899D305086C
:1000D00099D30508ED3E0408313E040800000000F5
:1000E000018F040899D30508ED0B010800000000FA
:1000F0000000000000000000000000003DBE0508F8
:100100000000000099D305084124040899D305088C
:1001100000000000000000000000000000000000DF
:1001200029BE050815BE050801BE0508EDBD050878
:10013000D9BD05080000000000000000000000001C
:10014000000000000000000000000000A9FB000803
:10015000C5BD0508B1BD05089DBD050899D30508B5
:1001600081CB050889CB05080000000000000000D5
:10017000000000000000000000000000000000007F
:100180000000000099D305080000000000000000F6
:0801900099D3050899D3050875
:08019800C0CE050001000000CB
:1001A0000B3001001A0000005836002000710020BA
:1001B0000000000078F80608FC7000201F500100C5
:1001C00024000000183600202071002000000000EC
:1001D00094F806081C7100200502010004000000CC
:1001E000607000204871002000000000B8F8060888
:1001F000447100201302010004000000FC2A0020CA
:100200005071002000000000BCF806084C7100206E
:10021000031101000A000000483500205871002039
:1002200000000000698E0008547100200D100100CC
:1002300034000000A062002068710020000000006F
:100240002FB50308647100200902010001000000BD
:10025000C06F0020A071002000000000C0F8060858
:100260009C710020F9010100040000006062002080
:10027000A871002000000000BD0F0408A471002038
:10028000FB01010001000000745D0020B07100203E
:10029000000000008D2A0508AC710020FC0101005F
:1002A00009000000405C0020B87100200000000040
:1002B0009D2A0508B4710020F70101000600000026
:1002C000345C0020C871002000000000C2F806085D
:1002D000C4710020160215003F0000004C330020BE
:1002E000D4710020000000001D2A0508D0710020F4
:1002F0003400010010000000645B00201872002030
:1003000000000000154202081472002011020100D2
:10031000080000003C5B00202C7200200000000060
:10032000C8F806082872002012120100040000001C
:10033000345B00203872002000000000D0F806086E
:10034000347200201830010038000000FC5A0020F0
:1003500040720020000000003D2B05083C72002088
:10036000000201000B000000805700207C7200207A
:10037000000000008124050878720020FD010100C2
:1003800021000000685100208C7200200000000055
:10039000170F0408887200202A02010008000000DC
:1003A00074430020B472002000000000D4F8060856
:1003B000B072002020520100080000001C43002001
:1003C000C07200200000000009320208BC72002048
:1003D000061001002400000014320020CC7200201E
:1003E00000000000B92A0508C87200200C020100B4
:1003F00004000000D43B0020F47200200000000044
:1004000059240508F0720020FE01010014000000CC
:100410002C670020FC72002000000000E124050889
:10042000F87200201B2001000C000000D48C00207A
:10043000D09F002000000000C1940108CC9F002044
:1004400021020100F0000000048B0020E09F00204A
:1004500000000000AD330108DC9F002037100100D0
:1004600030000000E89C0020D4A000200000000024
:10047000DCF80608D0A000200E02010002000000F7
:100480005491002008A10020000000000CF906088B
:1004900004A1002016100100060000004C9100206D
:1004A00010A10020000000000EF906080CA1002099
:1004B0002F10010022000000A89F00201CA1002096
:1004C0000000000014F9060818A1002023220100F2
:1004D00010000000A490002044A1002000000000B3
:1004E00038F9060840A100201E00010009000000A4
:1004F0008C90002058A100200000000048F9060858
:1005000054A10020052001000C000000EC90002008
:1005100068A100200000000054F9060864A1002032
:10052000FD0701007C000000C889002078A10020A0
:10053000000000000913010874A10020F5910100DA
:100540006C000000888A0020F8A100200000000054
:100550008D320108F4A100202320010010000000CA
:100560004A9C002068A20020000000005D100208E4
:1005700064A20020123001001A0000006C900020DC
:100580007CA200200000000060F9060878A200208C
:100590001400010005000000A4C60020CCC6002005
:1005A000000000007CF90608C8C6002001200100F8
:1005B0000C00000034BA0020D8C600200000000063
:1005C00082F90608D4C600200C400600E4000000B2
:1005D00058B80020E8C60020000000002D5D030888
:1005E000E4C600200A9001002400000014B8002096
:1005F000D0C700200000000015100208CCC7002062
:100600000E300300BC01000050B60020F8C70020E7
:100610000000000021320208F4C70020131001007E
:10062000040000004CC40020B8C9002000000000F5
:1006300090F90608B4C9002001010100040000007F
:1006400088B50020C0C900200000000000000000A4
:10065000BCC90020000101000400000080B500209A
:10066000C8C900200000000094F90608C4C9002091
:1006700002010100030000007CB50020D0C9002069
:10068000000000006D5D0308CCC9002022020100BB
:100690001C01000034C20020D8C900200000000066
:1006A000D5290508D4C90020010201000B00000073
:1006B00094B50020F8CA002000000000712405084D
:1006C000F4CA00200202010003000000D8BA002092
:1006D00008CB0020000000000000000004CB002038
:1006E0001B0201001000000088BA002010CB00207F
:1006F00000000000352405080CCB00201500100078
:100700007000000058D700205CD9002000000000D5
:100710000000000058D900202A00080060000000F6
:1007200068D60020D0D9002000000000E131020886
:10073000CCD900202C0004001000000044DA002076
:1007400034DA002000000000A92F020830DA00206F
:1007500029201400780000005CD3002058DA002023
:10076000000000000000000054DA00201A00010020
:100770000E000000B4D20020D4DA002000000000F7
:1007800098F90608D0DA00202B001200240000009F
:1007900090D20020E8DA0020000000007D2F02083F
:1007A000E4DA002019020100100000007CD20020D1
:1007B00010DB002000000000152405080CDB0020E1
:1007C000F62101000C00000060D1002024DB002095
:1007D00000000000A8F9060820DB00201C0202002F
:1007E0001C00000078D1002078DB00200000000011
:1007F000012E050874DB0020F8310100060000001E
:10080000DCDD00200CE1002000000000B4F9060847
:1008100008E100200300010001000000ECDD0020E1
:1008200018E10020000000000000000014E100209A
:100830001010010002000000D8E0002020E100209C
:1008400000000000BAF906081CE1002019000100B0
:100850000500000038DD002028E100200000000035
:10086000BCF9060824E10020290201004000000034
:1008700068E3002024E8002000000000C2F9060818
:1008800020E800202C020100040000001CE50020EC
:1008900068E800200000000002FA060864E8002072
:1008A0000A02010014000000C8E3002090E80020C4
:1008B00000000000D56603088CE8002025201E00FB
:1008C0002C0100003CE50020A8E80020000000000A
:1008D00000000000A4E80020031201003D00000019
:1008E000D4E70020D8E900200000000006FA06083E
:1008F000D4E90020020001000C00000050EA0020B2
:10090000E8EA00200000000000000000E4EA002007
:10091000040008008000000004F3002084F300209D
:10092000000000000000000008F50020081203008D
:100930000F000000F4F2002010F50020000000007D
:10094000892405080CF5002028020400040000009A
:1009500060F2002024F50020000000005524050866
:1009600020F5002027020400040000005CF20020B3
:100970002CF50020000000004924050828F500207F
:100980001F0208001000000098EF002034F500203E
:1009900000000000F523050830F500201A020100D0
:1009A0003C0000003CEB002048F500200000000067
:1009B0008D2E050844F500203820010003000000BA
:1009C00000EB002088F500200000000044FA060833
:1009D00084F500202700010004000000B4F5002089
:1009E00018F600200000000048FA060814F600205F
:1009F0002B0201000C00000024F7002044FD002021
:100A0000000000004CFA060840FD00201D02020014
:100A10000600000018FD002054FD0020000000002A
:100A20000000000050FD002006120300120000002C
:100A300020FD00206008012000000000992B05081F
:100A40005C0801201002010001000000981901203B
:100A5000941901200000000058FA0608901901209E
:100A60000403090412010002EF020140830456321C
:100A70000002010203010000120100020202004014
:100A800083044057000201020301000009026400D0
:100A9000030100C032090400000103000000092125
:100AA000110100012236000705830309000A080B23
:100AB0000102020201000904010001020201000515
:100AC000240010010524010002042402020524066A
:100AD0000102070582030800FF09040200020A0060
:100AE00000000705010240000007058102400000E8
:100AF00009024300020100C03209040000010202A1
:100B00000100052400100105240100010424020253
:100B10000524060001070582030800FF09040100FF
:100B2000020A0000000705010240000007058102DB
:100B300040000000FF000000140000FF0000000063
:100B400000000000AA550701000001AA5505010098
:100B5000002D202D2D202D2D2D2D202D2D2D2D0046
:100B60000000000000000000000000000000000085
:100B70000800000060F70508FF1FFF1F7D00000050
:100B800001840008FD830008F9830008ED83000854
:100B9000E9830008F5830008F183000875840008E4
:100BA0006984000841840008558400082D840008E9
:100BB0001984000805840008010000000000803F3F
:100BC00005010905A101A10005010930093109321A
:100BD000093309350934093609371581257F750828
:100BE00095088102050919012908150025019508B4
:100BF00075018102C0C0000009022200010100E06D
:100C00003209040000010301020009211101000161
:100C10002236000705830309000A00000060024035
:100C20001060024000000000000000000000000012
:100C3000000B0000000000000000000000000000A9
:100C40000060024028600240010000000000000037
:100C500000000000060C0000000000000000000082
:100C600000000000006002404060024002000000FE
:100C70000000000000000000100D00000000000057
:100C800000000000000000000060024058600240C8
:100C9000030000000000000000000000160E00002D
:100CA00000000000000000000000000000600240A2
:100CB000706002400400000000000000000000001E
:100CC000200F0000000000000000000000000000F5
:100CD0000060024088600240050000000000000043
:100CE00000000000261000000000000000000000CE
:100CF0000000000000600240A0600240060000000A
:100D000000000000000000003011000000000000A2
:100D1000000000000000000000600240B8600240D7
:100D2000070000000000000000000000362F000057
:100D3000000000000000000000000000006402400D
:100D400010640240000000000000000000000000ED
:100D5000003800000000000000000000000000005B
:100D6000006402402864024001000000000000000E
:100D70000000000006390000000000000000000034
:100D800000000000006402404064024002000000D5
:100D90000000000000000000103A00000000000009
:100DA000000000000000000000640240586402409F
:100DB000030000000000000000000000163B0000DF
:100DC000000000000000000000000000006402407D
:100DD00070640240040000000000000000000000F9
:100DE000203C0000000000000000000000000000A7
:100DF000006402408864024005000000000000001A
:100E00000000000026440000000000000000000078
:100E10000000000000640240A064024006000000E0
:100E2000000000000000000030450000000000004D
:100E3000000000000000000000640240B8640240AE
:100E4000070000000000000000000000364600001F
:100E50000000000000000000000000000000000092
:100E6000010203040102030406070809E1E6000881
:100E700099ED000811E9000819850008F98A0008B1
:100E80002985000845850008F1840008E1840008F0
:100E90000000000000000000AA550B010000AA5548
:100EA00005010000AA550902000000AA5503009F91
:100EB00001000000C012000001000000000001005D
:100EC000FFFFFFFF7EFF0000FFFFFFFFFF000000AE
:100ED000FFFFFFFFC0A200200000000098A200203A
:100EE000000000000101FF01E00101001D8A01086E
:100EF000000000000000000080FE050808FF000060
:100F0000000000000000000000000000741506084A
:100F10000000000000000000000000002C16060881
:100F2000000000000000000000000000D8150608C6
:100F3000000000000000000049A5010872BD00206B
:100F40000101000001DF01080000000000000000B6
:100F5000F416060865E20108000000000000000029
:100F6000AC1606082D202D2D202D2D2D2D202D2DBC
:100F70002D00000000000000000000000000000044
:100F800000000000FFFFFFFF61B00108000000004B
:100F9000000000000415060801000000FA0000002F
:100FA00001000000010000009EB900200000F401D3
:100FB000010000009CB900200000F40101000000C5
:100FC0009AB900200000F4010100000098B9002047
:100FD0000000F4010100000096B900200000F401B7
:100FE0000100000094B900200000F401010000009D
:100FF00092B900200000F40101000000D99201081C
:101000009D92010800000000ECFF050882B9002055
:101010000532010090B900206400F40101000000D5
:101020008EB900206400C4090100000080B90020CE
:10103000E803D007010000007EB90020E803D007D4
:10104000010000007CB90020E803D0070100000087
:101050007AB900201E00B80B0100000088B90020FA
:1010600005000F00010000008AB9002003000A00FB
:101070000100000078B900201E00F401010000000A
:101080008CB90020020000007800060876B9002024
:10109000140064000100000084B900203200E8035D
:1010A0000100000074B900200000C8000100000029
:1010B00055B8002000C8010054B8002000500100BD
:1010C00053B80020005A010051B80020020000006F
:1010D000E0FF0508A8760608B076060870BD002077
:1010E0000100C409000000006EBD00200100C40919
:1010F000000000006CBD00200100C40900000000D9
:101100006ABD00200100C4090000000066BD002087
:101110000100C4090000000068BD00200100C409EE
:101120000000000064BD00200100C40900000000B0
:1011300062BD00200100C40900000000B5B5002018
:1011400000C80100B4B5002000C80100B2B50020FD
:101150000000FFFF0A000000B0B500200100C80039
:1011600001000000AEB500203200307532000000F2
:10117000ACB500207EFF140005000000AAB50020D9
:1011800005002C0105000000A8B50020055A050047
:10119000A5B5002000FF0100A7B500200200000057
:1011A0000C080020A3B500200300000094F80508F7
:1011B000A4B5002000FF0100A6B500200200000039
:1011C0000C080020A2B500200300000094F80508D8
:1011D000F4B40020FF7F0100F0B400200000000004
:1011E000FFFFFFFF01000000ECB400200000000042
:1011F000FFFFFFFF01000000E8B400200000000036
:10120000FFFFFFFF010000002D920108BD910108C2
:1012100000000000C800060844BA0020EE02CA0818
:101220000100000042BA002000C801006400000074
:1012300041BA002002C801006400000040BA00204A
:1012400002000000840006088EB500200000803EE9
:10125000050000008CB5002080C1803E0500000024
:1012600086B500200083007D0500000084B50020C5
:1012700080C1803E050000007FB5002000FF010016
:1012800078B500206400F4010100000076B500206C
:101290006400F4010100000074B500206400F40152
:1012A0000100000072B5002004000000D40106080F
:1012B00071B5002002000000E801060841B60020D8
:1012C0000D000000F40106083EB600200064010095
:1012D0003CB60020320010270A0000003AB6002079
:1012E0000D000000F401060839B600200D000000D2
:1012F000F401060838B6002002000000900006083D
:1013000049BA0020460000002C02060847BA002017
:10131000030000004803060848BA0020040000004B
:101320009C00060843B6002003000000580306088E
:1013300042B60020030000005803060842B800200F
:10134000000A010040B800200000E803010000008E
:101350003EB800200000E803010000003CB8002077
:10136000000A01003AB800200000E8030100000074
:1013700038B800200000E803010000000CB800208D
:10138000C800E8030100000012B800203C00FA0089
:101390000100000010B800200100E8030100000077
:1013A0000EB800200005010050B800200200000027
:1013B000B00006084EB800200000F4010100000053
:1013C0004CB800200000F401010000004AB80020E1
:1013D0000000F4010100000048B800200000F40102
:1013E0000100000046B800200000E80301000000F2
:1013F00044B800200000E8030100000062B90020AA
:10140000006401000A00000061B9002000640100CE
:101410000A0000004FB90020196401004EB90020F5
:1014200002000000BC0006084CB90020E803D00709
:101430000A0000004AB90020006401000A00000010
:101440003FB90020006401003EB9002000640100A3
:1014500046B90020006401000A00000045B90020E0
:10146000006401000A00000044B90020006401008B
:101470000A00000049B9002000FF01000A00000036
:1014800048B9002000FF01000A00000047B9002011
:1014900000FF01000A00000043B9002001FF010025
:1014A0000A00000042B9002001FF01000A0000000C
:1014B00041B9002001FF01000A0000004CB60020E5
:1014C0000000F401010000004AB600200000E8031B
:1014D0000100000048B600200000E8030100000001
:1014E00046B600200000E8030100000044B60020DA
:1014F0000000E80301000000C3BD002000960100C9
:10150000BABD002000C80100B9BD00200064010080
:10151000B8BD002000640100B7BD002000640100D8
:10152000B6BD002000640100B5BD0020FF08010029
:10153000B4BD002001640100AD9001087190010864
:101540000000000068030608BDBD00200132010054
:10155000BCBD002001000000D8030608BBBD002070
:1015600004000000E0030608B3BD0020009601005F
:10157000B2BD002000640100B0BD00201400E803EB
:1015800001000000AEBD0020000030750A00000020
:10159000ACBD002000C80100ABBD002000C80100A8
:1015A000AABD002000C80100C0BD0020003201001B
:1015B000C2BD002000140100C1BD0020004B01008D
:1015C000BFBD002004000000F4030608BEBD0020DB
:1015D000006401000A0000006EB900200AC805007E
:1015E0000A0000006DB90020010000000404060894
:1015F00070B900200AC805000A0000006FB9002079
:10160000010000000404060865B9002000C80500B8
:101610000A0000006CB9002000C805000A000000A4
:1016200066B9002000C805000A00000067B9002064
:1016300000C805000A0000006AB9002000C80500C3
:101640000A0000006BB9002000C805000A00000075
:1016500069B9002000C805000A00000068B9002030
:1016600000C805000A00000064B900200200000064
:101670000C040608D2BD00200000D00701000000C5
:10168000CCBD002000C80100CBBD002000C8010077
:10169000CABD002000C80100D0BD00200000D00756
:1016A00001000000C9BD002000C80100C8BD002025
:1016B00000C80100C7BD002000C80100CEBD002049
:1016C0000000D00701000000C6BD002000C80100D6
:1016D000C5BD002000C80100C4BD002000C8010035
:1016E000C0870608000000000000ABC60020CC87C1
:1016F0000608070800000000100E0020D487060826
:10170000070800000000080E0020DC870608070814
:1017100000000000000E0020E48706080808000012
:101720000000F40D00200872060807080000000001
:10173000EC0D002010720608070800000000E40D00
:10174000002018720608070800000000DC0D0020C9
:10175000C4720608080800000000D00D0020EC87C5
:101760000608071000000000C80D0020F4870608D6
:10177000071000000000C00D0020FC8706080710BD
:1017800000000000B80D00200488060808100000C2
:101790000000AC0D002010760608010000000000DB
:1017A0000000000000000000100000000000000029
:1017B00000000000418E0108258E01083DB001089F
:1017C0001804060835B60020005A010034B600207F
:1017D00000C8010032B60020E803D0070100000075
:1017E000000000000000000089A50108B4040608FC
:1017F000A1B5002003000000FC040608A0B50020ED
:10180000000301009FB5002000030100618D010865
:10181000158D0108000000000C050608D58C010894
:101820008D8C010800000000A8050608AD8D010898
:1018300021B00108000000002806060890B500202D
:1018400001030100E1890108B989010800000000D5
:101850009C090608999301086D9301080000000097
:101860001C0A0608FD8B0108A58B0108000000007A
:101870008C0A0608518E010869EA01080000000080
:10188000440B060835A60108C593010800000000B6
:10189000EC0B0608A18E010800000000000000000B
:1018A000780C0608858F0108258F010800000000CC
:1018B000DC0C06082D900108E98F010800000000EB
:1018C000940D06087D0E0208E99001080000000052
:1018D000200E060872B9002001060100E98E0108F9
:1018E000B58E010800000000380F0608990D0208A7
:1018F000E9B1010800000000A80F060819910108CD
:1019000009B301080000000024110608C10E0208F6
:10191000C9B2010800000000180E002071B90020B3
:1019200001030100F58D0108C58D010800000000CC
:1019300030120608C1AF01080000000000000000DE
:1019400094120608558C010809B001080000000037
:101950003013060800000000000000000000000036
:10196000CC1306089591010855B401080000000049
:101970004C140608000000000000000000000000F9
:1019800074160608DC3500209CFF2C0100000000C6
:10199000E4C30020E0150C1700000000E6C300209F
:1019A00002000000AC1906086CB5002088136F1700
:1019B000010000006EB5002088136F1700000000C2
:1019C0007C35002000000000000000007A35002077
:1019D000000000000000000078350020000000003A
:1019E000000000007635002000000000000000002C
:1019F0007435002000000000000000007235002057
:101A00000000000000000000EC05002000000000C5
:101A100000000000F5B40020030000009017060845
:101A200064B5002088136F17010000005670002075
:101A300088136F1700000000E58A0108000000000D
:101A400000000000A01706082DBD002001000000C6
:101A5000F41706085870002001000000001806085E
:101A60004E70002002000000081806080000000068
:101A7000000000000000000014180608CD8A0108CC
:101A80000000000000000000B01806080000000080
:101A9000000000000000000004190608000000001B
:101AA00000000000000000007419060870B5002056
:101AB00002000000AC19060852700020E0150C1757
:101AC000000000009CCC0020F0CC002001F11F3F62
:101AD000D60101010001010100FF0000DD2D020817
:101AE00010730020FFFFFFFF0000803F0000000098
:101AF00000000000000000000000000000000000E6
:101B000000000000000000000000000000000000D5
:101B10000000803F00000000000000000000000006
:101B20000000803F000000000000000000000000F6
:101B30000000803F000000000000000000000000E6
:101B4000010000000000FA430000FA430000803F5B
:101B5000B1D50308000000000000000000000000F4
:101B600060FECD00000000007CE8002008000000BE
:101B7000000000006CE8002008000000FFFFFFFFED
:101B8000FF000000C58A0008A5890008F1E80008E8
:101B900000000000DD840008ADE600081D89000893
:101BA00021E6000800000000000000009D840008FD
:101BB000358A00086589000841E800080000000037
:101BC000B584000825E60008F18800087DE50008D6
:101BD0000000000000000000A9840008A89C06087E
:101BE0006473060800000000F55D0308A08601008C
:101BF00004000000A89C0608B09C06080000000035
:101C0000790D0408E803000004000000A47C060825
:101C1000000000000000000061F402087D000000E8
:101C2000FF000000A87A0608000000000000000085
:101C3000F5D802087D000000FF000000D47F0608F0
:101C40000000000000000000011A03087D000000F1
:101C5000FF0000003C7D06080000000000000000BE
:101C600035110408E803000003000000B89C0608D2
:101C70000000000000000000CDFD02081027000059
:101C8000030000000C6C060800000000ED2D0208A7
:101C9000C57A04085F7600000500000060A9060808
:101CA000000000000000000095A6040810270000B6
:101CB00002000000C49C06080000000000000000B4
:101CC0007D0D0408E803000005000000D09C060814
:101CD000000000000000000029690308204E0000F9
:101CE00003000000E09C0608000000000000000067
:101CF00011670308204E000003000000F09C060856
:101D0000000000000000000079160408400D0300E8
:101D1000030000001C9B06080000000000000000FB
:101D20002DD303081027000002000000907306085E
:101D300000000000000000004DC301081027000053
:101D400003000000FC78060800000000000000000E
:101D50000D0C0408A861000002000000389B060872
:101D60000000000000000000C5440408A00F0000AF
:101D700002000000009D06080000000000000000B6
:101D8000C17A01081027000002000000E48906085B
:101D900000000000BD120108F16D01088545010039
:101DA00002000000BC7806080000000000000000EF
:101DB0009D8E0008102700000200000078730608BE
:101DC0000000000000000000B5F3010850C300004F
:101DD000020000000C9D060800000000000000004A
:101DE000E19C0008400D030001000000149D06085E
:101DF0000000000000000000D1B30308400D030004
:101E0000020000001C9D0608000000000000000009
:101E100085D2010850C3000003000000289D060879
:101E20000000000000000000697D030840420F0030
:101E300001000000349D06080000000000000000C2
:101E400045B6030850C3000001000000409D06088D
:101E50000000000000000000AD560108102700003F
:101E60000200000075B5030800000000000000003B
:101E700000000000F90B0408000000000000000052
:101E80000000000001000000A00F0000B80B0000DF
:101E90000102FFFF0100000088A5060800000802FB
:101EA000050303000000000094A5060801000802D5
:101EB0000504030000000000A0A5060800000802B9
:101EC0000503030000000000A8A5060801000802A1
:101ED00005040300000000008C9A06080200FE01C1
:101EE0000110030000000000F0790608030014024E
:101EF0000003000000000000B0A5060804001F0257
:101F00000200080000000000B8A5060805001F0236
:101F10000201080000000000FFFF0000FFFFFFFFBC
:101F200000010000204E0000000000000000000042
:101F30000000185006000000D007000001040C004B
:101F40000101186007000000A00F000002040E004D
:101F500002031870070000000A1A000003040C00B6
:101F60000305189006000000204E000000020C003F
:101F70000000000097FFFFFF81060000C409000079
:101F8000C4090000030000008813000001010000E4
:101F900094FFFFFFE40C0000B80B0000C409000030
:101FA00006000000881300000203000090FFFFFFFE
:101FB000EF160000AC0D0000C40900000A0000008C
:101FC00088130000030500008BFFFFFF0B48000093
:101FD000A00F0000C40900000000000088130000EA
:101FE0003419002000000000040000000000000080
:101FF0009939050800000000000000000000000002
:102000000100000000000000301900200000000066
:1020100002000000000000000000000000000000BE
:10202000000000000800000001000000E938050879
:10203000000000000000000000000000010000009F
:1020400000000000860000007C1700200000000057
:102050000400000000000000C93A0508000000006C
:10206000000000000000000001000000000000006F
:102070001C19002034FD00200400000000000000B6
:102080003D390508000000000000000000000000CD
:1020900001000000000000002C19002000000000DA
:1020A000040000000000000099390508000000004D
:1020B000000000000000000001000000000000001F
:1020C000281900203CFD0020040000000000000052
:1020D000A53E050800000000000000000000000010
:1020E00001000000000000001B000000201800207C
:1020F00000000000030000000000000000000000DD
:1021000000000000000000000800000001000000C6
:10211000F938050800000000000000000000000081
:1021200001000000000000002419002038FD0020FC
:10213000040000000000000009390508000000004C
:10214000000000000000000001000000000000008E
:102150002019002000000000040000000000000022
:102160009939050800000000000000000000000090
:10217000010000000000000097000000B0180020DF
:102180000000000003000000000000002D390508D9
:10219000000000000000000000000000010000003E
:1021A00000000000010101FFA40000000000000089
:1021B000000000000000000000000000000000001F
:1021C000010000000000000000000000000000000E
:1021D000000000000100000000000000F401000009
:1021E00088690608150000008200FFFF1700000044
:1021F0001D0000008200FFFF1A0000008300FFFFA7
:10220000FF000000000004010000020001000002C5
:1022100010000000070000000000000000000000A7
:102220000102030406070809FF00000068190020E6
:10223000000000000000000000000000000000009E
:10224000000000000000000000000000000000008E
:10225000000000000000000000000000000000007E
:10226000000000000000000000000000000000006E
:10227000000000000000000000000000000000005E
:10228000000000000000000000000000000000004E
:082800000000000000000000D0
:10800000134B0268196821EA02011960596821EAD4
:108010000201596019680A431A609968026821EAE6
:1080200002019960D96821EA0201D96041791029D9
:1080300007D001F1804303F59E3319680A431A60A3
:108040007047996811439960D9680A43DA607047AC
:10805000003C01402DE9F04700230F6801264FF056
:10806000030C02E00133102B41D006FA03F232EA8E
:108070000704F7D1D0F800E05C000CFA04F52EEA12
:10808000050EC0F800E091F80490D0F800A009FABD
:1080900004FE09F1FF394EEA0A0EB9F1010FA846B4
:1080A000C0F800E06FEA050515D8D0F808E005EA49
:1080B0000E0585604D79D0F808E0A54045EA0E052B
:1080C0008560456825EA020242608A7945689A40DF
:1080D00092B22A434260C26822EA0802C260CA79A8
:1080E000C568A24001332A43102BC260BDD1BDE850
:1080F000F08700BF037830B403B30246C0F1010536
:10810000531912F8014FDBB2002CF9D101335B0097
:10811000DAB20C4C0B80032322706370017859B1E2
:10812000022300255A1CD2B2E154A55410F8011FB5
:108130000233DBB20029F5D130BC7047022213466E
:10814000E7E700BFC8190020084AD2E94031994248
:108150000AD0D118013391F808110170C3F30A0352
:10816000C2F800310120704700207047C819002074
:10817000064AD2F80839D2F80C29934294BF4FF43A
:1081800000600020013B9B1A18447047C81900206A
:10819000012380F85130704707B501A8FFF7D4FFDD
:1081A0000028FAD09DF8040003B05DF804FB044BEE
:1081B000D3E94003984288BF03F50063181A70475B
:1081C000C819002001207047024BC3F81029C3F8DA
:1081D00014197047C8190020024BC3F81829C3F8B6
:1081E0001C197047C81900207047704730B4134DF0
:1081F000D5E940239A4286BF03F50064A21A9A1A71
:108200000A44B2F5006F13D8A9B101444A1E0138DF
:1082100010F8014FE918824203F1010381F8084187
:10822000C3F30A03F4D1C5F80431002030BC704711
:10823000022030BC70470846F8E700BFC81900208C
:10824000F8B51A4C94F82039002BFBD159B30144EE
:108250004E1E451ED4F80C29D4F8081915F8017FD4
:10826000531CC3F30A038B422CBF4FF40060002061
:10827000C91A224401440129C4F80C3982F824792E
:108280000FD101203BF0FEFCD4F80839D4F80C19CA
:108290008B4294BF4FF4006200225B1A1344012BFF
:1082A000EFD0B542D6D10020F8BD00BFC8190020DC
:1082B00010B5074CE36A0846114643B1E36A052B43
:1082C00005D1002A236B02DDFFF7BAFF236B10BD37
:1082D000C02A002010B590F85010002380F85030CC
:1082E00061B1094CE26A5AB1E26A052A0AD13C300E
:1082F000236BFFF7A5FF236B012010BD0120FCE7D6
:108300001046FAE71846F8E7C02A0020002280F855
:108310005120DFE790F85020531C0244DBB280F874
:10832000503082F83C1090F851200AB1132B00D93C
:10833000D0E77047212838B50C4605D022282DD02B
:10834000202812D0002038BD0029FBD0072AF9D1FF
:10835000194B586B93F8381093F8392093F83A304A
:10836000206021716271A371ECE70029EAD0072A2D
:10837000E8D1124AD2F814391BB1D2F810090968B1
:1083800098470D4B256820796179A2795D6383F860
:10839000380083F8391083F83A20D3E70029D1D088
:1083A000022ACFD1054AD2F81C39002BCAD009883D
:1083B000D2F818099847C5E7C02A0020C81900203C
:1083C000014B0020D8627047C02A0020044B054AA8
:1083D00000200521D162C3F81C09C3F814097047B5
:1083E000C8190020C02A0020704700BF704700BF96
:1083F000704700BF704700BF704700BF704700BFA5
:10840000704700BF08B50248FFF774FE014808BD79
:10841000CC6B0608C819002008B50248FFF76AFEB1
:10842000014808BDDC6B0608C819002008B50248E1
:10843000FFF760FE014808BDE86B0608C819002078
:1084400008B50248FFF756FE014808BDF46B060860
:10845000C819002008B50248FFF74CFE014808BDC6
:10846000006C0608C8190020042301480B807047DF
:108470009801002010B4074A074B92F83C001224E0
:1084800003F114020C8001280CBF184610465DF859
:10849000044B7047C02A00209C010020642301483F
:1084A0000B807047C4010020432301480B807047B4
:1084B0002802002010B5074CD4F8D400FF2807D0BC
:1084C00005490A6C4431FFF735FFFF23C4F8D43067
:1084D000002010BD98010020C02A0020EAE700BF5C
:1084E00008B5D0F8E4355B6A9847002008BD00BFA6
:1084F00008B5D0F8E4351B6A9847002008BD00BFD6
:10850000D0F8E43510B504461B689847D4F8E83530
:108510009B689847002010BD08B5D0F8E435DB69AA
:1085200003B19847002008BD08B5042290F8121145
:10853000D0F8E83580F8131180F81221DB689847ED
:10854000002008BD10B5D0F8E83504461B699847EF
:10855000032384F81231002010BD00BF0B0617D48E
:1085600001EB810300EBC30310B400EB8100012495
:10857000002283F8764383F8741383F87523426DE1
:108580005DF8044B136843F4001300201360704738
:1085900001F07F0101EB810300EBC303012200EB3B
:1085A000810083F81C1183F81E2183F81D21826944
:1085B0001368002B01DA43F0804343F40013136087
:1085C0000020704782B00023016801930B6901937A
:1085D0000E4B03E00A690192013B13D0019A002A75
:1085E000F8DA019A094B42F001020192019A0A61FC
:1085F0000A69019203E00A690192013B02D0019AE3
:10860000D207F8D4002002B0704700BF400D03002D
:10861000436D064A1A61C278012A06D100F2CC5095
:1086200058614FF0802219681A607047180008607E
:1086300010B580210446FFF791FF20460021FFF787
:108640008DFF2046BDE81040E2E700BF70B44B78D4
:10865000012B26D00B784A6900EB83035C6D2568FB
:108660002369D2B18A684A6102F07F0223F40023B1
:1086700023F07F0342F4002213432361C378012BCC
:1086800004BF0B696361C5F3076363F07B0363F3A6
:108690001F652560002070BC70478A6802F07F0269
:1086A000E4E782694C691568136944B38E68B44283
:1086B0008CBF06F07F0404F07F0423F4002323F032
:1086C0007F0344F4002443EA040388BF4E6113612E
:1086D000C378012B1DD0C5F3076464F07B0464F3F9
:1086E0001F651560002BD5D14B69002BD2D00269D4
:1086F0000878516B012383400B435363CAE723F48B
:10870000002323F07F0343F400231361C378012B7C
:10871000E1D10B780C6900EB8300C5F30763816935
:1087200063F07B0363F31F654C610020156070BC30
:10873000704700BF2DE9F0434B78012B30D00B7808
:108740004C6900EB83035E6D356837691CB38B6839
:108750001C44013CB4FBF3F4C4F3090203FB02F331
:10876000C3F312034B61144643EAC44363F31C078B
:108770003761C378012B04BF0B697361CB78012B80
:1087800044D0C5F3076363F07B0363F31F65356073
:108790000020BDE8F0838A680124C2F31203E3E7F6
:1087A00091F800804E6900EB880EDEF818C0DCF806
:1087B0000050DCF8107076B3D1F80890384A06EB18
:1087C0000904013CB4FBF9F402EAC444C6F3120202
:1087D0002243CC7807F060473A43012C174649D032
:1087E000CCF81020C278012A55D00269516B03FAE7
:1087F00008F30B435363C5F3076363F07B0363F331
:108800001F65CCF800500020BDE8F0834B7973B3AE
:1088100045F00055B5E707F0604747F40027CC78EE
:10882000CCF81070C378012B2FD0012CE3D1026952
:108830009268D20554BF45F0005545F08055C5F308
:10884000076262F07B0262F31F65CCF80050002BD8
:108850009ED1B0B203308010DEF8D04098D0CA6804
:1088600052F8041B216001339842F9D190E745F09A
:10887000805586E764F35E77CCF81070C378012BDF
:10888000D5D10A69CCF81420D1E70A69CCF81420B4
:10889000012CB0D1CBE70B69CCF81430ABE700BFAB
:1088A0000000F81F38B501EB810400EBC4040D464D
:1088B000002184F87453C4F88C1384F87513C4F839
:1088C0008833C4F88023C3782821012B01FB0501DC
:1088D00008BFEDB201F55D7108BFC4F884231DB96E
:1088E000FFF7B4FE002038BDFFF724FF002038BD9D
:1088F00010B501EB8101084A00EBC1010446B1F853
:108900008C131046FFF772FC034A204640230121D6
:10891000FFF7C8FF002010BD0C2B0020E8E700BFC8
:1089200030B44C780022012C154612D0097800EBA7
:10893000810401238B40646D63F31F4501696FF36C
:10894000CF322260CB6923EA0503002030BCCB6123
:1089500070470B7800EB83019C4064F30F058C6932
:10896000ECE700BF40F2011310B500F5A271044618
:10897000A0F84431FFF7D4FF0123A4F89C3304F599
:1089800067712046FFF7CCFF4FF48173A4F86C3178
:1089900004F5B6712046FFF7C3FFFFF711FD002075
:1089A00010BD00BF38B540F2031304460D46A0F8D1
:1089B000943100F5CA71FFF7B3FF29462046FFF74F
:1089C000D1FF002038BD00BFF0B44B780A78012BEE
:1089D0004FF0000400EB820524D0012393406D6D1D
:1089E00063F31F442E68330415D48A6891F803C0DA
:1089F000CF880F49C2F30A0242F0805343F4004388
:108A00000CF0030243EA824307F00F0243EA825369
:108A100031400B432B600369DA691443DC610020A9
:108A2000F0BC70479340AD6963F30F04DAE700BF11
:108A3000007833EC2DE9F04140F2011304460225A1
:108A40004FF0400801270026A0F84431C0F84C81BF
:108A500080F84751A0F84A7180F8486100F5A2718A
:108A6000FFF7B2FF04F56771A4F89C73C4F8A48300
:108A700084F89F5384F8A0632046FFF7A5FF0822DF
:108A800003234FF48171C4F87421A4F86C1184F8A5
:108A90006F3104F5B671A4F872512046FFF794FFC8
:108AA000064B9D83FFF792FC054A43462046394614
:108AB000FFF7F8FE3046BDE8F08100BF98010020C6
:108AC0000C2B002070B50323092240F20316044644
:108AD0000D46C0F89C2180F89731A0F89A31A0F893
:108AE000946100F5CA71FFF76FFF29462046FFF732
:108AF000A1FF002070BD00BF70B5002540260446D0
:108B0000A0F8745380F87753C0F87C6300F55D716A
:108B1000FFF75AFF4FF48073A4F81C3104F58E71EF
:108B2000C4F8246184F81F51A4F822512046FFF7AD
:108B30004BFFD4F8E835A078012284F812215B6855
:108B40009847284670BD00BF82B000230193019A68
:108B5000094B42F010020192C168019A0A610A6948
:108B6000019203E00A690192013B02D0019AD20608
:108B7000F8D4002002B07047400D030082B00023FB
:108B80000193019A0B4B42F020020192019A61F38A
:108B90008A120192C168019A0A610A69019203E08E
:108BA0000A690192013B02D0019A9206F8D4002092
:108BB00002B07047400D03000E4BDA68D20310D4A8
:108BC000DA68D1060FD4DA68D20510D4DA6812F068
:108BD000E00F0AD1DB6813F0020F14BF0820092050
:108BE0007047012070470620704707207047022019
:108BF000704700BF003C024000207047134AD2F883
:108C00008C00C8B1D2F89030B3B1884212D88B42F0
:108C100034BF00230123DBB25BB1D2F89830C2F835
:108C20009410994205D00A4BC2F89810142083F88A
:108C3000D80070470023EEE7A1F59C53083BB3F53D
:108C40007A7F2CBF00230123E6E700BFC02A002063
:108C500098010020064B93F89D2083F89C108A42CF
:108C600005D0044A83F89D10142082F8D80070477C
:108C7000C02A002098010020704730B1034B93F8C0
:108C80009E00012894BF002001207047C02A0020C8
:108C900008B5FFF7F2FF60B1064A92F89F3092F8EC
:108CA0009C205B0003F00203002A18BF43F001037D
:108CB0000B6008BDC02A002008B5FFF7DEFF18B121
:108CC000024BD3F8A0300B8008BD00BFC02A0020A3
:108CD00070B5FFF7D2FF60B10B4AB2F8A4503DB1B6
:108CE000D2F8A8600023B3421C4603DB002000E05A
:108CF0000D7070BD02EB44040133B4F8AC40AC42DB
:108D0000DBB2F0D10B70F4E7C02A002008B5FFF702
:108D1000B4FF10B100230B70137008BD042070471E
:108D200028B1034B93F9DA00003818BF01207047CF
:108D30009801002008B5FFF7F3FF50B1054B93F9F8
:108D4000DA20012AC3BF93F8DD30C3F340030B6080
:108D5000002008BD9801002008B5FFF7E1FF18B119
:108D6000024B93F8DC300B7008BD00BF9801002067
:108D700070B5FFF7D5FF38B10E4C94F8DD30DB0746
:108D800003D500230B70137070BD0B4D94F9DB30CD
:108D900095F8BC6093FBF6F301330B7094F9DB405C
:108DA00095F8BC1094FBF1F301FB134301331370EE
:108DB000EAE700BF98010020C02A00200320704786
:108DC00070B50A4A92F8C03006255E1CB6FBF5F471
:108DD00005FB146492F8C150AC4205D002EBC3030A
:108DE000C3E9310182F8C04070BD00BFC02A002035
:108DF000002230B504461046914200DC30BDA35C31
:108E00000825584010F0800F4FEA400318BF83F048
:108E1000D503013DD8B2F5D10132EDE710B5E9B186
:108E20000F4BD3F8F400814218DCBAB1D3F8BC3050
:108E30009A4213DC0B4C013A013903FB012184F8FF
:108E4000E81004F1E4000521FFF7D2FF062184F8C1
:108E5000E90004F1E400BDE81040B1E710BD00BF37
:108E6000C02A0020980100200023038083708380A3
:108E7000C3800381704700BF074A92F8F83092F828
:108E8000FC100133DBB2994282F8F83004BF0023B2
:108E900082F8F830704700BFC02A0020F8B5794C3E
:108EA000D4F8483283B1D4F84C3293F82E305BB109
:108EB000754B94F85022A3FB0013012A4FEA931339
:108EC00030D0022A08D002B1F8BD704B9842FBD9CD
:108ED000012384F85032F8BDD4F8542264329A4207
:108EE0003ED894F8F83004EB031393F8D426FF2A05
:108EF00006D067490132012083F8D42681F8EA00C0
:108F0000FFF7BAFF94F8C8360122092B84F85022E3
:108F1000DAD1B4F87A3713449BB2A4F87A37A4F8BC
:108F2000CE36F8BD94F8F810C4F854328C2303FB05
:108F3000014394F8C80683F86A22002604F51775E1
:108F40000A220223092884F86662C4F8585284F879
:108F5000672284F85032B7D10131A4F8CC16F8BD9D
:108F600094F8662294F867329A42ADD104F25B20FD
:108F700004F51975002310F8012F082153405A00F9
:108F800013F0800F08BF5B0082F0070214BFD3B25A
:108F9000DBB20139F3D18542EDD194F865229A42D2
:108FA00039D194F8F860B4F85F5294F86372B4F869
:108FB000610294F8643294F85DC204EB06126DBA53
:108FC00040BA43EA0723ADB294F85E7282F8D41631
:108FD000C2F8D85681B22E4D94F95C02C2F8DC1664
:108FE00047EA0C271BB20121032EA2F8D676A2F87D
:108FF000E03682F8D50685F8EA1009D894F8C82634
:109000000C2A2AD00D2A03D104EB4606A6F8CC067A
:10901000FFF732FF5CE794F8F83004EB031393F8A2
:10902000D426FF2A06D01A490132012083F8D4261B
:1090300081F8EA00FFF720FF94F8C8360122092BD7
:1090400084F850227FF440AFB4F8783713449BB2D1
:10905000A4F87837A4F8D036F8BD94F876170D4AFE
:1090600003EB830303EB830349089B0004EB4606F1
:1090700093FBF1F382FB0312DB17C3EBA203A6F809
:10908000CC36C5E7C02A0020D34D62103F4B4C00C0
:1090900098010020676666660B4B93F8661293F89A
:1090A000672291420ED010B493F86622D3F858424A
:1090B000511CD2B2C0B2C9B283F86612A0545DF896
:1090C000044B7047704700BFC02A0020FD2870B5D0
:1090D00022D0F02804D0EF2822D00224204670BDF0
:1090E000114D0320052641282E444FF0000405F1C0
:1090F000010580F080030DD0042B0BD9FFF7E6FFAC
:109100002044B542C4B2E9D015F8010B412880F0E3
:109110008003F1D10420F3E7044D0B200426E2E79D
:10912000034D0C200626DEE75C6C0608646C06081E
:10913000546C0608144B30B4D3F87C4714B30022A7
:109140000F2583F88217090A83F8810783F88317AC
:10915000C3F88427C3F88827C3F88C2783F880577F
:1091600003F5F060012110F8015F01312A440E2956
:10917000D2B2F8D183F88E272046044930BC1022A1
:109180003BF068B930BC7047C02A00204032002054
:10919000034B002183F89017C3F89417CAE700BF68
:1091A000C02A00202DE9F04FDFF88CA3D34D56469E
:1091B00086468C4617460FCE05F5F3642DED068BDB
:1091C0000FC40FCE0FC496E807008BB095F8563742
:1091D000059784E80700CDE906EC042B00F24681F0
:1091E000DFE813F0B90144013F010500C9019FED1B
:1091F000C48ADFEDC48AC449C5F8B417C349C44B57
:10920000C44AC5F8B0170599002918BF134638EEAF
:10921000887AF5EE006AC6EE879ABF4EC5F8BC376D
:10922000A6F1660B06F1C0080027DFEDBC7A9FEDC2
:10923000BC9A28EE278AB0EE67AA079BBB4200F0D3
:109240000A811BF8012BAB1893F85B47002C00F048
:109250001281002102E0152900F00D8101EB41008F
:109260004B0018F800C0A44501F10101F3D12844D6
:1092700090F88D18002900F06C812046CDE9032379
:1092800039F03CFCDDE9032381464846CDE9032360
:1092900039F078FD90F800C0BCF1000F40F0EB8091
:1092A000039A049B01322B44D2B2032183F8CD28C8
:1092B00083F8CC18B9F1000F00F0DD802309013BE1
:1092C000032B04F00F0000F208810AEB4304B4F80A
:1092D0002CC04CFA00F414F0010400F03881012491
:1092E00004FA00F0013800EA0C00CDE9032353F042
:1092F0009FFE049BDFF844C2039A5344032193F872
:10930000343018440CEBC00373619971DA715CF866
:10931000300099F8082000F13F4101F57E010AEB89
:10932000912191F8381001F01F0C4909032904FA22
:109330000CF400F0DC80042900F0D280022900F057
:10934000FF809B880893B3FA83F3C3F11F03C3F331
:10935000CC0100EB810103F007030C6A9B004FF086
:109360000F0C0CFA03FC24EA0C040C620C6A02FADF
:1093700003F323430B62022308A90993FEF76AFE55
:10938000059B002B00F08380B5F85437D5F8801A80
:1093900007EE903AF8EEE77AFCEEE77A17EE900ADD
:1093A000B1FBF0F202F57F42FF32120CB1FBF2F298
:1093B00095F85617B2FBF0F0042983B27ED007EE81
:1093C000902AF8EE676A66EE887A29EE677A95F851
:1093D000570706990091A6EEA87A019049463046B3
:1093E000C6ED027A86ED037A2EF078F8002F70DD54
:1093F0007368D5F8D02793426DD0012F69D0D5F886
:10940000E827934267D0022F63D0D5F80028934213
:1094100061D0032F5DD0D5F8182893425BD0042F7C
:1094200057D0D5F83028934255D0052F51D0D5F8D4
:10943000482893424FD0062F4BD0D5F86028D31A36
:1094400018BF012301370122082F3374727406F10B
:1094500018067FF4F2AE33480BB0BDEC068BBDE8C6
:10946000F08F9FED318AF0EE488AC4E69FED2F8A97
:10947000F0EE488ABFE62E4A264BC5F8B4270020F6
:10948000C5F8BC370BB0BDEC068BBDE8F08FB0EE75
:10949000690A54F0D3FCFCEEC07A4FF6FF7317EE66
:1094A000902AD5F8801AB1FBF2F21A44120CB1FBE3
:1094B000F2F295F856170429184680D107EE900A63
:1094C00007EE102AF8EE677AF8EE476A67EE8A7AB6
:1094D0007BE70123B6E70023B4E7C6F814C04FE7E3
:1094E0001449D1F830C044EA0C040C6329E711494F
:1094F000D1F840C044EA0C040C6422E7C02A0020E2
:10950000ACC5A737ACC5A736A9660308AD0F0408DC
:10951000B15A0308A10F04088C3200206F12833A5D
:1095200000007A4458320020282930386F1203395D
:10953000015C03080038024004F60508B833002037
:109540000E49D1F844C044EA0C044C64F9E6746155
:1095500016E7894699E69FED0A8A0A4A0A4BC5F83A
:10956000B427C5F8B03700220123CDE90532F0EE6B
:10957000488A064B4BE69FED068AEEE7003802402C
:109580006F12833AA9660308AD0F0408A10F0408FF
:1095900000000000F8B50546262026F01DF8144C02
:1095A000014600BBD4F8840A90F838301E3B012BEA
:1095B00002D894F8913A0BB13AF080FF0D4F002693
:1095C000AE4208DBB4F8B23A0133A4F8B23A236BE6
:1095D000C4F8C43AF8BD17F8011BD4F8840A3AF06D
:1095E0006DFF0136ECE7002384F8C03AEFE700BFD7
:1095F000C02A00205235002038B5144C94F8C130F0
:1096000094F8C0209A421AD004EBC303D3E9312066
:1096100004F692210023984212DC9378C4F8C80A19
:109620005B0884F8C03AFFF7B5FF94F8C130062113
:109630000133B3FBF1F201FB123384F8C13038BDC2
:10964000D55C01F8015B0133E5E700BFC02A0020CB
:1096500013B504462620019125F0BEFF019920B9DB
:10966000204602B0BDE8104064E502B010BD2DE90F
:10967000F04F244C87B094F8892A01924FF00009EA
:1096800005461E20CDF80C90ADF8149025F0A4FFEF
:1096900094F888BA94F88A6AB4F88CAAB4F88E8AD6
:1096A00094F8907A019A28B1B8F1000F02D0C2461E
:1096B0000126CB4694F8CC3AD9070AD494F8D31AA9
:1096C00039B9012F1BD0022F03D113F0020F08BFAD
:1096D00001268DF814708DF80CB08DF80D208DF8E2
:1096E0000E60ADF810A0ADF8128003AB03CB1B8861
:1096F0002860284669602B8107B0BDE8F08F3E46A0
:10970000E7E700BFC02A002007B50DF1060214F0FC
:1097100013FB70B1084BBDF80620B3F8F81AA3F894
:10972000A420914205D00549A3F8F82A142081F815
:10973000D80003B05DF804FBC02A00209801002087
:1097400013B50446FFF7ECFA08B300230DF1060247
:109750002046ADF8063014F0EFFAC0B10D4C9DF87C
:10976000062094F9DA1084F8EF20032908BF62F08C
:109770007F024FF00501084808BF84F8EF20FFF78B
:1097800037FB062184F8F0000348FFF719FB02B00D
:1097900010BD00BF98010020830200202DE9F7438F
:1097A000C54CD4F87C370D464BB14FF0020800276A
:1097B0004FF00109D4F87C073AF07CFE60B900262E
:1097C00094F89E30042B00F27281DFE813F09700CA
:1097D000F6000A0157016001D4F87C073AF062FEF6
:1097E000D4F894375A1C2344C4F8942783F8FA0A0F
:1097F00094F89037012B0AD0022B11D0002B78D18E
:109800000F280CBF84F89097C4F89437D2E7A0F1E2
:109810007203012B01D976286BD184F89087C9E7B0
:10982000102AC7D1A5490023012211F8010F0132E6
:1098300003440E2ADBB2F8D194F8082B84F8907711
:109840009A42C4F89477B5D194F8093B002BB1D172
:1098500094F8FB6A732E3FD0762E0FD0722EA9D1CA
:1098600094F8FD2A94F8FC3A53EA0223A2D0C4F8F3
:109870008C30B4F8FE3AC4F89030A1E794F8FD2A91
:1098800094F8FC3A53EA022394D094F8FF1A94F81F
:10989000FE2A94F8030BC4F8A03042EA012294F89F
:1098A000001B84F89F1094F8011B84F80C1B94F89B
:1098B000021BA4F80A2B41EA0021A4F80E1BD4F8DD
:1098C000941009B9C4F89430B4F8A430002B7FF494
:1098D00077AFA4F8A42073E794F8012B94F8003B29
:1098E00043EA02231AB2002B3FF464AFA4F8102B12
:1098F00066E784F89077C4F894775BE7722E4ED1D0
:10990000012384F89E30002294F8C836402B36D1CB
:10991000B4F8A400A4F8CE6694F80C6B94F89E30CA
:10992000B4F80ACBA4F8CC360502330394F89C10A3
:10993000D4F8A07005F4706503F440532B434FEA4C
:109940000C1543EA8133EDB22B43D4F894501BB28B
:10995000BD4214BF082500251343604514BF0420F1
:1099600000202B430343B14214BF022100211943BD
:10997000534BA4F8D01693F8D830A4F8D236D4F8C4
:10998000F43023B1D4F8A830002B40F0A3804D4927
:109990004D481F2203B0BDE8F04355F020BED4F877
:1099A000143B4A4AEB1A934201DC0022ACE77220D6
:1099B000FFF7EEFBC4F8145BF7E7762E04D1022321
:1099C00084F89E3000229FE7D4F8143B3F4AEB1AFC
:1099D0009342EADD7620FFF7DBFBC4F8145B00223C
:1099E00092E7374FD4F8143B97F8D820EB1AB2B36C
:1099F000364A934236DD94F89F20D2071FD4D4F81C
:109A00009410D4F8A02091420FD089B24620FFF7DD
:109A10001FFE97F8D830C4F8145B013B87F8D830A4
:109A2000042384F89E3001226EE7B4F8A410B4F841
:109A30000A2B8A4203D05020FFF70AFEE9E794F888
:109A40009C1094F80C2B8A4206D0B1FA81F1490996
:109A50004920FFF7FDFDDCE7142287F8D8201C4AD7
:109A60009342B7DC762EA0D17320FFF791FB03233E
:109A700084F89E30C4F8145B002245E7732E94D01E
:109A8000D4F8141B114B691A994298DC8DE7D4F86D
:109A9000143B0E4AEB1A934287DD7620FFF778FBE2
:109AA000022384F89E30C4F8145B00222CE70023C4
:109AB00084F89E301A4627E7C02A0020BA350020D5
:109AC00098010020AC6C0608890200203F0D0300BD
:109AD0003F420F00334DD4F8186B2A2385F8F1303C
:109AE0000DF1020220230DF10101304685F8F2301C
:109AF00014F0B9F930B19DF801109DF8027051EAE7
:109B0000070339D1552385F8F330462385F8F4301F
:109B1000202301A9304685F8F53014F09EF903465C
:109B2000214813B1BDF804209ABB204947F07CFAC4
:109B3000B4F80E7B1E4D87B30DF10301304614F0CF
:109B40008FF950B39DF803100DF10602304614F062
:109B5000F3F810B3BDF8062016493B46BA420CBFD5
:109B600020222A22284647F05FFAB4F8103BA4F8D6
:109B70001C3B03B0BDE8F083304614F059F9394678
:109B800085F8F300304614F03FF9037885F8F43097
:109B9000BEE7094947F048FACAE70849284647F0AE
:109BA00043FAE2E7980100208E020020CE6C0608FE
:109BB00092020020C66C06087AC10608CD6C060821
:109BC00038B50B680E4D5A1C0A6005221A700B68D6
:109BD00095F8DA200C46591C21601A70236895F814
:109BE000DD20591C21601A70B5F8E010204642F0C3
:109BF000A9FE236895F8E220591C21601A7038BD2F
:109C0000980100202DE9F0472DED028BFFF788F831
:109C1000C8B31E4B93F9DA00012834DD93F81041E4
:109C20001B4F9FED1C8A15468E1E02EB44084FF019
:109C30003209454504D1BDEC028B2046BDE8F087D2
:109C400037F802AB26F802AF07EE90AAF8EEE70A63
:109C5000B2EE040A60EE880A54F05AFABCEEC00A6A
:109C6000BAF10E0F10EE103A9BB209D91933B3FBBB
:109C7000F9F39BB203EB830303EB83035B009BB21B
:109C800025F8023BD5E70024D5E700BF9801002066
:109C9000DE350020CDCCCC3D38B50D46FFF740F881
:109CA000044638B10C4890F8DD30DB0704D5B0F835
:109CB000DE002880204638BD084A90F9DB3092F853
:109CC000BC2093FBF2F102FB11320132013100F5AD
:109CD0008A7014F045F8ECE798010020C02A0020B3
:109CE0002DE9F047A84D95F82E3B8AB08146002B10
:109CF00040F0B280D5F8186B002E00F0AD80A34A7A
:109D0000D2F8184104F0F021B1F1E02F6BD1C2F884
:109D10001831D5F8302B944265D004930593ADF8F3
:109D20001830B5F88C3A95F888EAADF8143095F803
:109D300089CA95F8903A95F88A8A8DF8183004AF58
:109D40008DF810E08DF811C08DF8128097E80700AB
:109D500007AB03C31A808E4AC5F8304BC4F3425395
:109D6000D15CC4F303428E4502F1010201D1944556
:109D700008D030468DF81C108DF81D2013F0F0FF30
:109D8000ADF82000304614F03EFA032804F0070A2C
:109D900034D0042836D00023984501A9304618BF96
:109DA0008DF81E3014F056F848B1019BC4F3001131
:109DB00003F001038B4202D0304614F0FBF80A2274
:109DC00007A9384655F0A5FB68B19DF81E30BDF8CF
:109DD0001C2085F88A3ABDF82030A5F8882AA5F815
:109DE0008C3A43F08DFB95F834AB04AF95F8343BD7
:109DF000032B7BD8DFE803F00A3376A3654B13F817
:109E00000A30C9E7644B13F80A30C5E739463046D3
:109E100014F026F8044658B107A8FFF728FC9DF86F
:109E20001E109DF810308B4260D0304614F04EF971
:109E300095F8343B013303F0030385F8343B0CB948
:109E40009A45D3D195F8CC3ADB0700D524B13368D5
:109E500049461B68304698470AB0BDE8F08701A81C
:109E6000FFF705FC95F8CC8A9DF8044008F001083E
:109E7000ECB1B8F1000F39D13A460DF1030130468B
:109E800013F0F1FF044688B307A8FFF7F0FB9DF835
:109E90001C109DF803309DF81D208B4203D19DF8C6
:109EA0001030934222D0304614F01AF9C0E7B8F1CE
:109EB000000FBDD13946304613F0CFFF0446A8B19C
:109EC00007A8FFF7D4FBBDF82010BDF810308B4277
:109ED0000CD085F8358B85F8368B336830469B6916
:109EE0009847A5E795F8CC3AD80701D500249FE715
:109EF00007A9304613F0AEFF04460028F6D01E2016
:109F000025F06AFB95F8373B83428046EED085F812
:109F1000370B60B1B5F88E3A002BE7D1079BD90714
:109F2000E4D40121304614F045F8444680E7079B0D
:109F3000DA07DBD50146304614F03CF878E73846BE
:109F4000FFF795FB97E8070007AB03C31A809DF85E
:109F500010309BB10DF11D0207A9304613F083FFAD
:109F60000DF11E01304613F07BFF0A2207A9384687
:109F700055F0CFFA041E18BF012459E708A930464E
:109F800013F06BFFECE700BFC02A0020980100200F
:109F9000846C0608786C06086C6C06082DE9F041A4
:109FA000FD2984B0044669D0F02949D0EF2900F09A
:109FB000BF804AB10346861803AD002003F8010BA9
:109FC0009E4205F8010BF9D1BA4B0B2003F10905AC
:109FD00001E013F8010F814255D0AB42F9D14B1E7D
:109FE000152B21D8DFE813F0C500D000DA00E70018
:109FF000EE00F400160004010001200020002301FF
:10A000002301230110011001100100012000200094
:10A010001B01AD00A84D95F8CC3ADE0700F16D812B
:10A02000B5F8A43BADF80C303AB1224403AB13F8B9
:10A03000011B04F8011BA242F9D104B0BDE8F08174
:10A040009E4F03214FF00508B844002501370CE06E
:10A05000FFF73CF8064660193246FFF79FFF70197C
:10A060004745C5B2E9D017F8011B412981F08003AB
:10A07000084601D0042BEBD80426ECE7904F0B21C7
:10A080004FF00408E0E78C4BD3F8280C80060CD482
:10A09000002AD2D0224403AB13F8011B04F8011BA1
:10A0A0009442F9D104B0BDE8F08193F8380B10F078
:10A0B000020F93F8500B40D0052834BF022503252A
:10A0C000142917D97C39C8B20628E1D80629DFD867
:10A0D00001A050F821F000BFA9A20008A9A2000821
:10A0E00091A2000891A0000889A2000881A200089E
:10A0F00079A200080929CBD90A390A29C8D801A6AA
:10A1000056F821F065A20008DDA2000891A0000821
:10A1100091A0000891A0000891A0000891A000085B
:10A1200091A0000891A000085BA20008A9A2000865
:10A13000644F0C214FF0060886E70B29A8D10125B2
:10A14000CDE05D4BB3F8C41BCD055ABFCB4303F044
:10A150000103032311F0440F18BF042311F0020F71
:10A1600018BF072311F4806F18BF0923ADF80C3016
:10A170005AE7514BB3F8843B03EB83035B0003F5D1
:10A18000C873ADF80C304FE74F4BD3ED037AFDEEBB
:10A19000E77A17EE903AADF80C3045E7464B93F866
:10A1A000631B002900F0A08001922DF0F7FB019ABB
:10A1B000ADF80C0038E701922DF0F0FB019AADF8F4
:10A1C0000C0031E73C4BD3F8B43BADF80C302BE737
:10A1D000394BB3F8A41B002900F0898001922DF0BF
:10A1E000E9FB019A80B2E3E7334BB3F8263C19E769
:10A1F000314B3649B3F9243C81FB0301DB17C3EB38
:10A20000A103ADF80C300FE72B4B03EB4101B1F884
:10A21000023C03EB83035B00ADF80C3004E7264BF4
:10A2200093F8CC3A03F00103ADF80C30FCE6284B70
:10A23000DFED286AD3ED007A0C39C9B203EB810354
:10A2400093ED127A67EEA67A67EE877AFDEEE77AEB
:10A2500017EE903AADF80C30E6E6B3F84A3BADF8AD
:10A260000C3015E7B3F84C3B03EB830303EB83039C
:10A270009B00ADF80C300BE7D3F8443B039307E7A2
:10A28000D3F8403B039303E7D3F83C3B0393FFE64B
:10A29000B3F84A3B104903EBC3039B00A1FB031334
:10A2A0005B09ADF80C30F3E6B3F8543BADF80C3075
:10A2B000EEE600BF486C0608C02A00205C6C060869
:10A2C000646C0608546C06084836002067666666AB
:10A2D0008836002000007A441F85EB51EDB28DF8DE
:10A2E0000C508DF80D00D3E6B3F87C0B60E7D3F883
:10A2F000BC0B80F3100080B25AE7019227F040FBBC
:10A3000005F68833D3ED037A019AFCEEE77A17EE6F
:10A31000903A9BB200287FF485AED5F8C01B11F0AF
:10A32000100F18BF00237DE600F01F024009012333
:10A33000032803FA02F304D004280CD0022805D025
:10A340007047074A116C0B4313647047044A516C01
:10A350000B4353647047024A116B0B4313637047FE
:10A360000038024000487047183400200E4B30B4CB
:10A37000DB68427801780D4CDB43C3F30223C3F161
:10A380000403DBB202FA03F360181B0101F01F059E
:10A390000122490903F0F003AA4080F8003344F891
:10A3A000212030BC704700BF00ED00E000E100E07C
:10A3B000002878D02DE9F0418388B3FA83F3202B6D
:10A3C000174684B00446C3F11F0255D0364DDFF85E
:10A3D000E4804FF0004008EB020605EB820205F630
:10A3E0006C4C30FA03F396F84060C2F82CCC05D0E0
:10A3F0002E4A106820EA030010605361204638F0AE
:10A40000D5FEA2882168B2FA82F2C2F11F0303F0DE
:10A41000FC0000F1804000F59C3003F003039C0039
:10A420004FF00F0C01F13F4381680CFA04FC21EA64
:10A430000C01816003F57E0308EB8707D0F808C0A4
:10A44000396D8DF80D10C3F38723A34043EA0C0345
:10A450004FF00041354421FA02F2836000210123CC
:10A4600002A88DF80E3002928DF80C10FDF7C8FD91
:10A4700095F8703CF02B02D804B0BDE8F0810C4B8D
:10A480009B5D8DF80430F02103224FF4807301A806
:10A4900085F8701C8DF80520ADF80630FFF766FFD3
:10A4A00004B0BDE8F0817047C02A0020003C0140A4
:10A4B000A46C060804F6050800286BD0F0B5838864
:10A4C000B3FA83F3202B85B00446C3F11F024CD0AE
:10A4D000314D32484FF00041104405EB820205F641
:10A4E000784731FA03F390F84060C2F82C7C05D02D
:10A4F0002B4A116821EA03011160536120460021B3
:10A5000038F054FEA3882268B3FA83F4C4F11F0321
:10A5100003F0FC0101F1804101F59C3103F00303DC
:10A5200098000F2702F13F438A68874022EA07021A
:10A5300003F57E038A60C3F38723834088684FF066
:10A5400000420343354422FA04F48B604FF4406226
:10A55000012302A88DF80E300294ADF80C20FDF70F
:10A560004FFD95F8703CF02B01D805B0F0BD0D4BB8
:10A570009B5D8DF80430F02103224FF4807301A815
:10A5800085F8701C8DF80520ADF80630FFF7EEFE5B
:10A5900005B0F0BD704700BFC02A002004F60508D2
:10A5A000003C0140A46C0608002869D0F0B58388FF
:10A5B000B3FA83F3202B85B00446C3F11F024AD0BF
:10A5C000304E314D16444FF0004005EB820230FA18
:10A5D00003F396F84060C2F82C1C05D02B4A116892
:10A5E00021EA0301116053612046002138F0DEFDAD
:10A5F000A3882268B3FA83F4C4F11F0303F0FC01BB
:10A6000001F1804101F59C3103F0030398000F270D
:10A6100002F13F438A68874022EA070203F57E037E
:10A620008A60C3F38723834088684FF00042034366
:10A63000354422FA04F48B604FF40062012302A82F
:10A640008DF80E300294ADF80C20FDF7D9FC95F88A
:10A65000703CF02B01D805B0F0BD0D4B9B5D8DF823
:10A660000430F02103224FF4807301A885F8701C98
:10A670008DF80520ADF80630FFF778FE05B0F0BD87
:10A68000704700BF04F60508C02A0020003C0140C6
:10A69000A46C060800285FD00368374A2DE9F04112
:10A6A00003F13F4404F57E0402EB9422012492F866
:10A6B000382002F01F055209032A04FA05F456D087
:10A6C000042A4FD0022A48D08588B5FA85F0C0F117
:10A6D0001F00C0F3CC0603EB860600F007008200E3
:10A6E0000F24306A944020EA04003062306A01FA94
:10A6F00002F20243002132624FF0010E0A464FF08F
:10A70000030C02270EFA02F838EA050002F10102F2
:10A710001CD118680CFA01F420EA040018601868CB
:10A7200007FA01F606431E609E6826EA04069E604C
:10A7300098689860586820EA08005860586858601F
:10A74000D86820EA0400D860D868D860102A01F1DF
:10A750000201D7D1BDE8F0817047084A556C2C43FF
:10A760005464B1E7054A156B2C431463ACE7034A04
:10A77000156C2C431464A7E704F605080038024062
:10A780002DE9F84FB34C94F87C1C0546C1F3400109
:10A79000D4F8840C3DF042F994F87C1CD4F8800C79
:10A7A000C94301F001013DF039F9002D00F0C380EB
:10A7B0006E1EA94FA94D5FFA86FB4FF01008D4F822
:10A7C000840C3DF00FF9D4F8800C3DF00BF9B4F88F
:10A7D0008C3C002B40F0358194F88E1CD4F8900C02
:10A7E0003DF01CF94FF0FA094FF47A704FF0010C6C
:10A7F0007B68C3F30803002B40F0FB80EFF3118369
:10A80000002B40F0F680226BA968236B9A42FAD1A4
:10A81000D4F8B43C9942F6D8D4F8B06C00FB06F3F7
:10A820005B1AB3FBF6F300FB02327B68C3F3080349
:10A83000002B40F09F80EFF31183002B40F09A80B3
:10A84000236BD5F808A0216B8B42F9D1D4F8B41C46
:10A850008A45F5D8D4F8B06C00FB06F1A1EB0A01EB
:10A86000B1FBF6F100FB03139B1AB3F57A7FDCD33F
:10A87000B9F10109BCD1D4F8840C3DF0B3F8D4F897
:10A88000800C3DF0AFF8B4F88C3C002B40F0CD804C
:10A8900094F88E1CD4F8900C81F001013DF0BEF8C4
:10A8A0004FF0FA0C4FF47A704FF0010E7B68C3F34F
:10A8B0000803002B7ED1EFF31183002B7AD1226B9A
:10A8C000A968236B9A42FAD1D4F8B43C9942F6D8DD
:10A8D000D4F8B09C00FB09F35B1AB3FBF9F300FB5F
:10A8E00002327B68C3F308033BBBEFF3118323BB46
:10A8F000236BD5F808A0216B8B42F9D1D4F8B41C96
:10A900008A45F5D8D4F8B09C00FB09F1A1EB0A0107
:10A91000B1FBF9F100FB03139B1AB3F57A7FE0D387
:10A92000BCF1010CC2D10BF1FF365FFA86FBBBF123
:10A93000FF0F7FF444AFBDE8F88FEFF3118988F380
:10A940001288AE682B68DB0344BFC4F8ACECAE6879
:10A95000236BD4F8AC1C5FFA89F989F31188D4F819
:10A96000B09C0B4400FB09F1891BB1FBF9F100FB22
:10A970000313D1E7EFF3118E88F31288D5F808A0FE
:10A980002B68D90344BFC4F8ACCCD5F808A0236B1E
:10A99000D4F8AC1C5FFA8EFE8EF31188D4F8B06C3C
:10A9A0000B4400FB06F1A1EB0A01B1FBF6F100FB41
:10A9B000031359E7EFF3118188F31288D5F8089053
:10A9C0002B68DA0344BFC4F8ACECD5F80890236BCD
:10A9D000D4F8AC2CC9B281F31188D4F8B01C1A4455
:10A9E00000FB01F3A3EB0903B3FBF1F300FB02321D
:10A9F00077E7EFF3118188F31288AE682B68DB03E9
:10AA000044BFC4F8ACCCAE68236BD4F8AC2CC9B24C
:10AA100081F31188D4F8B01C1A4400FB01F39B1B8E
:10AA2000B3FBF1F300FB0232FFE6D4F8A83C002BA5
:10AA30003FF436AFD4F8943CC3F8009084F8A59C5A
:10AA40002EE7D4F8A83C002B3FF4CCAE39F0DEF969
:10AA5000C8E600BFC02A002000ED00E010E000E0E2
:10AA60002DE9F84FB04CB14F94F87C1CD4F8840C0D
:10AA7000AF4DC1F340013CF0D1FF94F87C1CD4F8F9
:10AA8000800CC94301F001013CF0C8FF4FF0050BF9
:10AA90004FF01008D4F8840C3CF0A4FFD4F8800CDC
:10AAA0003CF0A0FFB4F88C3C002B40F0358194F8CA
:10AAB0008E1CD4F8900C3CF0B1FF32264FF47A7023
:10AAC0004FF0010C7B68C3F30803002B40F0FA80C1
:10AAD000EFF31183002B40F0F580226BA968236B04
:10AAE0009A42FAD1D4F8B43C9942F6D8D4F8B0ECF2
:10AAF00000FB0EF35B1AB3FBFEF300FB02327B6834
:10AB0000C3F30803002B40F09E80EFF31183002B6A
:10AB100040F09980236BD5F808A0216B8B42F9D1C6
:10AB2000D4F8B41C8A45F5D8D4F8B0EC00FB0EF18B
:10AB3000A1EB0A01B1FBFEF100FB03139B1AB3F575
:10AB40007A7FDCD3013EBDD1D4F8840C3CF04AFFBF
:10AB5000D4F8800C3CF046FFB4F88C3C002B40F05D
:10AB6000D08094F88E1CD4F8900C81F001013CF058
:10AB700055FF4FF0320C4FF47A7001267B68C3F317
:10AB80000803002B7FD1EFF31183002B7BD1226BC5
:10AB9000A968236B9A42FAD1D4F8B43C9942F6D80A
:10ABA000D4F8B09C00FB09F35B1AB3FBF9F300FB8C
:10ABB00002327B68C3F308032BBBEFF3118313BB93
:10ABC000236BD5F808A0216B8B42F9D1D4F8B41CC3
:10ABD0008A45F5D8D4F8B09C00FB09F1A1EB0A0135
:10ABE000B1FBF9F100FB03139B1AB3F57A7FE0D3B5
:10ABF000BCF1010CC2D10BF1FF3616F0FF0B7FF454
:10AC000049AFBDE8F88FEFF3118988F31288D5F8C2
:10AC100008A02B68DB0344BFC4F8AC6CD5F808A0CF
:10AC2000236BD4F8AC1C5FFA89F989F31188D4F846
:10AC3000B09C0B4400FB09F1A1EB0A01B1FBF9F157
:10AC400000FB0313D0E7EFF3118E88F31288D5F8D9
:10AC500008A02B68D90344BFC4F8ACCCD5F808A031
:10AC6000236BD4F8AC1C5FFA8EFE8EF31188D4F8F7
:10AC7000B0EC0B4400FB0EF1A1EB0A01B1FBFEF1BD
:10AC800000FB03135AE7EFF3118188F31288D5F81C
:10AC900008902B68DA0344BFC4F8AC6CD5F8089070
:10ACA000236BD4F8AC2CC9B281F31188D4F8B01C52
:10ACB0001A4400FB01F3A3EB0903B3FBF1F300FB20
:10ACC000023276E7EFF3118188F31288D5F808E0B5
:10ACD0002B68DB0344BFC4F8ACCCD5F808E0236B89
:10ACE000D4F8AC2CC9B281F31188D4F8B01C1A4442
:10ACF00000FB01F3A3EB0E03B3FBF1F300FB023205
:10AD0000FDE6D4F8A83C002B3FF433AFD4F8943CD4
:10AD10001E6084F8A56C2CE7D4F8A83C002B3FF407
:10AD2000CCAE39F073F8C8E6C02A002000ED00E090
:10AD300010E000E010B4B8B10D4CD4F8B83C102BC2
:10AD400005D15DF8044B0521002038F017BD03EB59
:10AD50004302224482F8BD1C01210B4482F8BC0C42
:10AD600082F8BE1CC4F8B83C5DF8044B704700BFC5
:10AD7000C02A002070B5464E96F8EC4C04EB440314
:10AD800006EBC303650093F8F03C032B6ED8DFE8B5
:10AD900003F059291E02254406EBC505D5F8F40C2D
:10ADA000002870D196F8503D9C425FD0013404F0E9
:10ADB0000302934286F8EC2C58D002EB420406EBD7
:10ADC000C4040223C4F8F40C84F8F03C70BD2B19C1
:10ADD00006EBC303D3F8F42C72B1013AC3F8F42C98
:10ADE000002070BD2B1906EBC303D3F8F42C002A06
:10ADF000F3D1022283F8F02C254406EBC50595F823
:10AE0000FC3C013BDBB285F8FC3C8BBB214B96F84C
:10AE1000506DD3F81C11D5F8F80C621C02F0030237
:10AE20004B1E0324B242034485F8F04CB3FBF1F00F
:10AE3000C5F8F40C1AD0994218D80138C5F8F40CAA
:10AE4000012070BD3EF078FE80B1124B2C44D3F847
:10AE50001C2106EBC404012102F51C5384F8F01CEC
:10AE60000F33B3FBF2F3C4F8F43C70BD012070BDA6
:10AE7000084BD3F81C21012002F2E733B3FBF2F3B5
:10AE8000C5F8F43C70BD0138C5F8F40C002070BD65
:10AE9000C02A0020980100202DE9F04FAF4EB04DA0
:10AEA00095B0002304460F464FF4F072202106F6B9
:10AEB0005450019486F8513D86F8523D54F051FBB0
:10AEC000202106F634704FF4F07254F04AFBA54985
:10AED000BB4632244FF0100C4FF47A7001276B6898
:10AEE000C3F30803002B40F0B780EFF31183002B6E
:10AEF00040F0B280326BD1F80880336B9A42F9D1BE
:10AF0000D6F8B43C9845F5D8D6F8B09C00FB09F3C8
:10AF1000A3EB0803B3FBF9F300FB02326B68C3F346
:10AF20000803002B78D1EFF31183002B74D1336B1E
:10AF3000D1F808A0D6F830804345F8D1D6F8B48CC3
:10AF4000C245F4D8D6F8B09C00FB09F8A8EB0A0873
:10AF5000B8FBF9F800FB03839B1AB3F57A7FDDD3C6
:10AF6000013CBCD1804C627F002A50D0A37F013BC2
:10AF7000022B4CD803EB830504EBC50104F1B800A8
:10AF800091F8B8C000EBC500BCF1020F4FF001050D
:10AF9000206284F8A85000F0A882DBB204EB03130F
:10AFA000D3F83031C1F8BC308BB302204FF480733A
:10AFB00081F8B800A1F8C43004F1300004F16C034A
:10AFC000C1E934031509013D032D02F00F0200F21F
:10AFD0007082DFF8A08108EB4503988D40FA02F3F8
:10AFE000DB0740F16682012303FA02F2013A1040C6
:10AFF000454452F01DF895F834205C4B104403EBA7
:10B00000C000A0628379002B46D0412B44D06FF062
:10B01000010015B0BDE8F08FEFF311898CF31288B1
:10B02000D1F808A00B68DB0344BFC6F8AC7CD1F8AC
:10B0300008A0336BD6F8AC8C5FFA89F989F31188D4
:10B04000D6F8B09C434400FB09F8A8EB0A08B8FB0B
:10B05000F9F800FB03837FE7EFF311888CF3128884
:10B06000D1F808900B68DA0344BFC6F8AC7CD1F87D
:10B070000890336BD6F8AC2C5FFA88F888F3118807
:10B08000D6F8B08C1A4400FB08F3A3EB0903B3FB1A
:10B09000F8F300FB023241E72323C380092138F093
:10B0A00085F8A36A13B11A689B881383D6F8802A9F
:10B0B0002F4BB3EB920F80F01E82B3EBD20F80F0D8
:10B0C0001C82B3EB121F80F01D82B3EB521F80F085
:10B0D0001E82B3EB921F80F01F82B3EBD21F80F071
:10B0E0002082B3EB122F80F01E824FF48072002377
:10B0F0000DF10D01FF20A2840122CDE90413CDE959
:10B100000833CDE90A33216A8DF80D000D930692BC
:10B110008DF81C208DF83020EFF31180102383F37D
:10B120001288236A1B6A002B00F0C681069B04ADBF
:10B130002A461BB1D3691432002BFBD10B6A002BBA
:10B1400000F00882996839B99A4218D0196899B103
:10B150005B6899680029F7D01433F3E7C02A002010
:10B1600000ED00E010E000E0B83B0020B833002024
:10B17000404B4C0004F60508AF4AC3E90025C0B2B5
:10B1800080F31188216A0B6A002BFCD18C220120EC
:10B19000CDE908330DF10E080DF10F0A05938DF876
:10B1A0001C300D93109312938DF80E200023002273
:10B1B000CDE90E23CDF8108006900B908DF830006D
:10B1C0008DF84400CDF828A0EFF31180102383F30D
:10B1D0001288236A1B6A002B00F07781069B2A469F
:10B1E0001BB1D3691432002BFBD10B6A002B00F08A
:10B1F000B181996839B993420AD0196829B15B685D
:10B2000099680029F7D01433F3E78B4AC3E9002586
:10B21000C0B280F31188226A136A002BFCD19DF81A
:10B220000F301B2B40F08781A36A012286F8512D35
:10B230000BB12322DA80DFF80092402248460A212F
:10B240003EF0A4FB8A21002301228DF80E1000207D
:10B250000021CDE90E01CDE90833216ACDF8108037
:10B26000CDF828A005938DF81C300D931093129300
:10B2700006920B928DF830208DF84420EFF3118068
:10B28000102383F31288236A1B6A002B00F02581A8
:10B29000069B2A461BB1D3691432002BFBD10B6AE3
:10B2A000002B00F05481996839B9934209D019688C
:10B2B00029B15B6899680029F7D01433F3E7C3E933
:10B2C0000095C0B280F31188226A136A002BFCD16A
:10B2D0009DF80F20217FC2F3801284F8602100299D
:10B2E00000F0CA80022900F0AD80D6F8803A5349B8
:10B2F000B1EB930F80F01981B1EBD30F80F0FF8099
:10B30000B1EB131F80F00081B1EB531F80F001817E
:10B31000B1EB931F80F00281B1EBD31F80F0088165
:10B32000B1EB132F34BF4FF4807C4FF0800C96F8B4
:10B33000C816A4F862C118290ED14149A6F8CCB6A6
:10B340005B08B3FBFCF3A1FB03135B0BA6F8CE2653
:10B35000A6F8D0C6A6F8D2363748A4F824C00222F0
:10B3600000213EF013FBC82038F050FB206A4FF05C
:10B37000800B0026002700230122CDE90E67CDE9CE
:10B3800008338DF80EB0CDF81080CDF828A00593C5
:10B390008DF81C300D931093129306920B928DF83A
:10B3A00030208DF84420EFF31181102383F31288AD
:10B3B000236A1B6A002B36D0069B2A461BB1D36931
:10B3C0001432002BFBD1006A002800F0BD80836896
:10B3D0003BB9824209D003682BB140688368002BD7
:10B3E000F7D01430F3E7C0E90095C9B281F31188B2
:10B3F000206A036A002BFCD19DF80F3013F0020382
:10B40000B9D1019841788278007884F86401C1F15B
:10B410002001C2F11002184684F8651184F86621F3
:10B4200015B0BDE8F08F0562C9B281F311880248FA
:10B4300050F0FEFDDCE700BFD83B0020809698006E
:10B440005917B7D1D6F8803A4448B0EB930F79D268
:10B45000B0EBD30F53D2B0EB131F55D2B0EB531F49
:10B4600057D2B0EB931F59D2B0EBD31F34BF4FF07C
:10B47000800C4FF0400C5AE7D6F8803A3849B1EBCF
:10B48000930F52D2B1EBD30F39D2B1EB131F3BD292
:10B49000B1EB531F3DD2B1EB931F3FD2B1EBD31FA2
:10B4A00046D2B1EB132F34BF4FF4807C4FF0800CA9
:10B4B0003DE70020A062F1E504ADC0B20D6280F36B
:10B4C0001188284850F0B4FD5CE60D62C0B280F3EC
:10B4D0001188244850F0ACFD9DE60D62C0B280F3A7
:10B4E0001188484650F0A4FDEEE691F8C5302B4493
:10B4F00081F8C53066E50222F9E50422F7E54FF050
:10B50000040C14E70822F2E54FF0080C0FE71022B4
:10B51000EDE54FF0100C0AE72022E8E54FF0200C93
:10B5200005E74022E3E58022E1E54FF0020CFEE66C
:10B530004FF0400CFBE6A06A202137F037FE4FF0B9
:10B54000FF3066E58C46F2E6C0F80090FFDEC3F8F7
:10B550000090FFDE034A1A60FFDE00BF002D3101BC
:10B56000404B4C00D83B002038B50C4C0546A11C84
:10B57000D5224CF0FDFC2B68A342C5E90043A3EBA8
:10B5800004000AD004F14002611C2960237802F80B
:10B59000013BD5E90041A142F6D138BD203D002054
:10B5A000F0B40D6800240CE0BCF1050F18D8A0F130
:10B5B00037030A2B14D104EB840415F8010B03EBB9
:10B5C0004404A0F13003DEB2092EA0F16107A0F11E
:10B5D000410CF0D9052FE7D8A0F157030A2BEAD088
:10B5E0000D601460F0BC704710B5204B84B0C824C7
:10B5F00003F5D47103F269122128CDE9022183F801
:10B60000684118D00CD802281ED0082825D102A8DD
:10B61000019009F06FFF0198FFF7A6FF04B010BD7D
:10B6200029281AD102A8019009F01AFE0198FFF703
:10B630009BFF04B010BD02A8019009F05BFE0198C9
:10B64000FFF792FF04B010BD02A8019009F0A2FF1D
:10B650000198FFF789FF04B010BD02A8019009F01E
:10B66000BFFE0198FFF780FF04B010BDB83B00207B
:10B67000014488420ED010B40346074C074813F823
:10B68000012B04FB00F0994280EA0200F7D15DF83B
:10B69000044B70470148704793010001C59D1C8110
:10B6A000094B93F85637042B08D9053B032B08D8D0
:10B6B00001231A4600B1037010467047002301228F
:10B6C000F8E700231A46F5E7C02A00209FED727ABA
:10B6D00007EE901A20EE070AF8EE677A27EE800A46
:10B6E000FDEEC07A17EE903A2033402B00F2C48072
:10B6F000DFED6A7AB4EEE70AF1EE10FAF0EE407A86
:10B700000CDD9FED676ADFED676AB0EE677AB4EE35
:10B71000E67AF1EE10FA77EEC67AF6DC9FED627A01
:10B72000F4EEC77AF1EE10FA0CD59FED5D6ADFED0D
:10B730005F6AB0EE677AB4EEE67AF1EE10FA77EE71
:10B74000867AF6D49FED5A7AF4EEC77AF1EE10FAC3
:10B7500000F38A809FED577AF4EEC77AF1EE10FA83
:10B7600044BF9FED517A77EE677A27EEA76ADFED47
:10B77000525A9FED527ADFED526AA6EE257A67EEB5
:10B78000865AE6EE076AB6EE007AE5EEA67A27EE6E
:10B79000877ADFED476A70EE267ABDEEE76A16EE2D
:10B7A000103A2033402B64D8B4EEE60AF1EE10FADA
:10B7B0000CDDDFED3B5A9FED3B6AF0EE676AF4EE7D
:10B7C000C66AF1EE10FA77EEE57AF6DCDFED366A5E
:10B7D000F4EEE67AF1EE10FA0CD5DFED315A9FED7A
:10B7E000336AF0EE676AF4EEC66AF1EE10FA77EEAD
:10B7F000A57AF6D4DFED2E6AF4EEE67AF1EE10FAD1
:10B800003DDDDFED266A76EEE77A67EEA75A9FED1B
:10B810002A5A9FED2A6ADFED2A6AA5EE856A27EE8D
:10B82000A55AE5EE866AB8EE006AE5EE267A67EE7E
:10B83000867AC7EE206AB7EE006A76EE865A76EE12
