:020000040800F2
:1000000000000120A9AA050845AB0508D530040861
:100010003931040845AB050845AB05080000000070
:1000200000000000000000000000000045AB0508D3
:1000300045AB05080000000045AB050805DA0308DC
:1000400045AB050845AB050845AB050845AB0508BC
:1000500045AB050845AB0508993204089132040800
:10006000893204088132040879320408199B050892
:10007000099B0508F99A0508E99A0508D59A050823
:10008000C19A0508AD9A050845AB050845AB0508BA
:1000900045AB050845AB050845AB050871320408BA
:1000A000897B0508817C0508797B0508A97C050802
:1000B000717C0508617C0508517C0508999E05083E
:1000C000A59E0508819E05088D9E050845AB05087F
:1000D00045AB05089DDA03088DDA03087DDA0308CD
:1000E0006932040845AB050845AB0508697B05087E
:1000F000997B050845AB0508C17B0508999A050859
:1001000045AB0508E56D0508417C050845AB0508CC
:100110006DDA03085DDA0308D17B0508C9DB000846
:10012000859A0508719A05085D9A0508499A050897
:10013000359A0508000000000000000000000000E3
:1001400000000000000000000000000061E0000866
:10015000219A05080D9A0508F99905084DDA030852
:10016000699E0508759E050845AB050845AB050861
:1001700045AB050845AB0508000000000000000085
:1001800045AB050845AB050845AB050845AB05087B
:1001900045AB050845AB05080000000045AB050868
:1001A00000000000000000000000000045AB050852
:1001B00045AB050845AB0508000000000000000045
:1001C000000000000000000000000000000000002F
:1001D00000000000000000000000000045AB050822
:0801E00000A60500010000006B
:1001E8000E0201000200000080520120E0520120AE
:1001F80000000000782C0708140201000500000028
:10020800242B0120E4520120000000007A2C07086A
:10021800031101000A00000034520120EC520120B1
:1002280000000000310F0108232001001000000029
:1002380004520120F852012000000000916C0208CD
:100248000D100100700000008C510120085301209E
:1002580000000000BD560308FD0101002400000055
:100268001051012078530120000000008BC10308C1
:10027800FB01010001000000CC5001209C5301202B
:10028800000000007DBC0408FC010100090000001A
:10029800984F0120A05301200000000085BC0408ED
:1002A800F7010100060000006C4F0120AC5301204B
:1002B80000000000802C0708F9010100040000007C
:1002C8005C4F0120B453012000000000F9C103086D
:1002D8003400010010000000884E0120B8530120AE
:1002E8000000000029740208110201000800000043
:1002F800604E0120C853012000000000862C07082A
:100308001212010004000000584E0120D0530120B1
:10031800000000008E2C070818300100340000008F
:10032800244E0120D45301200000000081C5040898
:10033800000201000B000000A84A01200854012017
:1003480000000000C9BC0408FF21010005000000EE
:10035800504A0120145401200000000011BC040878
:1003680008120400140000005C4A01201C540120FB
:100378000000000021BC0408130201000400000072
:100388001C2B01203054012000000000922C07088B
:10039800FA01010003000000B04901203454012093
:1003A800000000009DBC04082A02010008000000AB
:1003B800A44901203854012000000000962C0708A9
:1003C80020520100080000005C490120405401202F
:1003D800000000004D74020806100100240000000F
:1003E8003849012048540120000000001DBD0408C0
:1003F8000C02010004000000D44701206C540120C5
:1004080000000000E9BC0408FE010100140000001F
:10041800643401207054012000000000D1BC04089D
:100428000B3001001A000000B48E0120BC9001209E
:1004380000000000A02C07081F5001002400000045
:10044800788E0120D890012000000000BC2C0708FD
:100458000502010004000000288F0120FC90012003
:1004680000000000E02C07081B2001000C00000021
:1004780014940120AC9E012000000000A97401081A
:1004880021020100F000000044920120B89E0120E2
:1004980000000000958C01083710010030000000B2
:1004A800CC9B0120A89F012000000000E42C070835
:1004B8001610010006000000C8950120D89F0120F1
:1004C80000000000142D07082F1001002200000072
:1004D800889E0120E09F0120000000001A2D0708D7
:1004E80023220100100000003495012004A00120FF
:1004F800000000003C2D07081E0001000900000054
:100508001C95012014A00120000000004C2D0708B4
:10051800052001000C000000A495012020A0012066
:1005280000000000582D0708FD0701007C000000AE
:10053800089101202CA0012000000000196E01087C
:10054800F59101006C000000C8910120A8A00120CD
:1005580000000000B98B0108261001000E00000001
:1005680024A1012014A10120000000001D6C010835
:1005780012300100100000000495012034A1012070
:1005880000000000642D07081400010005000000A9
:100598009CB40120C0B4012000000000742D07089D
:1005A800012001000C00000084A90120C8B401202A
:1005B800000000007A2D07080C400600E400000047
:1005C80038A80120D4B40120000000009DFF0208D3
:1005D8000A90010024000000F4A70120B8B501200A
:1005E80000000000496C02080E300300BC01000046
:1005F80030A60120DCB50120000000006974020863
:10060800131001000400000028B2012098B701204F
:1006180000000000882D0708010101000400000007
:1006280068A501209CB70120000000000000000020
:10063800000101000400000060A50120A0B701200E
:10064800000000008C2D07080201010003000000D3
:100658005CA50120A4B7012000000000E1FF02080A
:10066800220201001C01000074AF0120A8B701207C
:100678000000000039C50408010201000B00000059
:1006880074A50120C4B8012000000000B9BC04080A
:10069800020201000300000000AA0120D0B80120D6
:1006A80000000000000000001B0201001000000014
:1006B800D8A90120D4B801200000000009BD040811
:1006C8001500100070000000B8C5012078C6012090
:1006D80000000000000000002A0008006000000080
:1006E800C8C40120E8C60120000000000174020807
:1006F8002C0004001000000058C7012048C7012042
:1007080000000000DD7202082920140078000000B3
:1007180048C2012068C70120000000000000000056
:100728001A0001000E000000F0C10120E0C70120FE
:1007380000000000902D07082B0012002400000084
:10074800CCC10120F0C7012000000000B1720208EE
:10075800190201001000000080C0012014C8012007
:1007680000000000A9BC04081C0202001C000000D4
:10077800B4BE012024C80120000000001DC30408E5
:100788002830010016000000D0BE012040C801201A
:1007980000000000657502080A020100140000004C
:1007A800E0D20120F8D201200000000069FF020811
:1007B800101001000200000064CC01200CD30120BD
:1007C800000000009E2D0708F83101000600000017
:1007D80070CD012010D3012000000000A02D0708D3
:1007E800030001000100000080CD012018D3012082
:1007F80000000000000000001900010005000000D2
:100808001CCC01201CD3012000000000A62D0708E5
:10081800020001000C000000A4D4012080D60120B1
:100828000000000000000000F62101000C0000009C
:1008380040D601208CD6012000000000AC2D07080E
:1008480025201E002C010000B0D4012098D60120DC
:100858000000000000000000290201004000000024
:1008680060D30120C4D7012000000000B82D07087C
:100878002C0201000400000030D4012004D801201B
:1008880000000000F82D07082802040004000000FA
:10089800C0DF0120D0E501200000000005BD0408EC
:1008A8002702040004000000BCDF0120D4E5012079
:1008B80000000000F9BC0408160215003F00000003
:1008C800B0D80120D8E5012000000000A5BC04082C
:1008D8001A0201003C00000074D8012018E601202B
:1008E80000000000DDC50408031201003D000000FF
:1008F800F8E1012054E6012000000000FC2D070863
:10090800382001000300000040D8012094E60120AF
:10091800000000003A2E07080400080080000000CC
:1009280058E70120D8E8012000000000000000007E
:100938000B2201003D000000F0E9012028F301200E
:1009480000000000402E07080D12010014000000EE
:1009580080EF012068F3012000000000802E0708C6
:100968001E02010006000000D4E901207CF30120EA
:1009780000000000942E07081D0202000600000077
:1009880020EF012084F30120000000000000000097
:10099800061204001800000028EF01208CF3012043
:1009A80000000000F1C304081F0208001000000046
:1009B800B4F30120A4F3012000000000C9BB04081F
:1009C800270001000400000030EA0120C4F30120E0
:1009D800000000009A2E0708100201000100000024
:1009E8002817022024170220000000009E2E070866
:08280000082800080040000850
:10800000026C03463AB11A6CD20608D50022012050
:1080100083F83C207047426480F83C20F3E71A6CF8
:1080200049494A4811401A6841F00201F0B4196404
:108030004168474D21F44031416041685C6821430B
:1080400041605168186921F48071D3F808C0DF6875
:10805000516054689E6A44EA0024AE4254605468F9
:1080600024F040745460506840EA0C0050609068FE
:1080700020F400609060916841EA0701916054D05B
:108080009068DC6A20F07060906091680E439660A2
:10809000906820F040509060916821439160906812
:1080A0009C6920F002009060916841EA440191606F
:1080B00093F82010002941D05468596A44F40064B0
:1080C000481E5460516821F460415160516841EA92
:1080D00040315160D06A0025DC6920F470005E698F
:1080E000611ED0622846D46A44EA0154D46294687E
:1080F00024F400749460946893F8301044EA4124A6
:108100009460946824F480649460916841EA8621C4
:1081100091605D641A6C22F0030242F001021A645D
:10812000002283F83C20F0BC7047916821F0706118
:108130009160916821F040519160B0E7516821F45D
:1081400000615160C6E700BFFDEEFFFF0023014064
:108150000100000F0129F0B42A4C4FF000062A4D0F
:1081600094BF002701272368EE626662A6626763F8
:10817000676B47EA42076763EE63EC6B002A38D10E
:1081800044F49574EC631C6824F001041C601C68C2
:10819000E407FCD4490289085960D8601968EAB933
:1081A00021F04001196019498B421DD018494FF444
:1081B0007410C860196841F01E011960596941F0D6
:1081C00080015961196841F00101196022B90E4A14
:1081D000D36A43F00803D362F0BC704741F040011A
:1081E00019600A498B42E1D14FF0746041F8500C9C
:1081F000E0E744F01A04EC63EC6A44F00804EC6233
:10820000C1E700BF60190120002C01405864024002
:108210000064024011480023024611780632032907
:1082200016D00133062BF8D10D49CA6D052A0ED0A0
:1082300002EB4203013200EB4303CA65032040F224
:10824000EB3140F2FF32187059809A8070477047C6
:1082500003EB430300EB4303F0E700BF9819012051
:1082600060190120124B30B41D6E6B6A28B943EAC5
:1082700001430020AB6230BC7047AC6A013803EBAD
:1082800014440BD0002303F14002013305EB8202BA
:10829000DBB25268834204EB1244F4D3403044EA28
:1082A000014405EB80004460002030BC704700BFF3
:1082B00060190120037870B42BB30246C0F10105A8
:1082C000531912F8014FDBB2002CF9D101335B00D6
:1082D0000E4C03220B8084F8643484F86524017802
:1082E00079B1022300265A1CE518023354FA82F2AF
:1082F00085F86414DBB282F8646410F8011F002969
:10830000F1D170BC70470223E2E700BF6019012081
:10831000826D136A5B681B78FF2B08D090F8F030F1
:10832000013BDBB280F8F0301BB101207047002028
:108330007047126A0220526813707047F0B40F4BF6
:10834000C40800F0070700221E5D03EBD005BE4005
:10835000F6B2C7F1080300278B4228BF0B46C3F1D2
:1083600008049A40C91A46FA04F415F8016F42EA63
:108370000402EED11046F0BC704700BF041F01207C
:1083800030B5EFF31181802383F312880A4AD2F8C3
:108390005836D2F85C46D2F85806D2F85C56CAB2C3
:1083A00082F31188013BA84294BF4FF40060002083
:1083B0001B1B184430BD00BF60190120012380F849
:1083C00051307047014BD3F86006704760190120A7
:1083D00001207047024BC3F86426C3F86816704743
:1083E00060190120024BC3F86C26C3F87016704761
:1083F0006019012070477047212870B505D02228E8
:1084000029D0202810D0002070BD0029FBD0072AD9
:10841000F9D1184B18791C685A799B79087100209A
:108420000C604A718B7170BD0029ECD0072AEAD12B
:108430001148104B0C680E794D79D0F8682689796F
:108440001C601E715D719971002ADCD02146D0F844
:1084500064069047D7E70029D5D0022AD3D1064A2F
:10846000D2F87036002BCED00988D2F86C06984727
:10847000C9E700BF000001206019012000207047FB
:1084800003460A2201481A80704700BF08000120F5
:108490000346642201481A80704700BF140001207F
:1084A000012901D000207047014BD3F890301847C4
:1084B00000000120012901D008F092B9014BD3F846
:1084C0008C30184700000120014BD3F88830184742
:1084D0000000012010B40B780A46044603F00303A1
:1084E000012B05D0022B0BD000205DF8044B704708
:1084F0008B8843B9204611465DF8044B0CF0BEBA98
:108500008B88832BF6D0034B5DF8044BD3F8803077
:10851000184700BF0000012038B5054B04460D4642
:10852000DB6F98472946204608F014FF002038BD2D
:108530000000012038B5054B04460D469B6F984757
:108540002946204608F03EFF002038BD00000120EB
:10855000F0B4002452004E1C2746030FB0F1204F08
:108560004FEA001003F1300503F1370334BF0D5516
:108570000B5537550234A242EFD1F0BC704700BF13
:10858000024808B5FFF796FE014808BDB85806082E
:10859000C41D0120024808B5FFF78CFE014808BD44
:1085A000C8580608C41D01200B481A220B4B00684E
:1085B0001B680A80C01801D109487047094B08227E
:1085C000094910B51C68FFF7C3FF0422074920467C
:1085D000FFF7BEFF024810BD107AF01F187AF01F97
:1085E000B0000120147AF01FB2000120C200012067
:1085F000024808B5FFF75EFE014808BDD4580608DA
:10860000C41D0120024808B5FFF754FE014808BD0B
:10861000E0580608C41D0120042301480B80704760
:10862000CC00012000487047EC1E01200048704734
:10863000EC1E0120034B93F88805032894BF00200B
:108640000120704760190120034B93F88805032827
:1086500094BF00200120704760190120034B93F85C
:108660008805003818BF0120704700BF601901203D
:10867000034B93F88805003818BF0120704700BFEE
:108680006019012098B182680C4B12B107229A70D0
:10869000704718780421DA6003281A611A750CBF34
:1086A00080224FF480729970C3E901227047034B16
:1086B000012241F2E4715A705A54704784740120C7
:1086C0000378022B0FD0006908B9012070470E4BC8
:1086D0001B78032B12D080B24FF6F773984294BFE9
:1086E000002001207047084941F6500243688A582B
:1086F000B3EB422F2CBF012000207047034B984260
:1087000094BF00200120704784740120F7FFFF0F01
:1087100030B40378022B13D0104A41F64801436865
:1087200041F63C04555802F5C25100692B400968D6
:10873000023812595B0A01FB003030BC104470470C
:10874000064B41F6300441F6340142681859595835
:1087500000EB410030BC00EB5220704784740120D4
:10876000826D0346126A52681278FF2A0AD190F885
:10877000F020002A02F1FF3214BF0120022083F80A
:10878000F02070470020704738B540F48062074CF5
:108790000B4640F2FF55012100F03F00A563A360A6
:1087A000E2604EF071F9A56338BD00BF002C0140B6
:1087B0002DE9F843884600294FD04718461E284C1B
:1087C000802507F1FF39EFF3118185F31288D4F882
:1087D0005826C9B2D4F85C06D4F85836D4F85CC62A
:1087E00081F31188634594BF4FF400630023121A8C
:1087F0001344012B1AD1012035F0FAF8EFF311815F
:1088000085F31288D4F85826C9B2D4F85C06D4F897
:108810005836D4F85C7681F31188BB4294BF4FF48C
:1088200000630023121A1344012BE4D0EFF31182EA
:1088300085F31288D4F85C36D2B216F8011F2344AF
:1088400083F87416D4F85C360133C3F30A03C4F812
:108850005C3682F311884E45B5D14046BDE8F883B9
:1088600060190120F8B5002390F8505080F850307E
:10887000CDB10F4941F2E8028A5C032A15D10D4EB1
:1088800000F13C04B76A29462046FFF791FFB36A1E
:108890002D1A0444DB1B322B01D8002DF3D1B5FA7D
:1088A00085F04009F8BD0120FCE71846FAE700BF53
:1088B00060190120582A0120002280F85120D1E7B8
:1088C00090F85020531C0244DBB280F8503082F8FC
:1088D0003C1090F851200AB1132B00D9C2E7704721
:1088E000F8B5144641F2E803094A0D46D35C032B60
:1088F0000DD1084EB76A002C09DD21462846FFF746
:1089000057FFB36A241A0544DB1B322BF3D9F8BD99
:1089100060190120582A012010B5074C04F2BC5000
:108920003BF07AF80A2035F057F8D4F8C405BDE8D2
:10893000104037F0ABBE00BF6019012030B50023F6
:108940008DB0124A082102930DF107058DF81430FD
:108950000124099302F2BC508DF828300B9382F861
:1089600054166944CDE90733094BCDE90354069306
:108970003AF016FE07483BF04FF89DF80700A0F1CB
:10898000FF00B0FA80F040090DB030BD6019012041
:10899000118300081C1F0120F0B503798BB0284C0F
:1089A000002B14BF0122002284F8B42503D184F8DF
:1089B00088350BB0F0BD04F2BC56054690F90010A6
:1089C00030463AF0F1FEAD7875BB01271D4B1E48CD
:1089D000C4F85036C4F8C45584F8C8753AF022FF7C
:1089E00003464FF47A70A4F8C03535F001F8D4F896
:1089F000C40537F04BFE28226846002154F060F988
:108A00000A236946304602933AF0CAFD30463BF0ED
:108A100003F80E4B002284F888759B6A84F87C2545
:108A2000C4F878350BB0F0BD284637F03FFD054659
:108A300008B11E23C3800D21284637F0C1FDC4E7CD
:108A400060190120C41E0120801A0600582A012046
:108A500070B5952592B0044640F0400601AA080C76
:108A60008DF809500D0E8DF80810090A00238DF8B5
:108A700005508DF8060006250DF103008DF807104E
:108A800003920121174A8DF8046004938DF8183081
:108A90008DF82C300F938DF84030119305950C9282
:108AA000CDE90733CDE90D33CDE90901FFF746FFE5
:108AB00024B180F0010010F0FF0F10D10A4C082300
:108AC00003A904F2BC5084F854363AF069FD04F26C
:108AD000BC503AF0A1FF9DF8030012B070BDFF201A
:108AE00012B070BD618700086019012030B5002305
:108AF0008DB0104A014602930DF107058DF8143030
:108B00000124099302F2BC508DF828300B9382F8AF
:108B1000541602A9CDE90733074BCDE90354069358
:108B20003AF03EFD05483AF077FF9DF807000DB09A
:108B300030BD00BF60190120618700081C1F0120A3
:108B400070B590B01C4D0024FD220DF103030126E9
:108B500001A905F2BC508DF803200693C5F88445A1
:108B60008DF81040059407948DF824408DF8384016
:108B70000F9403960896CDE90144CDE90A44CDE966
:108B80000C443AF00DFD05F2BC503AF045FF30467A
:108B9000FFF7ACFFFF2809D0084A20460923926A54
:108BA00085F88835C5F8782510B070BD04230220FB
:108BB00085F8883510B070BD60190120582A012051
:108BC00070B5064690B008200D46FFF78FFFFF28CE
:108BD00022D0FE2802D0022010B070BD0024022353
:108BE00001A90F48089301948DF8104007948DF85F
:108BF00024408DF838400F94CDE90265CDE9054455
:108C0000CDE90A44CDE90C443AF0CAFC04483AF0F4
:108C100003FF204610B070BD012010B070BD00BF32
:108C20001C1F01202DE9F84F484B98420FD003F547
:108C30006853083398424DD00023454A1846A2F89D
:108C40009430A2F8A030C2E92633BDE8F88F404C3A
:108C5000022300263F4F04F13005DFF80481E36270
:108C6000D7F8D0303146B34206F1010603D0D4F82C
:108C7000B00047F059FC94F8B4302846D4F8B0203E
:108C8000414685F82430303545F8102C47F060FE19
:108C9000E36A9E42E4DB002384F8A230E36A012009
:108CA000E16BA28EA56B12FB03F201FB03F3B4F898
:108CB0004060A4F89420C4F89C30E28E264BC4F89F
:108CC000C010C4F89850A4F8A060A4F89620C4F886
:108CD0009030BAE71E4C02224FF0000B1D4F04F1FA
:108CE00030054FF4806A4FF040094FF40068E262AB
:108CF000D7F8D020012659465A45B34403D0D4F8BA
:108D0000B00047F011FC4FF00062D4F8B0104FF4FF
:108D1000003094F8B4C0296285F824C0A5F804A0F6
:108D2000A5F81090A5F80680AE74C5E90202FFF719
:108D300071FA28466E7647F057FDE26A074B934575
:108D400045F8303BD4DB84F8A260A7E71971EF0047
:108D5000582A012000000120DCCF0508B0CF05080B
:108D60001940EF0010B50C4647F00EFA50B9074B0A
:108D700093F8C430012B4FF012030CBF0448054890
:108D8000238010BD12230448238010BD582A0120DF
:108D9000FC000120E8000120D40001202DE9F84367
:108DA0001C4C05468946904694F888651F46042E5B
:108DB00008D0082E02D00020BDE8F883FFF7C0FEDF
:108DC0000228F8D1D4F8C40537F05AFC94F87E355F
:108DD000B3B969021120FFF73BFEB8B90E4A05236B
:108DE0000120C4F86495926AC4F86855C4F8708587
:108DF000C4F87475C4F8782584F88835BDE8F8831C
:108E000029461120FFF724FE0028E7D0FFF784FD54
:108E1000D1E700BF60190120582A012010B50D4C80
:108E2000002394F85626C4F8843512B10A4AC2F8D1
:108E3000C8304EF035F820B10423022084F888357C
:108E400010BD054A0923926A84F88835C4F878254C
:108E500010BD00BF60190120582A012070B50F4DC8
:108E600004460E4695F88835042B0BD0082B07D105
:108E7000D5F8803583420ED0FFF7D0FF022801D00D
:108E8000012070BD08230220C5F88465C5F880451F
:108E900085F8883570BD022070BD00BF60190120C3
:108EA00010B509F045FA104C58B194F88835032BE9
:108EB00013D894F87C350133DBB2072B84F87C356A
:108EC00003D9002384F8883510BD084B01229B6A22
:108ED00084F88825C4F8783510BD05483AF0A2FC1E
:108EE000A4F8C005E5E700BF60190120582A012059
:108EF000801A060070B51F4C06460D4694F888355A
:108F0000042B09D0082B25D1D4F8803583422FD0EB
:108F1000FFF716FE02281DD1D4F8C40537F0B0FBC8
:108F200000213720FFF794FD29461720FFF790FD19
:108F3000C0B994F87E357BB971021920FFF788FD1E
:108F400080B908230220C4F88455C4F8806584F8E9
:108F5000883570BD012070BD31461920FFF778FDBE
:108F60000028EED0FFF7D8FCFFF79AFF032070BD72
:108F7000022070BD6019012070B50379234C002BCD
:108F800014BF0123002384F8B43503D1002384F8EF
:108F9000883570BD1E4D0021032095F9CF203AF091
:108FA00011FA0028F2D0466830463AF037FA84F8D1
:108FB00055060028EAD095F8CD303046003B18BF62
:108FC000012384F856364FF03DFF09F0B1F938B966
:108FD00094F87C3584F88805013384F87C3570BDBD
:108FE0004EF038F840B194F87C350022013384F813
:108FF000882584F87C3570BDAA6A012384F87C0535
:10900000C4F8782584F8883570BD00BF6019012048
:10901000582A012010B54EF01DF858B10C4C94F8A8
:109020007C350133DBB2072B84F87C3503D9002370
:1090300084F8883510BD09F07BF90028F7D0054B7E
:1090400001229B6A84F88825C4F8783510BD00BFDA
:1090500060190120582A01202DE9F84F904C94F80E
:10906000B455002D00F0028194F8882502278D4E1A
:10907000531E082B3ED8DFE803F03436A73D66497F
:10908000153D05004DF00CFF002840F00181D4F89B
:109090007835B26AFA33934229D2FFF7BBFF94F8CE
:1090A0008825E5E74DF0FCFE0028F0D0D4F88435A3
:1090B0000022012B84F87C2540F2EE80D4F8801544
:1090C000013B94F856560131C4F88435C4F8801534
:1090D00015B1744BC3F8C8200823054684F88835B9
:1090E00011E084F888754DF0DBFE00284DD194F82E
:1090F0008825531EDBB2022B3CD9082A18BF042A4C
:109100000CBF012500252846BDE8F88F236B002BF6
:1091100037D1644B0722D4F870559B6A84F88825B0
:10912000C4F87835002DEED0D4F874350120D4F889
:109130006425D4F86815A847D9E7D4F87835B26A19
:10914000643393421DD2D4F82C80B8F1000FF4D1CF
:109150004DF0A6FE0028A2D00423D4F8705584F860
:109160007C8584F88835002D00F090804046D4F846
:109170007435DCE74B4BD4F878259B6A9B1AC82BD7
:1091800079D800252846BDE8F88F4DF01BFB002854
:10919000ADD196F8D130002BA3F10203B3FA83F3DB
:1091A00014BF022201225B0984F87D2584F87E35F4
:1091B0004DF008FB00287FF470AFD6F82021032380
:1091C000C4F88C2584F888354DF0FCFA00288ED13F
:1091D000344A4FF0040EC4F88405032392F804B116
:1091E000B2F80611D2F8080184F892B5D2F80871E5
:1091F0004FEA106CD2F80861A4F890153F0CD2F831
:1092000008A1360A92F80C9192F80D5192F80D01CE
:10921000D2F8108125FA0EF5B2F816B100F00F0061
:10922000B2F81611B2F81621C1F30B1184F893C5E8
:1092300002F00F0C84F8947541EA1B21724684F801
:10924000956501F00F0184F896A584F8979501F5CE
:10925000FA6184F89C5584F89D05C4F89885A4F8B3
:109260009E1584F8A0C584F888E543E7284684F86D
:109270008855BDE8F88FFFF7CDFE94F88855082D86
:1092800018BF042D0CBF012500253CE705463AE731
:10929000042384F8883536E7FAD1FFF7BFFD26E7C7
:1092A00060190120582A01202DE9F8430546884617
:1092B00017461E462A4C94F88805042835D00828FD
:1092C00007D1D4F88035AB4206D0FFF739FC02282D
:1092D000F1D00120BDE8F883FC22224BDFF88C900E
:1092E000214883F83021C9F838813AF087F90028FD
:1092F00009F588711C4814BF4FF400734FF4807354
:10930000C9F840313AF04CF9012206230020C4F894
:109310006485C4F86855C4F87075C4F8746584F839
:109320006C2584F88835BDE8F883D4F8C40537F097
:10933000A7F994F87E3553B969021820FFF788FB26
:1093400038B994F88835082BC6D0FE22C5E72946DF
:10935000F3E7FFF7E1FAFFF7A3FD0320BAE700BF49
:1093600060190120582A01201C1F01200000012043
:109370002DE9F04FD84C95B094F8B465002E00F06C
:10938000998194F8882504F2BC57DFF8508304F2E1
:10939000A459531E082B00F2A080DFE813F034001C
:1093A0005E0029019E008C00AF001B009E0009009A
:1093B000FFF7C4FA002840F05482D4F87835D8F882
:1093C0002820FA33934280F08580FFF769FD94F8F6
:1093D0008825DEE7FFF7B2FA0028EED0D4F884350E
:1093E0000022012B84F87C2540F26082D4F880258D
:1093F000013B082106460132C4F8843584F88815FB
:10940000C4F8802552E1D4F8C40537F039F90021B9
:109410000846FFF71DFB0546FFF77EFA012D59D1DF
:109420004FF0000AD4F8C40584F87DA537F028F978
:1094300040F2AB110820FFF70BFB052800F09081EC
:10944000012800F05181FFF767FA94F87D35002B71
:1094500000F02882022384F88835D4F8C40537F058
:109460000FF994F87D3500213720022B0CBF4FF007
:1094700080450D46FFF7ECFA29202946FFF7E8FA68
:109480000546FFF749FA2DBB94F87D35022B00F015
:10949000988184F87E55D4F8C40537F0F1F800219E
:1094A0000920FFF7D5FA002871D0FFF735FA94F8B4
:1094B0008825531E11E04FF40071D4F86405FFF7BE
:1094C0007FFB012800F03081022800F03581002860
:1094D00000F0618194F88825531EDBB2022B00F264
:1094E000DF807E4BD4F878259B6A9B1AC82B00F24C
:1094F000E7800026304615B0BDE8F08FD4F8BC35C3
:1095000077481D6A3AF07AF8002800F02C81B5FA05
:1095100085F56D09002DDDD004A800250DF10F03A0
:1095200002224FF0010A05A9059038460792ADF8CE
:10953000105006958DF820508DF834508DF8485015
:109540001395CDE90B3ACDE90955CDE90E55CDE995
:1095500010553AF025F838463AF05EFA9DF80F308B
:1095600003F01F03052B00F08581FFF799FCD4F869
:1095700070B5BBF1000F00F0F0802A465046D4F8D9
:109580007435D4F86815D84794F8882501E7102178
:109590004846FFF715FB8246002886D101217F202F
:1095A000FEF7CCFE012805467FF47FAF504602212E
:1095B000FEF7C4FE002800F0358101287FF475AF66
:1095C00016213A20FEF7BAFE01308002C4F88C055D
:1095D000FFF7A2F9D4F8C40537F052F800210A20A9
:1095E000FFF736FA002840F01681032384F8883507
:1095F000102105A8FFF7E4FA00287FF46BAF9DF86F
:1096000021309DF822201B019DF815009DF8165071
:1096100002F00F01DBB245EA0025DDF81D0043EA48
:1096200012139DF81C2000BA84F8A01503F5FA6304
:109630009DF81710C4F89805A4F89E3513099DF8F5
:10964000140002F00F0284F89C35069BA4F8905594
:10965000C4F8943584F89D2584F8920584F8931510
:10966000FFF75AF994F87E3573B9D4F8C40537F08A
:1096700007F84FF400711020FFF7EAF90546FFF7ED
:109680004BF9002D7FF4A1AE16483AF0CBF800223A
:109690000423A4F8C005C4F884251A4684F8883544
:1096A000082A18BF042A0CBF01260026304615B030
:1096B000BDE8F08F304684F8886515B0BDE8F08FBE
:1096C000FFF7EEFB94F88865042E18BF082E0CBF38
:1096D00001260026EAE700BF60190120582A012070
:1096E0001C1F012040787D01042304AA05A97748A6
:1096F00007930692CDF814A08DF820A08DF834A021
:10970000CDF838A0CDE909AACDE90BAA39F048FF78
:109710006E483AF081F99DF81330AB2B7FF493AE8D
:10972000022384F87D358EE6D4F87835D8F82820E1
:1097300064339342BFF4CEAEFFF7EEF8FFF7B0FB11
:10974000D4F870554DB10022D4F87435D4F86815AA
:109750001046A84794F888251BE694F8882518E653
:1097600084F87D556FE694F86C550246D4F864157C
:109770004FF48073384601EB05213AF033F994F841
:109780006C250132D2B2A2F1020584F86C25B5FA3B
:1097900085F56D09BEE60190FFF7BEF80423019838
:1097A000D4F8705584F87C0584F88835002D3FF492
:1097B0007DAFD4F87435D4F86425D4F86815A8477B
:1097C00088E6D4F8C40536F05BFF29463A20FFF757
:1097D0003FF904AA0423824605A9384605958DF869
:1097E00020508DF834500E95CDE90955CDE90B5533
:1097F000CDE9062339F0D4FE38463AF00DF9BAF136
:10980000000F08D1FFF788F8049B1BBAC3F38073DD
:1098100084F87E353FE6FFF77FF8FFF741FB94F8C9
:109820008825B6E504212C20FEF788FD0321824619
:109830004E20FEF783FD83460C213620FEF77EFD89
:109840000BF1020B421C05FA0AF502FA0BF2A2FB1D
:109850000501420A42EAC152C4F88C25FFF75CF8C0
:10986000B8E60190FFF758F80423019884F888358A
:1098700006461BE7164B0722D4F870659B6A84F8EE
:109880008825C4F87835002E3FF410AFD4F874352D
:109890005046D4F86425D4F86815B04794F8882564
:1098A000531E1AE61E4684F88835FFE608D00423C6
:1098B00084F88835FFF730F894F88825531E0CE6B5
:1098C000FFF73EF902287FF405AEEEE51C1F0120EC
:1098D000582A0120154BDB68C3F3022310B4C3F1EF
:1098E00007041A1D042C28BF0424062A4FF0FF3257
:1098F0008CBF033B0023A240002821EA020101FAA9
:1099000003F108DB09010A4BC9B2034483F80013D1
:109910005DF8044B704700F00F000901054BC9B218
:10992000034419765DF8044B704700BF00ED00E07A
:1099300000E100E0FCEC00E030B5264C00222648B7
:1099400041F28731D4F8743183B0244DA0FB030376
:1099500004F59A70C4F83451DB0C013BC4E9501291
:10996000C4E94E320CF06EFA1D4B062137201A6CFA
:1099700042F020021A641B6C03F020030193019B48
:10998000FFF7A8FFD4F834314FF400001549164A08
:109990004860D96841F00101D96099680A40062AF7
:1099A00006D0B2F5803F03D01A6842F001021A6077
:1099B0000E4B41F2041200200D499A5803F27464D0
:1099C000C3F87006C2F81002C3F86806C2E9811431
:1099D00003B030BD582A012083DE1B430014004031
:1099E0000038024000E100E007000100601901209A
:1099F000D02B012038B50F4B0F4AD3F87431A2FB9E
:109A000003239B09013BB3F1807F10D20B4A002452
:109A1000F0200B490725536081F82300214694600C
:109A20004FF0FF301560FFF755FF204638BD01208D
:109A300038BD00BF582A0120D34D621010E000E06D
:109A400000ED00E04309012200F01F0084B0013B5B
:109A500002FA00F0032B0BD8DFE803F015021E0C0E
:109A6000124B5A6C02435A645A6C10400090009B8F
:109A700004B070470D4B1A6B02431A631A6B104007
:109A80000390039BF4E7094B5A6B02435A635A6BEA
:109A900010400290029BEBE7044B1A6C02431A64DD
:109AA0001A6C10400190019BE2E700BF00380240B1
:109AB0002DE9F041D0F800E00C46DFF8588084B082
:109AC000DEF804501746DFF850C0194605EA0805CD
:109AD000DDF82880064603932C43424644EA0C0CEA
:109AE000CEF804C00AF0E2F878B931680246039B68
:109AF00030468F624021CDF800800AF007F9003827
:109B000018BF012004B0BDE8F081012004B0BDE819
:109B1000F08100BF009800FC00200180F8B5134FD1
:109B200004460D460AE09B69DB0602D50AF07EF882
:109B3000D0B9D7F878395B1B0A2B08D823682A4696
:109B40000A2120469E69B606EDD50020F8BD636C5B
:109B50002021002201200B4384F84020636484F814
:109B6000411084F84220F8BD0120F8BD582A012098
:109B700058B183884FF00042B3FA83F332FA03F30B
:109B800003D002490A6813430B607047003C014050
:109B90002DE9F04389B0884615461E46074639F040
:109BA00059FB041E25DB1C4A05F00303DFF8709007
:109BB0004FF0000C02EB8606224409EB840438685F
:109BC000B16E92F85860C5F341120B43C4F87C891A
:109BD000C5F38105BC88B14403A90493CDF81CC02A
:109BE0000394CDE9052508F0D3FE99F8BC39F02B94
:109BF00002D809B0BDE8F083084AF023032190574A
:109C000089F8BC390190FFF765FE019808F0A2FBC6
:109C100009B0BDE8F08300BFB0CF05084859060879
:109C2000582A012010B4B8B10D4CD4F8C439102B07
:109C300005D1052100205DF8044B39F0DBBA03EBB8
:109C40004302224482F8C919012182F8C8090B4451
:109C500082F8CA19C4F8C4395DF8044B704700BFD4
:109C6000582A012020218078DCE700BF2DE9F04F41
:109C7000C14C002387B004F6F81894F80C2AC4F8F5
:109C8000F839C8E90133C8E903331AB194F80D3A39
:109C900084F8F83994F80E3A1BB194F80F3A84F826
:109CA000073A94F8123A1BB194F8133A84F8023A3E
:109CB00094F8103A1BB194F8113A84F8FD3994F8ED
:109CC000143A013B5FB2DBB2019702933B4601338A
:109CD00000F04F81A94EB0220023A94802FB076182
:109CE00006F5217AA0F128050093743106F53F7935
:109CF00052F074FF0122009B2E4602FA07FB1F461A
:109D0000307890B39F494FF0300C03E089452CD058
:109D100011F808CF6045F9D14A7812EA0B0FF5D057
:109D200036F0C4FBFB1DDBB210B100218371C171A1
:109D3000032136F045FC30780023302101E01AF889
:109D40003310884200F0B2810133102BF7D14FF06D
:109D5000000C009A0121072086F801C0531CB27044
:109D6000F170DBB2307100930B4601370536042FDA
:109D7000C6D194F8240A01270393FFF763FE4FF43A
:109D80004031814E0022009BC4F82C1A3046D4F892
:109D9000201AC4F8443AC4F8407AC4F8387A84F8EF
:109DA000587AC4F8302AC4F8502AC4F8542AC4F89F
:109DB000342A84F8482AC4F84C2AC4F83C2AC4F847
:109DC000281AFEF71DF9019B002B40F0EF80039B42
:109DD000002B00F0EB80A6F1080050F0B1F8012351
:109DE00008F114084FF0000A9B46EA78002A40F078
:109DF000178105354545F8D1019B0220029923447E
:109E000093F91C2A39F0DEFA0546002800F0B180EB
:109E1000406839F003FB0022062139F00FFB0028CF
:109E200000F0A7806868002739F0F8FADFF874813D
:109E30004EF0F6FF009B6A68012B4FF40063A868A0
:109E40004FF400558CBF4FF480613946C4F8702A36
:109E50004FF40032C4F8801A4FF48071C4F8843A89
:109E60000323C4F8740A4046C4F8983AC4F8787AD0
:109E7000C4F87C7AC4F8947AC4F89C7AC4F8A07ABE
:109E8000C4F8885AC4F88C1AC4F8902A09F0DCFB8C
:109E900094F8643AC4F8608A012B0597C4F8A86A5C
:109EA00067D00123D4F8285A84F8643AAB68DE07F7
:109EB00013D4D4F874313549AA68B3FBF1F342F0F6
:109EC000010203EB4303AA600593059B2BB1059B9D
:109ED000013B0593059B002BF9D1AB68D80748D50A
:109EE000D4F8682A2A4B134043F48073C4F8683AC4
:109EF0006B68590507D5D4F8683A23F4405343F406
:109F00008053C4F8683AD4F8683A13F4805300F0E8
:109F10003881D4F86C3A23F00603C4F86C3A1D4833
:109F200000231D496FF02202C4F8B00A1B4884F8D0
:109F3000643AC4F8AC1A05F14C01C4F8BC0A2A60B2
:109F40006E68009B46F08066154A16486E60AE68E3
:109F500046F48076AE6009F0EBFA134B5A68D206ED
:109F600040F0F880D4F8283A9A6812F0405F00F088
:109F7000038107B0BDE8F08F582A0120B0CF050853
:109F80007834012034D205088034012040420F008B
:109F9000FEF8FFFF650C0108690C0108550C01086B
:109FA000E4010020C834012000230140B022002138
:109FB0007B48482752F084FEB0220021784852F0B6
:109FC0007FFE784B384684F8D47AC4F8D03AFFF74D
:109FD00039FD4FF4403000230121D4F8D02AC4F8D1
:109FE000DC0A7148C4F8F01AC4F8E81A84F8081BAF
:109FF000C4F8E03AC4F8003BC4F8043BC4F8E43ABF
:10A00000C4F8F43A84F8F83AC4F8FC3AC4F8EC3AE4
:10A01000C4F8D82AFDF7F4FF61484FF091FFDEE65F
:10A0200094F8640A5A1C69780128D2B22F79CDF8C5
:10A0300010A039D0092984F864BA52D94FF0030E20
:10A040006FF01D00D4F828CA4FF007091EFB01006D
:10A05000DCF80CE009FA00F907FA00F02EEA09072B
:10A06000CCF80C70DCF80C703843CCF80C00062BE4
:10A070004FF0050020D86FF0040710FB0373D4F8ED
:10A08000287A1F2000FA03FC786B01FA03F320EA18
:10A090000C007863786B03437B63D4F8283A41481B
:10A0A000834234D084F864AA1346A2E63F4A02EB06
:10A0B000C30393F888C24CE60C2B32D86FF022070A
:10A0C00010FB0373D4F8280A1F2707FA03FC076B59
:10A0D00001FA03F327EA0C070763076B3B430363AB
:10A0E000DBE7D4F8280A01EB41094FF0070ED0F85E
:10A0F00010C007FA09F70EFA09FE2CEA0E0CC0F898
:10A1000010C0D0F810C047EA0C070761AFE712296A
:10A110001AD01129C6D126494B6843F400034B607D
:10A12000C0E76FF0400710FB0373D4F8280A1F271D
:10A1300007FA03FCC76A01FA03F327EA0C07C762B0
:10A14000C76A3B43C362A8E719494B6843F48003DD
:10A150004B60A7E7D4F8282A12498A4214D05B68DA
:10A16000DB063FF506AF134B9A427FF402AF9A68C5
:10A1700012F0405F7FF4FDAE9A6842F080429A6030
:10A18000F7E6C4F86C3ACAE6936813F0405F03D16F
:10A19000936843F080439360054B5B68E9E600BF3A
:10A1A000283501200020014030350120B0CF0508BE
:10A1B00000230140002201402DE9F041D0F800E0E9
:10A1C0000C46DFF8588084B0DEF804501746DFF8FC
:10A1D00050C0194605EA0805DDF8288006460393B5
:10A1E0002C43424644EA0C0CCEF804C009F05EFD54
:10A1F00078B931680246039B30468F628021CDF8E2
:10A20000008009F083FD003818BF012004B0BDE8CC
:10A21000F081012004B0BDE8F08100BF009800FC8F
:10A2200000200181034690F83C00012800F03E81A7
:10A230000220F0B4012483F83D0083F83C40142A46
:10A2400045D8DFE812F04D004400440044007B0094
:10A25000440044004400DA00440044004400AA00E2
:10A26000440044004400060144004400440015003A
:10A270001A688E68156A0F6825F48015AB4C156254
:10A28000106A556820F40010D2F854C040EA065015
:10A29000A74E0CEA0404B24244EA072400F0088105
:10A2A00006F58066B24200F003814E685560546541
:10A2B000D6651062506D0C6940F400605065506DB9
:10A2C00020F480605065516D41EA042151650022FF
:10A2D0000121104683F83D1083F83C20F0BC704704
:10A2E0001A68D1F808C0156A0F6825F00105914C6D
:10A2F0001562106A5668956920F002002C408C4D5A
:10A3000040EA0C00AA4244EA070400F0DD8005F5AB
:10A310008065AA4200F0D8804D685660946155630C
:10A32000106290690C6940F008009061906920F01B
:10A3300004009061916921439161C8E71A68D1F8DE
:10A3400008C0156A0F6825F010057B4C1562106A6D
:10A350005668956920F020002C40754D40EA0C109D
:10A36000AA4244EA072400F0C38005F58065AA42AA
:10A3700000F0BE804D6856609461956310629069EC
:10A380000C6940F400609061906920F480609061F5
:10A39000916941EA0421916199E71A688E68156A0A
:10A3A0000F6825F48055644C1562106A556820F4D6
:10A3B0000050D2F81CC040EA06305D4E0CEA04049E
:10A3C000B24244EA072400F08D8006F58066B2426E
:10A3D00000F088804E685560D46116641062D069C0
:10A3E0000C6940F40060D061D06920F48060D061D5
:10A3F000D16941EA0421D16169E71A68D1F808C03E
:10A40000156A0F6825F480754A4C1562106A566803
:10A41000D56920F400702C40454D40EA0C20AA423A
:10A4200044EA070473D005F58065AA426FD04D68F1
:10A430005660D461D5631062D0690C6940F00800A1
:10A44000D061D06920F00400D061D1692143D1618D
:10A450003DE71A688E68156A0F6825F48035374C19
:10A460001562106A556820F40030D2F854C040EAF2
:10A4700006402F4E0CEA0404B24244EA07041DD001
:10A4800006F58066B24219D04E68556054659665EF
:10A490001062506D0C6940F008005065506D20F05E
:10A4A00004005065516D2143516510E7022070474B
:10A4B00025F480254E6945EA8625F6E625F48035A3
:10A4C0004E6945EA0625DFE726F4407C20F00800C7
:10A4D0008E69CF684D693843354320F0040045EA62
:10A4E0000C0619E725F480454E6945EA861571E7A3
:10A4F00026F4406C20F080008E69CF684D6940EAF8
:10A500000710354320F040004CEA850632E726F478
:10A51000405C20F400608E69CF684D6940EA0720F6
:10A52000354320F480604CEA051680E7FF8FFFFE7C
:10A53000000001408CFFFEFFFF8CFFFE8FFFFEFF3F
:10A54000F8B53D4E96F8804B04EB4403670006EBEC
:10A55000C30393F8843B032B44D8DFE803F0461B86
:10A560000F023C4406EBC404D4F8883B002B58D0BF
:10A57000013B0025C4F8883B2846F8BD3B1906EB93
:10A58000C303D3F8882B7AB1013A0025C3F8882B8E
:10A590002846F8BD3B1906EBC303D3F8882B002AE5
:10A5A000F2D1022283F8842B3C4406EBC40494F8D5
:10A5B000903B013BDBB284F8903B4BBB0323D4F8C8
:10A5C0008C0B84F8843B52F0D3FCC4F8880B06460D
:10A5D00052F0D6FC80F00100002E0CBF002500F0E8
:10A5E000010525BB01252846F8BD3AF0FDFC0546CE
:10A5F0000028F7D03C44012342F2107006EBC4045B
:10A6000084F8843B52F0B4FCC4F8880B2846F8BDAB
:10A6100001254FF47A7052F0ABFCC4F8880B284641
:10A62000F8BD52F089FC80F00100C5B2B0E7013EF0
:10A63000C4F8886BACE700BF582A012003689B0A66
:10A64000A3F58013522B00D970470E4A134470B5FE
:10A6500093F8044384B00D2C12D800294FF0000366
:10A6600009494FF0010514BF1E460226427901EB4D
:10A6700084106946CDE90065CDE902330BF0E2FABA
:10A6800004B070BDB0CF05083C36012033492DE938
:10A69000F84F91F8D1101C46012507460229DFF832
:10A6A000C4A0104619464FF00002DFF8BC9018BF56
:10A6B0007F02CAF82C50FDF74DFD294A630240F293
:10A6C000FF5BC9F824204FF40075C9F828304FF417
:10A6D0008A62D9F82C30012110205E4643F09303A2
:10A6E000C9F82C30C9F838B0C9F808504D46C9F837
:10A6F0000C204CF0C9F9012CC9F838B04FF00A040D
:10A700008CBF4FF052084FF051084FF00009394606
:10A710004046FEF739F8013C034640F277420121FA
:10A720003720E4B223B91846CAF82830BDE8F88FBC
:10A73000AE63C5F80890EA604CF0A6F9AE63034634
:10A7400008B1002CE3D1002BEDD000221846CAF846
:10A750002C20CAF82830BDE8F88F00BF582A012005
:10A7600000E1F50560190120002C01402DE9F843B6
:10A77000DFF8748004460F46914698F888551E46C7
:10A78000042D08D0082D02D00020BDE8F883FEF784
:10A7900045FB0228F8D101233A4620460021FFF765
:10A7A00075FF68B1FEF736FCD8F87045002CEBD089
:10A7B0000022D8F87435D8F868151046A047E3E7AA
:10A7C000084A05230120C8F86475926AC8F86845EC
:10A7D000C8F87095C8F87465C8F8782588F8883581
:10A7E000BDE8F883582A0120601901202A492DE983
:10A7F000F04F91F8D1100124DFF8A8B007460229E4
:10A8000083B0CBF830409A4618BF4702012B4FF077
:10A810000A04224D40F2FF568CBF4FF059084FF00A
:10A8200058084FF00009009239464046FDF7ACFF4A
:10A83000013C034640F2774201213720E4B2BBB924
:10A840000098514601220193154CFDF783FC1349F2
:10A850004FEA4A220020019B4C628A62CA6A42F097
:10A860009102CA62CBF82800184603B0BDE8F08F09
:10A87000AE63C5F80890EA604CF006F9AE63034693
:10A8800008B1002CD0D1002BDAD000221846CBF82A
:10A89000302003B0BDE8F08F582A0120002C014081
:10A8A00000E1F505601901202DE9F84F05460E4637
:10A8B00090461F46394C94F8880504280CD0082887
:10A8C00007D1D4F88035AB4206D0FEF7A7FA0228AC
:10A8D000F1D00120BDE8F88FDFF8C8A0C4F86465A6
:10A8E000DAF8C890C4F86855C9F34F234FEA5922E3
:10A8F0000F2B2BD8D4F884B5BBF1000F26D094F8D9
:10A90000561619B3B9F5005F41D025484FF40072CF
:10A910003146484452F062F909F50072C2F34F2300
:10A92000CAF8C820520A102B31D0BBF1010F2ED02B
:10A93000D4F880250BF1FF33042102200132C4F842
:10A94000843584F88815C4F88025C3E701234FF0C7
:10A9500001092846062532460021C4F87085C4F84E
:10A96000747584F86C9584F88855FFF73FFF0028CC
:10A97000B0D0FEF74FFBD4F870556DB14846D4F80F
:10A980007435D4F868150022A8470320A2E792B2D4
:10A99000034E013AAD1ADAE703209BE76019012064
:10A9A00084540120582A012070B50D4C1346D4F868
:10A9B000A45F2A78022A07D00A46014604F6A4704A
:10A9C000BDE8704039F08ABE2A6A0AB1002070BD25
:10A9D0000A46014604F6A47038F084FF012070BDD9
:10A9E000582A012003681878012801D000207047F8
:10A9F00093F90430074A03EB430302EB431313F8C4
:10AA0000332C202AF3D153F8743C9869C0F3C0303A
:10AA1000704700BF503B0120036801221B78022BC6
:10AA200001D03AF085B838F0B5BF10B50B4CD4F86A
:10AA3000A43F1B78022B10D1D4F8AC0F35F026FEC2
:10AA4000D4F8AC0F08B12123C380012135F0B8FD43
:10AA5000034838F0E7FEA4F8A80F10BD582A0120DB
:10AA60008096980030B5044683B001230D460DF161
:10AA700007020848214639F031FE9DF8072035EAE3
:10AA8000020304D02A43214602483AF005F903B0F4
:10AA900030BD00BFFC39012038B505460A460C46DA
:10AAA0000648294638F04EFF45F08001034838F04B
:10AAB000CDFE231A5842584138BD00BFFC39012051
:10AAC00013B53A4C0023D4F804218DF807301378DD
:10AAD00003F0FD01012905D194F8081111B90C21E9
:10AAE00084F80811022B1ED0032B2ED001220B213B
:10AAF0002F484BF03DFD042032F07AFF01230DF189
:10AB0000070200212A484BF055FD002839D09DF856
:10AB10000730482B35D1274BC4F8F830264BC4F802
:10AB2000FC3002B010BDD4F80C0135F0AFFDD4F804
:10AB30000C0108B13523C380012135F041FD1F48C8
:10AB400038F070FEA4F80801D0E7D4F8783546F262
:10AB5000A8115068122219610023372180F888302B
:10AB60004BF0D9FCD4F804310D22242158684BF065
:10AB7000D2FCD4F8043130226A2158684BF0CBFC67
:10AB8000B4E7D4F804311A78022A03D0032A07D094
:10AB90000020C6E7D4F80C0138F0E2FC0020C0E742
:10ABA0001022372158684BF0B6FCF1E7503B0120EA
:10ABB000543C0120136605089566050880969800A8
:10ABC000F8B55E4C00234FF4F07206460F4604F6CB
:10ABD000C400202184F8C03884F8C13852F070F8DD
:10ABE0004FF4F072202104F6A42052F069F83220CC
:10ABF00032F0FEFE94F8853C002B00F0948094F82F
:10AC0000861C04F6884038F0CFFD002800F08B80C9
:10AC100094F8850C35F04AFC0546C4F8900C35F0E4
:10AC200011FD00287FD00DB12323EB800D21284694
:10AC300035F0C6FCD4F8900C35F028FD404838F0CB
:10AC4000F1FD0346FF213F48A4F88C3C38F0ACFEF0
:10AC50008C213C4838F0FAFD1B2867D10122D4F83A
:10AC6000903C84F8C0280BB12322DA8040220A21CC
:10AC7000344838F067FE8A21324838F0E7FD94F80E
:10AC8000843CC0F3801584F8205D002B44D0022B57
:10AC90003BD12D4838F0C6FD0346A4F8220D94F8A8
:10ACA000242D182A11D1294A2949D2F87421A4F84F
:10ACB000287D5208A4F82A5DA4F82C3DB2FBF3F2DB
:10ACC000A1FB0212520BA4F82E2D1E4802220021D5
:10ACD000A4F88C3C38F036FEC8201A4D32F07CFEC9
:10ACE0008021284638F0B2FD10F00200F8D17278C9
:10ACF000B3783178C2F12002C3F1100384F8312D0A
:10AD000084F8323D84F8301DF8BD124838F08AFDD1
:10AD10000346A4F8220DC2E7094838F083FD034634
:10AD2000A4F8220DBBE76FF00100F8BDD4F8900C39
:10AD3000202135F045FC4FF0FF30F8BD503B01209D
:10AD4000404B4C00D8470120002D3101582A0120EA
:10AD50005917B7D1809698000146014838F076BD62
:10AD60008448012030B40023314D32494CF2503434
:10AD7000C5F8E43D304AD1F8780904E0D1F87839D3
:10AD80001B1AA3420FD8D368DB03F7D4D16811F4A0
:10AD9000F9710BD1D06810F0010002D001230846F0
:10ADA000D36030BC7047032030BC7047D3689B072A
:10ADB00005D5D5F8E43D43F02003C5F8E43D1E4B2E
:10ADC000DB68DC0605D5D5F8E43D43F01003C5F893
:10ADD000E43D194BDB68980605D5D5F8E43D43F012
:10ADE0000803C5F8E43D144BDB68590605D5D5F8D2
:10ADF000E43D43F00403C5F8E43D0F4BDB681A065D
:10AE000005D5D5F8E43D43F00203C5F8E43D0A4B0F
:10AE1000DB68DB0505D5D5F8E43D43F04003C5F814
:10AE2000E43D054B4FF4F9720120DA6030BC704705
:10AE3000503B0120582A0120003C0240094B93F866
:10AE4000EA3D042B08D9053B032B08D801231A46F9
:10AE500000B103701046704700230122F8E7002379
:10AE60001A46F5E7503B01202DE9F04FDFF8DC8171
:10AE7000DFF8DC91D8ED037A08F5B06399F80C2E71
:10AE8000F8EE677A2DED028BC3ED007A83B0002ACD
:10AE90004ED1614EC8F8882598F88C153278D9B112
:10AEA000B9F8123E0024DFED5D5A07EE103ADFEDEF
:10AEB0005C6A5C4BB8EE477A67EEA66A03EBC100AA
:10AEC00085EE876A36EE266A86EE867A1C6008333F
:10AED00003ED017A9842F9D199F80A3E9FED525A52
:10AEE00006EE103A96F8583B9FED507A1A44B8EEA9
:10AEF000C66A27EE877ADFED4E6A12FB01F14D4AF2
:10AF0000C5EE065AC9B207EE901AF8EEE77AE7EEF8
:10AF1000876AF7EE667AFCEEE77AC2ED005A17EE22
:10AF2000903A88F8DC3603B0BDEC028BBDE8F08FB8
:10AF3000FCEEE77A9FED404A99F80D1EB9F8103EF5
:10AF4000F8EE674A06EE101A002107EE103A324E6C
:10AF5000B8EE466AC4EE245A0191B9F80E1E0123D8
:10AF60009FED365A06EE901AC6ED057A98F88C15C4
:10AF7000B8EEC77A9FED328AF8EE666AC8F888653F
:10AF8000327067EE057A86ED016A88F88435C6ED81
:10AF9000036AC6ED047AC6ED025A89B3294B4FF015
:10AFA000000B019903EB010A12B3AAF118045746EA
:10AFB000002507EE905A01223846B0EE481AB8EE46
:10AFC000E70AD6ED017AD6ED040A154471692837EF
:10AFD00020EE270A283451F0DBFF84ED028A84ED4D
:10AFE000018A84ED048A84ED038A32789542E0DB9D
:10AFF0000BF1010B98F88C150AF1780A8B45D3DB1D
:10B00000019B03F57073B3F5346F0193C5D10E4BFB
:10B01000D3ED007A43E700BFA034002083F9223E3D
:10B02000BD37863564490120555555406E12833A27
:10B0300048E1FA3EBC0800200060EA480AD7233CF9
:10B0400000000000B834002064070020E401002064
:10B05000503B012007EE900A9FEDA56AA54B002208
:10B06000F8EE675A9FEDA44AB3F8541EC6EE254A7F
:10B0700007EE101AB3F8581E9FEDA06A06EE901A5C
:10B08000B3F8561EB8EE477A07EE901AF8EEE66A65
:10B09000F8EEE77A37EE075A66EE846A2DE9F04F4C
:10B0A000C7FE857A964D2DED048BF4EEC64A05F564
:10B0B000DC6993F85A4E87B0C5F83007F1EE10FA04
:10B0C00089ED017AC5F8EC46C5F8F026C9ED027A9B
:10B0D000C9ED006A02D51446C5F8EC26B6EE005A52
:10B0E000DFED886AB7EE004ADFED872A65EEA65AE3
:10B0F000864924EE856ADFED863AB0EE003A0B46CB
:10B10000DFF82C8201F5A677C6EE276A143318F80B
:10B1100054AC01F12C060593C1ED045AD1ED055A4A
:10B12000C6FE846AFDEEE66ACDED016AF8EEE66AD7
:10B13000019B84EEA66AC5F88C39C4EE264A26EE39
:10B14000226AC7EE066AE1EC014A81ED006A87EEE9
:10B15000867A76EE856AC6FE836AFDEEE67ACDEDE6
:10B16000027A77EE057A029BC7FEE37AFDEEE77A74
:10B17000C5F8983917EE902ACDED037AD31AC5F8A1
:10B180009C290493BAF1000F2AD1A8F1500BDFEDEE
:10B19000619A9FED619A07EE90AA0AF1010A0BF1FC
:10B1A000080BF8EEE78A68EEA98AB0EE680A44F068
:10B1B00089FDB0EE408AB0EE680A44F09FFFB0EE21
:10B1C000680A44F09BFF28EE098A20EE090ABAF1CA
:10B1D000240F0BED028A0BED010ADCD1DFED4F5A93
:10B1E000049AA2464E4800239446019A9FED4D7A58
:10B1F000029C9CFBF2FB0BF10101DDF80CC08E46BA
:10B200001146324646F80CCC46E9053446E902E1DF
:10B21000A2EC017A9742FBD13A4606F5107BD0EDBD
:10B22000D66AD0EDD77AC2ED006A083242ED017AD3
:10B230005A45F8D106F515763B4A07F5157796423B
:10B24000DFD1059B0122B6EE008A5446C3ED005AB9
:10B250004FF0000A354B08F8542C4FF000080193CA
:10B26000002C35DD09EB0A06DDF804B0002707EEF7
:10B27000907AD9ED016A99ED027A06EE104AF8EE5D
:10B28000E77A012237EE667AD5F83017B8EEC66A4B
:10B2900006F1540077EE887A1744B7EE001A283684
:10B2A00067EE877A87EE860A30EE260AABEC010A53
:10B2B000D9ED000A51F06CFED5F8EC46C6F8448092
:10B2C000BC42C6F84080C6F84C80C6F84880CEDC48
:10B2D000019B0AF1C80A1433BAF5167F019302D014
:10B2E000D5F8EC46BCE707B0BDEC048BBDE8F08FA9
:10B2F00000247449503B01200AD7233C0000FA4443
:10B30000E40100209C534937398E633C740B0020C4
:10B3100000000C42C3B8B23D72F97F3FBC297E3FAA
:10B32000B0CF0508000000009C120020D8080020C3
:10B33000DC12002008480023024611780632022958
:10B3400004D00133062BF8D10020704703EB4303F0
:10B3500000EB4300704700BF981901200021094B02
:10B3600000B5084683B0C3F85C1E29F0B1FF042283
:10B37000054B06200DEB0201019329F09DFF03B060
:10B380005DF804FB503B01205475C52A70B5461E7C
:10B3900000F13105344614F8011F601EFF29A0EBAF
:10B3A000060002D0C0B229F093FFAC42F3D1A02036
:10B3B00040F2E93445F07AFE0121022029F088FFAD
:10B3C00001E0013C04D04220FFF7C6FC0028F8D180
:10B3D0006220FFF7C1FC1321242029F079FF2520EA
:10B3E000092129F075FFA020BDE8704045F05EBE40
:10B3F00030B54CF205028DB0002304460321ADF8B0
:10B40000002001AD01228DF802300B938DF814203D
:10B410008DF82820CDF808D0CDE90633CDE90833E2
:10B42000CDE9035138F0F8FA204602A938F0B8F80F
:10B43000204638F0F1FA9DF806000DB030BD00BF8F
:10B440002DE9F043734E83B0734C2422002106F1A2
:10B45000380051F035FC002394F8615EF365002D4F
:10B4600037D16E4FD7F8903043B39B6A33B36C48F3
:10B470009847836813B3038800246A4F013BBC4696
:10B4800039469BB20878063103281BD00134062CBC
:10B49000F8D1002239780637022900F09D80013268
:10B4A000062AF7D1F16D052908D002FB01C201314E
:10B4B000F16502200021938010705180284603B06E
:10B4C000BDE8F083062303FB0464638F013B9BB25A
:10B4D000DFE704F6686794F8600EC4F8647E10B97C
:10B4E00000254E4FBEE734F0E1FFC4F8700E35F092
:10B4F000A9F80028F4D02946384638F055F9054611
:10B500000028EDD0D4F8643E454A9868C3F89420EA
:10B5100008B12023C3800D21404F35F051F8D4F8F5
:10B52000643E4FF00109986835F0B0F83E4838F0B5
:10B5300079F9D4F8643E024632209A80C7F8B030D8
:10B5400087F8B49032F054FA04234FF0000C9F2196
:10B55000D4F8640E0DEB0302CDF804C038F0C2F944
:10B560009DF805809DF8043007F190004FEA082807
:10B570009DF8061048EA034848EA0108414645F0AC
:10B58000E7F900287FF46EAF4046FDF74BFB03461A
:10B5900000287FF467AF9DF806009DF805200002A3
:10B5A0009DF8071040EA0240204A0843904217D015
:10B5B000A7F89430A7F8A030C7E92633FDF732FB8F
:10B5C000034600287FF44EAF94F8600E1D4634F019
:10B5D0006DFF37F0C5FF45E7062101FB02C268E7B2
:10B5E000134B4FF400314FF0006287F8A290C7F878
:10B5F00094304023C7E92612A7F8A030FCF70AFED2
:10B6000007F1900087F8A99045F0EEF8094BC7F8CC
:10B61000903027E760190120503B0120582A012073
:10B62000E82A012098190120404B4C0021AAEF0084
:10B6300000040008B0CF05082DE9F04F0423BE4CEC
:10B64000402141F21C1504F6746704F160064FF0C6
:10B65000A042636661670023022194F81D048BB049
:10B66000C4F8607466512266C4F890302367C4F849
:10B670008C30C4F88430A167E166C4E91F33002828
:10B6800000F0628103211F46164684F81D1493685A
:10B6900023F001039360F368304643F04003F36006
:10B6A00008F004F9B36B012F054643F48033B3630C
:10B6B00017D005B3022384F81D34A04B93F8C4506F
:10B6C000012D00F0FD80236E8021012059625A6A0D
:10B6D00042F480029A62FCF7C5FD00200BB0BDE881
:10B6E000F08FB36843F00603B360B36843F0200300
:10B6F000B360002DDED1236E3220DA6822F0C04222
:10B70000DA60DA6842F08042DA6008F03DF8606E94
:10B7100050B32A4601272946C2EBC203561C04EB4C
:10B72000830383F89C20A3F8A220F2B283F89D70D3
:10B73000824283F89F10C3F8B010C3E92911EBD3FC
:10B7400000221146C2EBC203561C04EB830383F8AC
:10B750005C22F2B283F85D12824283F85F12C3F872
:10B760007012C3E99911EDD30022236ED4F86CC096
:10B770001646D4F87080D4F88CE0D4E91E7101919B
:10B7800002F14001013203EB81010F2A4E60F7D133
:10B790009A6BBEF1000F40F0438122F400129A63CD
:10B7A0001A6842F040021A601A6842F080021A6079
:10B7B0000022012F03F50066C3F8002ED3F80028FD
:10B7C000C3F80028D3F8002800F02181032F00F0EF
:10B7D0001E8142F00302C3F800284FF48461584AE6
:10B7E000196102E0013A00F0328119698F06F9D43B
:10B7F0001021534A196102E0013A00F026811969CB
:10B80000C906F9D4002131617161F161E0B103F53C
:10B8100010624FF0904A4FF0006B0F464FF67F39A1
:10B820009C4607E0176001311761C2F8089020328A
:10B83000814261D01368002BF4DA11B1C2F800A084
:10B84000F1E7C2F800B0EEE73269B8F1010F22F477
:10B850008072326100F0ED8000216FF080429961CA
:10B860005A61B8F1000F03D19A6942F010029A614F
:10B870009969344A0A439A61019A1AB19A6942F065
:10B8800008029A61BEF1010F00F0CE80002D7FF416
:10B8900011AF0121D4F8842084F898508A4284F8AA
:10B8A0001D1400F0D6807368032043F00203736018
:10B8B00007F06AFF214B93F8C450012D7FF403AFCA
:10B8C00044F062FC00287FF4FEAE236E80222846FE
:10B8D00040215A625A6A42F400129A62FCF7C2FC92
:10B8E00020210220FCF7BEFC40210320FCF7BAFC1B
:10B8F00000200BB0BDE8F08F002163460CF53062EC
:10B900004FF0904A4FF0006B0F464FF67F39844658
:10B9100007E0176001311761C2F8089020326145D5
:10B9200092D010680028F4DA11B1C2F800A0F1E753
:10B93000C2F800B0EEE700BF60190120582A0120CC
:10B94000400D030000383C8000F0FF054C4B032005
:10B950004FF4C05684F81C541A6B42F001021A636B
:10B960000A221B6B069105A903F0010308904548C4
:10B970000493049B07950596099207F009F8D4F8FB
:10B980008C30012B72D03E4B062143205A6B42F083
:10B9900080025A635A6B02F080020292029A5A6C39
:10B9A00042F480425A645B6C03F480430393039B2C
:10B9B000FDF790FF266E0323334A0821916084F837
:10B9C0001D34A26FB368012A276F23F00103B3600F
:10B9D0007FF461AEB26B2D4B22F48032D4F8941018
:10B9E000B2630129F26803EA0203F360F36823F407
:10B9F0004013F36003D1F36843F48013F3603046DF
:10BA000007F054FF012F05467FF453AE69E6BCF101
:10BA1000000F3FF4E0AE42F00102C3F80028DCE67C
:10BA200042F400129A63C3E69969194A0A439A617B
:10BA30002CE718490020184A31636FF08041376BBA
:10BA40003A4332639861596112E70125DAE601252C
:10BA5000CEE684F854549969C4F85C2441F000613E
:10BA60000E4A9961596D0A435A651CE74FF40073F9
:10BA700005A904480593CDE9065506F089FF82E73C
:10BA8000003802400000024000E100E0BFFFBDFFBF
:10BA900004000040000180000300010003000010CA
:10BAA00010B51A4C94F8010FC0B9194B83F8B505BD
:10BAB000C3F8B80594F8043F012B05D0022B21D020
:10BAC000D4F8083F1BB910BD124BC4F8083F124907
:10BAD0005B68A1F10C00BDE81040184734F0E6FCAB
:10BAE00094F8032F0A49003AC1F8B80518BF01229B
:10BAF00081F8B5250028DDD01F222021C28034F036
:10BB00005FFDD7E7054BC4F8083FE0E7503B012055
:10BB100060190120840101205C4A0120600101209C
:10BB200099B10A6B824216D9154BD3F84C2F91422A
:10BB300021D34C3991421ED30B6B9842F9D38B6BB6
:10BB40009842F6D80B46184670470D4BD3F84C1F59
:10BB50000A6B904212D30B680BB9F4E70A6B904260
:10BB60000B4602D38A6B9042EDD951F84C3F002B23
:10BB7000F4D1184670470023184670470A46D8E7A4
:10BB8000503B01202DE9F047CC0143D10346224927
:10BB90004FF0FF32022443F8081B7E26426018460D
:10BBA000DFF878802644051D6FF07047D8F8509F65
:10BBB0004FF0010A013E494608E0A3421CD0631C35
:10BBC00045F8043C321B1C460435CAB10B6BA3423A
:10BBD00002D88B6BA34204D22046FFF7A1FF014697
:10BBE00090B10A794B6B002AE7D1A34204D0E6D288
:10BBF000631C45F8042CE5E7631C45F8047CE1E789
:10BC0000C8F8501FBDE8F087321B631C494645F851
:10BC100004ACD8E78026C3E7F8FFFF0F503B0120B4
:10BC20000A44914219D0013910B4541E11F8012F61
:10BC30000823504002E0013BD0B209D010F0800F41
:10BC40004FEA4002F7D082F0D500013BC0B2F5D1F7
:10BC5000A142EBD15DF8044B70477047194A0023AD
:10BC60002DE9F04702F6647484B0054692F95D8FC1
:10BC70001F46461804F5287A4FF0B609D4F800C0DC
:10BC8000204600226946E034BCF1000F14D09CF835
:10BC900038C0BCF1140F0FD018F1020F01D0C44509
:10BCA0000AD1CDE90277CDE90056ADF808908DF8BC
:10BCB0000D702AF043FA0346A245DFD1184604B0BE
:10BCC000BDE8F087503B01202DE9F0479AB00446CB
:10BCD0000D4617469846DDF89090DDE9226A02E0AD
:10BCE000206831F0F7FE206831F0FCFE0028F7D123
:10BCF0000146642201A850F0E3FF264B8DF8045062
:10BD0000CDF85CA00293002D3FD0AB1E012B3ED995
:10BD1000042D14BF002303231F4A8DF8053001238F
:10BD2000926A039616448DF85B30CDE9059404962B
:10BD300037B14246394607A850F050FF8DF85A8077
:10BD4000164E002396F84E911893B9F1000F19D1B1
:10BD500096F84D01642201A902FB006000F5A8706D
:10BD600050F03CFF012386F84D9186F84E31236850
:10BD700043B143463A46294620461AB0BDE8F0474B
:10BD800017F006B81AB0BDE8F0870523C4E7022310
:10BD9000C2E700BF544D0120582A0120484C012021
:10BDA0000C480D4BD0F8D01110B48A1E0B4C223128
:10BDB000C0F8C031B0F8EE311B01A4FB03C3DB08AF
:10BDC000A3F5B06322F8023F9142F3D15DF8044B32
:10BDD000704700BF484C0120D16E0208CDCCCCCCBE
:10BDE00070B5084C251D2E4614F8010B2AF07AFB7D
:10BDF00028B10378B44205F8013BF5D170BDFF23AB
:10BE0000F8E700BF584E01202DE9F0471C4F0126EE
:10BE10004FF03C094FF0000807F10805B24617F84B
:10BE2000010B34F043FB044690B180F80690C671D4
:10BE3000FB7803F07F02012A17D013F0800F204611
:10BE40000CD185F8048034F01BFC85F805802C604B
:10BE500001360835052EE2D1BDE8F08785F804A04B
:10BE600034F014FC85F805A0F1E71B0605D4012188
:10BE7000204634F0A5FBFB78DFE734F007FCF6E75B
:10BE8000604E01202DE9F047204E82B000244FF093
:10BE90000409DFF87C8006F10C05A6F5117716F889
:10BEA00001AB5046BAF1000F2CD034F0FFFA013448
:10BEB000034604215046E4B26B6113B183F8069047
:10BEC000DC71224631F046FB02218246D0B168691E
:10BED0009AF8082034F03CFBB7F84232B7F840C279
:10BEE000002051460A4A01902846CDF800C0183576
:10BEF000B8FBF3F39BB229F005FA0123082C05F8EF
:10BF0000073CCCD102B0BDE8F08700BF8C4E0120C9
:10BF100040420F002DE9F041204C00234FF005086E
:10BF200094F8172304F5457704F5467584F8102333
:10BF300017F8010B5E1C20BB2860032E05F10405D9
:10BF40003346F5D194F81013D4F81803C94301F01F
:10BF5000010134F0FBFB94F81013D4F81C0381F0BA
:10BF60000201C1F3400134F0F1FB94F81013D4F84E
:10BF7000200381F00401BDE8F041C1F3800134F0F9
:10BF8000E5BB34F093FA0121F3B2286010B180F8D8
:10BF90000680C371286834F013FBCEE7484C0120BB
:10BFA000F0B5294C83B0B4F82853A4F82A53EDB95E
:10BFB00094F8240334F07AFA94F82523C4F82C0377
:10BFC000003A18BF012284F8302348B194F82613B0
:10BFD0002B220029C28014BF1121012134F0F0FA74
:10BFE000002003B0BDE8F04034F0B8BB94F82473EF
:10BFF00000222B21384631F0ADFA0646384634F09F
:10C0000055FA00B10EB903B0F0BD2B22C4F84803B5
:10C0100002210027C280327A34F09AFA0B4AA4F83F
:10C020004C53314604F54D700197B2FBF5F3C3F361
:10C030004F059BB2009529F065F9D4F834331F60A1
:10C0400084F84573DFE700BF484C012040420F00F1
:10C050002DE9F84F264B002693F8582303F24F376B
:10C0600003F55B7483F84E235FFA86FB4FF00109FA
:10C0700017F8010F01360BEB090A49464FF000088B
:10C080005FFA8AFA524631F065FA054648B33878C5
:10C0900004F80E8C04F80D8C04F80FBC04F8109C06
:10C0A00044F8045C34F002FA022118B180F80690DA
:10C0B00080F807A02A7A34F04BFA0E4A002128466D
:10C0C0004BF02EFF0C4B221D2146236028460B4BC4
:10C0D000C4E901384BF0F0FD42466979286829F03F
:10C0E0005FF8082E04F11C04BED1BDE8F88F00BF34
:10C0F000484C012040420F005552030829FC020819
:10C1000070B52C4C00222C4B022194F88404C4F806
:10C110007C34C4F83C24C4F84024C4F84424C4F853
:10C120007824A4F8802431F015FA002841D0234B5C
:10C130000546026803F1C000597C11B159688A4272
:10C140002CD018338342F7D1002394F88404C4F828
:10C15000685384F85C3334F0A9F908B10223C38032
:10C1600000262A7A022134F0F3F931462846144A8F
:10C170004BF0D6FE134B144A2846C4F86C33134BCD
:10C18000111FC4F87463C4F870334BF095FD324648
:10C1900069792868BDE8704029F002B8926A0C48B5
:10C1A00001320C49D0F87431B3FBF2F381F8A831B5
:10C1B000CAE770BD484C012000FFFF00AC1300200F
:10C1C00040420F0051FC0208B84F0120EDFD02086B
:10C1D000582A0120000001202DE9F04FDFF878B146
:10C1E00080460B46DFF874A10BF1D000C02200217D
:10C1F0002DED068B97B0CDE9023850F061FD9AF82D
:10C200008584B8F1000F00F095829AF8863408937F
:10C21000002B00F0CE82DFF8489199F8F83D012B11
:10C2200000F0ED82022B00F0E5820BF5FC73444D2B
:10C2300099F8EE6D1C460F930FCD0FC40FCD0FC4B0
:10C24000311E404A99F8EA3D18BF0121CBF810226F
:10C25000072B8BF8301295E8070084E8070000F2FE
:10C260005D83042B0ED999F8ED3D374A012BCBF8AD
:10C27000382205D09A1E53425341002E18BF002386
:10C280008BF83C320023DFF8DCA003932F4B0493A0
:10C290002F4B0593DDE90232934240F3B081059BB9
:10C2A000032113F8015B059309EB0503013593F8AE
:10C2B000EF6DEDB230462A4631F04CF904460028C5
:10C2C00000F02283304634F0F1F8049B586110B13D
:10C2D0000323C571837199F8EA2D99F8EB3DE7794D
:10C2E00006920BB187F00107204637F02FF803467E
:10C2F000002800F006839BF83C220792002A40F0B9
:10C300001883D0F80480B8F1000F00F0FD829B681C
:10C3100040460B9337F082F82A4603210A9037F003
:10C320008DF8002800F0F0829BF8406225680948EB
:10C33000CAF89480002E00F027830023024617E0FD
:10C3400060D4050891810508253E0408AC1300203F
:10C350004A49012020150020DC120020484C012011
:10C36000503B0120A02600200133B34200F00C8393
:10C370001168B8328D42F7D1DEB2B8239BF8402263
:10C38000039906FB0303013A8AF81110CAF89830A2
:10C390002079099234F08AF807F001019BF83032D5
:10C3A00001310BB187F001074901CAF8084041F09B
:10C3B0000E01CAF81410227A34F0CAF8099B9E4282
:10C3C00000F01E84069B063B0C93002360220AF1BA
:10C3D0006401CAF8803008EE101ACAF86420CAE96D
:10C3E0001A33CAE91C33CAE91E3317F002034FEAB5
:10C3F00047070D9300F0E082012307F00207CAF817
:10C400006C30CAF87870002702234FF480310A227A
:10C41000CAF87070CAF88420CAF89030CAE92217A6
:10C4200063790C2B00F2BE82CB4A9BF83C1202EBE4
:10C430008302D2F80874CAF85470002900F0F98217
:10C44000DAF89830C3F8A880CAF89480079B002BCC
:10C4500000F073830AF118000E9006F057F99BF86C
:10C460003C320E98002B00F08E83BC494FF4907341
:10C4700022684FF0030C03FB0613DAF898104C32D5
:10C48000C1F8B030CAF81C300B9BCAF81820CAF8A3
:10C490003C30CAF848C0069B40214FF4806C082B02
:10C4A0004FF00403CAF820104FF48051CAF844300A
:10C4B0004FF000030CBF06221222CAE91333CAE967
:10C4C00009334FF40033CAF838204FF48042CAF8D9
:10C4D0004030079BCAF83420CAE90BC1002B00F09A
:10C4E00040839DF83030CAF89480022B00F25582C8
:10C4F000994A9B4902EB8303069AD3F8FC33082A36
:10C50000B1FBF3F308BF5F2203F1230318BF13222B
:10C51000CAF85C30DAF8983050469A804BF0A8FDA3
:10C520009BF83C32002B00F02782079B002B00F089
:10C53000238218EE102A3946284605F019FF012FEC
:10C5400000F0EC82042F00F05383102F00F086825D
:10C55000402F00F0AB83B7F5807F00F0B583B7F5CF
:10C56000806F00F0B983B7F5805F00F0BD83B7F549
:10C57000803F00F0C1836A6D05F11800082342F482
:10C5800000626A6577490422DFF800C2C95C1CF8C2
:10C5900003C00B5802FA0CF223EA02030B502B687B
:10C5A00043F001032B600D9B002B00F0B3822B6A3C
:10C5B00043EA87072F62099B9E420BD16B6C43F4C1
:10C5C00000436B642B6843F080032B602B6843F0BF
:10C5D00001032B609BF83032002B40F0A782039AB6
:10C5E000012304990AF1A00A01320AF8913C4B7424
:10C5F00001F11803082A039204937FF44BAE0F9BBA
:10C6000089E1DFED598A594AB0EE688A584BCBF878
:10C61000AC210022CBF8A831564BCDF81080039204
:10C6200038EE887ADFED547AF5EE006A534C28EE46
:10C63000278ADFF85CA1B0EE67AA0027C6EE879ACA
:10C640009FED4F9ACBF8B431CDF81480029BBB42DA
:10C650006DD01AF8015B032109EB0503013593F84E
:10C66000EF8DEDB240462A4630F074FF06460028B2
:10C6700000F0B782404633F019FF606110B1032328
:10C68000C5718371327A022133F062FF049B002B63
:10C6900000F0EE81B9F8E83D4FF6FF7107EE903AF1
:10C6A000384BF8EEE77AD3F87421FCEEE77A17EE10
:10C6B000903AB2FBF3F00144090CB2FBF1F2B2FB89
:10C6C000F3F399F8EA1D042900F0E48107EE902ABB
:10C6D000F8EE676A26EE887A69EE477A99F8EB0DEC
:10C6E00003999BB201902046E6EEA87A009131466C
:10C6F00084ED027AC4ED037A28F004FE002F40F3A3
:10C70000B58161681D4B02E09C4200F0AF815A6820
:10C7100018338A42F8D1059B013783F001030122C7
:10C720001834082F04F8083C04F8072C8ED1164E54
:10C73000CBF82C62DBF82C3263B300220121029883
:10C7400083F82D1083F82C001A6383F82E2017B07D
:10C75000BDEC068BBDE8F08FB0CF0508E01A0020D5
:10C7600000D01213A8D4050800000000FD02030841
:10C77000E5C10308D9C103086F12833AAC13002046
:10C7800000007A44582A01206C1400209CD405082B
:10C790004A490120C54DC64C0FCD0FC40FCD0FC463
:10C7A00095E80700A4F1200384E80700CBF82C32B9
:10C7B000CDE7C04D0BF5C874DFF854930FCD0FC40F
:10C7C0000FCD0FC495E8070099F8EA3D99F8EC6D94
:10C7D00084E80700042B00F23C8101A252F823F008
:10C7E000FDC9000853CA0008F3C90008D1C90008F0
:10C7F00003C6000899F8EA3D082B00F00281029B6D
:10C800000026AD4DCBF83432AC4C99F8EA7D8AF86D
:10C8100088648AF8C0740FCD0FC40FCD0FC499F887
:10C82000EE3DA4F58A729B1B049295E8070018BFA1
:10C830000123354684E8070031464FF44072A04892
:10C840008BF8303250F03CFA9E4BDDF810809E4E53
:10C850000393CDF810900AE033F012FFF368082D2F
:10C8600006F1200608F1180848F8043C5DD0DBF812
:10C870003432AB4259DD039A12F8013B0392049A19
:10C88000134493F8EF7D384630F0ECFE044638460A
:10C8900033F00CFE049A8146E77992F8EB2D0AB149
:10C8A00087F0010707F001049BF8302201348AF871
:10C8B00087440AB187F00107484633F0C3FE0028D9
:10C8C00000F084814846013536F0C4FCC6F80C906F
:10C8D00061017060EAB2377441F00D017161B9F124
:10C8E000000F05D04FF0030389F8072089F80630C0
:10C8F000484633F065FEF9074846ADD433F0C6FE2E
:10C90000ACE79BF83C32A3B970490023704ACBF8DE
:10C910001412CBF81C22CBF82C320BE7082B7FF437
:10C92000B1AC6C4BCBF83832ACE46448CBF82C0299
:10C9300000E7D4F81480B8F1000FE5D0A3694046B1
:10C940000B9336F06BFD644B2422451E0A9002FBCC
:10C95000053595F8C831392B00F02C8120684BF053
:10C960004DFB024639210A98D2B236F067FD002805
:10C97000CAD000230793D7E40A9890229AF811307E
:10C9800056494CF027FAD4E5B823721C03FB06B3D2
:10C990008BF84022C3F84452EFE48D231322CAF8E7
:10C9A0005C30B7E59BF83C32CAF85470002B7FF43A
:10C9B00047AD1F461A4641E001224FF4807307F04D
:10C9C0000207CAF86820CAF87C30CAF874701AE501
:10C9D0009FED438ADFED438A002E3D4A424B16BF4E
:10C9E000414600211346414A04914149CBE96A215D
:10C9F00016E69FED408AF0EE488AEDE7DFED3E8ACD
:10CA000001E60BF5FC733D4D99F8EE6D1C460F9356
:10CA1000003E0FCD0FC40FCD18BF01260FC4384BF9
:10CA20008BF83062CBF8103295E8070084E80700F5
:10CA300077E7344A02EB4303B3F83C24DAF8981062
:10CA4000AAF80C20B1F8B43023EA0203A1F8B430FC
:10CA5000FCE49FED2D8AF0EE488ABDE7AA6905F156
:10CA60001800022342F40062AA618BE5002353E61A
:10CA7000FAFE697AFCEEE77A244B17EE901AD3F8A7
:10CA800074214FF6FF73B2FBF1F11944090CB2FBAC
:10CA9000F1F216E607EE903AB8EE677A07EE902AC2
:10CAA000F8EE676A27EE0A7A16E600BF08D4050892
:10CAB000D450012010D3050834D40508A014002058
:10CAC000A02B00204A490120A02E0020E1C103082C
:10CAD000D9C10308F13D04080000012059370000C6
:10CAE000ACC5A737ACC5A73659FE0208E5C1030897
:10CAF000FD020308282930386F12833A60D40508F4
:10CB000091810508B0CF05086F120339582A01201A
:10CB1000503B01202B6A1F432F624CE5AA6905F1A7
:10CB20001800002342F00802AA612BE523684FF6A3
:10CB3000FF7162793433995051E5D8F800205FFADB
:10CB400088F3182128F0FF0022F00102103BC8F8FA
:10CB50000020B3FBF1F105F031FE0A984CF060F9CA
:10CB600078E45FFA88F31821024628F0FF00103BB2
:10CB7000B3FBF1F105F0DCFDD8F8003043F0100311
:10CB8000C8F80030ADE40B9A5821DFF8A0C1CAF80C
:10CB90003C20039A01FB02C12268CAF84830CAF857
:10CBA0009C1002F13403CAF81C1062791344CAF8CD
:10CBB000183070E420684BF021FA95F8C9318342AF
:10CBC0007FF4CCAE089B0793FFF7AEBB4E4B012220
:10CBD0004E498AF88824CBE977314D4BCBF8E831C0
:10CBE000A4E64C4A4A4BCBF8AC21CBF8B4319FE5D4
:10CBF000AA6905F11800012342F00802AA61C1E404
:10CC000000224FF0FF311346ADF8442012921492E7
:10CC10008DF854201391404A52F8332095424DD05C
:10CC200001330E2BF7D10020069B9A1F0C92FCF7C4
:10CC300009FF2B6839499DF8302023F00103D1ED1D
:10CC40005D7A022A2B60F8EE677A22D83449DFED4C
:10CC5000356A01EB820292EDFF7AB8EE477A87EEF1
:10CC6000870A30EE260A4EF047FD069B0138082B56
:10CC7000ADF8440014BF13225F22002311A92846F7
:10CC8000139214938DF85430129305F0C3FCFFF700
:10CC90009CBB9FED257A9FED230AA7EE870A4EF0F5
:10CCA0002BFD01381322ADF84400E6E7AA6905F12F
:10CCB0001800032342F00802AA6163E4184A02EB59
:10CCC000C30393F89003AFE7EA6905F11800042362
:10CCD00042F00802EA6155E4EA6905F1180005230B
:10CCE00042F00802EA614DE4EA6905F11800062302
:10CCF00042F40062EA6145E46A6D05F11800072319
:10CD000042F008026A653DE4E5C10308E1C1030899
:10CD1000D9C1030865FF02083CD30508582A012041
:10CD2000B0CF05080AD7233CFCF4B234E02300203E
:10CD300070B5524E96F8E80133F0B8FB96F8E95119
:10CD400060B12D2304462021C38033F039FC0A2032
:10CD500030F042FE204636F073FA18B9D6F8C434E3
:10CD6000DA0000D570BD013D092DFBD896F8E741EA
:10CD7000CCB940202BF0C8F90028F3D090F904304A
:10CD800096F8B911092BC8BF143B0A29334493F80C
:10CD9000C84466D093F8D43496F8E621002A08BF38
:10CDA0001C46002CDED0204633F080FB054608B13F
:10CDB0002D23C3800121284633F002FC01210846BF
:10CDC00033F00EFD0121284633F0C0FC3C2030F04A
:10CDD0000FFE0021012033F003FD96F8E9311BB36B
:10CDE000002400210134084633F0FAFC002102201F
:10CDF00033F0F6FC0021284633F0A8FC782030F010
:10CE0000EBFD0121002033F0EBFC0121022033F087
:10CE1000E7FC0121284633F099FC782030F0DCFD56
:10CE200096F8E9319C42DCDB96F8E7318BB9D6F80D
:10CE3000E83103F0FF13B3F5803F93D1D6F8C43443
:10CE400013F080538ED186F8E931BDE8704043F08D
:10CE50007FB8322030F0CCFD2846002133F0B0FB03
:10CE6000E5E7D6F8EC345B057FF57CAF0EF086FC89
:10CE700000287FF477AF002C95D173E7484C012050
:10CE800030B40438043A0C1F01F1080554F8043F8B
:10CE900052F8041FAC42A3EB010340F8043FF5D164
:10CEA00030BC704738B5041E0D4611DB092C1FDC61
:10CEB0000846134B0021134AA3FB04C34170DB084F
:10CEC00003EB8303A4EB4303D35C0370284638BD14
:10CED00064422D230846092C00F8013BE9D9084B90
:10CEE00001460A22A3FB0430C00841F07BFFE0E7C3
:10CEF00003480A22A0FB0430C00841F073FFD8E7C2
:10CF0000CDCCCCCCF8580608344870B490F8F03446
:10CF1000A3F13001092958D800F59E6400F2FF40C2
:10CF2000224612F8015FA5F13001092904D8824296
:10CF3000F7D1002070BC7047141B022C4BDD284831
:10CF4000002101E010F8013B01EB8101161A0446B3
:10CF500003EB4103022EA3F1300303F0FF01F1DCE8
:10CF6000204B03FB01F1A2424FF000030ED903EB6B
:10CF7000830314F8016B5B00A242A3F13003334436
:10CF800003F0FF03F3D1184800FB03F32E2D06D066
:10CF90001648A0FB032370BC01EB930070470132DD
:10CFA0000425002404EB84041078013D303864002B
:10CFB0000928A4B2204401D8013284B215F0FF053B
:10CFC000F0D1642202FB0433E2E700211D4600F5A4
:10CFD0009E620B46DAE70021054CC4E7484C01206D
:10CFE000395101208096980040420F00ABAAAAAAAE
:10CFF0003851012038B50D460446FF2100682A4605
:10D000004FF05EFE22682A44226038BD0C46164668
:10D01000054683B529F0F2FA204629F0EFFA0021FF
:10D02000204B0846002E08BF1E4633F0D9FB0021D6
:10D03000012033F0D5FB284630F054FDB0B101217A
:10D04000002033F0CDFB284630F044FD0746204653
:10D0500030F044FD0028FAD03946204630F068FD13
:10D060003846B0470021084633F0BAFB204630F07E
:10D0700039FD0028DFD00121002033F0B1FB20462C
:10D0800030F028FD01462846019130F027FD019936
:10D090000028F8D0284630F04BFD0021084633F038
:10D0A0009FFBC8E775560308F0B5002289B0234EF0
:10D0B00004AF13460A61BC46C1E90022C1E902225D
:10D0C0000268C2F3855040FA03F46546E40703D5CD
