:020000040800F2
:1000000000000120C9EF040865F0040891E5030829
:10001000F5E5030865F0040865F004080000000039
:1000200000000000000000000000000065F004086F
:1000300065F004080000000065F00408F18D030875
:1000400065F0040865F0040865F0040865F004082C
:1000500065F0040865F0040855E703084DE7030858
:1000600045E703083DE7030835E703081DE40408F6
:100070000DE40408FDE30408EDE30408D9E30408F3
:10008000C5E30408B1E3040865F0040865F004085A
:1000900065F0040865F0040865F004082DE703081E
:1000A00041C3040839C4040831C3040861C4040806
:1000B00029C4040819C4040809C404082DE4040868
:1000C00051E4040865F0040865F0040865F00408CC
:1000D00065F00408798E0308698E0308598E0308B9
:1000E00025E7030865F0040865F0040821C3040847
:1000F00051C3040865F0040879C304089DE30408AB
:1001000065F0040865F00408F9C3040865F0040804
:10011000498E030865F0040889C3040835E1000826
:1001200089E3040875E3040861E304084DE3040867
:1001300039E3040800000000000000000000000097
:1001400000000000000000000000000025F600088C
:1001500025E3040811E30408FDE20408398E0308CE
:1001600065F0040865F0040865F0040865F004080B
:1001700065F0040865F004080000000000000000BD
:1001800065F0040865F0040865F0040865F00408EB
:1001900065F0040865F004080000000065F004083C
:1001A00000000000000000000000000065F00408EE
:1001B00065F0040865F0040800000000000000007D
:1001C000000000000000000000000000000000002F
:1001D00000000000000000000000000065F00408BE
:0801E00020EB04000100000007
:1001E800031101000A000000C0380120E046012088
:1001F8000000000031100108DC4601202320010026
:100208001000000090380120F04601200000000096
:1002180049320208EC4601200D1001004C00000094
:100228003C38012004470120000000007137030812
:1002380000470120FD0101001E000000C437012015
:100248005447012000000000D778030850470120D8
:10025800FB010100010000007446012078470120DD
:1002680000000000218F040874470120FC010100F0
:1002780009000000404501208047012000000000DF
:10028800318F04087C470120F701010006000000B7
:100298009437012090470120000000007866060886
:1002A8008C470120F9010100040000008437012077
:1002B8009C47012000000000657903089847012049
:1002C8002A0201000800000078370120A447012015
:1002D800000000007E660608A047012034000100E7
:1002E80010000000A8360120B047012000000000DF
:1002F800D1550208AC470120110201000800000096
:1003080080360120C44701200000000086660608E8
:10031800C0470120121201000400000078360120B5
:10032800D0470120000000008E660608CC47012057
:10033800183001003800000040360120D84701205D
:1003480000000000D58F0408D44701202052010086
:1003580008000000B4350120144801200000000006
:100368005D39020810480120061001002400000031
:10037800E43401202048012000000000518F0408C7
:100388001C480120000201000B0000003832012047
:100398004848012000000000218404084448012046
:1003A800130201000400000014280120584801200D
:1003B800000000009266060854480120FA01010076
:1003C80003000000243101206048012000000000E3
:1003D800058404085C4801200C02010004000000A8
:1003E8004C3001206848012000000000ED8304081B
:1003F80064480120FE010100140000006428012067
:100408007048012000000000858404086C48012021
:100418003710010030000000B85C0120645F012043
:100428000000000098660608605F01200E020100C7
:1004380002000000EC4D0120985F01200000000040
:10044800C8660608945F0120161001000600000027
:10045800E44D0120A05F012000000000CA660608E4
:100468009C5F01202F100100220000003C5F01204A
:10047800AC5F012000000000D0660608A85F0120DC
:1004880023220100100000003C4B0120D45F012012
:1004980000000000F4660608D05F01201E0001007D
:1004A80009000000284B0120E85F0120000000003F
:1004B80004670608E45F0120052001000C00000025
:1004C800C44D0120F85F01200000000010670608F5
:1004D800F45F01201230010010000000104B0120D1
:1004E80008600120000000001C6706080460012065
:1004F800FD0701007C000000BE4901201C600120AE
:1005080000000000CD15010818600120F5910100D8
:100518006C000000844A01209C600120000000005B
:100528009D37010898600120261001000E00000088
:100538001C6101200C61012000000000D513010896
:10054800086101200B3001001A000000A4490120B5
:1005580060610120000000002C6706085C61012032
:100568001F50010024000000044C0120806101207C
:1005780000000000486706087C61012005020100B0
:1005880004000000384E0120A8610120000000008E
:100598006C670608A4610120012001000C0000001E
:1005A800546B012094760120000000007067060853
:1005B800907601200C400600E4000000086A012043
:1005C800A476012000000000C9C10208A07601201D
:1005D8000A90010024000000C46901208C770120E2
:1005E8000000000001320208887701200E30030065
:1005F800BC01000000680120B47701200000000061
:1006080079390208B07701201310010004000000B6
:100618000074012074790120000000007C6706083E
:1006280070790120010101000400000038670120F1
:100638007C7901200000000000000000787901208A
:1006480000010100040000003067012084790120C6
:10065800000000008067060880790120020101007F
:10066800030000002C6701208C79012000000000A5
:100678000DC2020888790120220201001C01000035
:10068800687101209479012000000000698E040837
:1006980090790120010201000B000000446701204D
:1006A800B47A01200000000011840408B07A012007
:1006B8000202010003000000D06B0120C47A01206F
:1006C8000000000000000000C07A01201B020100A9
:1006D80010000000C06B0120CC7A0120000000004F
:1006E800C9830408C87A01201B2001000C000000FF
:1006F80038630120E07A012000000000E1AF010822
:10070800DC7A012021020100F0000000B86101201C
:10071800F07A012000000000D1AE0108EC7A012037
:100728001500100070000000C0890120E08A012037
:100738000000000000000000DC8A01202A000800F8
:1007480060000000D0880120548B012000000000C8
:1007580035390208508B01202C00040010000000DD
:10076800C88B0120B88B0120000000001138020856
:10077800B48B012029201400780000005C86012039
:10078800DC8B01200000000000000000D88B012055
:100798001A0001000E00000080850120588C0120FD
:1007A8000000000084670608548C01202B0012000A
:1007B800240000005C8501206C8C012000000000F2
:1007C800E5370208688C01201C0202001C000000AA
:1007D8003C820120948C012000000000C18C040898
:1007E800908C01202830010016000000588201205A
:1007F800B48C012000000000A5390208B08C01204B
:10080800140001000500000028820120D08C01207E
:100818000000000092670608CC8C01200A02010043
:1008280014000000C491012024920120000000005F
:1008380045C30208209201201010010002000000A8
:10084800309001203C9201200000000098670608C3
:1008580038920120F831010006000000389101208B
:1008680044920120000000009A6706084092012087
:10087800030001000100000048910120509201206E
:1008880000000000000000004C9201201900010047
:1008980005000000E88F01205892012000000000A8
:1008A800A067060854920120020001000C00000015
:1008B800049301205C950120000000000000000066
:1008C80058950120F62101000C000000A094012099
:1008D8006C95012000000000A867060868950120B3
:1008E80025201E002C010000109301207C9501207A
:1008F8000000000000000000789501202902010096
:100908004000000074920120AC9601200000000015
:10091800B4670608A89601202C0201000400000014
:1009280020950120F096012000000000F4670608D9
:10093800EC960120081204001400000064A00120B5
:1009480064A30120000000002984040860A301209A
:1009580028020400040000007C9D01207CA30120E3
:1009680000000000E983040878A30120270204009E
:1009780004000000789D012084A3012000000000ED
:10098800DD83040880A30120160215003F00000043
:10099800C89701208CA3012000000000B18E040834
:1009A80088A301201A0201003C0000008C97012056
:1009B800D0A301200000000035900408CCA301203A
:1009C800031201003D000000749F012010A40120C3
:1009D80000000000F86706080CA401203820010078
:1009E800030000001497012054A401200000000017
:1009F8003668060850A40120270001000400000002
:100A0800DCA40120E4A50120000000003A680608E3
:100A1800E0A501200400080080000000E0A40120F7
:100A280060A501200000000000000000E8A50120EA
:100A3800100201000100000064AB012060AB01203E
:100A4800000000003E6806085CAB01201D020200A1
:100A5800060000003CAB012070AB01200000000044
:100A6800000000006CAB0120061204001800000012
:100A780044AB01207CAB012000000000518D04082C
:100A880078AB01201F0208001000000018AB0120FD
:100A980098AB0120000000007583040894AB012086
:082800000000000000000000D0
:10800000026C03463AB11A6CD20608D50022012050
:1080100083F83C207047426480F83C20F3E71A6CF8
:1080200049494A4811401A6841F00201F0B4196404
:108030004168474D21F44031416041685C6821430B
:1080400041605168186921F48071D3F808C0DF6875
:10805000516054689E6A44EA0024AE4254605468F9
:1080600024F040745460506840EA0C0050609068FE
:1080700020F400609060916841EA0701916054D05B
:108080009068DC6A20F07060906091680E439660A2
:10809000906820F040509060916821439160906812
:1080A0009C6920F002009060916841EA440191606F
:1080B00093F82010002941D05468596A44F40064B0
:1080C000481E5460516821F460415160516841EA92
:1080D00040315160D06A0025DC6920F470005E698F
:1080E000611ED0622846D46A44EA0154D46294687E
:1080F00024F400749460946893F8301044EA4124A6
:108100009460946824F480649460916841EA8621C4
:1081100091605D641A6C22F0030242F001021A645D
:10812000002283F83C20F0BC7047916821F0706118
:108130009160916821F040519160B0E7516821F45D
:1081400000615160C6E700BFFDEEFFFF0023014064
:108150000100000F124B30B41D686B6A28B943EA66
:1081600001430020AB6230BC7047AC6A013803EBBE
:1081700014440BD0002303F14002013305EB8202CB
:10818000DBB25268834204EB1244F4D3403044EA39
:10819000014405EB80004460002030BC704700BF04
:1081A00040180120037870B42BB30246C0F10105DA
:1081B000531912F8014FDBB2002CF9D101335B00E7
:1081C0000E4C03220B8084F8043484F805240178D3
:1081D00079B1022300265A1CE518023354FA82F2C0
:1081E00085F80414DBB282F8046410F8011F00293A
:1081F000F1D170BC70470223E2E700BF40180120B4
:1082000030B5EFF31181802383F312880A4AD2F844
:108210000435D2F80845D2F80405D2F80855CAB298
:1082200082F31188013BA84294BF4FF40060002004
:108230001B1B184430BD00BF40180120012380F8EB
:1082400051307047014BD3F80C057047401801209E
:1082500001207047024BC3F81025C3F8141570476E
:1082600040180120024BC3F81825C3F81C157047AD
:108270004018012070477047212870B505D022288A
:1082800029D0202810D0002070BD0029FBD0072A5B
:10829000F9D1184B18791C685A799B79087100201C
:1082A0000C604A718B7170BD0029ECD0072AEAD1AD
:1082B0001148104B0C680E794D79D0F81425897946
:1082C0001C601E715D719971002ADCD02146D0F8C6
:1082D00010059047D7E70029D5D0022AD3D1064A06
:1082E000D2F81C35002BCED00988D2F81805984753
:1082F000C9E700BF0000012040180120002070479E
:1083000003460A2201481A80704700BF0800012076
:108310000346642201481A80704700BF1400012000
:10832000012901D000207047014BD3F89030184745
:1083300000000120012900D056E1024BD3F88C3017
:10834000184700BF00000120014BD3F888301847C0
:108350000000012010B40B780A46044603F0030322
:10836000012B05D0022B0BD000205DF8044B704789
:108370008B8843B9204611465DF8044B06F08EBD4C
:108380008B88832BF6D0034B5DF8044BD3F88030F9
:10839000184700BF0000012038B5054B04460D46C4
:1083A000DB6F98472946204600F0CCFE002038BD00
:1083B0000000012038B5054B04460D469B6F9847D9
:1083C0002946204600F0F6FE002038BD00000120BE
:1083D00011F0800F01F00F01F0B4D0F8A8424FF077
:1083E0001C0042D1C1EBC10500FB0140002604EB9B
:1083F000850500F5FE7085F8FD61457801708360A4
:10840000C27005B1C180022A01D10023037194F822
:10841000BC33012B1AD00122236884F8BC23417895
:10842000057891422CD003F5006605F00F0103F5A5
:1084300030638A40F16903EB451341EA0242F2617D
:108440001A68120405D5002384F8BC330020F0BC60
:10845000704782681D68C2F30A02C07818492A432F
:1084600042EA804211431960EDE7C1EBC1050126E4
:1084700000FB014004EB85053C3085F83D60BCE71E
:1084800005F00F06D3F81CC803F5106203F500676A
:10849000B14002EB451241EA0C01F961136819047D
:1084A000D1D483681668C3F30A03C0780449334300
:1084B00043EA804343EA855319431160C3E700BF91
:1084C00000800010F0B4002452004E1C2746030F19
:1084D000B0F1204F4FEA001003F1300503F13703EC
:1084E00034BF0D550B5537550234A242EFD1F0BCC5
:1084F000704700BF024808B5FFF754FE014808BDA9
:10850000EC970508441C0120024808B5FFF74AFE15
:10851000014808BDFC970508441C01200B481A229D
:108520000B4B00681B680A80C01801D109487047CE
:10853000094B0822094910B51C68FFF7C3FF042244
:1085400007492046FFF7BEFF024810BD107AF01F12
:10855000187AF01FB0000120147AF01FB200012039
:10856000C2000120024808B5FFF71CFE014808BD03
:1085700008980508441C0120024808B5FFF712FEC0
:10858000014808BD14980508441C01200423014833
:108590000B807047CC00012003460A2201481A8054
:1085A000704700BFD00001200346202201481A80F6
:1085B000704700BFDC0001200346202201481A80DA
:1085C000704700BFFC0001200346202201481A80AA
:1085D000704700BF1C01012003460A2201481A808F
:1085E000704700BF3C0101200023D0F898221846B4
:1085F000137370470346222201481A80704700BF58
:10860000480101200346222201481A80704700BF1A
:108610006C0101200346222201481A80704700BFE6
:108620009001012003460A2201481A80704700BFCA
:10863000B40101200346432201481A80704700BF5D
:10864000C00101200346432201481A80704700BF41
:10865000040201200346432201481A80704700BFEC
:1086600048020120D0F8943283B110B5D0F890427E
:1086700094F80002FF2807D09B68214694F8012255
:108680009847FF2384F80032002010BD0020704777
:1086900001F00F01D0F8A822C1EBC10102EB810269
:1086A00038B5D0F89032D0F89452D2F8144203F58D
:1086B0000371EA68D3F80402C3F80C429047002023
:1086C00038BD00BF08B5D0F88C325B6898470020F1
:1086D00008BD00BF08B5D0F88C321BB11B689847A5
:1086E00000B908BD022008BD0B4B01E0013B10D0D2
:1086F0000269002AFADA0369074A43F001030361B9
:1087000001E0013A05D0036913F00103F9D11846DD
:1087100070470320704700BF400D0300144B10B496
:10872000046C9C421AD800F53060002301290361D3
:10873000036943F400230361036943F018030361F1
:10874000036943F0C043036104D14261036843F00D
:108750008023036000205DF8044B7047D0F8003B95
:1087600000F53060002BE0DA00205DF8044B704724
:108770000A30544F38B5D0F8A84201F00F036268B0
:1087800093422BD80A062BD41C25C1EBC102002032
:1087900005FB014104EB820201F5FE7182F8FD0147
:1087A00001220B708A7094F8BC03904216D084F8B2
:1087B000BC234A782068012A09781DD000F5306270
:1087C00002EB41121568002D00DBF1B9116841F48C
:1087D000001111601BB3002384F8BC33002038BDA6
:1087E0001C21C3EBC302012001FB034104EB820205
:1087F0003C3182F83D00D3E700F5106202EB4112F4
:1088000015680029E2D0002DE0DB116821F08041DD
:108810001160116841F400111160002BDBD104F5E7
:108820007172217CFFF77AFFD5E700BF10B50446CF
:108830008021FFF79FFF00212046BDE8104099E707
:108840004B78012BF0B50D7826D000F53060404C08
:10885000404B00EB45104D690669344004610469E2
:10886000234003618B6805B14B610469C3F31203B4
:10887000012A44F400240461046943EA0403036107
:1088800005D0036843F0044303600020F0BDCB68CB
:10889000002BF6D04361F4E74B6993B300F5106405
:1088A0002B4FD1F808C004EB45142A4E6345D4F889
:1088B00010E00EEA07072761276906EA0706266126
:1088C000266938D946F40026C1F814C0CCF3120347
:1088D000012A2661266943EA0603236126D0BCF1FA
:1088E000000F08D005F00F020125D0F8343895406C
:1088F0001D43C0F834582368002043F0044323602C
:10890000F0BD00F51060134EA3F50023012A00EB23
:108910004514206906EA00062661206940F400201B
:108920002061206903EA00032361E4D10B69002B75
:10893000E1D06361DFE746F40026C3F31203012AA6
:108940002661266943EA06032361CBD1EEE700BF27
:108950000000F8FFFFFF07E02DE9F0434D780F78A6
:10896000012D4DD000F530636F4E4C6903EB47137A
:108970006E4D1F693E401E611E6935401D616CB31E
:108980008D68012A6A4E2C441F6904F1FF34B4FB40
:10899000F5F41FFA84FC06EAC44405FB0CF544EA2E
:1089A0000704C5F312051C611C6945EA04051D6135
:1089B00021D0CA78012A0AD1D0F8082812F4807F81
:1089C0001A680CBF42F0005242F080521A601A68D6
:1089D00042F004421A600020BDE8F0838C68012A4E
:1089E0001D69C4F3120444EA05041C611C6944F4C3
:1089F00000241C61DDD1CA68002ADAD05A61D8E7A8
:108A00004B6900F51064002B37D104EB4714474E37
:108A1000454D012AD4F810C00CEA060626612669E5
:108A200046F400262661266905EA06052561CE780A
:108A300072D0012E59D1D0F8085815F4807F2568DE
:108A40000CBF45F0005545F080552560256845F080
:108A500004452560002ABED19BB203339C08BAD0DE
:108A6000CA6800F5805302EB840403EB073352F825
:108A7000041BA2421960FAD1ADE704EB4714D1F808
:108A800008E0DFF8A490C3F31206D4F8108003EBDB
:108A90000E0C08EA09090CF1FF3CDFF89080C4F8DD
:108AA0001090D4F81090BCFBFEFE09EA0808DFF82D
:108AB00080C0C4F810800CEACE4CD4F810E04CEA28
:108AC0000E0CC4F810C0D4F810C046EA0C0626619B
:108AD000CE78012E10D0012A22D007F00F03D0F853
:108AE00034789D403D43C0F834582368002043F05B
:108AF00004432360BDE8F0832569012A25F0C045C1
:108B00002561256945F00055256194D10D69002D39
:108B100091D0164665618CE70D69002D89D0F9E783
:108B20000D69002DF6D1E0E70000F8FFFFFF07E038
:108B30000000F81F70B5D0F8A852C1EBC1000C4678
:108B4000002605EB80001C21C0F80822C0F8103276
:108B500080F8FC41C0F8146280F8FD612B6901FBCC
:108B60000451012B01F5FE7108BFC0F80C22DAB2E6
:108B700028681CB9FFF764FE002070BDFFF7ECFE0B
:108B8000002070BD0E48D0F8B03710B5A3B190F8F2
:108B9000304500F5A460D3F8042234B1002440230A
:108BA0000121FFF7C7FF204610BD4FF400730121DC
:108BB000FFF7C0FF204610BD0224204610BD00BFB5
:108BC000401801200C49D1F80C359BB1D1F8CC27C5
:108BD000013B10B512F8014BC1F80C35C1F8CC2798
:108BE000047013B10123184610BDFFF7CBFF01231A
:108BF000184610BD184670474018012013B5074CA1
:108C0000D4F8CC3703B9FEE701A8FFF7DBFF002853
:108C1000F6D09DF8040002B010BD00BF401801203E
:108C200008B5064A0B68C2F8CC07C2F80C350BB180
:108C3000002008BDFFF7A6FF002008BD4018012056
:108C400070B5D0F8A052044695F8183213B9D5F88B
:108C500014323BB981212046FFF78CFD6B7A022B41
:108C600007D070BD6B7A002BF4D10121FFF782FD94
:108C7000F0E705F5037220461F230121BDE870408F
:108C800058E700BF0022836BA3F85A20A3F85220B4
:108C9000704700BF836B1A6810B45C6F986F91685F
:108CA000090601D5212C1AD09168490601D5222840
:108CB00006D0DA6F5DF8044B42F01002DA677047B5
:108CC00000202024A3F85A00116821F4907111604B
:108CD000916821F00101916018669C67E9E7002125
:108CE0002024A3F85210116821F0C00111605C67C4
:108CF000DAE700BF704700BF704700BFC369B3F534
:108D0000807F12D0826B002120201368A2F85A10B5
:108D1000196821F480711960996821F00101996046
:108D2000996821F04001996090677047C369B3F575
:108D3000807F0CD0826B00211368A2F852109A68D1
:108D400022F080029A601A6842F040021A6070476E
:108D5000836B0121002283F83D101A77704700BF12
:108D60000122836B83F83D20704700BF90F8BC332D
:108D7000012B29D0012380F8BC330B060ED40268E6
:108D80001021124B116101E0013B02D01169C906AB
:108D9000FAD4002380F8BC331846704701F00F0165
:108DA0000A4B890110B441F020010468216101E0FF
:108DB000013B02D022699206FAD4002380F8BC332A
:108DC00018465DF8044B704702207047400D0300C1
:108DD00070B5037C0446012573BB4FF40073022277
:108DE0002946FFF7F5FA4FF40073C4F858510222F0
:108DF00081212046154EFFF7EBFAE562D4F8A43244
:108E00000025C4F8A06235812846A6F85C521B688C
:108E100098470121D4F8A802FFF7A8FF8121D4F8D0
:108E2000A802FFF7A3FF06F5037220461F230121C6
:108E3000FFF780FE284670BD402302222946FFF737
:108E4000C7FA4023C4F85851D1E700BFCC01002035
:108E500011F0800F4FF01C0301F00F0170B432D1FC
:108E600003FB0103C1EBC102002400EB820203F506
:108E7000FE7382F8FD41197090F8BC23012A31D0AD
:108E80000121026880F8BC135C781D7802F500634C
:108E90008C422AD005F00F04DE6B02F53062A1404F
:108EA0001C4C02EB451226EA0146DE63DD6925EA29
:108EB0000141D96113681C401460002380F8BC3361
:108EC000184670BC704703FB0103C1EBC1020124CB
:108ED00000EB82023C3382F83D40197090F8BC23CD
:108EE000012ACDD1022070BC704705F00F01DE6B66
:108EF00002F510628C40084902EB451226EA04068E
:108F0000DE63DD6925EA0404DC6113681940116041
:108F1000D3E700BF0078F3EF007833EC11F00103E2
:108F200007D090F8413003F02803282B0CBF4223D0
:108F3000F2238A0709D590F8412002F02802282A56
:108F40000CBF43F0440343F0F4034A07016848BFF1
:108F500043F0B8030A6822EA03030B60704700BFBE
:108F6000836B0022D3E90E0102650A6593F8412064
:108F7000602A02D1202283F8412070472DE9F8436E
:108F8000884600294FD04718461E284C802507F1F7
:108F9000FF39EFF3118185F31288D4F80425C9B2A3
:108FA000D4F80805D4F80435D4F808C581F311883D
:108FB000634594BF4FF400630023121A1344012B3E
:108FC0001AD101202FF008FFEFF3118185F31288E9
:108FD000D4F80425C9B2D4F80805D4F80435D4F877
:108FE000087581F31188BB4294BF4FF400630023DE
:108FF000121A1344012BE4D0EFF3118285F3128887
:10900000D4F80835D2B216F8011F234483F8D017DC
:10901000D4F808350133C3F30A03C4F8083582F3E2
:1090200011884E45B5D14046BDE8F883401801206F
:10903000F8B5002390F8505080F85030CDB10F4E65
:1090400096F89427032A16D1D6F8D07F00F13C0475
:1090500029462046FFF792FFD6F8D03F2D1A044448
:10906000DB1B322B01D8002DF2D1B5FA85F0400977
:10907000F8BD0120FCE71846FAE700BF40180120C0
:10908000002280F85120D3E790F85020531C02446E
:10909000DBB280F8503082F83C1090F851200AB1D1
:1090A000132B00D9C4E77047F8B50B4E0D46144694
:1090B00096F89437032B0ED1D6F8D07F002C0ADD1A
:1090C00021462846FFF75AFFD6F8D03F241A054418
:1090D000DB1B322BF2D9F8BD4018012010B50C462D
:1090E00044F02AF850B9074B93F8D43F012B4FF0C6
:1090F00012030CBF04480548238010BD1223044806
:10910000238010BD40180120B4020120A0020120DC
:109110008C02012038B5044600250121D0F8A802B0
:10912000FFF796FE8121D4F8A802C4F85851FFF742
:109130008FFED4F8A002E56248F04EF92846C4F844
:10914000A05238BD38B504468321D0F8A8020025C6
:10915000FFF77EFED4F89802656518B148F03CF937
:10916000C4F89852002038BD38B504460025812146
:10917000D0F8A802FFF76CFE0121D4F8A802E5623E
:10918000FFF766FED4F8A8028221C4F85851FFF711
:109190005FFED4F8903225644BB1D4F894325B680A
:1091A0009847D4F8900248F017F9C4F8905200207C
:1091B00038BD00BF10B50823032283210446FFF702
:1091C00007F901231020636548F0FEF8C4F89802FF
:1091D00018B103460020187310BD022010BD00BF57
:1091E0002DE9F041037C04460125BBBB4FF400731D
:1091F00002228121FFF7ECF829464FF40073022286
:109200002046E562FFF7E4F8C4F858514FF0010832
:109210000823032282212046FFF7DAF84FF4077073
:10922000C4F8408048F0D0F80546C4F8900258B31E
:10923000D4F8943200271B689847267CC5F814722E
:109240004146D5F804222046C5F81872AEB1402335
:109250003E46FFF76FFC3046BDE8F0814023022216
:109260008121FFF7B5F82946402302222046E56216
:10927000FFF7AEF8C4F85851C8E74FF40073FFF792
:1092800059FC3046BDE8F0814646E4E7154BDB6803
:10929000C3F3022310B4C3F107041A1D042C28BF22
:1092A0000424062A4FF0FF328CBF033B0023A24068
:1092B000002821EA020101FA03F108DB09010A4B47
:1092C000C9B2034483F800135DF8044B704700F003
:1092D0000F000901054BC9B2034419765DF8044B30
:1092E000704700BF00ED00E000E100E0FCEC00E0B2
:1092F00038B50F4B0F4AD3F8D83FA2FB03239B0985
:10930000013BB3F1807F10D20B4A0024F0200B49BF
:109310000725536081F82300214694604FF0FF3009
:109320001560FFF7B3FF204638BD012038BD00BFF0
:1093300040180120D34D621010E000E000ED00E085
:109340004309012200F01F0084B0013B02FA00F043
:10935000032B0BD8DFE803F015021E0C124B5A6CDE
:1093600002435A645A6C10400090009B04B070474E
:109370000D4B1A6B02431A631A6B10400390039B48
:10938000F4E7094B5A6B02435A635A6B1040029040
:10939000029BEBE7044B1A6C02431A641A6C1040F0
:1093A0000190019BE2E700BF0038024010B4B8B161
:1093B0000D4CD4F8DC3F102B05D1052100205DF8C1
:1093C000044B35F075B903EB4302224482F8E11FE8
:1093D000012182F8E00F0B4482F8E21FC4F8DC3F61
:1093E0005DF8044B704700BF401801202DE9F04F95
:1093F000C54C002387B0A4F1E80814F8D42C44F835
:10940000E83CC8E90133C8E903331AB114F8D33C86
:1094100004F8E83C14F8D23C1BB114F8D13C04F831
:10942000D93C14F8CE3C1BB114F8CD3C04F8DE3C1A
:1094300014F8D03C1BB114F8CF3C04F8E33C14F80A
:10944000CC3C013B5FB2DBB2019702933B46013358
:1094500000F05681AD4EB02200234FF0010906F511
:10946000227A02FB0761AA4809FA07F9009347F03C
:1094700071FFA84D5246009B06F5047BCA462E4656
:109480001F469146307890B3A3494FF0300C03E06B
:1094900089452CD011F808CF6045F9D14A7812EAF5
:1094A0000A0FF5D032F0F2FAFB1DDBB210B1002149
:1094B0008371C171032132F08FFB3078002330219A
:1094C00001E01BF83310884200F0B4810133102B07
:1094D000F7D14FF0000C009A0121072086F801C057
:1094E000531CB270F170DBB2307100930B46013740
:1094F0000536042FC6D114F8BC0C01270393FFF7DF
:109500001FFF4FF44031854E0022009B44F8B41CED
:10951000304654F8C01C44F89C3C44F8A07C44F805
:10952000A87C04F8887C44F8B02C44F8AC2C04F8EF
:10953000982C44F8942C44F8A42C44F8B81C44E922
:109540002422FEF75DFD019B002B40F0FD80039B74
:10955000002B00F0F980A6F1080045F005F8012382
:1095600008F114084FF0000A9B46EA78002A40F000
:109570001B810535A845F8D1019B0220029923449F
:1095800013F9C42C35F07CF90546002800F0B880AA
:10959000D0F80480404635F09DF9614A2421431EED
:1095A00001FB032393F8E472002F40F0A980062208
:1095B000A3F8E422002800F0A3804046DFF8808171
:1095C00035F088F944F0ACF9009B6A68012B4FF440
:1095D0000063A8684FF400558CBF4FF480610021F0
:1095E00044F8702C4FF4003244F8601C4FF4807142
:1095F00044F85C3C032344F86C0C404644F8483C77
:1096000044F8687C44F8647C44F84C7C44F8502C62
:1096100044E9117744E916510BF0F2FC14F87C3C54
:1096200044F8808C012B44F8386C059768D00123EE
:1096300054F8B85C04F87C3CAB68DE0714D4394BB2
:109640003949D3F8D83FAA68B3FBF1F342F00102DD
:1096500003EB4303AA600593059B2BB1059B013BDC
:109660000593059B002BF9D1AB68D80748D554F872
:10967000782C2E4B134043F4807344F8783C6B688D
:10968000590507D554F8783C23F4405343F48053EC
:1096900044F8783C54F8783C13F4805300F035815A
:1096A00054F8743C23F0060344F8743C204800232B
:1096B00020496FF0220244F8300C1F4804F87C3C2B
:1096C00044F8341C05F14C0144F8240C2A606E68FF
:1096D000009B46F08066194A19486E60AE6846F4F1
:1096E0008076AE600BF000FC164B5A68D20640F054
:1096F000F58054F8B83C9A6812F0405F00F00081A1
:1097000007B0BDE8F08F00BF3829012028170508F1
:1097100078280120502801203819050880280120C8
:10972000000001204018012040420F00FEF8FFFF1A
:10973000950D0108990D0108850D010838040020D8
:10974000C828012000230140B02200217648482784
:1097500047F072FEB0220021734847F06DFE734B54
:10976000384604F80C7C44F8103CFFF7E9FD4FF450
:1097700040300023012154F8102C44F8040C6C48AC
:109780002161A16084F828102360636063612376FF
:10979000E361E36044F8082CC4E90833FEF730FCC9
:1097A000614844F0E1FEDAE614F87C0C5A1C697852
:1097B0000128D2B22F79CDF810A039D0092904F8A8
:1097C0007CBC52D94FF0030E6FF01D0054F8B8CC9A
:1097D0004FF007091EFB0100DCF80CE009FA00F964
:1097E00007FA00F02EEA0907CCF80C70DCF80C70D0
:1097F0003843CCF80C00062B4FF0050020D86FF052
:10980000040710FB037354F8B87C1F2000FA03FC14
:10981000786B01FA03F320EA0C007863786B03435A
:109820007B6354F8B83C4148834234D004F87CACA4
:1098300013469EE63F4A02EBC30393F814C24AE67E
:109840000C2B32D86FF0220710FB037354F8B80CBE
:109850001F2707FA03FC076B01FA03F327EA0C073B
:109860000763076B3B430363DBE754F8B80C01EB7A
:1098700041094FF0070ED0F810C007FA09F70EFAA9
:1098800009FE2CEA0E0CC0F810C0D0F810C047EA50
:109890000C070761AFE712291AD01129C6D1264952
:1098A0004B6843F400034B60C0E76FF0400710FBC8
:1098B000037354F8B80C1F2707FA03FCC76A01FAB0
:1098C00003F327EA0C07C762C76A3B43C362A8E7F2
:1098D00019494B6843F480034B60A7E754F8B82C50
:1098E00012498A4214D05B68DB063FF509AF134B7F
:1098F0009A427FF405AF9A6812F0405F7FF400AFA0
:109900009A6842F080429A60FAE644F8743CCDE6E8
:10991000936813F0405F03D1936843F080439360F2
:10992000054B5B68ECE600BF2829012000200140C0
:10993000302901202817050800230140002201409A
:10994000034690F83C00012800F03E810220F0B46C
:10995000012483F83D0083F83C40142A45D8DFE811
:1099600012F04D004400440044007B0044004400D9
:109970004400DA00440044004400AA0044004400CB
:109980004400060144004400440015001A688E6833
:10999000156A0F6825F48015AB4C1562106A55687E
:1099A00020F40010D2F854C040EA0650A74E0CEA4A
:1099B0000404B24244EA072400F0088106F58066F8
:1099C000B24200F003814E6855605465D66510625E
:1099D000506D0C6940F400605065506D20F480605B
:1099E0005065516D41EA0421516500220121104664
:1099F00083F83D1083F83C20F0BC70471A68D1F81A
:109A000008C0156A0F6825F00105914C1562106AAF
:109A10005668956920F002002C408C4D40EA0C00FD
:109A2000AA4244EA070400F0DD8005F58065AA42F9
:109A300000F0D8804D68566094615563106290695B
:109A40000C6940F008009061906920F0040090617A
:109A5000916921439161C8E71A68D1F808C0156A75
:109A60000F6825F010057B4C1562106A56689569E1
:109A700020F020002C40754D40EA0C10AA4244EA28
:109A8000072400F0C38005F58065AA4200F0BE807F
:109A90004D68566094619563106290690C6940F45A
:109AA00000609061906920F480609061916941EA62
:109AB0000421916199E71A688E68156A0F6825F488
:109AC0008055644C1562106A556820F40050D2F835
:109AD0001CC040EA06305D4E0CEA0404B24244EA7F
:109AE000072400F08D8006F58066B24200F0888081
:109AF0004E685560D46116641062D0690C6940F4F8
:109B00000060D061D06920F48060D061D16941EA01
:109B10000421D16169E71A68D1F808C0156A0F6895
:109B200025F480754A4C1562106A5668D56920F490
:109B300000702C40454D40EA0C20AA4244EA07043C
:109B400073D005F58065AA426FD04D685660D46128
:109B5000D5631062D0690C6940F00800D061D0690B
:109B600020F00400D061D1692143D1613DE71A683A
:109B70008E68156A0F6825F48035374C1562106AB7
:109B8000556820F40030D2F854C040EA06402F4E09
:109B90000CEA0404B24244EA07041DD006F58066CC
:109BA000B24219D04E685560546596651062506D8A
:109BB0000C6940F008005065506D20F004005065BD
:109BC000516D2143516510E70220704725F480252F
:109BD0004E6945EA8625F6E625F480354E6945EA64
:109BE0000625DFE726F4407C20F008008E69CF6868
:109BF0004D693843354320F0040045EA0C0619E767
:109C000025F480454E6945EA861571E726F4406CD7
:109C100020F080008E69CF684D6940EA0710354317
:109C200020F040004CEA850632E726F4405C20F440
:109C300000608E69CF684D6940EA0720354320F403
:109C400080604CEA051680E7FF8FFFFE00000140B0
:109C50008CFFFEFFFF8CFFFE8FFFFEFFF8B53D4E31
:109C600096F8A04004EB4403670006EBC30393F8A7
:109C7000A430032B44D8DFE803F0461B0F023C441A
:109C800006EBC404D4F8A830002B58D0013B0025C3
:109C9000C4F8A8302846F8BD3B1906EBC303D3F837
:109CA000A8207AB1013A0025C3F8A8202846F8BDBB
:109CB0003B1906EBC303D3F8A820002AF2D10222F5
:109CC00083F8A4203C4406EBC40494F8B030013B74
:109CD000DBB284F8B0304BBB0323D4F8AC0084F87B
:109CE000A43047F019FDC4F8A800064647F004FD6B
:109CF00080F00100002E0CBF002500F0010525BBFF
:109D000001252846F8BD35F08DFD05460028F7D021
:109D10003C44012342F2107006EBC40484F8A430E2
:109D200047F0FAFCC4F8A8002846F8BD01254FF416
:109D30007A7047F0F1FCC4F8A8002846F8BD47F057
:109D4000E7FC80F00100C5B2B0E7013EC4F8A860AE
:109D5000ACE700BF3829012003681878012801D03A
:109D60000020704793F90430074A03EB430302EBEA
:109D7000431393F85921202AF3D1D3F81831986965
:109D8000C0F3C030704700BF3829012030B5044609
:109D900083B001230D460DF107020848214635F036
:109DA0000BF99DF8072035EA020304D02A43214627
:109DB000024835F0E1FB03B030BD00BFBC2B0120F1
:109DC00038B505460A460C460648294634F0DAFFFF
:109DD00045F08001034834F089FF231A5842584166
:109DE00038BD00BFBC2B012070B50D4C1346D4F814
:109DF00084522A78022A07D00A46014604F52170C7
:109E0000BDE8704035F0D8B82A6A0AB1002070BDAC
:109E10000A46014604F5217034F090FF012070BD20
:109E200038290120036801221B78022B01D035F06C
:109E3000F1BA34F0CFBF00BF30B58DB0FF210023A1
:109E4000012204460DF107058DF8071002A90492BE
:109E50008DF814208DF828200B93CDE90253CDE91D
:109E60000633CDE9083334F0E5FD2268136A002B90
:109E7000FCD10DB030BD00BFF8B55E4C00234FF4EF
:109E8000F07206460F4604F55570202184F85033D1
:109E900084F8513347F0D0FA4FF4F072202104F2E5
:109EA000345047F0C9FA32202EF096FF94F8153757
:109EB000002B00F0938094F8161704F5E36034F05B
:109EC000C3FE002800F08A8094F8150731F0DEFD0B
:109ED0000546C4F8200731F0C1FE00287ED00DB140
:109EE0002323EB800D21284631F076FED4F820079D
:109EF00031F0C8FE404834F0E5FE03463F48A4F880
:109F00001C37FFF799FF8C213C4834F0EFFE1B28EB
:109F100067D10122D4F8203784F850230BB12322D3
:109F2000DA8040220A21354834F02CFF8A21334858
:109F300034F0DCFE94F81437C0F3801584F8B05781
:109F4000002B44D0022B3BD12D4834F0BBFE0346FE
:109F5000A4F8B20794F8B427182A11D1294A2A493B
:109F6000D2F8D82FA4F8B8775208A4F8BA57A4F8B2
:109F7000BC37B2FBF3F2A1FB0212520BA4F8BE27CE
:109F80001E4802220021A4F81C3734F0FBFEC82032
:109F90001A4D2EF015FF8021284634F0A7FE10F050
:109FA0000200F8D17278B3783178C2F12002C3F19F
:109FB000100384F8C12784F8C23784F8C017F8BDAD
:109FC000124834F07FFE0346A4F8B207C2E70A48FD
:109FD00034F078FE0346A4F8B207BBE76FF0010047
:109FE000F8BDD4F82007202131F0F6FD4FF0FF3006
:109FF000F8BD00BF38290120404B4C0050300120F3
:10A00000002D3101401801205917B7D180969800D2
:10A0100008480023024611780632022904D0013391
:10A02000062BF8D10020704703EB430300EB4300FD
:10A03000704700BFFC3001202DE9F0417A4C82B01E
:10A040002422002104F2C47047F0F6F9002394F8AA
:10A05000ED67C4F8E837002E3AD1D4F88C385BB3FA
:10A060009B6A4BB37148984783682BB303880025DC
:10A07000DFF8CCC1013B614660469BB207780630F1
:10A08000032F1DD00135062DF8D1002208780631A6
:10A09000022800F086800132062AF7D1D4F8E817AA
:10A0A000052909D002FB01C20131C4F8E8170220DA
:10A0B0000021938010705180304602B0BDE8F081DD
:10A0C000062303FB0545B5F8C637013B9BB2DCE729
:10A0D00004F2F47594F8EC07C4F8F05708B90026B8
:10A0E000BBE731F0D3FCC4F8FC0731F0B7FD002822
:10A0F000F5D03146284634F0A7FD06460028EED0BC
:10A10000D4F8F03704F68C029868C3F8942008B1AC
:10A110002023C3800D21002531F05EFDD4F8F037F7
:10A120000C27986831F0AEFD414834F0CBFDD4F8EF
:10A13000F0370146012232209980C4F8AC3884F807
:10A14000B0282EF049FE04239F21D4F8F0070DEB30
:10A150000302019534F0F2FD9DF805009DF804100E
:10A160002A4600029DF80630324D40EA014018436D
:10A1700001E0884219D0D3B2013207FB0353D3F870
:10A1800090120029F5D194F8EC070E46A4F8901827
:10A19000A4F89C18C4F89418C4F8981834F028FC53
:10A1A0005BE7062101FB02C281E7B3F89A224FF078
:10A1B0000008B3F8987215021F49B3F89602B3F875
:10A1C000943201FB00F0C4F8945801FB03F14FF402
:10A1D000807305FB07F5C4F8BC18A4F89C28C4F8E4
:10A1E0009858A4F89078C4F8C00884F89E88A4F819
:10A1F000923834F067FDD4F8AC18B5F1807F8880D0
:10A2000006D801220D4B84F8A528C4F88C3824E721
:10A210000123B72508464246694684F8A4388DF8DC
:10A22000005034F0E1FDECE738290120C431012071
:10A23000404B4C002817050840420F009C1A0508A7
:10A24000FC3001202DE9F04F0421B94C00234026B9
:10A250004FF0A04204F5A4656160022194F8BD03AB
:10A260008BB0C4F8C8476661C4F800542260236309
:10A270002361E3626362A161E160C4E907330028FE
:10A2800000F05C8103201E46114684F8BD039368EC
:10A2900023F001039360CB68084643F04003CB6092
:10A2A000FEF722FA8B6B012E054643F480338B6355
:10A2B00016D0FDB194F8D45F0223012D84F8BD338C
:10A2C00000F0FA8023688021012059625A6A42F422
:10A2D00080029A62FDF73EFF00200BB0BDE8F08FD0
:10A2E0008B6843F006038B608B6843F020038B6020
:10A2F000002DDFD123683220DA6822F0C042DA6014
:10A30000DA6842F08042DA600AF02AFF606848B3F7
:10A310002A4601272946C2EBC203561C04EB8303DD
:10A3200083F83C20A3F84220F2B283F83D708242C9
:10A3300083F83F101965C3E91111ECD300221146CF
:10A34000C2EBC203561C04EB830383F8FC21F2B278
:10A3500083F8FD11824283F8FF11C3F81012C3E99C
:10A360008111EDD300222368D4F80CC01646D4F82E
:10A370001080D4F82CE0D4E90671019102F140017B
:10A38000013203EB81010F2A4E60F7D19A6BBEF1C7
:10A39000000F40F03D8122F400129A631A6842F0E7
:10A3A00040021A601A6842F080021A600022012FEF
:10A3B00003F50066C3F8002ED3F80028C3F8002880
:10A3C000D3F8002800F01B81032F00F0188142F021
:10A3D0000302C3F800284FF48461564A196102E071
:10A3E000013A00F02C8119698F06F9D41021514AE5
:10A3F000196102E0013A00F020811969C906F9D417
:10A40000002131617161F161E0B103F510624FF03B
:10A41000904A4FF0006B0F464FF67F399C4607E09D
:10A42000176001311761C2F80890203281425FD075
:10A430001368002BF4DA11B1C2F800A0F1E7C2F8FA
:10A4400000B0EEE73269B8F1010F22F48072326198
:10A4500000F0E78000216FF0804299615A61B8F105
:10A46000000F03D19A6942F010029A619969324A49
:10A470000A439A61019A1AB19A6942F008029A61F4
:10A48000BEF1010F00F0C880002D7FF413AF012151
:10A49000626A84F838508A4284F8BD1300F0D18093
:10A4A0007368032043F0020373600AF059FE94F8C6
:10A4B000D45F012D7FF406AF42F03EFE00287FF40A
:10A4C00001AF23688022284640215A625A6A42F42A
:10A4D00000129A62FDF73EFE20210220FDF73AFEAF
:10A4E00040210320FDF736FE00200BB0BDE8F08FC1
:10A4F000002163460CF530624FF0904A4FF0006B3C
:10A500000F464FF67F39844607E017600131176127
:10A51000C2F808902032614594D010680028F4DA1F
:10A5200011B1C2F800A0F1E7C2F800B0EEE700BF39
:10A5300040180120400D030000383C8000F0FF0669
:10A540004B4B03204FF4C05584F8BC631A6B42F0A8
:10A5500001021A630A221B6B069105A903F001038D
:10A56000089044480493049B0796059509920AF0C5
:10A5700025FAE36A012B71D03D4B062143205A6B2B
:10A5800042F080025A635A6B02F080020292029AF1
:10A590005A6C42F480425A645B6C03F48043039328
:10A5A000039BFEF773FE34490820A26903238860E9
:10A5B0002168012A84F8BD338B68266923F00103E2
:10A5C0008B607FF468AE8A6B2C4B22F48032606B18
:10A5D0008A630128CA6803EA0203CB60CB6823F4CC
:10A5E0004013CB6003D1CB6843F48013CB600846A3
:10A5F000FEF77AF8012E05467FF45BAE70E6BCF1FB
:10A60000000F3FF4E6AE42F00102C3F80028E2E694
:10A6100042F400129A63C9E69969194A0A439A6199
:10A6200032E718490020184A31636FF08041376BD8
:10A630003A4332639861596118E70125E0E6012544
:10A64000D4E684F8F4539969C4F8FC2341F000611E
:10A650000E4A9961596D0A435A6521E74FF4007318
:10A6600005A904480593CDE906660AF0A7F983E732
:10A67000003802400000024000E100E0BFFFBDFFE3
:10A6800004000040000180000300010003000010EE
:10A6900099B10A6B824216D9154BD3F8F42891422E
:10A6A00021D34C3991421ED30B6B9842F9D38B6B5B
:10A6B0009842F6D80B46184670470D4BD3F8F4185D
:10A6C0000A6B904212D30B680BB9F4E70A6B904205
:10A6D0000B4602D38A6B9042EDD951F84C3F002BC8
:10A6E000F4D1184670470023184670470A46D8E749
:10A6F000382901202DE9F047CC0143D103462249F6
:10A700004FF0FF32022443F8081B7E2642601846B1
:10A71000DFF878802644051D6FF07047D8F8F89868
:10A720004FF0010A013E494608E0A3421CD0631CD9
:10A7300045F8043C321B1C460435CAB10B6BA342DE
:10A7400002D88B6BA34204D22046FFF7A1FF01463B
:10A7500090B10A794B6B002AE7D1A34204D0E6D22C
:10A76000631C45F8042CE5E7631C45F8047CE1E72D
:10A77000C8F8F818BDE8F087321B631C494645F855
:10A7800004ACD8E78026C3E7F8FFFF0F3829012083
:10A790000A44914219D0013910B4541E11F8012F06
:10A7A0000823504002E0013BD0B209D010F0800FE6
:10A7B0004FEA4002F7D082F0D500013BC0B2F5D19C
:10A7C000A142EBD15DF8044B704770472DE9F0478B
:10A7D0000023194D84B0074695F9059905F60C1626
:10A7E0004FF0B60A00EB010805F6AC351C46D6F86A
:10A7F00000C0304600226946E036BCF1000F14D09C
:10A800009CF838C0BCF1140F0FD019F1020F01D021
:10A81000CC450AD1CDE90244CDE90078ADF808A0D5
:10A820008DF80D4027F046F80346B542DFD11846B3
:10A8300004B0BDE8F08700BF38290120094B93F828
:10A84000AE3B042B08D9053B032B08D801231A463D
:10A8500000B103701046704700230122F8E700237F
:10A860001A46F5E7382901202DE9F0479AB0044649
:10A870000D4617469846DDF89090DDE9226A02E021
:10A8800020682EF015FB20682EF01AFB0028F7D167
:10A890000146642201A846F0CFFD264B8DF80450F6
:10A8A000CDF85CA00293002D40D0AB1E012B3FD908
:10A8B000042D14BF002303231F4A8DF80530012304
:10A8C000D2F8D02F039616448DF85B30CDE905946D
:10A8D000049637B14246394607A846F03BFD8DF84D
:10A8E0005A80164E002396F8129C1893B9F1000F67
:10A8F00019D196F8110C642201A902FB006000F640
:10A90000144046F027FD012386F8119C86F8123C7E
:10A91000236843B143463A46294620461AB0BDE86B
:10A92000F04714F003BE1AB0BDE8F0870523C3E773
:10A930000223C1E7083501204018012038290120F1
:10A940002DE9F04FDFF8DC81DFF8DC91D8ED9E7A5D
:10A9500008F2EC7399F87C2CF8EE677A2DED028BF7
:10A96000C3ED007A83B0002A4ED1614EC8F8F427B7
:10A9700098F8F8173278D9B1B9F8823C0024DFEDA5
:10A980005D5A07EE103ADFED5C6A5C4BB8EE477A31
:10A9900067EEA66A03EBC10085EE876A36EE266A8B
:10A9A00086EE867A1C60083303ED017A9842F9D16D
:10A9B00099F8CE3B9FED525A06EE103A96F8583B66
:10A9C0009FED507A1A44B8EEC66A27EE877ADFED1B
:10A9D0004E6A12FB01F14D4AC5EE065AC9B207EEA6
:10A9E000901AF8EEE77AE7EE876AF7EE667AFCEE01
:10A9F000E77AC2ED005A17EE903A88F8483903B06A
:10AA0000BDEC028BBDE8F08FFCEEE77A9FED404A8B
:10AA100099F87D1CB9F8803CF8EE674A06EE101AEA
:10AA2000002107EE103A324EB8EE466AC4EE245AC0
:10AA30000191B9F87E1C01239FED365A06EE901A5B
:10AA4000C6ED057A98F8F817B8EEC77A9FED328A06
:10AA5000F8EE666AC8F8F467327067EE057A86ED3C
:10AA6000016A88F8F037C6ED036AC6ED047AC6EDD0
:10AA7000025A89B3294B4FF0000B019903EB010AED
:10AA800012B3AAF118045746002507EE905A012286
:10AA90003846B0EE481AB8EEE70AD6ED017AD6EDA0
:10AAA000040A15447169283720EE270A283446F035
:10AAB000F7FD84ED028A84ED018A84ED048A84ED39
:10AAC000038A32789542E0DB0BF1010B98F8F81716
:10AAD0000AF1780A8B45D3DB019B03F57073B3F55C
:10AAE000346F0193C5D10E4BD3ED007A43E700BF1D
:10AAF0002437002083F9223EBD378635BC3501203E
:10AB0000555555406E12833A48E1FA3E100B00202D
:10AB10000060EA480AD7233C000000003C370020D0
:10AB2000B8090020CC0100203829012001448842C6
:10AB30000ED00346074810B4074C13F8012B04FB52
:10AB400000F0994280EA0200F7D15DF8044B7047AB
:10AB500000487047C59D1C8193010001334A0023C2
:10AB6000334910B4C2F8DC3C4CF25034D2F8E00C5B
:10AB700004E0D2F8E03C1B1AA34210D8CB68DB03F8
:10AB8000F7D4CC6814F4F9740DD1C86810F0010042
:10AB900002D001232046CB605DF8044B70470320B0
:10ABA0005DF8044B7047CB68990705D5D2F8DC3CBB
:10ABB00043F02003C2F8DC3C1D4BDB68DB0605D507
:10ABC000D2F8DC3C43F01003C2F8DC3C184BDB68E5
:10ABD0009C0605D5D2F8DC3C43F00803C2F8DC3C07
:10ABE000134BDB68580605D5D2F8DC3C43F0040370
:10ABF000C2F8DC3C0E4BDB68190605D5D2F8DC3C0C
:10AC000043F00203C2F8DC3C094BDB68DB0505D5E9
:10AC1000D2F8DC3C43F04003C2F8DC3C044B4FF478
:10AC2000F97201205DF8044BDA6070473829012081
:10AC3000003C02400C480D4BD0F8FC1C10B48A1E9E
:10AC40000B4C2231C0F8EC3CB0F81A3D1B01A4FBC0
:10AC500003C3DB08A3F5B06322F8023F9142F3D1AE
:10AC60005DF8044B704700BF382901208934020881
:10AC7000CDCCCCCC70B5084C251D2E4614F8010B5C
:10AC800026F0ECFF28B10378B44205F8013BF5D17A
:10AC900070BDFF23F8E700BF783601202DE9F047AB
:10ACA0001C4F01264FF03C094FF0000807F1080542
:10ACB000B24617F8010B30F0E9FE044690B180F877
:10ACC0000690C671FB7803F07F02012A17D013F0BB
:10ACD000800F20460CD185F8048030F0CDFF85F838
:10ACE00005802C6001360835052EE2D1BDE8F087DD
:10ACF00085F804A030F0C6FF85F805A0F1E71B0633
:10AD000005D40121204630F067FFFB78DFE730F003
:10AD1000B9FFF6E7803601202DE9F047204E82B0DA
:10AD200000244FF00409DFF87C8006F10C05A6F63C
:10AD3000745716F801AB5046BAF1000F2CD030F022
:10AD4000A5FE0134034604215046E4B26B6113B101
:10AD500083F80690DC7122462DF0D2FD0221824656
:10AD6000D0B168699AF8082030F0E2FEB7F8723D79
:10AD7000B7F870CD002051460A4A01902846CDF818
:10AD800000C01835B8FBF3F39BB225F059FF01233F
:10AD9000082C05F8073CCCD102B0BDE8F08700BF15
:10ADA000AC36012040420F0007EE900ADFEDAF5AAB
:10ADB000AF4B0022B8EE677ADFEDAE4AB3F8401E23
:10ADC00085EE874A06EE101AB3F8441EDFEDAA5A44
:10ADD00007EE901AB3F8421EB8EE466A06EE901AD5
:10ADE000F8EEE77AF8EEE66A36EE065A67EEA47AEF
:10ADF0002DE9F04FC6FE856AA04D2DED048BB4EE13
:10AE0000E54A05F64C1993F8464E85B0C5F89C09FD
:10AE1000F1EE10FA89ED016AC5F85849C5F85C29C8
:10AE2000C9ED026AC9ED007A02D51446C5F8582961
:10AE3000F6EE004A9FED925AF7EE003A914927EE5E
:10AE4000055A9FED912A64EE247A0B46F0EE002A13
:10AE50009FED8E3A143381ED045A87EEA67A01F500
:10AE6000A677039301F12C0691ED055A884A92F8D2
:10AE7000182287FE237ABDEEC77AF8EEC77A17EE5E
:10AE8000103A012BC5F8F83BC4EE275AB8BF01238E
:10AE9000029383EEA74A65EE825A86EE257AA1ECEC
:10AEA000014AC1ED005AC6EEA57A37EE247A87FE34
:10AEB000227ABDEEC77A77EEA47A17EE101AC7FE93
:10AEC000C37AFDEEE77A01F1FF38C5F8041C17EEEE
:10AED000901AB8F1230F01F10100A8BF4FF0230829
:10AEE000C5F8081C2328834628EAE878A8BF4FF055
:10AEF000230B5B468045C8BF43460093A3EB080382
:10AF0000019362BB624B9346DFED629A03F5077AC9
:10AF10009FED619A07EE90BA0BF1010B0AF1080A56
:10AF2000F8EEE78A68EEA98AB0EE680A40F04AF9BE
:10AF3000B0EE408AB0EE680A40F058F9B0EE680A08
:10AF400040F054F928EE098A20EE090ABBF1240FDB
:10AF50000AED028A0AED010ADCD19FED505A019AEE
:10AF600000234F489446029A9FED4E7A9CFBF2FADA
:10AF70000AF10101A24614468E460099324646F86F
:10AF80000C1C46E9053846E902E4A2EC017A974236
:10AF9000FBD13A4606F5107BD0EDE87AD0F8A4C391
:10AFA000C2ED007A083242F804CC5A45F8D106F5D1
:10AFB00015763D4A07F515779642DFD1039BB6EE2D
:10AFC000008A5446012283ED005A4FF0000A374BA5
:10AFD0004FF0000800932E4B83F81822002C35DD2B
:10AFE00009EB0A06DDF800B0002707EE907AD9EDEC
:10AFF000016A99ED027A06EE104AF8EEE77A01222C
:10B0000037EE667AD5F89C19B8EEC66A06F1540098
:10B0100077EE887A1744B7EE001A283667EE877AFB
:10B0200087EE860A30EE260AABEC010AD9ED000A5B
:10B0300046F036FBD5F85849C6F84480BC42C6F8FD
:10B040004080C6F84C80C6F84880CEDC009B0AF1F0
:10B05000C80A1433BAF5167F009302D0D5F85849C0
:10B06000BCE705B0BDEC048BBDE8F08F002474494B
:10B07000382901200AD7233C0000FA44CC010020E3
:10B080009C534937C80D0020398E633C00000C42A8
:10B09000C4120020C3B8B23D72F97F3FBC297E3F85
:10B0A0002817050800000000F01400202C0B0020D9
:10B0B0002DE9F041204C00234FF0050894F84F2E65
:10B0C00004F64C6704F5656584F8482E17F8010B03
:10B0D0005E1C20BB2860032E05F104053346F5D124
:10B0E00094F8481ED4F8500EC94301F0010130F025
:10B0F0007DFE94F8481ED4F8540E81F00201C1F38D
:10B10000400130F073FE94F8481ED4F8580E81F0D8
:10B110000401BDE8F041C1F3800130F067BE30F0BA
:10B12000B5FC0121F3B2286010B180F80680C3712C
:10B13000286830F051FDCEE738290120F0B5294CC0
:10B1400083B0B4F8605EA4F8625EEDB994F85C0E6A
:10B1500030F09CFC94F85D2EC4F8640E003A18BFE1
:10B16000012284F8682E48B194F85E1E2B22002933
:10B17000C28014BF1121012130F02EFD002003B048
:10B18000BDE8F04030F03ABE94F85C7E00222B21FE
:10B1900038462DF0B5FB0646384630F077FC00B156
:10B1A0000EB903B0F0BD2B22C4F8800E0221002797
:10B1B000C280327A30F0BCFC0B4AA4F8845E31467F
:10B1C00004F66C600197B2FBF5F3C3F34F059BB235
:10B1D000009525F035FDD4F86C3E1F6084F87D7E27
:10B1E000DFE700BF3829012040420F0070B5524E02
:10B1F00096F8140D30F04AFC96F8155D60B12D23D9
:10B2000004462021C38030F0E7FC0A202DF0D8FD51
:10B21000204633F073FA18B9D6F8883EDA0000D524
:10B2200070BD013D092DFBD896F8134DCCB94020D7
:10B2300028F0E0FA0028F3D090F9043096F8E51CE5
:10B24000092BC8BF143B0A29334493F88C4E66D0AF
:10B2500093F8963E96F8122D002A08BF1C46002C43
:10B26000DED0204630F012FC054608B12D23C38005
:10B270000121284630F0B0FC0121084630F000FEE4
:10B280000121284630F0B2FD3C202DF0A5FD002123
:10B29000012030F0F5FD96F8153D1BB30024002188
:10B2A0000134084630F0ECFD0021022030F0E8FDCA
:10B2B0000021284630F09AFD78202DF081FD0121F3
:10B2C000002030F0DDFD0121022030F0D9FD012108
:10B2D000284630F08BFD78202DF072FD96F8153D54
:10B2E0009C42DCDB96F8133D8BB9D6F8143D03F095
:10B2F000FF13B3F5803F93D1D6F8883E13F0805307
:10B300008ED186F8153DBDE8704038F021BC322062
:10B310002DF062FD2846002130F05EFCE5E7D6F80E
:10B32000AC3E5B057FF57CAF0CF05EFB00287FF444
:10B3300077AF002C95D173E738290120344870B4D9
:10B3400090F8B03EA3F13001092958D800F56B649C
:10B3500000F6BF60224612F8015FA5F1300109290D
:10B3600004D88242F7D1002070BC7047141B022C15
:10B370004BDD2848002101E010F8013B01EB810181
:10B38000161A044603EB4103022EA3F1300303F027
:10B39000FF01F1DC204B03FB01F1A2424FF000035F
:10B3A0000ED903EB830314F8016B5B00A242A3F1F7
:10B3B0003003334403F0FF03F3D1184800FB03F3D9
:10B3C0002E2D06D01648A0FB032370BC01EB930082
:10B3D000704701320425002404EB84041078013DF9
:10B3E000303864000928A4B2204401D8013284B264
:10B3F00015F0FF05F0D1642202FB0433E2E70021DF
:10B400001D4600F56B620B46DAE70021054CC4E7E8
:10B4100038290120E93701208096980040420F002A
:10B42000ABAAAAAAE837012030B40438043A0C1FAA
:10B4300001F1080554F8043F52F8041FAC42A3EB95
:10B44000010340F8043FF5D130BC704738B50D46D4
:10B450000446FF2100682A4645F0EEFF22682A4490
:10B46000226038BD38B5041E0D4611DB092C1FDCE7
:10B470000846134B0021134AA3FB04C34170DB08A9
:10B4800003EB8303A4EB4303D35C0370284638BD6E
:10B4900064422D230846092C00F8013BE9D9084BEA
:10B4A00001460A22A3FB0430C00838F087FBE0E71E
:10B4B00003480A22A0FB0430C00838F07FFBD8E71D
:10B4C000CDCCCCCC209805080C461646054683B555
:10B4D00026F036FC204626F033FC0021204B08469F
:10B4E000002E08BF1E4630F0CBFC0021012030F0BA
:10B4F000C7FC28462DF0E4FCB0B10121002030F05B
:10B50000BFFC28462DF0D4FC074620462DF0D4FC85
:10B510000028FAD0394620462DF0F8FC3846B047CE
:10B520000021084630F0ACFC20462DF0C9FC002874
:10B53000DFD00121002030F0A3FC20462DF0B8FC24
:10B540000146284601912DF0B7FC01990028F8D05A
:10B5500028462DF0DBFC0021084630F091FCC8E7BE
:10B56000C1130308F0B5002289B0234E04AF13467F
:10B570000A61BC46C1E90022C1E902220268C2F3A5
:10B58000855040FA03F46546E40703D59C5D05F851
:10B59000014BAC460133062BF3D1184DC2F3032403
:10B5A0000023C2F305302C5D0DF119068CF8003034
:10B5B000DFF850C08DF8184040FA03F43546E40730
:10B5C00004D513F80C4005F8014B2E460133062B29
:10B5D000F2D10023C2F3834506AC0846337002F073
:10B5E0000F030749C2F303120097CDE901453FF06D
:10B5F00015FD09B0F0BD00BF749805086C980508EA
:10B60000489805086498050870B5094C0546D4F8B3
:10B61000C02E62B1002601362D21D4F8C00E34F0C0
:10B62000D5F8AE42F7DBBDE8704035F0F5BA70BD35
:10B630003829012038B50546084639F02DFB041E8F
:10B640000D4B0FDB93F8F827944205DA21460B489F
:10B6500036F09AFA204638BDFF2C03D1084836F060
:10B6600093FAF7E793F8F827284606494FF0FF3496
:10B67000013A35F079FAEDE7CC0100207B98050816
:10B680008C9805089F98050830B583B04D1C009331
:10B69000002304688572C272A469A04703B030BD5C
:10B6A00003685B6C0BB102211847704770B5114EEF
:10B6B000D6F8CC3393F82E20D2B19B699847B8B115
:10B6C000D6F8CC3393F82C2072B106F574750024AB
:10B6D000DB69E0B2B5EC010A01349847D6F8CC3307
:10B6E00093F82C209442F3DB5B6ABDE87040184766
:10B6F00070BD00BFC412002038B51E4C0968D4F8D4
:10B70000C85E0068491B1C4DDFED1C6A00EE901AF4
:10B71000D4F8C41ED5ED007A1C46F8EEE00A401AB3
:10B7200060EEA70A07EE900AF8EEE77A20EEA07A1C
:10B73000B1EE670AA7EEA77AF1EEC77A67EEA67AAE
:10B74000FCEEE77AC2ED007A3FF0DEFC9FED0C7A6A
:10B75000DFED0C7AE0EE077AFDEEE77A17EE902A3D
:10B76000002A02DBC4ED007A38BD48F6A04313443A
:10B77000236038BD38290120080501202C7D8E3F2B
:10B78000A00CB34500A00C4638B50F4C034694F806
:10B79000E31E04F6DC6084F8DF3E01F03F0101F1B6
:10B7A0000A058B1C083184F8DE5E254484F8E13EEE
:10B7B0001DF060FA85F8DA0E94F8DE3E000A1C44AB
:10B7C00084F8DB0E38BD00BF3829012038B50A4C9B
:10B7D000002501228021204627F0F8FF30B194F99E
:10B7E000040028F027F808B1006838BD01350C3492
:10B7F000062DEED10020F8E73C38012038B5041FB3
:10B8000000F1080554F8043FD81780EA430016F009
:10B81000C5FEA542F6D138BD074B4FF6FF7000219B
:10B8200003F2644210B40024C3F86C041160C3F83E
:10B8300068445DF8044B7047C4120020F8B57A4C98
:10B84000DFED7A7AD4F8742494F8543407EE102A91
:10B85000B4F856642DED028BB8EE478A28EE278A9D
:10B86000002B69D1D4F8607494F87114384623F031
:10B8700051FF0F2894F85534B8BF0F2085B2A4F8B3
:10B880005654002B00F0BD80AE4259D094F8F0031E
:10B89000B4F8583407EE905ADFED655A002206EEF0
:10B8A000103AF8EE677A634B0021B8EE466AC5EEAF
:10B8B000A76A85EE867A76EE886AC8EE267A37EE33
:10B8C000087AC8EE076A002833D159609960D960B8
:10B8D000C3ED047A01321033032AF4D1002835D0A5
:10B8E000554B94F85A24B4F85C54C3ED087AC3ED70
:10B8F000006AC3ED047A002A7DD194F87114D4F85B
:10B90000600423F007FF0F28B8BF0F2080B28542E4
:10B91000A4F85C046FD000286DD007EE900ADFED2C
:10B92000446A464BF8EE677A86EEA77AD3ED006A52
:10B9300057E0C3ED047ACDE794F85534002B5DD081
:10B9400094F8F003002867D13546A1E73C4A00236C
:10B9500094F85A041146B4F85C54C2ED036A41F8F5
:10B96000043BC2ED077AC2ED0B7A93600B60136162
:10B970005361936113625362936260B994F87114D6
:10B98000D4F8600423F0C6FE0F28B8BF0F2080B2A1
:10B990000546A4F85C0494F8703484F8B13755B3C4
:10B9A00007EE905A254BDFED226A0022F8EE677A07
:10B9B0000121C3F80823C3F80C2386EEA77AD3ED40
:10B9C000006AC3F81023C3F81823C3F81C23C3F874
:10B9D0002023C3F82823C3F82C23C3F8302384F88A
:10B9E000B01737EE267AC6EE877AC3EDC57AC3ED77
:10B9F000C97AC3EDCD7ABDEC028BF8BDD4F8607482
:10BA00003546384694F8721423F084FE0F28B8BFE8
:10BA10000F20A4F8580437E794F85A34B4F85C546B
:10BA2000002B3FF46AAFE6E7C4120020BD3786352D
:10BA30004E2DA63DB4160020F41600203C17002021
:10BA4000E8160020012816D02F4B93F8D737012B8A
:10BA50002CD02E4BF6EE006ABEEE007ADFED2C7A8B
:10BA600003EB800090ED000A80FE660A80FE070A64
:10BA700020EE270A7047274AF6EE006A224BBEEEF8
:10BA8000007A02F66871DFED227A93F8D83791EDEB
:10BA9000010A80FE660A80FE070A20EE270A23B10B
:10BAA000B5EEC00AF1EE10FA03DC70479FED1A0AFA
:10BAB000704707EE903AB2F9521FB2F9663FDFEDD8
:10BAC000176AF8EEE77ACB1A07EE103AB8EEC77AA3
:10BAD00027EE267AB4EEE77AF1EE10FAE6DA77EEA0
:10BAE000C77AB2EE047AF4EEC77AF1EE10FADCD837
:10BAF000B1EE047A67EEA67A30EE470AA7EE807AB6
:10BB0000B0EE470A704700BFC4120020A0380120E1
:10BB1000000048433829012000000000CDCCCC3D76
:10BB20002DE9F041724C40F60302B4F8743F134023
:10BB30002DED048BB0EE408A05D0B0EE480ABDEC86
:10BB4000048BBDE8F08104EB4001B5EEC00ADFEDE7
:10BB5000697A00F1D40EB1F9502FB1F9641FF1EEFA
:10BB600010FA654EA2EB010206EB8E08C8BF012752
:10BB700000EE102AD8BF4FF0FF37D8F8785406F5FA
:10BB80008F6CB8EEC00A20EE270AB5EEC00AF0EEC0
:10BB9000C07AF1EE10FACCBF01214FF0FF31EA1B61
:10BBA00018BF0122002D08BF0022002A46D19CEDBB
:10BBB000CF7AF4EEC77AF1EE10FA06DD8F4208BFB5
:10BBC000002D0CBF012200227DD0002D40D007EEB9
:10BBD000901AB0EE408ADCEDD25AF8EEE77A9FED8B
:10BBE000476ADFED476ADFED478A97EE878A28EEDE
:10BBF000258A88FE468A88FE268A002A56D196F82B
:10BC0000BC37984299D194F8B437262B95D1B2EE2F
:10BC1000049A20EE090A44F02BF9B0EE480AA4F881
:10BC2000BA57A4F8B80744F023F928EE890AA4F813
:10BC3000BC0744F01DF9A4F8BE077EE79CEDCF7A5F
:10BC4000C8F87834F4EEC77AF1EE10FA39DC1A4607
:10BC50002D4B9FED2E6A03EB8003D3EDA47AF0EE1B
:10BC6000E76AF4EEC66AF1EE10FA27DC9FED286A67
:10BC700066EE866A9CEDD06AF0EE408A67EE867AC0
:10BC8000E6EEA78AF5EEC08AF0EEE87AF1EE10FA59
:10BC9000F4EE477ACCBF01234FF0FF33F1EE10FAF8
:10BCA00001DD9F4216D00025002AA8D0194A00EBDA
:10BCB0008003002102EB83035960A0E7F7EE006ADE
:10BCC000D8E78F42C3D106EB8E0E0D460122CEF887
:10BCD00078147AE707EE903AB0EE688ADCEDD26A23
:10BCE0000025F8EEE77A97EE878A28EE268ADDE7C8
:10BCF00038290120CDCCCC3DC412002000007A446C
:10BD000000007AC400000000CC010020FFFFF943CE
:10BD10006F12033BC81A002070B504466F4EC0B2C4
:10BD20002DED048BF0EE408A0D781EF013F96C4A6D
:10BD300006EB8403694207EE905AD3F8783F07EE8A
:10BD4000101AF8EEE76A82FB0312DB17B8EEC77A27
:10BD5000C3EB621307EE903AF8EEE77AE6EE807AEC
:10BD6000F4EEC77AF1EE10FA05D407EE105AB8EEE9
:10BD7000477A87FE677A06EB4404DFED5A9A40F66D
:10BD80000100B6F8742FB4F9503FB4F9641F1040A5
:10BD9000A3EB010307EE903AF8EEE77AA7EEE97A13
:10BDA000B0EE478A07D0504BBDEC048B93ED7C0A74
:10BDB00027EE000A70BD1EF0CDF80120B0EE409ACB
:10BDC0001EF0C8F8B6F9503FB0EEC00AB6F9521FDF
:10BDD000002B464AB0EEC99AB8BF5B42002992F8E0
:10BDE0007C06B8BF49429BB289FE009A89B28B4259
:10BDF000B8BF0B4607EE903A02F58F63F8EEE77A8C
:10BE000067EEA97A50BBF7EE006A93ED807AB4EE44
:10BE1000E67AF1EE10FA50D493ED7E7ADFED347AC3
:10BE2000B4EEE77AF1EE10FA44D9DFED325AB7EE0C
:10BE3000006AC5EE876AB0EE467AA9EE667AC7FE5A
:10BE4000466AC6FEA76AD3ED7D7AB0EE680A68EE50
:10BE5000277ABDEC048BA7EEA60A70BD9FED246A7D
:10BE600093ED7E7AB4EEC67AF1EE10FA1FDDD3EDD3
:10BE70007F5AF4EEC65AF1EE10FA18DDDFED1E6AB5
:10BE800075EEE77AB7EE005A29EE269AC7EEA56A54
:10BE9000C9EE077AC6FEC56AC6FE866A77EE857A5F
:10BEA00066EEA76AC6FEC56AC6FE866ACBE7F0EEF6
:10BEB000466AC8E7F0EE676AC5E776EEC76A9FEDA7
:10BEC0000F5A9FED0F6AD3ED7E5A66EE856A76EEC5
:10BED000677AA6EEA77A27EE257A9FE73829012010
:10BEE0001F85EB51CDCCCC3D3C170020C412002067
:10BEF000000000000000C8420000C8C2610BB63B51
:10BF0000000034431C4991F8B02E9AB3F0B40026D7
:10BF100005463346304637461BB991F8B04E2D2CB6
:10BF200022D02E2A18D0CA1800EB800092F8B04E0A
:10BF30004000A4F13002092A02D8A0F13002A01872
:10BF40000E2B14D80133CA1892F8B02E002AE3D170
:10BF500006B14042F0BC70470133002DF8D0CA183A
:10BF60002A4482F8B07EDEE701231E46EBE700207C
:10BF7000F0BC704700207047382901202DE9F041BE
:10BF8000A02301240B4F1825E6B2FF2B0BDCC5F1D3
:10BF90001B0103F101083246DBB2C9B2D7F8800FAA
:10BFA000FFF772FB4346013DEFD10134052CEAD186
:10BFB000BDE8F081382901201FB503AC8DF80C30A5
:10BFC000002300948DF80D300CF0D0FB04B010BDB0
:10BFD000F8B50546262021F037FC154C014610BB6C
:10BFE000D4F8840F90F838301E3B012B02D894F817
:10BFF000913F0BB12CF08AFF0E4F0026AE420ADBB8
:10C00000B4F8B23F0133A4F8B23F0B4BD3F8D03FA2
:10C01000C4F8C43FF8BD17F8011B0136D4F8840FEB
:10C020002CF074FFEAE7002384F8C03FEDE700BF7F
:10C0300038290120CA3801204018012010B51C20E1
:10C040002FF024FD044611212FF0C6FD20462FF0CD
:10C0500013FEC8202CF0C0FE2046BDE810402FF093
:10C0600011BE00BFB1F5805FF0B400F0D4802AD8D3
:10C07000102900F0F580B1F5807F4ED1046A166971
:10C0800024F4807457689A4B0462016A446821F46E
:10C090000071C56941EA0621964E2B40156821F4CE
:10C0A0008071B04245EA030541EA072173D0924B03
:10C0B000984270D0D26800234460C561C2630162B7
:10C0C0001846F0BC7047B1F5803F00F08180B1F5B3
:10C0D000801F48D1046A156924F480145668874B80
:10C0E0000462016A446D21F400112340146841EA9E
:10C0F0000551804D43EA042421F48011A84241EA0D
:10C1000006515DD07C4B98425AD0D26800234465DA
:10C11000C26501621846F0BC7047012923D1046A48
:10C12000166924F001045768714B0462016A44687F
:10C1300021F00201856931436E4E2B40156821F0D4
:10C140000101B04245EA030541EA07010FD06A4BFD
:10C1500098420CD0D268002344608561426301623A
:10C160001846F0BC70470123F0BC18467047D2E96E
:10C17000056321F0080124F4807441EA86011C4320
:10C180009668D36921F0040124F4007441EA860121
:10C1900044EA4304DEE7D2E9056321F4006124F4B4
:10C1A000805441EA8621966844EA0314D36921F455
:10C1B000806124F4005441EA862144EA431479E77B
:10C1C0004368956923F4802343EA852343609CE711
:10C1D000046A156924F480345668494B0462016A84
:10C1E000446D21F400312340146841EA0541414D7A
:10C1F0001C4321F48031A84241EA064155D03E4B10
:10C20000984252D0D26800234465846D82650162F1
:10C210001846F0BC7047046A166924F480545768C5
:10C22000384B0462016A456821F40051C46941EA4F
:10C230000631304E2340146821F48051B04243EA65
:10C24000042441EA073138D02B4B984235D0D268CC
:10C2500000234560C461026401621846F0BC704767
:10C26000046A166924F010045768264B0462016AB8
:10C27000446821F02001856941EA06111D4E2B40DA
:10C28000156821F01001B04243EA052541EA071183
:10C2900019D0194B984216D0D268002344608561AA
:10C2A000826301621846F0BC70474368956923F4C5
:10C2B000803343EA05234360A4E725F4804593696E
:10C2C00045EA8315C3E7D2E9056321F0800124F430
:10C2D000806441EA8611966844EA8304D36921F0B8
:10C2E000400124F4006441EA861144EAC304D3E720
:10C2F0008CFFFEFF0000014000040140FF8FFFFEA5
:10C300008FFFFEFFFF8CFFFE70B4344CB0F1804F06
:10C310000368A0EB0404B4FA84F44FEA541406D082
:10C320002CB92F4D2F4A904218BFA8421DD12E4A3A
:10C3300023F070034D68821A2B43B2FA82F252093D
:10C3400023F44073D1E902652B430D880360C66274
:10C3500085623CB932B9436943F0010370BC436163
:10C36000002070470B7C0363F5E702F58062904282
:10C3700020D002F5784290421CD01C4A1C4DA842A5
:10C3800018BF90420CBF0122002224D0194EA5F5FF
:10C390009635A84218BFB042D2D0174A90421AD060
:10C3A00002F58062904216D08C680A880360C462ED
:10C3B0008262D0E70C4A23F07003104D821A4E6857
:10C3C000A842B2FA82F243EA06034FEA5212B7D009
:10C3D000002AB5D1D1E70022B2E700BF000001403A
:10C3E00000040040000800400004014000400140FB
:10C3F0000044014000480140001C0040000C004087
:10C400000023C0E90033C0E90233C0E90433C0E9C6
:10C410000633C0E90833C0E90A33C0E90C3383634B
:10C42000704700BF1F4BF0B4595C0446D2E9023696
:10C43000451810693343566967580343906933437D
:10C44000D6690343906A3343174E03433E40D06A94
:10C450003343635090B16E69176B26F00706536B38
:10C460003843976B30436861605820F0C0701843C0
:10C470006050635823F4C0033B4363505668002068
:10C480001368EE60AB60094E6B681E40D2E908325B
:10C490001E436E60635823F0F05313436350F0BCA7
:10C4A000704700BF589805081F80FCFF0000FFFF81
:10C4B00030B4614C0346614A655C0C1E18BF012410
:10C4C000821A405918BF012220F00100585192B938
:10C4D0008CB95B4A00212120116051609160D160CC
:10C4E000116150615A5922F0F0525A513F220020F6
:10C4F0009A6030BC70475348181A18BF012014B90D
:10C5000008B9514AE6E74C1E18BF01241ABB14BBF8
:10C510004E4A00202124106050609060D06010616D
:10C5200054615A5922F0F0525A5101290DD0022972
:10C5300015D0032924D0042927D0052914D0062991
:10C540002BD0072935D00120D3E74FF474620020A7
:10C5500030BC9A60704760B95CB93D4AD9E74FF486
:10C560007C1200209A60C4E74FF474620020DA6005
:10C57000BFE78C1E18BF01245AB954B9354AC8E721
:10C580004FF0746200209A60B3E73F220020DA6027
:10C59000AFE738B934B9304ABBE74FF47C1200201A
:10C5A000DA60A6E7CC1E18BF01243AB934B92B4A89
:10C5B000AFE74FF074620020DA609AE710B90CB967
:10C5C000274AA6E70C1F18BF012412B90CB9254A47
:10C5D0009FE710B90CB9244A9BE74C1F18BF0124F0
:10C5E00012B90CB9214A94E710B90CB9204A90E766
:10C5F0008C1F18BF012412B90CB91E4A89E710B963
:10C600000CB91D4A85E70D4A934203D1072901D190
:10C610001A4A7EE71A4A0020212410605060906078
:10C62000D060106154615A5922F0F0525A510029D9
:10C630007FF47BAF5AE700BF5898050800600240BE
:10C640001060024000640240106402402860024012
:10C65000286402404060024040640240586002404A
:10C66000586402407060024070640240886002407A
:10C6700088640240A0600240A0640240B8600240AA
:10C68000B86402402DE9F04FDFF890A180460B46D8
:10C69000DFF88C910AF6DC00C02200212DED068B1C
:10C6A00097B0CDE9033844F0C7FE99F8C88FB8F1C8
:10C6B000000F00F09E8299F8C93F0993002B00F00B
:10C6C000D88299F8BC3B012B00F0F782022B00F0D6
:10C6D000EF820AF6A8034A4D99F8B26B1C460F93F5
:10C6E0000FCD0FC40FCD0FC4311E464A99F8AE3B93
:10C6F00018BF0121CAF8C028072B8AF89C1995E8B1
:10C70000070084E8070000F25F83042B0ED999F834
:10C71000B13B3D4A012BCAF8A42905D09A1E5342C9
:10C720005341002E18BF00238AF8A8390023DFF8F0
:10C73000F4B00493354B0593354B0693DDE9033292
:10C74000934240F3BB81069B032113F8015B0693E0
:10C7500009EB0503013593F8B36BEDB230462A4679
:10C760002CF0CEF80446002800F0248330462FF049
:10C770008DF9059B586110B10323C571837199F838
:10C78000AE2B99F8AF3B0792002B00F02883E3799A
:10C7900083F00108204632F037F89AF8A8390646A7
:10C7A000002800F006830893002B40F01B834768A5
:10C7B000002F00F0FF82384632F08CF8154A242111
:10C7C000431E0A9001FB032393F8E422002A40F061
:10C7D000F1820322B16883F8E55283F8E4220A9BD0
:10C7E0000C91002B00F0E6829AF8AC6925680A48A3
:10C7F000CBF89470002E00F020830023024617E04F
:10C80000201C050865C8040871FD0308A01B002052
:10C81000F634012000000120741C0020C412002006
:10C8200038290120F42D00200133B34200F00583A4
:10C830001168B8328D42F7D1DEB2B8239AF8AC292C
:10C84000049906FB0303013A8BF81110CBF89830DA
:10C8500020790B922FF01AF908F001019AF89C390F
:10C8600001310BB188F001084901CBF8084041F0D3
:10C870000E01CBF81410227A2FF05AF90B9B9E422E
:10C8800000F01584079B063B0D93002360220BF1FB
:10C890006401CBF8803008EE101ACBF86420CBE9A5
:10C8A0001A33CBE91C33CBE91E3318F002030E9385
:10C8B0004FEA480300F0CA82012203F00203CBF8DA
:10C8C0006C20CBF87830002302224FF480300A210C
:10C8D000CBF87030CBF88410CBF89020CBE9220352
:10C8E00062790C2A00F2BE82CB4B9AF8A81903EBAE
:10C8F0008203D3F85084CBF85480002900F0F282F0
:10C90000DBF89830C3F8A870CBF89470089B002B24
:10C9100000F06E830BF11800FFF772FD9AF8A8394A
:10C92000002B00F08583BD494FF4907322684FF0CF
:10C93000030C03FB0613DBF898104C32C1F8B0303F
:10C94000CBF81C300C9BCBF81820CBF83C30CBF844
:10C9500048C0079B40214FF4806C082B4FF0040324
:10C96000CBF820104FF48051CBF844304FF0000347
:10C970000CBF06221222CBE91333CBE909334FF463
:10C980000033CBF838204FF48042CBF84030089B7E
:10C99000CBF83420CBE90BC1002B00F03A839DF893
:10C9A0003430CBF89470022B00F264829A4A9C498E
:10C9B00002EB8303079AD3F84434082AB1FBF3F35C
:10C9C00008BF5F2203F1230318BF1322CBF85C30AA
:10C9D000DBF8983058469A803FF0B4FE9AF8A839B0
:10C9E000002B00F02282089B002B00F01E8218EE24
:10C9F000102A41462846FFF735FBB8F1010F00F039
:10CA0000E882B8F1040F00F04A83B8F1100F00F08B
:10CA10008082B8F1400F00F0A483B8F5807F00F069
:10CA2000AE83B8F5806F00F0B283B8F5805F00F098
:10CA3000B683B8F5803F00F0BA836A6D05F118003F
:10CA4000082342F400626A6576490422764FC95C85
:10CA5000FF5C0B58BA4023EA02030B502B6843F0EB
:10CA600001032B600E9B002B00F0AE822B6A43EA81
:10CA700088032B620B9B9E420BD16B6C43F40043EB
:10CA80006B642B6843F080032B602B6843F0010339
:10CA90002B609AF89C39002B40F0A382049A012362
:10CAA00005990BF1A00B01320BF8913C4B7401F18D
:10CAB0001803082A049205937FF440AE0F9B80E18F
:10CAC0009FED5A9A5A4AB0EE498A5A4BCAF85C28E6
:10CAD0000022CAF85838584BCDF81480049239EE29
:10CAE000087ADFED567AF5EE006A554C28EE278A73
:10CAF000DFF85CB1B0EE67AA0027C6EE879ADFEDDB
:10CB0000518ACAF86438CDF81880039BBB426DD0B7
:10CB10001BF8015B032109EB0503013593F8B38B87
:10CB2000EDB240462A462BF0EBFE0646002800F008
:10CB3000AF8240462EF0AAFF606110B10323C57199
:10CB40008371327A02212EF0F3FF059B002B00F057
:10CB5000EA81B9F8AC3B4FF6FF7107EE903A3A4BD9
:10CB6000F8EEE77AD3F8D82FFCEEE77A17EE903A92
:10CB7000B2FBF3F00144090CB2FBF1F2B2FBF3F3A8
:10CB800099F8AE1B042900F0E08107EE902AF8EE38
:10CB9000676A26EE887A68EEC77A99F8AF0B04992F
:10CBA0009BB201902046E6EE897A0091314684EDF1
:10CBB000027AC4ED037A24F043F8002F40F3B181E8
:10CBC00061681F4B02E09C4200F0AB815A68183349
:10CBD0008A42F8D1069B013783F001030122183401
:10CBE000082F04F8083C04F8072C8ED1174ECAF819
:10CBF000CC63DAF8CC336BB300220121039883F8BD
:10CC00002D1083F82C001A6383F82E2017B0BDEC8A
:10CC1000068BBDE8F08F00BF2817050834220020DE
:10CC200000D01213F01C0508E41C050800000000E9
:10CC3000A5C2020831790308257903086F12833AE7
:10CC4000A01B002000007A4440180120041B002093
:10CC5000F6340120C24DC34C0FCD0FC40FCD0FC40D
:10CC600095E80700A4F1200384E80700CAF8CC3354
:10CC7000CCE7BD4D0AF5046499F8AE6B0FCD0FC437
:10CC80000FCD0FC495E8070099F8B03B84E8070082
:10CC9000042E00F2398101A252F826F0AFCE00082E
:10CCA00009CF0008A5CE00087FCE0008C1CA000841
:10CCB00099F8AE3B082B00F0FD80039B0026AB4D9E
:10CCC000CAF8A039AA4CAB4F89F8CB6F0FCD0FC46F
:10CCD0000FCD0FC499F8B23B04F1480895E807005E
:10CCE0009B1B354684E8070018BF012399F8AE4B1B
:10CCF00031464FF44C72A0488AF89C3907F8F84C3A
:10CD000044F09AFB9D4B9E4E04930AE02EF0B4FF34
:10CD1000F368082D06F1200608F1180848F8043CCD
:10CD200059D0DAF8A039AB4255DD049A12F8013B2C
:10CD30004B44049293F8B37B38462BF069FE0446CB
:10CD400038462EF0A3FE99F8AF2B8346E7790AB157
:10CD500087F0010707F001049AF89C29013489F84B
:10CD6000CA4F0AB187F0010758462EF077FF002816
:10CD700000F081815846013531F0CAFCC6F80CB08C
:10CD800061017060EAB2377441F001017161BBF179
:10CD9000000F05D04FF003038BF807208BF8063007
:10CDA00058462EF019FFF9075846AFD42EF06AFF07
:10CDB000AEE7BBB973490023734ACAF8C418CAF86E
:10CDC000CC28CAF8CC3314E7082B7FF4AFAC6F4BF8
:10CDD000CAF8A439AAE46648CAF8CC0309E794F86B
:10CDE0000780D7E46769002FE4D0A36938460C9325
:10CDF00031F070FD664B2422451E0A9002FB05357A
:10CE000095F8E462392E00F02A8120683FF060FC3A
:10CE1000C0B2002ECED1392385F8E50285F8E43280
:10CE20000A9B002BC6D00896DEE40A9890229BF855
:10CE30001130584940F04EFDD9E5B823721C03FB70
:10CE400006A38AF8AC29C3F8B059F6E401214FF4DF
:10CE5000807203F00203CBF86810CBF87C20CBF88B
:10CE6000743030E59AF8A829CBF85430002A49D01C
:10CE7000984645E58D231322CBF85C30A8E59FED5D
:10CE8000468A9FED469A002B3F4A454B16BF4146C6
:10CE900000211346434A05914349CAF85828CAF865
:10CEA0005C181CE69FED418AB0EE489AEBE79FEDD7
:10CEB000409A07E60AF6A8033E4D99F8B26B1C4665
:10CEC0000F93003E0FCD0FC40FCD18BF01260FC426
:10CED000394B8AF89C69CAF8C03895E8070084E89D
:10CEE000070074E7354B03EB4202B2F88424DBF809
:10CEF0009810ABF80C20B1F8B43023EA0203A1F883
:10CF0000B43003E59046F2E79FED2D8AB0EE489AE3
:10CF1000B9E7AA6905F11800022342F40062AA6188
:10CF200092E5002357E6FAFE697AFCEEE77A254B94
:10CF300017EE901AD3F8D82F4FF6FF73B2FBF1F12A
:10CF40001944090CB2FBF1F21AE607EE903AB8EE7A
:10CF5000677A07EE902AF8EE676A27EE0A7A1AE6F1
:10CF6000C81B050804390120D01A0508F41B050860
:10CF7000381B0020303A0120F4320020F634012022
:10CF8000243600202D790308257903083DFD030888
:10CF90000000012039360000ACC5A737ACC5A73664
:10CFA000B9C0020831790308A5C20208282930381F
:10CFB0006F12833A201C050865C804082817050865
:10CFC0006F120339401801202B6A43EA08032B62D1
:10CFD00050E5AA6905F11800002342F00802AA6191
:10CFE00032E523684FF6FF7162793433995055E585
:10CFF0003A68FBB2182127F0FF0022F00102103B33
:10D000003A60B3FBF1F1FFF753FA0A9840F088FC5D
:10D0100080E4FBB21821024627F0FF00103BB3FB6F
