:020000040800F2
:10000000F8FF01200DD00A08A9D00A08A5B90808F0
:10001000A9D00A08A9D00A08A9D00A08000000003F
:10002000000000000000000000000000A9D00A0845
:10003000A9D00A0800000000A9D00A081188080801
:10004000A9D00A08A9D00A08A9D00A08A9D00A0884
:10005000A9D00A08A9D00A0891E3080859E30808BA
:1000600021E30808E9E20808B1E20808194700009E
:1000700009470000F9460000E9460000D5460000A7
:10008000C1460000AD460000A9D00A08A9D00A0860
:10009000A9D00A08A9D00A08A9D00A0879E2080854
:1000A000A9D00A08F9B10A08A9D00A08E9B10A08D2
:1000B000D9B10A08C9B10A08B9B10A08859C0A0869
:1000C000A99C0A08C99B0A08ED9B0A08A9D00A083E
:1000D000A9D00A08C13B0000B13B0000A13B0000D1
:1000E00041E20808A9D00A0800000000F1B00A089F
:1000F00001B10A08E1B00A0829B10A0899460000CE
:10010000A9D00A08156A0A08A9B10A08A9D00A08DC
:10011000913B0000813B000039B10A088D7D040845
:1001200085460000714600005D460000494600001B
:1001300035460000A9D00A08A9D00A08A9D00A08A3
:1001400000000000000000000000000000000000AF
:10015000214600000D460000F9450000713B0000FB
:10016000059B0A082D9B0A08A9D00A08A9D00A08ED
:10017000A9D00A08A9D00A08A9D00A0800000000DE
:10018000A9D00A08A9D00A08613B0000513B000031
:10019000A9D00A08A9D00A08A9D00A08A9D00A0833
:1001A000A9D00A08A9D00A08A9D00A08A9D00A0823
:1001B000A9D00A08A9D00A08A9D00A08419A0A08B1
:1001C000699A0A08A9D00A08A9D00A08A9D00A0879
:1001D000A9D00A0881810408A9D00A08A9D00A0870
:1001E000A9D00A08A9D00A08A9D00A08A9D00A08E3
:1001F000A9D00A08A9D00A08A9D00A08A9D00A08D3
:10020000A9D00A08A9D00A08A9D00A08A9D00A08C2
:10021000D1B00A08C1B00A08B1B00A08A9D00A08CA
:10022000A9D00A08A9D00A08A9D00A08000000002D
:10023000496C0A08A9D00A0800000000A9D00A08E1
:10024000A9D00A08A9D00A08A9D00A08A9D00A0882
:10025000A9D00A08A9D00A08A9D00A08A9D00A0872
:10026000A9D00A08A9D00A08A9D00A08A9D00A0862
:10027000A9D00A08A9D00A08A9D00A0800000000DD
:10028000A9D00A0800000000A9D00A080000000058
:0802900000000000A9D00A08DB
:0828000000001E080000200882
:020000040804EE
:1000000010480023024611780632032915D0013327
:10001000062BF8D1426A052A0ED002EB42030132C8
:1000200000EB43034262032040F2EB3140F2FF3227
:10003000187059809A807047704703EB430300EBB8
:100040004303F0E7E01E0024124B30B49D6A6B6A54
:1000500028B943EA01430020AB6230BC7047AC6A68
:10006000013803EB14440BD0002303F140020133A9
:1000700005EB8202DBB25268834204EB1244F4D3F4
:10008000403044EA014405EB80004460002030BC6D
:10009000704700BFE01E002430B5EFF311818023CC
:1000A00083F312880A4AD2F83034D2F83444D2F8B2
:1000B0003004D2F83454CAB282F31188013BA8420A
:1000C00094BF4FF4006000201B1B184430BD00BFDC
:1000D000E01E0024012380F851307047014BD3F813
:1000E00038047047E01E002401207047024BC3F81B
:1000F0003C24C3F840147047E01E0024024BC3F8B0
:100100004424C3F848147047E01E00247047704729
:100110002DE9F843884600294FD04718461E284C41
:10012000802507F1FF39EFF3118185F31288D4F8A8
:100130003024C9B2D4F83404D4F83034D4F834C4F8
:1001400081F31188634594BF4FF400630023121AB2
:100150001344012B1AD1012048F0BAFAEFF31181B0
:1001600085F31288D4F83024C9B2D4F83404D4F812
:100170003034D4F8347481F31188BB4294BF4FF407
:1001800000630023121A1344012BE4D0EFF3118211
:1001900085F31288D4F83434D2B216F8011F234400
:1001A00083F84C14D4F834340133C3F30A03C4F88D
:1001B000343482F311884E45B5D14046BDE8F8830A
:1001C000E01E0024F8B5002390F8505080F850301D
:1001D000CDB10F4E96F8E82E032A16D1D6F82C7F13
:1001E00000F13C0429462046FFF792FFD6F82C3F49
:1001F0002D1A0444DB1B322B01D8002DF2D1B5FAA5
:1002000085F04009F8BD0120FCE71846FAE700BF79
:10021000E01E0024002280F85120D3E790F85020FF
:10022000531C0244DBB280F8503082F83C1090F846
:1002300051200AB1132B00D9C4E77047F8B50B4E13
:100240000D46144696F8E83E032B0ED1D6F82C7FC7
:10025000002C0ADD21462846FFF75AFFD6F82C3F2E
:10026000241A0544DB1B322BF2D9F8BDE01E002412
:1002700000207047212870B505D0222829D02028D9
:1002800010D0002070BD0029FBD0072AF9D1184BEF
:1002900018791C685A799B79087100200C604A71A2
:1002A0008B7170BD0029ECD0072AEAD11148104BA0
:1002B0000C680E794D79D0F8402489791C601E7144
:1002C0005D719971002ADCD02146D0F83C0490473A
:1002D000D7E70029D5D0022AD3D1064AD2F848342C
:1002E000002BCED00988D2F844049847C9E700BF54
:1002F00000000024E01E00240020704703460A226C
:1003000001481A80704700BF080000240346642299
:1003100001481A80704700BF14000024012901D051
:1003200000207047014BD3F890301847000000249C
:10033000012901D008F0ECBF014BD3F88C301847ED
:1003400000000024014BD3F8883018470000002437
:1003500010B40B780A46044603F00303012B05D0C2
:10036000022B0BD000205DF8044B70478B8843B9FB
:10037000204611465DF8044B0FF02CBE8B88832B72
:10038000F6D0034B5DF8044BD3F88030184700BF1C
:100390000000002438B5054B04460D46DB6F984736
:1003A0002946204609F01CFE002038BD000000242C
:1003B00038B5054B04460D469B6F984729462046A5
:1003C00009F046FE002038BD000000242DE9F84F5A
:1003D0004E4B984211D003F568530833984256D0DB
:1003E00000234B4A1846A2F8983FA2F8A43FC2F84F
:1003F0009C3FC2F8A03FBDE8F88F454C0223002681
:10040000444F04F63475DFF81881C4F8303FD7F84C
:10041000B0303146B34206F1010603D0D4F8B40F30
:1004200059F022F894F8B83F2846D4F8B42F414642
:1004300085F82430303545F8102C59F029FAD4F8D5
:10044000303F9E42E3DB002384F8A63FD4F8303FE0
:100450000120D4F8401FB4F8382FD4F83C5F12FBC9
:1004600003F201FB03F3B4F8446FA4F8982FC4F827
:10047000A03FB4F83A2F284BC4F8C41FC4F89C5FBF
:10048000A4F8A46FA4F89A2FC4F8943FB3E7204CC3
:1004900002224FF0000B1F4F04F634754FF4806AB0
:1004A0004FF040094FF40068C4F8302FD7F8B0205F
:1004B000012659465A45B34403D0D4F8B40F58F036
:1004C000D3FF4FF00062D4F8B41F4FF4003094F81B
:1004D000B8CF296285F824C0A5F804A0A5F810902B
:1004E000A5F80680AE74C5E90202FFF789FD28462B
:1004F0006E7659F019F9D4F8302F084B934545F82A
:10050000303BD3DB84F8A66FA0E700BF1971EF0082
:10051000E01E00240000002474F90A0848F90A08C3
:100520001940EF000F4B07B5D3F8B4205208B2FBC7
:10053000F1F3B3F5803F02D3012AF7D8F9E799B276
:1005400001906BF02BF8084941F63403074A0198F3
:10055000CA5001F5C1510022143103B05DF804EB1B
:100560006AF0E0BE00000024E01E0024A534060866
:10057000154BDB68C3F3022310B4C3F107041A1D43
:10058000042C28BF0424062A4FF0FF328CBF033B03
:100590000023A240002821EA020101FA03F108DB4E
:1005A00009010A4BC9B2034483F800135DF8044BF8
:1005B000704700F00F000901054BC9B203441976DA
:1005C0005DF8044B704700BF00ED00E000E100E083
:1005D000FCEC00E02D4B41F287302D490022D3F88E
:1005E000B430A1FB03132B49DB0C10B52A4C013BA3
:1005F00082B0C4F8500704F24470C4F84417C4F839
:100600005427C4F84C27C4F848370EF053FC234B4A
:1006100006213720D3F8E82042F02002C3F8E82072
:10062000D3F8E83003F020030193019BFFF7A0FF0C
:100630001B4B4FF400025A6094F88137012B14D100
:10064000D4F844370221174A84F88117D96841F059
:100650000101D96099680A40062A06D0B2F5803FA8
:1006600003D01A6842F001021A600F4B00200F49B4
:10067000D3F8102F03F24C44C3F84804C2F8100218
:10068000C3F84004C2E9811402B010BD0000002488
:1006900083DE1B4300140040D82F0024004402587E
:1006A00000E100E007000100E01E0024683700249C
:1006B0000121032008B567F0D3FA72B658F01AFD8D
:1006C00003689B0AA3F58013522B00D970470F4A89
:1006D000134493F858300D2BF8D803EBC3020029CC
:1006E0000B4903EB420370B584B014BF0026022609
:1006F0004279012501EB830000246946CDE90065BC
:10070000CDE902440EF07EFA04B070BD48F90A0843
:10071000683F00240D4B4FF6FF71D3F8B42010B59D
:10072000044652086AF03AFF00212046FFF7C8FF4E
:100730000749084A41F638032046CA5001F5C1511D
:1007400000221831BDE810406AF0ECBD0000002422
:10075000E01E0024550706084309012200F01F008F
:100760008AB0023B02FA00F0082B11D8DFE803F050
:10077000665A4E42362A1E120500364BD3F8F42034
:100780000243C3F8F420D3F8F42010400190019BF9
:100790000AB070472F4BD3F8E0200243C3F8E020A3
:1007A000D3F8E02010400590059BF1E7294BD3F8E2
:1007B000E4200243C3F8E420D3F8E4201040029080
:1007C000029BE5E7234BD3F8D4200243C3F8D4209F
:1007D000D3F8D42010400690069BD9E71D4BD3F8E0
:1007E000DC200243C3F8DC20D3F8DC201040089062
:1007F000089BCDE7174BD3F8D8200243C3F8D82085
:10080000D3F8D82010400990099BC1E7114BD3F8C9
:10081000EC200243C3F8EC20D3F8EC201040039006
:10082000039BB5E70B4BD3F8E8200243C3F8E8205D
:10083000D3F8E82010400490049BA9E7054BD3F8B7
:10084000F0200243C3F8F020D3F8F02010400790C6
:10085000079B9DE7004402582DE9F04FDFF8D8B020
:10086000294D5C462DED068B8BB0CDE90801069233
:100870000FCD0FC40FCD0FC4244B95E8070093F89C
:100880000E3384E80700042B00F29F81DFE813F0A9
:10089000DF019D01980105000E029FED1D8ADFED2D
:1008A0001D9A1D4A1D4B06981D49002818BF134666
:1008B0001C4ACBE9062139EE887ADFED1B7AF5EE8A
:1008C000006ACBF82430002328EE278AB0EE679A1E
:1008D000DFF8689086EE87AA0493DFED148A144B44
:1008E0000793099B049A934200F06481079B13F8D5
:1008F000018B0793054B434493F81343002C00F0FE
:10090000698100230B481EE0F4F90A08D040002456
:10091000ACC5A737ACC5A736193608088D8B0708B4
:10092000CD900708253608086F12833A00007A44F4
:10093000EE43002400440024080000203C00002076
:10094000152B00F0478103EB43025D000133815C0E
:10095000A142F5D1C54B1A4492F83113002900F099
:100960007081204644F03AF906460590304644F03E
:1009700051F902780392002A40F02C8108F1010815
:10098000BA4B4FF0030A1D445FFA88F885F870A34C
:1009900085F87183002E00F01D81270904F00F03F4
:1009A000013F062F00F24781B14C04EB4702B2F839
:1009B000D80040FA03F212F0010200F03F81012555
:1009C0002744AC4E05FA03F3013B18406CF050F994
:1009D00097F8E810A84A014406EBC10787F806A07B
:1009E00087F8078056F83130C9F814701A44059B0F
:1009F000920A93F8088004EB4204B4F8F000FFF781
:100A0000ABFEBF8856F83100002F38D0039A03950B
:100A1000039D02F0070351004FF00F0C05FA02F698
:100A2000D4089B004FF0020E37420AFA01F50CFA87
:100A300003FC00EB840402F1010208FA03F30EFA4E
:100A400001F119D0D0F808E02EEA050EC0F808E050
:100A5000D0F804E02EEA06064660C66826EA0506D7
:100A6000C660266A26EA0C0C43EA0C03236203687C
:100A700023EA05030B43036037FA02F3C8D1069B50
:100A8000002B00F0C480794BB3F80C3307EE903A9A
:100A9000F8EEE77AFCEEE77A17EE904A059B774A84
:100AA0001B6893420FD002F5806293420BD07449C9
:100AB00002F58042934218BF8B4204D002F5806257
:100AC000934240F0B18013F009FB6E4BDA69C2F338
:100AD00002226C494FF6FF736B4D0969C1F3C031B7
:100AE00042EAC1020699AA5C00FB02F0B0FBF4F2F4
:100AF0001A44120CB0FBF2F2002977D05B49B2FB2A
:100B0000F4F491F80E13A3B2042975D007EE902ADD
:100B1000F8EE676A66EE887A28EEE77A5349C9EDFF
:100B2000027A91F80F03A6EEA97A08990190484637
:100B30000091059989ED037A39F0CEFF04990029D7
:100B40006FDDD9F80430DBF83820934266D00129F4
:100B50007AD0DBF85020934260D0022961D0DBF8D4
:100B6000682093425AD003295BD0DBF8802093425F
:100B700054D0042955D0DBF8982093424ED0052953
:100B80004FD0DBF8B020934248D0062949D0DBF89B
:100B9000C820D31A0A4618BF0123013289F8103041
:100BA00009F11809114604920122082909F8072CB5
:100BB0007FF497AE35480BB0BDEC068BBDE8F08FE7
:100BC0009FED338AF0EE489A6BE69FED328AF0EEA5
:100BD000489A66E6304A0020304BCBF81C20CBF810
:100BE00024300BB0BDEC068BBDE8F08F1F491C46CE
:100BF00091F80E13042989D107EE904A07EE102AC6
:100C0000F8EE677AF8EE476A67EE897A84E7FAFECB
:100C10004A7AFCEEE77A17EE904A3FE700230A464D
:100C2000BBE701230A46B8E713F06AFA154BDA6905
:100C3000C2F302124DE7C9F8142020E7C9F81420C6
:100C40001DE70E46059191E6049B1A46A5E7002391
:100C5000134A01219FED138A0893134BF0EE489A33
:100C60000691CBE906320D4B25E600BFD0400024AB
:100C700048F90A086C4400240000FEA70000014067
:100C80000040014000440258C0960B0808000020B4
:100C9000282930386F120339698E07081936080879
:100CA000CD9007086F12833A253608080023064ABC
:100CB00001219FED068A0893054BF0EE489A0691B4
:100CC000CBE90632034BF6E5CD90070800000000A3
:100CD000253608081936080800284DD0274A2DE97E
:100CE000F84F0446264B006803449B0A02EB43037B
:100CF000B3F8F000FFF730FDB4F804C02368BCF18E
:100D0000000F37D000204FF0010B4FF0030A4FF0D7
:100D10000F0900F007020BFA00FE45000224C70885
:100D20001CEA0E0F4FEA82020AFA05F603EB870768
:100D300000F1010009FA02F804FA05F501FA02F2DD
:100D400015D09C6824EA06049C605C6824EA0E04C2
:100D50005C60DC6824EA0604DC603C6A24EA08047F
:100D600014433C621A6822EA06022A431A603CFADB
:100D700000F2CED1BDE8F88F704700BF48F90A08ED
:100D80000000FEA700284CD0264A2DE9F84F044663
:100D9000254B006803449B0A02EB4303B3F8F000C1
:100DA000FFF7DAFCB4F804C02368BCF1000F36D0BA
:100DB00000204FF0010B4FF0030A4FF00F0900F035
:100DC00007020BFA00FE45000224C7081CEA0E0FBA
:100DD0004FEA82020AFA05F603EB870700F10100E9
:100DE00009FA02F804FA05F501FA02F214D09C6837
:100DF00034439C605C6824EA0E045C60DC6824EA8E
:100E00000604DC603C6A24EA080414433C621A6865
:100E100022EA06022A431A603CFA00F2CFD1BDE86A
:100E2000F88F704748F90A080000FEA7004870478D
:100E3000CC44002470B4204D06460468E36931EACE
:100E4000030323D0D5F81C379B1AB3F1007F236826
:100E50001FD25807F2D5E3691B05EFD54FF40062A6
:100E60002023002103202262226822F4D072226013
:100E7000A26822F00102A260C6F8803086F87C10D9
:100E8000C6F88430C6F8883070BC7047002070BC4B
:100E9000704723F4D0732022002103202360A3682D
:100EA00023F00103A360C6F8802086F87C10C6F802
:100EB000842070BC704700BFD0400024F8B5474E76
:100EC00096F8204704EB4403650006EBC30393F850
:100ED0002437032B77D8DFE803F0492A1F02254483
:100EE00006EBC505D5F82837002B6ED196F8842778
:100EF000944268D0013404F003018A4286F8201736
:100F000061D001EB41040222184606EBC404C4F888
:100F1000283784F82427F8BD2B1906EBC303D3F830
:100F2000282772B1013A0020C3F82827F8BD2B19F1
:100F300006EBC303D3F82827002AF3D1022283F853
:100F40002427254406EBC50595F83037013BDBB275
:100F500085F83037F3B1224B0120D3F8B82002F2E4
:100F6000E733B3FBF2F3C5F82837F8BD4FF048F884
:100F700048B31B4A42F20F732C440121D2F8B82027
:100F800006EBC404134484F82417B3FBF2F3C4F84B
:100F90002837F8BD124B601C0327D5F82C17D3F85F
:100FA000B820384096F88447531E85F82477001BF4
:100FB0000B4418BF01209A42B3FBF2F188BF002016
:100FC000C5F8281730B90120F8BD013B0020C5F84D
:100FD0002837F8BD0139C5F82817F8BDD0400024DE
:100FE0000000002490F83C30012B00F0BE8101236A
:100FF000F0B580F83C30142A54D8DFE812F05800DD
:101000005300530053009F005300530053007501D9
:10101000530053005300E3005300530053002601D4
:1010200053005300530015000368D1F808C01D6A2F
:101030000F6825F48015A64E1D62B3421A6AD3F8D4
:1010400004E05C6D22F4001224F4E04442EA0C5205
:1010500044EA07240ED09F4DAB420BD006F58046E4
:1010600005F58045AB4218BFB34203D005F5806556
:10107000AB4204D12EF4003E4D694EEA852E4D68F8
:10108000C3F804E05C65DD651A625C6D0D6944F4CB
:1010900000645C65596D21F4806159655A6D42EABE
:1010A00005225A65002380F83C301846F0BD0368DD
:1010B0008E681D6A0F6825F00105874C1D621A6A4B
:1010C0005D6822F00202D3F818C03243804E0CEA69
:1010D0000404B34244EA07040ED006F58066B34226
:1010E0000AD07E4F06F58046B34218BFBB4203D0FC
:1010F00006F58066B3420BD1CE6822F008028F69F4
:1011000025F4407532434E693E4322F004023543D4
:101110004E685D609C615E631A629C690D6944F073
:1011200008049C61996921F0040199619A692A4334
:101130009A61002380F83C301846F0BD03688E6841
:101140001D6A0F6825F01005654A1D621C6AD3F8F8
:1011500004C024F020049D6944EA06145C4E2A4031
:10116000B34242EA072200F002815A4DAB4200F03E
:10117000FE805A4E5B4DAB4218BFB34203D005F51B
:101180008065AB4206D14E692CF4406C8D693543C5
:101190004CEA850C4E68C3F804C09A619E631C62D9
:1011A0009C690D6944F400649C61996921F4806133
:1011B00099619A6942EA05229A61002380F83C30DD
:1011C0001846F0BD0368D1F808C01D6A0F6825F401
:1011D00080553F4E1D62B3421A6AD3F804E0DC69C1
:1011E00022F4005224F4E64442EA0C3244EA072492
:1011F0000ED0384DAB420BD006F5804605F5804544
:10120000AB4218BFB34203D005F58065AB4204D1B1
:101210002EF4804E4D694EEA851E4D68C3F804E0F9
:10122000DC611D641A62DC690D6944F40064DC61F0
:10123000D96921F48061D961DA6942EA0522DA616B
:10124000002380F83C301846F0BD0368D1F808C090
:101250001D6A0F6825F480351D4E1D62B3421A6A5F
:10126000D3F804E05C6D22F4003224F0700442EA0A
:101270000C4244EA07040ED0164DAB420BD006F5E3
:10128000804605F58045AB4218BFB34203D005F553
:101290008065AB4204D12EF4803E4D694EEA052EA6
:1012A0004D68C3F804E05C659D651A625C6D0D696C
:1012B00044F008045C65596D21F0040159655A6DCC
:1012C0002A435A65002380F83C301846F0BD00BF21
:1012D00000000140000401408CFFFEFF004001407F
:1012E000FF8CFFFE004401400368D1F808C01D6A6E
:1012F0000F6825F48075264E1D62B3421C6A5D6836
:10130000DA6924F4007422F0730244EA0C2442EAFD
:10131000070234D006F58066B34230D01D4F1E4E12
:10132000B34218BFBB4203D006F58066B34206D174
:1013300025F440574E698D69354347EA05154E68D7
:101340005D60DA61DE631C62DC690D6944F00804EB
:10135000DC61D96921F00401D961DA692A43DA61D3
:10136000002380F83C301846F0BD0220704724F07E
:101370008004CE6844EA061424F0400403E724F411
:101380000064CE6844EA062424F48064D0E700BFF9
:101390000000014000400140004401402DE9F04FB1
:1013A000DFF8C0B18DB0542200210BF5F1606EF072
:1013B00097F90BF2DC704FF431725E496EF01EF952
:1013C0009BF8A03A3BB19BF8A12A9BF8A23A8BF874
:1013D00088278BF889379BF8A33A1BB1BBF8A43A4E
:1013E000ABF8AC379BF8A93A1BB1BBF8AA3AABF8FB
:1013F000A0379BF8A63A3BB19BF8A72A9BF8A83ADE
:101400008BF894278BF895374B4B00254B4A1B885C
:1014100012881B094A4C4B49C3EB12102288CBF8A7
:10142000BC3A1309484C494F494ECBF8B83A91FBA6
:10143000F0F1CBF8C01A0DE0052D00F0DA81062D91
:1014400000F0A3822078002840F0A98101350C34F7
:10145000072D2BD0042DEFD102204FF48021B84668
:101460000246EC234FF0070E4FF0010C607003FBB7
:1014700002B32078C4F80480D3F8C42884F80AE0C2
:101480000A4384F809C0C3F8C4280028DED04AF013
:1014900083FBEB1DDBB210B100228371C2710135F9
:1014A00003214CF0D1FD0C34072DD3D1294C00255C
:1014B000DFF8B490DFF8B480274FDFF8B4A0274EF0
:1014C00054F8083C002B00F00681D4F8E020002AF4
:1014D00000F00181EC22236002FB05B2D2F838183B
:1014E00041F00201C2F8381899689A6801F00401C5
:1014F00002F008020A43DA6846D0920105D5A18AB3
:1015000040F20112914200F0F5829A68520700F110
:10151000DD829A68120708D59A68910705D4996800
:101520000F4A0A4042F020029A600C21DBF81C07A7
:1015300026E000BF4CFA0A0820E8F11F40E8F11F3E
:1015400060E8F11F8038010058480024000084CB77
:1015500048F90A08B4480024200882E0002102402B
:10156000C0FFFF7FD04000241CF800FC300882E060
:10157000E03000FEDBF81C27121A052A00F2D482A4
:101580009A680A42F6D1DA6842F400122046DA601C
:101590000DF066FA002800F09282236840F2FF7C8A
:1015A0009E490022D3F804E00EEA0101DFF888E248
:1015B0005960C3F800C09968DFF880C221F0A041EB
:1015C0009960996841F000519960D96801F08021D3
:1015D000D960D96841F00041D960196901EA09016F
:1015E0001961596901F040415961996901F07841E7
:1015F0009961196A01F07C411962596A01F07C41D4
:101600005962D3F8B01001F07C41C3F8B010D3F8A0
:10161000B41001F07C41C3F8B410D3F8B81001F055
:101620007C41C3F8B810D3F8BC1001F07C41C3F87A
:10163000BC10196B01EA08011963596B39405963F1
:10164000996B39409963D96B01EA0E0E7449C3F85E
:101650003CE08B42D3F860E01A66D3F864E05A6647
:10166000D3F868E09A66D3F86CE0DA66D3F8A02085
:1016700002EA0C02C3F8A020D3F8A42002EA0C026C
:10168000C3F8A420D3F8C02002EA0C02C3F8C0209B
:10169000D3F8C42002F0F822C3F8C42000F08B81F4
:1016A000B34200F088815F4B9B68DB0704D45E4B3C
:1016B0009A6802EA0A029A60EC22002302FB05B251
:1016C000C2F83C38C4E91733C2F8383884F85030CF
:1016D000002840F061810135EC34032D7FF4F0AE39
:1016E000DFF850914FF0000A4D46D046CDF81490E7
:1016F000D5F8E830002B40F0698108F10108EC359D
:10170000B8F1030FF4D10026DDF81490DFF8308132
:101710003546464FDFF82CA1D9F8E830002B00F011
:101720002B81D9F808403E4A944200F04D8144454F
:1017300000F04A813C488268A16849072ED499F894
:10174000581001292AD002F01F020121092A89F824
:10175000581000F2C88140F22121D140C90740F160
:10176000C281A16811F0010140F08480D4F808E042
:10177000DFF8D4C01EEA0C0F42D0EC2303FB05B502
:10178000D5F8383885F8341843F01003C5F83838E0
:10179000D5F83C3843F00103C5F83C38FEE7244A4D
:1017A000002301331E2B3FF451AE12F80C1F884268
:1017B000F7D194F901104A1E49B103EB430106EB3E
:1017C000810191F8C9131141C80700F1E6800C218D
:1017D0001848002201FB03630168EC3029B193F83B
:1017E000C9131141C90700F1C0830132032AF3D1A3
:1017F0002CE602204FF40021DFF85080024630E64C
:10180000A168394041F00101A160DBF81CC7816883
:10181000C9062CD044452AD12CE000BF00F8FFFFB8
:10182000002002400060025800630258C0FFFF7FA2
:1018300010FD0A08AC48002420F8FFFF0000F0FF6C
:1018400000210240002302403F0000800000B8CF8A
:10185000A168C80704D4A168394041F00101A16022
:10186000DBF81C17A1EB0C01022900F22C85216882
:10187000C907EDD5EC20B649444500FB05B0D0F8CA
:1018800038C80CEA010141F48071C0F8381800D161
:1018900042B9EC2202FB05B2D2F8381821F48011CB
:1018A000C2F83818EC2202FB05B2D2F8381811F44D
:1018B000805140F0D682C2F83C184FEA530ED9F856
:1018C00054009908A34A0EF0773E01F03331C26309
:1018D000DA088E44A04902F01132A3EB0E0E016427
:1018E0009E4B1C21AEEB020EC364FF2321600EEB66
:1018F0001E1E626800210EF00F3E42F0100289F8B1
:10190000581004F140016260E268BEFBF3F322F07C
:10191000030CD9F83420C3EB03234CEA0202DFF8AE
:1019200064C2AEEB0303E2600CEB46020CF0C4FAB7
:10193000D9F8082093683B4043F0040393600028E3
:1019400040F08483D9F8E830854A59089C0801F0B2
:101950007731D80804F0333400F0113021445B1A99
:101960001B1A03EB131303F00F33A2FB0312D2096C
:10197000C2EB02229B1A1E44013509F1EC09032D2A
:101980007FF4CAAE0DB0BDE8F08F02204FF40031F5
:10199000DFF8F481024664E5FEE74FF00C0C4FF0EF
:1019A000010E50B20CFB036393F8D013D3F8CC8331
:1019B0000EFA01F155E56B4B9B68B2681343DA07E9
:1019C0003FF57AAE684B73E65046B4E6A888042625
:1019D000FEF7C2FED5F8E830FF22AE6159089C0838
:1019E00001F07731D80804F0333400F0113021448D
:1019F00003245B1AEC211B1A286801FB08B103EBD6
:101A00001313A8604FF4403003F00F33E860082050
:101A1000B3FBF2F2C2EB0222286101209B1A0022E2
:101A200068612B624FF480536877A8622A7785F843
:101A3000242085F840200692C5E90B22C5E90D4314
:101A4000D1F83838002B00F00782AF68BB689800E7
:101A500003D5BA68454B1340BB60BB6813F0805F89
:101A6000434B3ED1B9681A460193424BD2F8B42099
:101A70000B404149B2FBF1F243F08053BB60069248
:101A8000069B2BB1069B013B0693069B002BF9D1CD
:101A9000BB68D90040F1D0810024BB685A0775D5D6
:101AA000EC2303FB08B3D3F83838EC2303FB08B36B
:101AB000D3F8382842F01002C3F83828FEE7EC23A8
:101AC000012203FB05B3C3F8382866E59A6891073D
:101AD0003FF51FAD9968294A0A4042F010029A600A
:101AE00017E50193D4E7EC22002302FB05B585F846
:101AF000343853E61A68500606D4214A01E0013A08
:101B000012D019684906FAD540221A609A6850071F
:101B100008D59A68900705D49968184A0A4042F097
:101B200010029A60042101E5EC22012002FB05B2BB
:101B3000D2F8381841F01001C2F83818D2F83C1821
:101B40000143C2F83C18DA6842F40012DA6024E576
:101B5000FEF0FFFF5D9904085999040845990408AF
:101B6000818080800020024000230240C0FFFF5F90
:101B700000000024C0FFFF6F400D0300C0FFFF7F87
:101B800000DC0C00E04E0124000052C7EC2303FBF4
:101B900008B3D3F83828D60687D4D3F8382822F4E7
:101BA000817242F00202C3F83828BB68DB0713D405
:101BB000AF4B9F4200F07D8303F580739F4200F09E
:101BC0007883AC4B9B68D80706D4AB498B68EA682E
:101BD00023F47C1313438B60A84A41F20303126879
:101BE000B3EB124F2A69C0F0A281AB6B697F13433C
:101BF00095F8242043EA413343EA0243012A03D102
:101C0000AA6A013A43EA4243EA6A22B102F47872CC
:101C1000296B0A431343F968994A0A401343FB604E
:101C2000B868BB6800F0040003F00803184300F034
:101C30003381AB686A69012A00F0E9821A6B22F0ED
:101C40000F021A63EC2707FB08B7D7F8383807F6F6
:101C5000380623F0030343F00103C7F83838002C9B
:101C600040F0958195F858300794012B00F08E8153
:101C700005F1080318460493012385F858300CF049
:101C8000EFFE002840F07C81D7F838187D4A7E4B63
:101C90000A407E4942F00202C7F83828AA689068D4
:101CA000034043F0004393609368002BC0F27081BF
:101CB000EC220020764F02FB08B201460290D2F8D7
:101CC000383823F0030343F00103C2F8383885F8AD
:101CD000580006E0029B0C370133072B029300F0FB
:101CE0006D817B7A002BF5D097F901304345F1D116
:101CF000684B00224E1C87F808A003EB810095F882
:101D000058300AF101010892012BD0F830457A6869
:101D1000039100F02981AB680120996885F858008B
:101D2000490700F11281C2F3130EBEF1000F40F01B
:101D3000B682C2F3846C910E00FA0CF0D3F81CA0AA
:101D40004FEA941903F1300C04F01F044AEA000A28
:101D500009F00C004FF01F09C3F81CA001EA0901AB
:101D600050F80CA009FA04F9A1402AEA090949EA45
:101D7000010140F80C109868996800F0040001F027
:101D80000801014345D1D10DC2F3045A03F11404F3
:101D90004FF0070901F004014FF0060C09FA0AF9A7
:101DA00008590CFA0AFCDFF8D4A020EA090040EA3E
:101DB0000C000851DAF8001001F07041B1F1805FB9
:101DC000D96800D0D968196E900601F0F841B1EBDE
:101DD000826F03D1196E21F000411966596E01F02E
:101DE000F841884203D1596E21F000415966996E3D
:101DF00001F0F841884203D1996E21F000419966C3
:101E0000D96E01F0F841884203D1D96E21F000412A
:101E1000D9669968C80708D4D3F8C010002A21EA07
:101E20000E01C3F8C010C0F2C58100233146DDF8B1
:101E30000CA085F858304DE7EC23012403FB08B3D0
:101E4000D3F8382842F01002C3F83828D3F83C28D9
:101E50002243C3F83C2820E6C1F83C3885F85830C6
:101E6000F3E5D2F83C1821F00601C2F83C1824E54D
:101E70000020024000600258006302580010005C1D
:101E800003C0F0FFFDEEFFFFC0FFFE3F00F8C325DB
:101E90005848002448F90A08FB68B84A297F1A40C4
:101EA0006B6B42EA813295F8401013430129FB60C5
:101EB00000F025823B6923F001033B613A69EB6B3B
:101EC00022F07042AE4913438F423B6100F00F8213
:101ED000AC4B9F4200F00B82AB4B9B6813F4403F2E
:101EE00014BF01230023002B00F0D58012F0C6F8A8
:101EF000EB68B3F5003F00F0CA80B3F5403F00F057
:101F0000B680B3F5803F00F0C280A04A41F20303DF
:101F10001268B3EB124FC0F0A1809D4B984240F283
:101F20009780AB689A6842F480729A6082E6102AC1
:101F30007FF45BAE95F82420687F1104AB6B41EA17
:101F400040310B4343F01C0358E6EC2303FB08B37A
:101F5000D3F8382842F02002C3F83828EC230022B6
:101F600003FB08B383F83428FEE793F8D0134FF04F
:101F7000010CD3F8CC8350B20CFA01F1FFF771BA1F
:101F8000336887F8344843F010033360FEE795E583
:101F9000079B01330793079B8B42FFF485AEEC232D
:101FA000002103FB08B3D3F8382883F8341822F053
:101FB000120242F01002C3F83828E7E7754B5FFAC7
:101FC00088F602204344314693F914204CF03AFC41
:101FD0004768044638464CF099FD01994FF0240CAF
:101FE000431E0CFB031393F8D81000297FF4CAACEE
:101FF00001364FF0060C83F8D96083F8D8C000286A
:102000003FF4C0ACA3684FF480644FF48072EF6675
:102010002B674FF400664FF480334FF40057EC67A2
:1020200005F16C046967A967C5E92223C5E9206742
:1020300067F0A6FE20460CF0E9F820460CF0C8F93F
:10204000049B6C65C5F8A430FFF757BBFFF7A6BB30
:10205000AB689A6822F480729A60EBE54E4B984226
:1020600007D8AB689A6822F440729A60E2E580086B
:102070004BE74A4B98423FD9494B9842AB689A6824
:1020800024D822F4407242F400729A60D2E51B0C0C
:10209000B0FBF3F039E7434A936D03F44033B3F5F3
:1020A000803F5BD0B3F5003F4BD0002B5FD0EB6897
:1020B000B3F5101F43D00DD8B3F5E01F3DD023D9A1
:1020C000B3F5001F7FF421AF40091EE742F44072D0
:1020D0009A60AFE5B3F5201F4ED0B3F5301F7FF403
:1020E00014AF2A4A41F203031268B3EB124FAFD286
:1020F000294BB3EB102FB4D2AB689A6822F440722C
:1021000042F480729A6095E5B3F5801F07D00BD931
:10211000B3F5A01F03D0B3F5C01F7FF4F6AE9B0C40
:102120005B00B0FBF3F0F0E6B3F5002FF7D023F43B
:102130000022B2F5802FF2D0E7E60009E5E680093B
:10214000E3E6D36C13F040530FD0B3F1805F0AD0B5
:10215000154AB3F1005F08BF1046A8E709A810F0C0
:102160002BFD0B98A3E71148A1E711489FE709A8A9
:1021700010F0CEFD09989AE7C009C6E6FCBFFFFF44
:102180000020024000210240006302580010005C61
:10219000002D3101704B002421BCBE0041787D012F
:1021A00081F0FA020044025800127A0000093D0052
:1021B0000090D0035A498B4231D001F580718B4297
:1021C0002DD0584958488468896804F0E07CC94398
:1021D00001F0010100293FF4B8AE54498A423FD0D2
:1021E00053498A422CD053498A427FF41EAE64027E
:1021F0003FF51BAE4B4A93427FF417AE836823F042
:10220000E07343EA0C0343F4800383600DE6196B2B
:102210002A6A21F00F01013A0A431A6312E546497E
:102220008C680846A1F5407104F0E07CD1F8089074
:10223000D1F808E149EA0E01C94301F00101C9E7FB
:10224000E2013FF5F2AD374A93427FF4EEAD836889
:1022500023F0E07343EA0C0343F080738360E4E50A
:1022600021023FF5E2AD2F4A93427FF4DEAD019BA0
:102270008268D3F8B430314922F0E072B3FBF1F355
:1022800042EA0C0C5A004CF400038360089202E00E
:10229000089B013B0893089B002BF9D1C5E592FAF6
:1022A000A2FCBCFA8CFC910E0CF01F0C00FA0CF096
:1022B00044E51B4B224A9B6892681343DE073FF5B7
:1022C0008BAC1D4982E4EC23002203FB05B5D5F855
:1022D000383885F8342843F01003C5F83838D5F875
:1022E0003C3843F00103C5F83C38FFF757BA124BAE
:1022F0009B6813F4403F14BF01230023F3E5D5E9A5
:102300001123E96C013A2E6D0B43396943EA02430C
:102310000C4A33430A40134343F001033B61CDE5CC
:10232000002002400060025800630258000084CB85
:10233000000052C70000B8CF00230240400D030048
:10234000002102401EF800FC2DE9F041D0F800E029
:102350000C46DFF8588084B0DEF804501746DFF8EA
:1023600050C0194605EA0805DDF8288006460393A3
:102370002C43424644EA0C0CCEF804C00AF054FB4D
:1023800078B931680246039B30468F628021CDF8D0
:1023900000800AF079FB003818BF012004B0BDE8C6
:1023A000F081012004B0BDE8F08100BF009800FC7E
:1023B00000200181F8B5134F04460D460AE09B69E1
:1023C000DB0602D50AF0F0FAD0B9D7F81C375B1B50
:1023D0000A2B08D823682A460A2120469E69B60699
:1023E000EDD50020F8BD636C2021002201200B43B5
:1023F00084F84020636484F8411084F84220F8BDDA
:102400000120F8BDD04000242DE9F041D0F800E0D3
:102410000C46DFF8588084B0DEF804501746DFF829
:1024200050C0194605EA0805DDF8288006460393E2
:102430002C43424644EA0C0CCEF804C00AF0F4FAED
:1024400078B931680246039B30468F624021CDF84F
:1024500000800AF019FB003818BF012004B0BDE865
:10246000F081012004B0BDE8F08100BF009800FCBD
:1024700000200180054A92F8C43A002BFBD10448A1
:102480000449D0F8743B20301B681847D040002422
:10249000E04E0124974B0024F8B5364C0546082140
:1024A000D4F8D40AD4F81C670AF090FC00B1F8BD47
:1024B000D4F8181BD4F8D40A09040AF027FC002821
:1024C000F5D1D4F8D43A4FF0FF31082259629A621C
:1024D00001301F28FCD9DA6A0020274941F233175E
:1024E00022F0FF0242F03302DA6298601846DA689E
:1024F000114041F288320F433321DF600AF06CFB58
:102500000028D4D1D4F8D42A8446074640F22A5170
:1025100004E0D4F81C379B1B01331ED0536B0B42D5
:10252000536B09D11B03F4D40028F2D1D2F8807088
:102530000120D2F880C0ECE7190714D4536B9B0735
:102540000ED4506B10F0200010D19CFA8CF33FBADF
:102550000A499163C5E90037F8BD4FF00040F8BD66
:1025600002209063F8BD08209063F8BD202090639E
:10257000F8BD00BFD0400024C0E0FEFF3A0F0018B5
:1025800070B5114C41F20D13104D41F28832D4F860
:10259000181BD4F8D40A0E040D218660C668354095
:1025A0002B43C3600AF018FB38B1D4F8082B03465C
:1025B00000201343C4F8083B70BDD4F8D43A5869DE
:1025C000C0F3432070BD00BFD0400024C0E0FEFF38
:1025D000F8B500286FD0474C94F8043B012BDEB2CD
:1025E00055D18B18D4F8245B0027AB42C4F8087B84
:1025F00050D8D4F80C3B4FF0030ED4F8D45A4FEA1D
:10260000422C012B84F804EB4FF00003EF6218BF5B
:1026100049024FF0FF37C4F8FCCAC4F8F80A6F62E9
:10262000C5F828C001331F2BFCD9EB6A012723F022
:10263000FF03BA4243F09203EB62EB6843F04003BE
:10264000EB60A8652F6540D982232B4F2846C4F83C
:10265000003B41F21213A9601221EA68174041F2CF
:1026600088323B43EB600AF0B7FAD8B1D4F8D41AF9
:102670000122224D00238D63D4F8081B0843C4F8BF
:10268000080B304684F8042BC4F8003BF8BD022642
:102690003046F8BDD4F8083B304643F00073C4F828
:1026A000083BF8BDD4F8D42A0646D36B304643F431
:1026B0009573D363F8BD0F4A0126D2F8083B304624
:1026C00043F00063C2F8083BF8BD81230A4F284657
:1026D000C4F8003B41F21113A9601121EA681740C8
:1026E00041F288323B43EB600AF076FA0028D9D0F9
:1026F000BCE700BFD0400024C0E0FEFFFF0FE01F9A
:10270000F8B50121514D12F01F04C5F8741B6FD1AB
:102710004FEA432CBFF34F8FBCF1000F08D002EB00
:102720000C0711464A4EC6F868122031B942FAD158
:10273000BFF34F8FBFF36F8F002A7ED095F8041B35
:10274000012953D103EB000ED5F8246B0027014675
:10275000B645C5F8087B68D8D5F80C6B4FF0030E6A
:10276000D5F8D40A012E4FF0FF3685F804EB18BFD8
:102770004902C762C5F8F02A4662C5F8F4CAC0F833
:1027800028C001341F2CFCD9C46A012624F0FF04A0
:10279000B34244F09004C462C46844F04004C4608E
:1027A0008265066526D9A0222A4C41F21913C5F884
:1027B000002B41F288328160C1680C40192123430B
:1027C000C3600AF009FA03463BB3D5F8D40A0121E5
:1027D000214C002284632A20D5F8084B2343C5F8F6
:1027E000083B85F8041BC5F8002BF8BD2A20F8BD6E
:1027F0000920F8BD9022174C41F21813C5F8002BA0
:1028000041F288328160C1680C4018212343C360C3
:102810000AF0E2F90346002BD7D1D5F8D42A18469E
:10282000D36B43F48D73D363F8BDD5F8083B2A20EE
:1028300043F00073C5F8083BF8BDD5F8083B2A20E3
:1028400043F00063C5F8083BF8BD00BFD04000244A
:1028500000ED00E0C0E0FEFFFF0FE01F134B30B4BF
:10286000D3F8800B0025D3F8882BD3F8844B20F0C5
:102870001F01C3F8705B04FB0202521ABFF34F8FB3
:10288000AA420DDD013A01F12003094822F01F029E
:102890001A449342C0F85C12194603F12003F8D1A0
:1028A000BFF34F8FBFF36F8F30BC7047D040002411
:1028B00000ED00E00B4BD3F8702B3AB1D3F8782B36
:1028C00000210132C3F8701BC3F8782BD3F8742BA6
:1028D0003AB1D3F87C2B00210132C3F8741BC3F842
:1028E0007C2B7047D0400024002800F001812DE9A6
:1028F000F04F848885B0B4FA84F3202BC3F11F0213
:1029000000F09B807B4D4FF00041DFF810E2154452
:1029100031FA03F30EEB82020EF6CC3695F87055C1
:10292000C2F88C6B019505D0734A116821EA030146
:10293000116093600268002C79D00021DFF8E081FB
:102940006D4F00944FF00109009809FA01F303401C
:1029500069D04FF0030A01FA09FCD5684FF00F0B5C
:102960000AFA0CFC01EA0A0021F00306634C25EA8E
:102970000C05800006F1B046A242D5600BFA00F5C6
:10298000D2F800B006F580662BEA0C0CC2F800C045
:10299000D8F8F4C04CF0020CC8F8F4C0D8F8F4C071
:1029A0000CF0020CCDF80CC0DDF80CC0D6F808C055
:1029B0002CEA050526D004F58064A24240D0504C94
:1029C000A2426DD04F4CA24276D04F4CA2426DD065
:1029D0004E4CA24274D0DFF84CC162457CD0DFF887
:1029E00048C162457ED0DFF844C162456ED0DFF851
:1029F00040C162450CBF4FF0090C4FF00A0C0CFAB5
:102A000000F00543B5604FF0B0403D681D433D60A8
:102A10007D6825EA03057D60056825EA03050560F4
:102A200045682B4343600131009BCB408AD1019B19
:102A30009E449EF8D03BF02B06D805B0BDE8F08F41
:102A400009FA00F00543DDE7F021314A314B01205E
:102A50008EF8D01BD2680199C2F302222E4D595C28
:102A6000C2F10704131D01F01F06042C00FA06F042
:102A700028BF0424062B4FF0FF338CBF033A0022FB
:102A8000A3406C184909DB4303F0030393401B0187
:102A9000DBB284F8003345F8210005B0BDE8F08FC3
:102AA0004FF0020C0CFA00F00543ABE74FF0040CBA
:102AB0000CFA00F00543A5E70AFA00F00543A1E788
:102AC0004FF0050C0CFA00F005439BE74FF0080CA3
:102AD0000CFA00F0054395E74FF0060C0CFA00F0F5
:102AE00005438FE74FF0070C0CFA00F0054389E728
:102AF000704700BF48F90A088000005800000258DB
:102B000000080258000C0258001002580014025825
:102B100000ED00E0D4960B0800E100E0D040002476
:102B20000044025800180258001C025800200258A5
:102B300000240258002800F0FF802DE9F04F84881F
:102B400085B0B4FA84F3202BC3F11F0200F0998002
:102B50007A4E4FF00045DFF80C82164435FA03F345
:102B600008EB820296F87065C2F88C1B019605D0BE
:102B7000734A116821EA0301116093600368002C15
:102B800079D00021DFF8E0E16D4F00944FF00109AA
:102B9000009809FA01F2024069D04FF0030A01FAE5
:102BA00009FCDD684FF00F0B0AFA0CFC01EA0A0081
:102BB00021F00306634C25EA0C05800006F1B046BF
:102BC000A342DD600BFA00F5D3F800B006F580668D
:102BD0002BEA0C0CC3F800C0DEF8F4C04CF0020C79
:102BE000CEF8F4C0DEF8F4C00CF0020CCDF80CC046
:102BF000DDF80CC0D6F808C02CEA050526D004F58F
:102C00008064A34240D0504CA3426DD04F4CA342AD
:102C100076D04F4CA3426DD04E4CA34274D0DFF817
:102C20004CC163457CD0DFF848C163457ED0DFF8F6
:102C300044C163456ED0DFF840C163450CBF4FF01F
:102C4000090C4FF00A0C0CFA00F00543B5604FF088
:102C5000B0403D6815433D607D6825EA02057D6012
:102C6000056815430560456825EA020242600131A6
:102C7000009ACA408AD1019B984498F8D03BF02B27
:102C800006D805B0BDE8F08F09FA00F00543DDE78E
:102C9000F021314A314B012088F8D01BD2680199CC
:102CA000C2F302222E4D595CC2F10704131D01F03C
:102CB0001F06042C00FA06F028BF0424062B4FF050
:102CC000FF338CBF033A0022A3406C184909DB4351
:102CD00003F0030393401B01DBB284F8003345F893
:102CE000210005B0BDE8F08F4FF0020C0CFA00F0A7
:102CF0000543ABE74FF0040C0CFA00F00543A5E7E1
:102D00000AFA00F00543A1E74FF0050C0CFA00F0B9
:102D100005439BE74FF0080C0CFA00F0054395E7DC
:102D20004FF0060C0CFA00F005438FE74FF0070C4C
:102D30000CFA00F0054389E7704700BF48F90A081C
:102D4000800000580000025800080258000C025889
:102D5000001002580014025800ED00E0D4960B0851
:102D600000E100E0D040002400440258001802585E
:102D7000001C025800200258002402582DE9F04F90
:102D8000C14C83B0054694F8D71BD4F8DC0B6F1EFA
:102D9000C1F340014BF038FA94F8D71BD4F8D80BA4
:102DA000C94301F001014BF02FFAFBB20193002D52
:102DB00000F0D080B54E4FF01009DFF8D882B44D46
:102DC000D4F8DC0B4BF00AFAD4F8D80B4BF006FA27
:102DD000B4F8E43B002B40F04E8194F8E61BD4F8A5
:102DE000E80B4BF011FA4FF0FA0A4FF47A71012018
:102DF000D8F80430C3F30803002B40F00F81EFF341
:102E00001183002B40F00A81D6F82C2FD5F808C08A
:102E1000D6F82C3F9A42F7D1D4F80C3C9C45F3D815
:102E2000D4F8087C01FB07F3A3EB0C03B3FBF7F327
:102E300001FB0232D8F80430C3F30803002B40F042
:102E4000AB80EFF31183002B40F0A680D6F82C3F27
:102E5000D5F808B0D6F82C7FBB42F7D1D4F80C7C5B
:102E6000BB45F3D8D4F8087C01FB07FCACEB0B0C9A
:102E7000BCFBF7FC01FB03C39B1AB3F57A7FD9D3E4
:102E8000BAF1010AB4D1D4F8DC0B4BF0A7F9D4F8AD
:102E9000D80B4BF0A3F9B4F8E43B002B40F0DF80F3
:102EA00094F8E61BD4F8E80B81F001014BF0ACF983
:102EB000FA204FF47A714FF0010CD8F80430C3F3C4
:102EC0000803002B40F08980EFF31183002B40F0C2
:102ED0008480D6F82C2FD5F808E0D6F82C3F9A42FB
:102EE000F7D1D4F80C3C9E45F3D8D4F808AC01FBDC
:102EF0000AF3A3EB0E03B3FBFAF301FB0232D8F89B
:102F00000430C3F3080343BBEFF311832BBBD6F8A4
:102F10002C3FD5F808B0D6F82C7FBB42F7D1D4F8B7
:102F20000C7CBB45F3D8D4F808AC01FB0AFEAEEB31
:102F30000B0EBEFBFAFE01FB03E39B1AB3F57A7F8F
:102F4000DDD30138B9D1019B5F1EFBB2FF2B01938A
:102F50007FF436AF03B0BDE8F08FEFF3118A89F349
:102F60001288AF682B68DB0302D5C4F804CCAF68C5
:102F7000D6F82C3F5FFA8AFAD4F804EC8AF3118869
:102F8000D4F808AC734401FB0AFEAEEB070EBEFB9F
:102F9000FAFE01FB03E3D0E7EFF3118E89F3128809
:102FA000D5F808B02B68DF0303D5C4F8040CD5F8B6
:102FB00008B0D6F82C3F5FFA8EFED4F804CC8EF31E
:102FC0001188D4F8087C634401FB07FCACEB0B0CC4
:102FD000BCFBF7FC01FB03C34EE7EFF3118E89F353
:102FE0001288D5F808A02B68DA0303D5C4F804CCFE
:102FF000D5F808A0D6F82C3F5FFA8EFED4F8042C42
:103000008EF31188D4F808EC1A4401FB0EF3A3EBFD
:103010000A03B3FBFEF301FB023270E7EFF3118CFE
:1030200089F31288D5F808E02B68DB0303D5C4F8D0
:10303000040CD5F808E0D6F82C3F5FFA8CFCD4F8E5
:10304000042C8CF31188D4F8087C1A4401FB07F394
:10305000A3EB0E03B3FBF7F301FB0232EAE6D4F86D
:10306000003C002B3FF424AFD4F8EC3BC3F800A0A5
:1030700084F8FDAB1CE7D4F8003C002B3FF4B3AE62
:1030800045F0ECFBAFE600BFD0400024E01E00247A
:1030900010E000E000ED00E02DE9F04FBD4C83B002
:1030A0000523BD4E94F8D71B4FF01009D4F8DC0B64
:1030B000C1F3400101934BF0A7F894F8D71BD4F863
:1030C000D80BC943DFF8D882B44D01F001014BF0B1
:1030D0009BF8D4F8DC0B4BF081F8D4F8D80B4BF00C
:1030E0007DF8B4F8E43B002B40F04C8194F8E61BEB
:1030F000D4F8E80B4BF088F832274FF47A710120AE
:10310000D8F80430C3F30803002B40F00F81EFF32D
:103110001183002B40F00A81D6F82C2FD5F808C077
:10312000D6F82C3F9A42F7D1D4F80C3C9C45F3D802
:10313000D4F808EC01FB0EF3A3EB0C03B3FBFEF396
:1031400001FB0232D8F80430C3F30803002B40F02F
:10315000AB80EFF31183002B40F0A680D6F82C3F14
:10316000D5F808B0D6F82CCF6345F7D1D4F80CCCFD
:10317000E345F3D8D4F808EC01FB0EFCACEB0B0CE8
:10318000BCFBFEFC01FB03C39B1AB3F57A7FD9D3CA
:10319000013FB5D1D4F8DC0B4BF020F8D4F8D80BB4
:1031A0004BF01CF8B4F8E43B002B40F0E08094F8BE
:1031B000E61BD4F8E80B81F001014BF025F8322032
:1031C0004FF47A710127D8F80430C3F30803002BB9
:1031D00040F08B80EFF31183002B40F08680D6F80F
:1031E0002C2FD5F808E0D6F82C3F9A42F7D1D4F826
:1031F0000C3C9E45F3D8D4F808AC01FB0AF3A3EBD2
:103200000E03B3FBFAF301FB0232D8F80430C3F328
:10321000080343BBEFF311832BBBD6F82C3FD5F843
:1032200008B0D6F82CEF7345F7D1D4F80CECF34581
:10323000F3D8D4F808AC01FB0AFEAEEB0B0EBEFBD4
:10324000FAFE01FB03E39B1AB3F57A7FDDD3013865
:10325000B9D1019B5F1E17F0FF0301937FF439AFD3
:1032600003B0BDE8F08FEFF3118A89F31288D5F827
:1032700008B02B68DB0303D5C4F8047CD5F808B08C
:10328000D6F82C3F5FFA8AFAD4F804EC8AF3118856
:10329000D4F808AC734401FB0AFEAEEB0B0EBEFB88
:1032A000FAFE01FB03E3CEE7EFF3118E89F31288F8
:1032B000D5F808B02B68DB0303D5C4F8040CD5F8A7
:1032C00008B0D6F82C3F5FFA8EFED4F804CC8EF30B
:1032D0001188D4F808EC634401FB0EFCACEB0B0C3A
:1032E000BCFBFEFC01FB03C34EE7EFF3118E89F339
:1032F0001288D5F808A02B68DA0303D5C4F8047C3B
:10330000D5F808A0D6F82C3F5FFA8EFED4F8042C2E
:103310008EF31188D4F808EC1A4401FB0EF3A3EBEA
:103320000A03B3FBFEF301FB02326EE7EFF3118CED
:1033300089F31288D5F808E02B68DA0303D5C4F8BE
:10334000040CD5F808E0D6F82C3F5FFA8CFCD4F8D2
:10335000042C8CF31188D4F808CC1A4401FB0CF32C
:10336000A3EB0E03B3FBFCF301FB0232EAE6D4F855
:10337000003C002B3FF423AFD4F8EC3B1F6084F8F3
:10338000FD7B1CE7D4F8003C002B3FF4B5AE45F0C4
:1033900065FAB1E6D0400024E01E002410E000E011
:1033A00000ED00E0034BD3F8682C136A002BFCD12E
:1033B000704700BFD040002410B4B8B10D4CD4F811
:1033C000043D102B05D1052100205DF8044B41F090
:1033D000ABBE03EB4302224482F8091D012182F8AF
:1033E000080D0B4482F80A1DC4F8043D5DF8044B37
:1033F000704700BFD040002403681878012801D02E
:1034000000207047074A642193F9043001FB03232D
:1034100093F8912D202AF4D1D3F8503D9869C0F348
:10342000C0307047D0400024F0B5344C134693B000
:10343000D4F8C85E2A78022A07D00A46014604F664
:10344000C8604CF053FA13B0F0BD2A6A12B10020E4
:1034500013B0F0BD0DF1070C002600278DF8070012
:10346000012003928DF814200B920E921092CDF849
:1034700008C004908DF828008DF83C00CDE90622A4
:10348000CDE90813CDE90C67EFF31180102383F326
:103490001288D4F8C83E1B6A13B302AE049B3246AE
:1034A0001BB1D3691432002BFBD12B6A13B399687B
:1034B00039B993420AD0196829B15B689968002923
:1034C000F7D01433F3E70E4AC3E90026C0B280F305
:1034D0001188D4F8C82E136A002BFCD10120B2E762
:1034E00002ABC0B22B6280F3118804F6C86066F0AC
:1034F000ADFDEEE7024A1A60FFDE00BFD0400024B7
:10350000984F00242DE9F047046882B02578022DF9
:1035100000F08580012D04D00024204602B0BDE8D3
:10352000F08794F904704A4E032F86F8945FD4BF55
:1035300000240124B7F1FF3F08BF44F00104002C30
:10354000EAD10A466421034601FB0761D1F8500D18
:103550000028E1D091F891CDBCF1200FDCD1806939
:1035600010F40048D8D191F8900D0128D4D04FF034
:10357000400C38484FF0210993F804A0D6F81CE716
:1035800081F8919D81F892CD06F6947CC1F8948DD6
:10359000A1F87A5DC1F87C0DB1F87A3D2E489BB256
:1035A00081F8905DC1F874CDFF2BC1F8840D49D826
:1035B000B1F87ACD4FF000791FFA8CFC64204FEA05
:1035C0004A0ACDF800E0192300FB07F723485146CB
:1035D000F5193844A5F878CDFEF7B6FE40BBD5F80E
:1035E000502D1F49536895F8786D0B401D4CD5F848
:1035F000841D43EA0A03A14243EA064343EA09035E
:10360000536085F8900D04D0174B994218BF4FF0C6
:10361000F2081368012443EA080313607DE7236A74
:10362000002B7FF479AF012214464BF05FFF74E763
:10363000B6F8963F0022013385F8902D9BB2A6F88C
:10364000963F6AE74FF0FF0C4FF08079B6E700BF76
:10365000D04000240000FFFF31DD0408204E00248C
:10366000009C00FCC1DA0408EDDB040810B50C4C2A
:10367000D4F8C83E1B78022B10D1D4F8D00E4AF0F3
:10368000BDFDD4F8D00E08B12123C38001214AF03A
:10369000DBFC04484BF0BAFDA4F8CC0E10BD00BF13
:1036A000D04000248096980030B5044683B00123B2
:1036B0000D460DF10702084821464CF017F99DF818
:1036C000072035EA020304D02A43214602484CF081
:1036D00043FC03B030BD00BF984F002438B5054609
:1036E0000A460C46064829464BF000FF45F080018B
:1036F00003484BF09DFD231A5842584138BD00BF86
:10370000984F002413B53B4C0023D4F8A42F8DF818
:103710000730137803F0FD01012905D194F8A81FA3
:1037200011B90C2184F8A81F022B1ED0032B2ED018
:1037300001220B2130485DF087FD042044F0C8FFD2
:1037400001230DF1070200212B485DF09FFD0028A9
:103750003AD09DF80730482B36D1284BC4F8983F13
:10376000274BC4F89C3F02B010BDD4F8AC0F4AF010
:1037700045FDD4F8AC0F08B13523C38001214AF0D0
:1037800063FC20484BF042FDA4F8A80FD0E71E4B85
:1037900046F2A81150681222D3F85C331961002355
:1037A000372180F888305DF023FDD4F8A43F0D2246
:1037B000242158685DF01CFDD4F8A43F30226A2112
:1037C00058685DF015FDB3E7D4F8A43F1A78022AD3
:1037D00003D0032A07D00020C5E7D4F8AC0F4BF084
:1037E00023FA0020BFE71022372158685DF000FD62
:1037F000F1E700BFD040002474500024EB120A0807
:103800006D130A0880969800C85100242DE9F04FE6
:10381000B84C002395B005464FF4F072202104F512
:10382000F460019584F89C374FF0100884F89D37B8
:103830006BF056FF4FF4F07204F518602021AE4F84
:103840006BF04EFF4FF47A754FF0320CAB4ADFF855
:10385000CCE24FF00109AA48DEF80430C3F30803B4
:10386000002B40F0BD80EFF31183002B40F0B880B7
:10387000D7F82C1F8668D7F82C3F9942F8D1D2F898
:103880000C3C9E42F4D8D2F808AC05FB0AF39B1B13
:10389000B3FBFAF305FB0131DEF80430C3F3080390
:1038A000002B7CD1EFF31183002B78D1D7F82C3F7C
:1038B000D0F808B0D7F82C6FB342F7D1D2F80C6C1F
:1038C000B345F3D8D2F808AC05FB0AF6A6EB0B0615
:1038D000B6FBFAF605FB03635B1AB3F57A7FDBD31D
:1038E000BCF1010CB8D194F8612B002A52D094F8A5
:1038F000623B013B052B4DD803EB83070125814833
:1039000004EBC70184F8DC5C00EBC70791F8645B4B
:10391000C4F8547C022D00F05282DBB204EB031396
:10392000D3F8EC3CC1F8683BA3B34FF48075022692
:10393000431900F59E7081F8646BA1F8705BC1F8C3
:103940007C3BC1F8800B150902F00F02013D062DEA
:1039500000F216826C4E06EB4503B3F8D80040FA2D
:1039600002F3DB0740F10C8201233544674F03FA71
:1039700002F2013A104069F07BF995F8E810014431
:1039800007EBC10898F80630C4F85C8C412B47D08F
:10399000002B45D06FF0010015B0BDE8F08FEFF3BC
:1039A000118A88F31288D0F808B00368DE0303D5C3
:1039B000C2F8049CD0F808B0D7F82C3F5FFA8AFA16
:1039C000D2F8046C8AF31188D2F808AC334405FBB2
:1039D0000AF6A6EB0B06B6FBFAF605FB03637BE7DC
:1039E000EFF3118688F31288D0F808A00368DB0390
:1039F00003D5C2F8049CD0F808A0D7F82C3FF6B243
:103A0000D2F8041C86F31188D2F8086C194405FB1F
:103A100006F3A3EB0A03B3FBF6F305FB01313BE727
:103A200023223B4B04ADA8F8062057F8312013445D
:103A30009B0A06EB4306B6F8F0000126FCF78CFE65
:103A40000023B8F804C0032257F831002946069332
:103A5000CDE90723CDE904C60AF0E4FED4F85C3CC6
:103A6000002B00F0BA811A68D4F8547C9B889361CB
:103A7000284A0223284952085B008A429BB201D996
:103A8000FF2BF8D90022FF210DF10F06A4F8583CB6
:103A900001238DF80F100D9206938DF81C308DF8D0
:103AA0003030CDE90462CDE90822CDE90A22EFF3F6
:103AB0001180102383F31288D4F8543C1B6A002B26
:103AC00000F06381069B2A461BB1D3691432002B98
:103AD000FBD13B6A002B00F08381996839B99A4287
:103AE00021D01968E1B15B6899680029F7D01433D7
:103AF000F3E700BFC8510024E01E0024D04000249A
:103B000010E000E02C5D002448F90A086C44002411
:103B10000000FEA780F0FA02404B4C0000ED00E0F0
:103B2000B14AC3E90025C0B280F31188D4F854CC5F
:103B3000DCF82030002BFBD101224FF08C0E0DF170
:103B40000E070020002105938DF81C300A960D9376
:103B5000109312938DF80EE0049706920B928DF855
:103B600030208DF84420CDE90833CDE90E01EFF384
:103B70001180102383F31288D4F8543C1B6A002B65
:103B800000F00B81069B2A461BB1D3691432002B2F
:103B9000FBD1DCF82030002B00F02281996839B984
:103BA0009A420AD0196829B15B6899680029F7D050
:103BB0001433F3E78C4AC3E90025C3B283F31188B9
:103BC000D4F8542C136A002BFCD19DF80F301B2B1A
:103BD00040F0FB800122D4F85C3C84F89C270BB1B8
:103BE0002322DA80DFF800A240220A2150464BF05F
:103BF0007DFC002301224FF08A0C002000218DF86B
:103C00000EC00497D4F854CC0A9605938DF81C3056
:103C10000D931093129306920B928DF830208DF82D
:103C20004420CDE90833CDE90E01EFF311801023D4
:103C300083F31288D4F8543C1B6A002B00F0B68042
:103C4000069B2A461BB1D3691432002BFBD1DCF84A
:103C50002030002B00F0CE80996839B9934209D00A
:103C6000196829B15B6899680029F7D01433F3E724
:103C7000C3E900A5C3B283F31188D4F8542C136AA6
:103C8000002BFCD1594A0223594952085B008A4251
:103C90009BB201D9FF2BF8D90222002152484FF0E4
:103CA000800BA4F8583C4BF021FCC8204FF00008D2
:103CB00041F082FB4FF00009D4F8540C002301229C
:103CC0008DF80EB004970A9605938DF81C300D936D
:103CD0001093129306920B928DF830208DF84420A9
:103CE000CDE90833CDE90E89EFF31182102383F378
:103CF0001288D4F8543C1B6A002B37D0069B002B4B
:103D00003CD02B46D96914330029FBD1006A002826
:103D100073D0816839B9834209D0016829B14068FC
:103D200081680029F7D01430F3E7C0E900A5D2B2CA
:103D300082F31188D4F8540C036A002BFCD19DF84F
:103D40000F3013F00203B9D1019918464A788B78E5
:103D5000C2F120020978C3F1100384F84D2D84F8D4
:103D60004E3D84F84C1D15B0BDE8F08FD2B205620F
:103D700082F311881C4866F069F9DBE72B46C5E73A
:103D8000002304ADC4F85C3C72E6C0B23D6280F32F
:103D90001188154866F05AF9C8E6C3B2CCF820502D
:103DA00083F31188104866F051F909E7C3B2CCF8E3
:103DB000205083F31188504666F048F95DE791F88A
:103DC000713B013381F8713BBDE5D4F85C0C2021D7
:103DD0004AF03AF94FF0FF30DEE5D4F8547C47E67C
:103DE000014A1A60FFDE00BF1C5E002480F0FA0268
:103DF00080969800C3F800A0FFDEC0F800A0FFDEA8
:103E0000014601484BF014BA185F0024F0B42E4B61
:103E100002282E4D1F69D5F81C6742D02C4B042474
:103E20001F40294A4CF25031042C11D0D2F81031E5
:103E300024EA030313F0040F0CBF0123002363B132
:103E4000D5F81C379B1B8B42EED90320F0BC704782
:103E50001369C3F38003002BF2D137F000420DD178
:103E60000128194A27D0D2F81011C90316D54FF4EA
:103E700080311846F0BCC2F8141170471549002F64
:103E80004FF00100D1F8003E43EA0703C1F8003EBD
:103E90000D4B0EDAC3F81421F0BC70471846F0BC85
:103EA0007047D3F810710A4B0B4C1F4047F0004786
:103EB000B7E75F61CAE71169C803EFD54FF48031F6
:103EC00018465161C2E700BF00200052D0400024D4
:103ED0000000EE17C851002404000080F8B52E4EF3
:103EE00096F8FC2D012A4DD000F1784301270546B4
:103EF0000C46B3F5801F86F8FC7D33D3A0F1016337
:103F0000B3F5801F3CD200230220C6F8003EFFF725
:103F10007DFF18BB214A0227D2F80C313B43C2F87F
:103F20000C312146BFF36F8FBFF34F8F2B1B04F172
:103F300020000A68CA5004318142FAD1BFF36F8F62
:103F4000BFF34F8F3846FFF761FF012F134A1BD095
:103F5000D2F80C3123F00203C2F80C31002386F8AA
:103F6000FC3DF8BD00233846C6F8003EFFF74EFF83
:103F70000028F3D1094AD36843F00203D360D0E7A5
:103F80003846F8BD0220F8BDD36823F00203D360A1
:103F9000002386F8FC3DE4E7C851002400200052CD
:103FA000014488420ED00346074810B4074C13F86A
:103FB000012B04FB00F0994280EA0200F7D15DF882
:103FC000044B704700487047C59D1C819301000158
:103FD000094B93F80E33042B08D9053B032B08D863
:103FE00001231A4600B103701046704700230122D6
:103FF000F8E700231A46F5E7D0400024F0B5164D47
:1040000083B00E4695F8043E022B0FD14FEA102CD8
:10401000C4B241F238070023012201A9E8596044E3
:1040200006F098FA012806D003B0F0BDC0F3D41C06
:1040300000F07F04EDE795F8043E022B019B04D1CC
:1040400033F81430336003B0F0BD53F8243023F05C
:104050007043336003B0F0BDC8510024F0B50023B5
:104060000E680DE0BCF1050F17D9BEF1050F18D889
:104070000A2C16D103EB830316F8010B04EB430360
:10408000A0F13005A0F1610CA0F1410EA0F13704C0
:10409000EFB2092FE6D82C46ECE7A0F157040A2C22
:1040A000E8D00E601360F0BDDFF8F0C3DCED3E7ABF
:1040B0000CF26C632DE9F043E14DB8EE670A15F898
:1040C0009C4C2DED048B83ED000A002C77D1DFF89A
:1040D000D0E39CF87876CCF874469EF80040002F28
:1040E00041D035F8963C012F9FEDD66A07EE903A05
:1040F0009FEDD57A4FF00003F8EE677A20EE077A4D
:1041000045F8943CC6EE276A76EE876AC7EE267AB3
:1041100045ED247A27D0022F45F88C3C45ED227AD4
:1041200021D0032F45F8843C45ED207A1BD0042F85
:1041300045F87C3C45ED1E7A15D0052F45F8743CBA
:1041400045ED1C7A0FD0062F45F86C3C45ED1A7AE8
:1041500009D0072F45F8643C45ED187A03D045F89F
:104160005C3C45ED167AB94A9EF8583B92F82E23EE
:104170001C44DFEDB77A06EE902ADFEDB65A14FB49
:1041800007F720EE270AF8EEE66A9FEDB37AFFB252
:10419000B24A85EEA66A07EE907AF8EEE77ABDECB1
:1041A000048BA7EE807AF7EE477AFCEEE77A82ED91
:1041B000006A17EE903A8CF8C837BDE8F083FCEE41
:1041C000C06A9FEDA77A35F89A1C012215F89B3C2E
:1041D000F8EE661A06EE101A35F8981C07EE903ABB
:1041E000DFF8BCE216EE903AC7EE215A07EE101A3D
:1041F0009FED9C5ADFED9C6A9CF87876CEF81430DF
:10420000F8EE677ACCF874E6B8EEC77A8EF800401C
:10421000B8EE466A8CF87026CEED017A67EE857AA4
:1042200067EE266A8EED036A67EEA11ACEED046A88
:10423000CEED025A002F96D0DFED8C7AC7EB071631
:10424000A7EB07194FF0000887EE871A0EEBC6069A
:104250004FEAC909DFED863ADFED865AF1EE410AF1
:1042600009EB06009FED846A03460022DFED832AF6
:104270009FED833ADFED836A07EE902AB8EEE77A86
:1042800027EE217AFDEEC77A17EE901A20314029E9
:1042900000F2CF80B4EEE37AF0EE477AF1EE10FA56
:1042A0000CDDDFED794A9FED795AB0EE674A77EE83
:1042B000E47AB4EEC54AF1EE10FAF6DCF4EEE57AF3
:1042C000F1EE10FA0CD5DFED704A9FED715AB0EEA9
:1042D000674A77EEA47AB4EEC54AF1EE10FAF6D446
:1042E000F4EEC67AF1EE10FA40F3998073EEE77AB5
:1042F00027EEA74ADFED674AB0EE438AB7EE005AD1
:1043000024EE272AA4EE228AF0EE458AE4EE084A3B
:10431000E2EE247AF0EE454AE1EE278AE0EEA74A83
:1043200085EE289A84EEA88A77EE067ABDEEE75AE3
:1043300015EE101A203140296ED8B4EEC67AF1EE8F
:1043400010FA0CDD9FED505A9FED507AF0EE674A5F
:1043500077EEC57AF4EEC74AF1EE10FAF6DCF4EE29
:10436000E57AF1EE10FA0CD59FED475A9FED487AA9
:10437000F0EE674A77EE857AF4EEC74AF1EE10FA6E
:10438000F6D4F4EEC67AF1EE10FA3BDD73EEE77A7E
:1043900027EEA75A9FED3F7AB0EE432AF8EE004A87
:1043A00025EE274AA5EE222AA5EE027AE4EE077A48
:1043B00067EEA47A87EEA87A013283ED069A283355
:1043C000A24203ED029A83ED008AC3ED056AC3EDB4
:1043D000026AC3ED016AC3ED046AC3ED036A03ED2B
:1043E000037A03ED017AFFF647AF783086427FF417
:1043F0003BAF08F5707806F57076B8F5346F7FF44A
:104400002FAF6EE69FED247AF4EEC77AF1EE10FA44
:1044100048BF75EEE77ABBE7F0EE667ACAE79FED34
:104420001E5AF4EEC57AF1EE10FA48BF75EEE77A3F
:104430005EE7B7EE008AB0EE489AF0EE488A73E77E
:10444000C062002483F9223EBD378635D040002467
:104450006E12833A5555554048E1FA3ECC0700208C
:104460000060EA4827D4D2360AD7233C00004842ED
:10447000DB0F4940DB0F49C0DB0FC93F92E741B971
:104480009730083C00000000DB0FC940E4CB164128
:10449000E4CB16C115A82ABEDB0FC9BF0800002057
:1044A0008818002007EE900ADFEDED6AED4B002240
:1044B0009FEDED7A33F8541C2DE9F04F2DED068B6E
:1044C000B8EE679A0AEE101A33F8501C83B0B8EEB3
:1044D0004AAAE64EC6EE897A08EE901ADFEDE46A43
:1044E00033F8521C13F84E5C06F2CC7308EE101A27
:1044F000C6F81C08F8EEE88A83ED01AA3AEE0A6ACB
:10450000C6F8D857B8EEC88AC6F8DC2728EE877AEE
:1045100088FE068A83ED028A83ED007AF4EEE67A5D
:10452000F1EE10FA00F1F28207EE105AF7EE006A8F
:10453000B8EEC77AC6EE879ADFEDCE5ACE4BDFEDE6
:10454000CF3A194603F12C04B6EE006AD3ED05AA62
:10455000B7EE005A143169EE255ADFEDC94A67EE0D
:10456000866A0191B0EE004ADFF848A3C3ED045A11
:1045700086EE887A9AF8982087FE057ABDEEC77A8B
:10458000F8EEC75A17EE108A17EE101AB8F1010F9D
:10459000C7EEA56AC6F8781AB8BF4FF00108C5EE95
:1045A000257A66EEA36A8AEE267AE3EC017AC3EDF9
:1045B000006AC8EE267A37EE067A87FE047ABDEEE8
:1045C000C77A77EE867A17EE101AC7FEE47AFDEE08
:1045D000E77A01F1FF3BC6F8841A17EE901ABBF197
:1045E000230F01F10100A8BF4FF0230BC6F8881A72
:1045F00023282BEAEB7B0746A8BF23278345C8BFA8
:104600005F46A7EB0B0696FBF8F60136002A40F052
:10461000E2800AF19C01DFED9B0ADFED9B5A9FEDE2
:104620009B2A9FED9B5ADFEDA72A9FEDA73ADFED6E
:10463000A73A9FED984ADFEDA61A07EE902AB8EE4A
:10464000E76A66EE207A37EEA57AFDEEC76A16EEC7
:10465000903A2033402B00F21382F3EE026AB4EE5C
:10466000E66AF1EE10FA0CDDDFED944ADFED926AB6
:10467000B0EE471A37EE647AB4EEE61AF1EE10FAAD
:10468000F6DCB4EEC57AF1EE10FA0CD5DFED8B4A0C
:10469000DFED8B6AB0EE471A37EE247AB4EEE61AF5
:1046A000F1EE10FAF6D4B4EEE57AF1EE10FA40F33A
:1046B000FC81DFED796A36EEC77A67EE076AB0EE05
:1046C000431AB0EE630A67EE264AA6EEA21AA1EEDE
:1046D000260AFDEEE76A16EE903AA4EE807A2033C1
:1046E000402B27EE047A00F2D581DFED6C6AB4EE40
:1046F000E66AF1EE10FA40F3FE81F0EE676A9FED94
:104700006F0A9FED6D1AF0EE664A76EEC06AF4EE1F
:10471000C14AF1EE10FAF6DC9FED5F1AF4EEC14AE1
:10472000F1EE10FA13D59FED651ADFED654AB0EE94
:10473000660A76EE816AB4EEE40AF1EE10FAF6D477
:10474000DFED566AB4EEE66AF1EE10FA0CDD9FED8D
:104750005B6ADFED596AF0EE674A77EEC67AF4EEEF
:10476000E64AF1EE10FAF6DCF4EEC57AF1EE10FA54
:104770000CD59FED526ADFED526AF0EE674A77EE94
:10478000867AF4EEE64AF1EE10FAF6D4F4EEE57A23
:10479000F1EE10FA40F38181DFED3F6A76EEE77AC1
:1047A00067EEA76AF0EE434AB0EE631A27EEA66AF8
:1047B000E6EEA24AA4EEA61AE6EE017A67EE847A45
:1047C000013281ED007AC1ED017A0831242A7FF4AB
:1047D00034AFDFED33AA4FF000094FF4907200219F
:1047E000204644F80C7C44E9059B44E902686AF0E1
:1047F00077FF04F590704FF4907200216AF070FF1B
:1048000004F51574274BA342E7D10123DFED267A87
:10481000019A29EE279A8AF89830C2ED00AA002D55
:1048200000F02981DFED217A38EE4A8A204E87EEAA
:10483000A82ADFED191AA6F1140406F51177DFEDA9
:10484000142A69EE889AB1EE421AB7EE005A23464E
:1048500030460022DFED0C5ADFED0C6A3EE000BF6F
:1048600000247449C06200240AD7233C08000020B9
:104870000000FA449C534937840A0020398E633C77
:1048800000000C42C3B8B23DDB0FC93F000000007E
:10489000DB0F49C072F97F3FDB0F49400000104237
:1048A000BC297E3FAC11002027D4D23600004842FC
:1048B000E807002000110020E4CB1641DB0FC940BF
:1048C000E4CB16C192E741B99730083C15A82ABE3F
:1048D000DB0FC9BF000010C20000807F07EE902AE6
:1048E000B6EE007AF8EEE77A77EE877AB0EE4A7A9B
:1048F000A7EEA97AF0EE477A29EE077AE0EC017A82
:10490000FDEEC77A17EE901A2031402900F2D580CB
:10491000B4EEE17AF0EE477AF1EE10FA0CDD1FED1D
:10492000194A5FED1B4AB0EE676A77EEC47AB4EEBF
:10493000E46AF1EE10FAF6DCF4EEE27AF1EE10FA47
:104940000CD51FED224A5FED224AB0EE676A77EE82
:10495000847AB4EEE46AF1EE10FAF6D4F4EEE57A75
:10496000F1EE10FA40F3B38071EEE77A67EEA74AF2
:104970005FED2C3A1FED2C4A1FED2C6AA4EEA34AE2
:1049800067EEA43AA4EE246AF0EE454AE3EE867A96
:10499000B0EE456AE1EE274AA2EE276A84EE864A27
:1049A000C5EE064A77EE257AFDEEE73A13EE901A49
:1049B0002031402900F28880B4EEE57AF1EE10FA59
:1049C0000CDD1FED423A5FED443AB0EE677A77EEC8
:1049D000C37AB4EEE37AF1EE10FAF6DCF4EEE27AA2
:1049E000F1EE10FA0CD51FED4B3A5FED4B3AB0EEFD
:1049F000677A77EE837AB4EEE37AF1EE10FAF6D4C2
:104A0000F4EEE57AF1EE10FA6BDD71EEE77A27EE5F
:104A1000A73A1FED540A5FED543AF8EE000A1FED75
:104A2000557AE3EE003A23EE270AA3EE237AE0EE6E
:104A3000077A67EEA07A87EE867A0132C3ED154ACF
:104A40002833AA42C3ED0D4A83ED0F4A83ED145A71
:104A5000C3ED116AC3ED106AC3ED136AC3ED126AA8
:104A600083ED0C7A83ED0E7A7FF438AFC8341436B8
:104A7000A7427FF4EAAE03B0BDEC068BBDE8F08F31
:104A8000FDEEE76AB0EE427A16EE903A2033402B04
:104A90007FF62BAEF0EE427A92E6F4EEE17AF1EE9A
:104AA00010FA48BF75EE677A7AE6B4EEE17AF1EE75
:104AB00010FA48BF35EE477AFFE5B7EE004AF0EE50
:104AC000444AB0EE446A6DE7F0EE667AB3E71FED54
:104AD000806AF4EEC67AF1EE10FA48BF72EEE77A19
:104AE00044E71FED857AF4EEC77AF1EE10FA48BF7D
:104AF00072EEE77A8BE75FED896AB4EEE66AF1EE73
:104B000010FA7FF531AEF0EE676A0CE615465FED00
:104B10008E9AC6F8D8270FE5084800230246117878
:104B20000632022904D00133062BF8D10020704749
:104B300003EB430300EB4300704700BFE01E00247B
:104B40000021094B00B5084683B043F84C1C35F0F2
:104B500099FF0422054B06200DEB0201019335F06D
:104B600085FF03B05DF804FBC06200245475C52ABC
:104B700070B5461E00F13105344614F8011F601E61
:104B8000FF29A0EB060002D0C0B235F07BFFAC429B
:104B9000F3D1A02040F2E9345BF0F6F901210220C4
:104BA00035F070FF01E0013C04D04220FFF728F906
:104BB0000028F8D16220FFF723F91321242035F0D3
:104BC00061FF2520092135F05DFFA020BDE8704080
:104BD0005BF0DAB938B50C4C0546D522A11C51F072
:104BE000D5FD2B68A342A3EB0400C5E900430AD01E
:104BF00004F14002611C2960237802F8013BD5E9E9
:104C00000041A142F6D138BD78620024214B212811
:104C100010B5A3F1080184B04FF0C804A3F1470216
:104C200003F8484CCDE9022118D00CD802281ED038
:104C3000082825D102A8019011F0A2FC0198FFF7E5
:104C4000C9FF04B010BD29281AD102A8019011F0A3
:104C50004FFB0198FFF7BEFF04B010BD02A8019002
:104C600011F090FB0198FFF7B5FF04B010BD02A84A
:104C7000019011F0D1FC0198FFF7ACFF04B010BD1A
:104C800002A8019011F0F2FB0198FFF7A3FF04B016
:104C900010BD00BFC062002400B5182383B00A789D
:104CA0008DF80430030A8DF807208DF805308DF853
:104CB00006005BF027F8042304480DEB03021146BD
:104CC0004AF0B6FC03B05DF804FB00BF185F002497
:104CD00010B5192382B000220C468DF80030030A6B
:104CE0008DF803208DF801308DF802005BF00AF892
:104CF0006A460523044811464AF09AFC9DF80430A0
:104D0000237002B010BD00BF185F002430B54CF214
:104D100005028DB0002304460321ADF8002001AD4B
:104D200001228DF802300B938DF814208DF8282085
:104D3000CDF808D0CDE90633CDE90833CDE90351EC
:104D40004AF0BCFC204602A949F08EFF20464AF0FA
:104D5000B5FC9DF806000DB030BD00BF2DE9F04157
:104D60006E4C82B06E4E2422002120466AF0B8FCC0
:104D7000002396F839506362002D36D1D4F8943F61
:104D800043B39B6A33B367489847836813B3038878
:104D90000022624C013B214620469BB20678063039
:104DA000032E1BD00132062AF8D1002208780631E2
:104DB000022800F093800132062AF7D1616A0529A2
:104DC00008D002FB01420131616202200021938080
:104DD00010705180284602B0BDE8F081062303FB25
:104DE00002425388013B9BB2DFE706F1400396F88D
:104DF0003800F36308B90025C0E746F0CDFEB06483
:104E000018B183790BB1412BF5D1294646484AF0B8
:104E1000C9F905460028EED0F36B424A9868C3F8FA
:104E2000942008B12023C3800D214FF0010849F0E0
:104E30000BF9F36B0027986849F0E0F93B484AF01A
:104E4000E5F9F36B024632209A80C4F8B43F84F847
:104E5000B88F43F03DFC04239F21F06B0DEB030260
:104E600001974AF0EFFA9DF805709DF804303F0273
:104E70009DF806102B4847EA03470F43394654F084
:104E800007FD00287FF47AAF3846FBF79FFA034608
:104E900000287FF473AF9DF806009DF805200002FE
:104EA0009DF8071040EA0240214A0843904219D079
:104EB000A4F8983FA4F8A43FC4F89C3FC4F8A03FCE
:104EC000FBF784FA034600287FF458AF96F83800C1
:104ED0001D4646F061FE49F0A7FE4FE7062101FBA3
:104EE000024272E7402313484FF400314FF0006252
:104EF000A4F8A43FC4F8980FC4F89C1FC4F8A02FCE
:104F000084F8A68FFBF77CF8064884F8AD8F54F040
:104F10000BFC094BC4F8943F30E700BFE01E0024AF
:104F2000C0620024742E002400630024404B4C0017
:104F300021AAEF000004000848F90A0830B503462A
:104F400083B0084C00250DF10600C4F8043FADF80D
:104F50000650DB6A984703462846C4F80C3F03B066
:104F600030BD00BFE01E00242DE9F04FBC4C0023F3
:104F700002220927BB4D04F64C4604F1280094F8A0
:104F8000E5138BB0E762C4F82C64C4F8280FA5625F
:104F9000A365E363A363E36422646263C4E911333A
:104FA000C4E91433002900F086811E460321AD4B6D
:104FB00084F8E513DB6B13F48078AB6818BFD4F882
:104FC000388023F0010308BFC4F83880012AAB60A1
:104FD00040F0DD80AA6BA44B22F48032E16DAA631D
:104FE0000129EA6803EA0203EB60EB6823F440134B
:104FF000EB6000F0A68128460FF074FB0746B8F17D
:10500000010F17D007B3022384F8E533974B93F8C9
:10501000D850012D00F00881A36A80210120596237
:105020005A6A42F480029A62FBF70EF800200BB035
:10503000BDE8F08FAB6843F00603AB60AB6843F0AC
:105040002003AB60002FDED1A36A3220DA6822F0A1
:10505000C042DA60DA6842F08042DA600DF04AFD60
:10506000E66A46B33A4601253946C2EBC203501CF4
:1050700004EB830383F86420A3F86A20C2B283F8A8
:105080006550B24283F867109967C3E91B11ECD3EE
:105090000022C7EBC703791C04EB830383F8247257
:1050A000CFB283F82522B74283F82722C3F83822EB
:1050B000C3E98B22EDD30023A56AD4F834C0194686
:1050C000D4F83890D4F85480D4E91002019203F156
:1050D0004002013305EB82020F2B5160F7D1B8F18A
:1050E000000F40F02181D5F8043805F5006743F042
:1050F00002037B60AB6B23F40013AB632B6843F0BC
:1051000040032B602B6843F080032B6000230128B1
:10511000C5F8003E3B683B603B6800F01C8143F0F3
:1051200003033B60102128460FF0ACFC1023504ACB
:105130002B61D2F81C1705E0D2F81C375B1A052B3F
:1051400000F2FD802B69DB06F6D4003818BF012081
:1051500000223A617A61FA6166B305F510634FF097
:10516000904A4FF0006B11464FF67F3E844607E0B1
:10517000196001321961C3F808E02033B2427BD0D4
:1051800018680028F4DA92B1C3F800A0F1E7EB68E0
:10519000284643F04003EB600FF0A4FAAB6B0746E0
:1051A000002E40F0C88043F48033AB6327E7C3F898
:1051B00000B0DEE73B6900216FF0804223F480738A
:1051C0003B61A9616A61B9F1000F03D1AB6943F09A
:1051D0001003AB61AA69274B1343AB61019B1BB161
:1051E000AB6943F00803AB61B8F1010F00F0AE808A
:1051F00000287FF408AF0123E26C84F860009A4233
:1052000084F8E533A36A00F0AE80D3F804280320C5
:1052100042F00202C3F804280DF06CFC134B93F823
:10522000D850012D7FF4F8AE53F046FF00287FF4EC
:10523000F3AEA36A8022284640215A625A6A42F499
:1052400000129A62FAF700FF20210220FAF7FCFE12
:1052500040210320FAF7F8FE00200BB0BDE8F08FE4
:10526000E01E002400000840BFFFBDFFC062002414
:10527000D040002400383C800022604605F53063B1
:105280004FF0904A4FF0006B11464FF67F3EB44608
:1052900007E0196001321961C3F808E02033624564
:1052A00088D01E68002EF4DA12B1C3F800A0F1E72E
:1052B000C3F800B0EEE701F0FF06364B03204FF4D1
:1052C000C05584F8E463D3F8E01041F00101C3F85D
:1052D000E01005A9D3F8E03006920A2203F001039A
:1052E00008902D480493049B07960595099209F0B0
:1052F00099FA636D012B43D0264B06216520D3F824
:10530000D82042F00062C3F8D820D3F8D83003F098
:1053100000630393039BFBF72BF920221F4BA56A25
:10532000DA60266D226C41E6AB6B05F5006743F44D
:105330000013AB63EAE623F48033AB635FE601203E
:1053400006E7EB6843F48013EB6054E6AA69144B5C
:105350001343AB614CE7BCF1000F3FF4E2AE43F006
:1053600001033B60DEE684F81C049969C4F8242438
:1053700041F000610B4A9961596D0A435A6544E74F
:105380004FF4007305A904480593CDE9066609F0BA
:1053900049FAB1E7004402580000025800E100E079
:1053A000040000400300001010B51A4C94F8DD0012
:1053B000C0B9194B83F8610CC3F8640C94F8E03061
:1053C000012B05D0022B21D0D4F8E4301BB910BD3D
:1053D000124BC4F8E43012495B68A1F10C00BDE83F
:1053E0001040184746F0D8FB94F8DF200A49003AED
:1053F000C1F8640C18BF012281F8612C0028DDD0AF
:105400001F222021C28048F01FFED7E7054BC4F8B9
:10541000E430E0E7C0620024D040002420030024F0
:10542000A8630024FC02002499B10A6B824216D9B9
:10543000154BD3F83421914221D34C3991421ED3DC
:105440000B6B9842F9D38B6B9842F6D80B461846F3
:1054500070470D4BD3F834110A6B904212D30B688E
:105460000BB9F4E70A6B90420B4602D38A6B904269
:10547000EDD951F84C3F002BF4D11846704700236A
:10548000184670470A46D8E7C06200242DE9F04765
:10549000CC0143D1034622494FF0FF32022443F8A6
:1054A000081B7E2642601846DFF878802644051DDA
:1054B0006FF07047D8F838914FF0010A013E494625
:1054C00008E0A3421CD0631C45F8043C321B1C4678
:1054D0000435CAB10B6BA34202D88B6BA34204D232
:1054E0002046FFF7A1FF014690B10A794B6B002AD5
:1054F000E7D1A34204D0E6D2631C45F8042CE5E7CB
:10550000631C45F8047CE1E7C8F83811BDE8F08772
:10551000321B631C494645F804ACD8E78026C3E734
:10552000F8FFFF0FC0620024036870B55E6A26B101
:1055300033460522BDE87040184704460D464E1D0F
:1055400000E023689B68204698470028F9D023682C
:10555000204615F8011B1B689847B542F1D170BD74
:10556000036870B55E6A26B133460822BDE8704014
:10557000184704460D4601F1080600E023689B68C1
:10558000204698470028F9D02368204615F8011BCB
:105590001B689847B542F1D170BD00BF0A449142E3
:1055A00019D0013910B4541E11F8012F08235040AE
:1055B00002E0013BD0B209D010F0800F4FEA400268
:1055C000F7D082F0D500013BC0B2F5D1A142EBD1BA
:1055D0005DF8044B704770472DE9F0470023194DE3
:1055E00084B0074695F9459105F5A6764FF0B60AC1
:1055F00000EB010805F57B751C46D6F800C0304667
:1056000000226946E036BCF1000F14D09CF838C087
:10561000BCF1140F0FD019F1020F01D0CC450AD103
:10562000CDE90244CDE90078ADF808A08DF80D4031
:1056300035F070FE0346B542DFD1184604B0BDE830
:10564000F08700BFC06200242DE9F0479AB00446FD
:105650000D4617469846DDF89090DDE9226A02E093
:10566000206843F02BFB206843F030FB0028F7D183
:105670000146642201A86AF033F8264B8DF80450E5
:10568000CDF85CA00293002D40D0AB1E012B3FD97A
:10569000042D14BF002303231F4A8DF80530012376
:1056A000D2F82C2F039616448DF85B30CDE9059483
:1056B000049637B14246394607A869F09FFF8DF836
:1056C0005A80164E002396F82E941893B9F1000FC5
:1056D00019D196F82D04642201A902FB006000F59F
:1056E000866069F08BFF012386F82D9486F82E34AE
:1056F000236843B143463A46294620461AB0BDE8DE
:10570000F04718F069BE1AB0BDE8F0870523C3E77B
:105710000223C1E7AC660024E01E0024C06200241E
:105720000C480D4BD0F8B01410B48A1E0B4C22312B
:10573000C0F8A034B0F8CE341B01A4FB03C3DB08CF
:10574000A3F5B06322F8023F9142F3D15DF8044B18
:10575000704700BFC0620024C1710608CDCCCCCC1C
:1057600070B5084C251D2E4614F8010B37F036FD98
:1057700028B10378B44205F8013BF5D170BDFF2391
:10578000F8E700BFB46700242DE9F0471C4F01265D
:105790004FF03C094FF0000807F10805B24617F832
:1057A000010B46F0F9F9044690B180F80690C671F5
:1057B000FB7803F07F02012A17D013F0800F2046F8
:1057C0000CD185F8048048F013FD85F805802C6025
:1057D00001360835052EE2D1BDE8F08785F804A032
:1057E00048F00CFD85F805A0F1E71B0605D4012162
:1057F000204648F029FCFB78DFE748F0FFFCF6E79D
:10580000BC670024684B2DE9F04F4FF0010885B0CC
:1058100003F10C0BDFF8ACA10293029B13F8016BB0
:105820000293002E00F0B380340906F00F02013C11
